{
    "contractName": "Aluguel",
    "abi": [
        {
            "inputs": [
                {
                    "internalType": "string",
                    "name": "_nomeLocador",
                    "type": "string"
                },
                {
                    "internalType": "string",
                    "name": "_nomeLocatario",
                    "type": "string"
                },
                {
                    "internalType": "address payable",
                    "name": "_contaLocador",
                    "type": "address"
                },
                {
                    "internalType": "uint256",
                    "name": "_valorDoAluguel",
                    "type": "uint256"
                }
            ],
            "stateMutability": "payable",
            "type": "constructor"
        },
        {
            "inputs": [
                {
                    "internalType": "uint256",
                    "name": "valorCerto",
                    "type": "uint256"
                }
            ],
            "name": "aditamentoValorAluguel",
            "outputs": [],
            "stateMutability": "nonpayable",
            "type": "function"
        },
        {
            "inputs": [
                {
                    "internalType": "uint256",
                    "name": "mesesRestantes",
                    "type": "uint256"
                },
                {
                    "internalType": "uint256",
                    "name": "percentual",
                    "type": "uint256"
                }
            ],
            "name": "aplicaMulta",
            "outputs": [],
            "stateMutability": "nonpayable",
            "type": "function"
        },
        {
            "inputs": [],
            "name": "contaLocador",
            "outputs": [
                {
                    "internalType": "address payable",
                    "name": "",
                    "type": "address"
                }
            ],
            "stateMutability": "view",
            "type": "function"
        },
        {
            "inputs": [],
            "name": "historicoDePagto",
            "outputs": [
                {
                    "internalType": "uint256",
                    "name": "valorTotalRecebido",
                    "type": "uint256"
                },
                {
                    "internalType": "uint256",
                    "name": "numAluguelRecebido",
                    "type": "uint256"
                }
            ],
            "stateMutability": "view",
            "type": "function"
        },
        {
            "inputs": [],
            "name": "locador",
            "outputs": [
                {
                    "internalType": "string",
                    "name": "",
                    "type": "string"
                }
            ],
            "stateMutability": "view",
            "type": "function"
        },
        {
            "inputs": [],
            "name": "locatario",
            "outputs": [
                {
                    "internalType": "string",
                    "name": "",
                    "type": "string"
                }
            ],
            "stateMutability": "view",
            "type": "function"
        },
        {
            "inputs": [],
            "name": "numeroMaximoLegalDeAlugueisParaMulta",
            "outputs": [
                {
                    "internalType": "uint256",
                    "name": "",
                    "type": "uint256"
                }
            ],
            "stateMutability": "view",
            "type": "function"
        },
        {
            "inputs": [],
            "name": "owner",
            "outputs": [
                {
                    "internalType": "address",
                    "name": "",
                    "type": "address"
                }
            ],
            "stateMutability": "view",
            "type": "function"
        },
        {
            "inputs": [],
            "name": "quantosPagamentosJaForamFeitos",
            "outputs": [
                {
                    "internalType": "uint256",
                    "name": "",
                    "type": "uint256"
                }
            ],
            "stateMutability": "view",
            "type": "function"
        },
        {
            "inputs": [
                {
                    "internalType": "uint256",
                    "name": "percentualReajuste",
                    "type": "uint256"
                }
            ],
            "name": "reajustaAluguel",
            "outputs": [],
            "stateMutability": "nonpayable",
            "type": "function"
        },
        {
            "inputs": [],
            "name": "receberPagamento",
            "outputs": [],
            "stateMutability": "payable",
            "type": "function"
        },
        {
            "inputs": [
                {
                    "internalType": "uint256",
                    "name": "_parametro",
                    "type": "uint256"
                }
            ],
            "name": "retornaTexto",
            "outputs": [
                {
                    "internalType": "string",
                    "name": "",
                    "type": "string"
                }
            ],
            "stateMutability": "view",
            "type": "function"
        },
        {
            "inputs": [
                {
                    "internalType": "uint256",
                    "name": "mesesRestantes",
                    "type": "uint256"
                },
                {
                    "internalType": "uint256",
                    "name": "totalMesesContrato",
                    "type": "uint256"
                }
            ],
            "name": "simulaMulta",
            "outputs": [
                {
                    "internalType": "uint256",
                    "name": "valorMulta",
                    "type": "uint256"
                }
            ],
            "stateMutability": "view",
            "type": "function"
        },
        {
            "inputs": [
                {
                    "internalType": "uint256",
                    "name": "",
                    "type": "uint256"
                }
            ],
            "name": "statusPagamento",
            "outputs": [
                {
                    "internalType": "uint256",
                    "name": "quandoFoiPago",
                    "type": "uint256"
                },
                {
                    "internalType": "uint256",
                    "name": "valorPago",
                    "type": "uint256"
                }
            ],
            "stateMutability": "view",
            "type": "function"
        },
        {
            "inputs": [],
            "name": "valorAtualDoAluguel",
            "outputs": [
                {
                    "internalType": "uint256",
                    "name": "",
                    "type": "uint256"
                }
            ],
            "stateMutability": "view",
            "type": "function"
        }
    ],
    "bytecode": "608060405260405162000ba438038062000ba483398101604081905262000026916200013e565b600162000034858262000260565b50600062000043848262000260565b50600255600480546001600160a01b039092166001600160a01b03199283161790556005805490911633179055506200032c9050565b634e487b7160e01b600052604160045260246000fd5b600082601f830112620000a157600080fd5b81516001600160401b0380821115620000be57620000be62000079565b604051601f8301601f19908116603f01168101908282118183101715620000e957620000e962000079565b816040528381526020925086838588010111156200010657600080fd5b600091505b838210156200012a57858201830151818301840152908201906200010b565b600093810190920192909252949350505050565b600080600080608085870312156200015557600080fd5b84516001600160401b03808211156200016d57600080fd5b6200017b888389016200008f565b955060208701519150808211156200019257600080fd5b50620001a1878288016200008f565b604087015190945090506001600160a01b0381168114620001c157600080fd5b6060959095015193969295505050565b600181811c90821680620001e657607f821691505b6020821081036200020757634e487b7160e01b600052602260045260246000fd5b50919050565b601f8211156200025b57600081815260208120601f850160051c81016020861015620002365750805b601f850160051c820191505b81811015620002575782815560010162000242565b5050505b505050565b81516001600160401b038111156200027c576200027c62000079565b62000294816200028d8454620001d1565b846200020d565b602080601f831160018114620002cc5760008415620002b35750858301515b600019600386901b1c1916600185901b17855562000257565b600085815260208120601f198616915b82811015620002fd57888601518255948401946001909101908401620002dc565b50858210156200031c5787850151600019600388901b60f8161c191681555b5050505050600190811b01905550565b610868806200033c6000396000f3fe6080604052600436106100e85760003560e01c80638d2802d91161008a578063af74c59a11610059578063af74c59a1461024d578063b235612a1461026d578063b3fbc3241461028d578063e862b9e1146102ad57600080fd5b80638d2802d9146101d85780638da5cb5b146101e0578063960daf4614610218578063aec7f99c1461023857600080fd5b8063409bb8ab116100c6578063409bb8ab146101575780635098e165146101795780635a6618721461018e57806368f01ee9146101c357600080fd5b806303deed58146100ed5780632d0581501461012057806335f580f014610135575b600080fd5b3480156100f957600080fd5b5061010d6101083660046106de565b6102c2565b6040519081526020015b60405180910390f35b34801561012c57600080fd5b5060025461010d565b34801561014157600080fd5b506101556101503660046106de565b6102f4565b005b34801561016357600080fd5b5061016c610397565b6040516101179190610700565b34801561018557600080fd5b5061016c610425565b34801561019a57600080fd5b506101ae6101a936600461074e565b610432565b60408051928352602083019190915201610117565b3480156101cf57600080fd5b5061010d600381565b610155610460565b3480156101ec57600080fd5b50600554610200906001600160a01b031681565b6040516001600160a01b039091168152602001610117565b34801561022457600080fd5b5061015561023336600461074e565b61055a565b34801561024457600080fd5b506101ae61060e565b34801561025957600080fd5b50600454610200906001600160a01b031681565b34801561027957600080fd5b5061015561028836600461074e565b600255565b34801561029957600080fd5b5061016c6102a836600461074e565b610675565b3480156102b957600080fd5b5060035461010d565b600060036002546102d3919061077d565b90506102df8282610794565b90506102eb838261077d565b90505b92915050565b601e82106103495760405162461bcd60e51b815260206004820152601c60248201527f506572696f646f20646520636f6e747261746f20696e76616c69646f0000000060448201526064015b60405180910390fd5b60005b8281101561039257606482600254610364919061077d565b61036e9190610794565b60025461037b91906107b6565b600290815561038b9082906107b6565b905061034c565b505050565b600080546103a4906107c9565b80601f01602080910402602001604051908101604052809291908181526020018280546103d0906107c9565b801561041d5780601f106103f25761010080835404028352916020019161041d565b820191906000526020600020905b81548152906001019060200180831161040057829003601f168201915b505050505081565b600180546103a4906107c9565b6003818154811061044257600080fd5b60009182526020909120600290910201805460019091015490915082565b6002543410156104a75760405162461bcd60e51b815260206004820152601260248201527156616c6f7220696e737566696369656e746560701b6044820152606401610340565b6004546040516001600160a01b03909116903480156108fc02916000818181858888f193505050501580156104e0573d6000803e3d6000fd5b506040805180820190915242815234602082019081526003805460018101825560009190915291517fc2575a0e9e593c00f959f8c92f12db2869c3395a3b0502d05e2516446f71f85b600290930292830155517fc2575a0e9e593c00f959f8c92f12db2869c3395a3b0502d05e2516446f71f85c90910155565b6005546001600160a01b031633146105ce5760405162461bcd60e51b815260206004820152603160248201527f736f6d656e7465206f20646f6e6f20646f20696d6f76656c20706f6465207265604482015270185a9d5cdd185c881bc8185b1d59dd595b607a1b6064820152608401610340565b60148111156105db575060145b60006064826002546105ed919061077d565b6105f79190610794565b90508060025461060791906107b6565b6002555050565b60008060005b600354811015610670576003818154811061063157610631610803565b9060005260206000209060020201600101548361064e91906107b6565b92508161065a81610819565b925050808061066890610819565b915050610614565b509091565b606061138882600254610688919061077d565b11156106b457505060408051808201909152600a8152694d7569746f206361726f60b01b602082015290565b505060408051808201909152600e81526d141c9958dbc81c985e9bd85d995b60921b602082015290565b600080604083850312156106f157600080fd5b50508035926020909101359150565b600060208083528351808285015260005b8181101561072d57858101830151858201604001528201610711565b506000604082860101526040601f19601f8301168501019250505092915050565b60006020828403121561076057600080fd5b5035919050565b634e487b7160e01b600052601160045260246000fd5b80820281158282048414176102ee576102ee610767565b6000826107b157634e487b7160e01b600052601260045260246000fd5b500490565b808201808211156102ee576102ee610767565b600181811c908216806107dd57607f821691505b6020821081036107fd57634e487b7160e01b600052602260045260246000fd5b50919050565b634e487b7160e01b600052603260045260246000fd5b60006001820161082b5761082b610767565b506001019056fea2646970667358221220161555fed5227bdbe452eb3102cecb5da3870c643d0cba08dba80b6b345e8fed64736f6c63430008130033",
    "sourcePath": "/home/felipph/dev/default_workspace/nuclea-aula05.sol",
    "compiler": {
        "name": "solc",
        "version": "0.8.19+commit.7dd6d404"
    },
    "functionHashes": {
        "aditamentoValorAluguel(uint256)": "b235612a",
        "aplicaMulta(uint256,uint256)": "35f580f0",
        "contaLocador()": "af74c59a",
        "historicoDePagto()": "aec7f99c",
        "locador()": "5098e165",
        "locatario()": "409bb8ab",
        "numeroMaximoLegalDeAlugueisParaMulta()": "68f01ee9",
        "owner()": "8da5cb5b",
        "quantosPagamentosJaForamFeitos()": "e862b9e1",
        "reajustaAluguel(uint256)": "960daf46",
        "receberPagamento()": "8d2802d9",
        "retornaTexto(uint256)": "b3fbc324",
        "simulaMulta(uint256,uint256)": "03deed58",
        "statusPagamento(uint256)": "5a661872",
        "valorAtualDoAluguel()": "2d058150"
    },
    "gasEstimates": {
        "creation": {
            "codeDepositCost": "430400",
            "executionCost": "infinite",
            "totalCost": "infinite"
        },
        "external": {
            "aditamentoValorAluguel(uint256)": "22356",
            "aplicaMulta(uint256,uint256)": "infinite",
            "contaLocador()": "2359",
            "historicoDePagto()": "infinite",
            "locador()": "infinite",
            "locatario()": "infinite",
            "numeroMaximoLegalDeAlugueisParaMulta()": "273",
            "owner()": "2382",
            "quantosPagamentosJaForamFeitos()": "2369",
            "reajustaAluguel(uint256)": "infinite",
            "receberPagamento()": "infinite",
            "retornaTexto(uint256)": "infinite",
            "simulaMulta(uint256,uint256)": "infinite",
            "statusPagamento(uint256)": "6798",
            "valorAtualDoAluguel()": "2327"
        }
    }
}