{
	"nuclea-aula05.sol": {
		"Aluguel": {
			"abi": [
				{
					"inputs": [
						{
							"internalType": "string",
							"name": "_nomeLocador",
							"type": "string"
						},
						{
							"internalType": "string",
							"name": "_nomeLocatario",
							"type": "string"
						},
						{
							"internalType": "address payable",
							"name": "_contaLocador",
							"type": "address"
						},
						{
							"internalType": "uint256",
							"name": "_valorDoAluguel",
							"type": "uint256"
						}
					],
					"stateMutability": "payable",
					"type": "constructor"
				},
				{
					"inputs": [
						{
							"internalType": "uint256",
							"name": "valorCerto",
							"type": "uint256"
						}
					],
					"name": "aditamentoValorAluguel",
					"outputs": [],
					"stateMutability": "nonpayable",
					"type": "function"
				},
				{
					"inputs": [
						{
							"internalType": "uint256",
							"name": "mesesRestantes",
							"type": "uint256"
						},
						{
							"internalType": "uint256",
							"name": "percentual",
							"type": "uint256"
						}
					],
					"name": "aplicaMulta",
					"outputs": [],
					"stateMutability": "nonpayable",
					"type": "function"
				},
				{
					"inputs": [],
					"name": "contaLocador",
					"outputs": [
						{
							"internalType": "address payable",
							"name": "",
							"type": "address"
						}
					],
					"stateMutability": "view",
					"type": "function"
				},
				{
					"inputs": [],
					"name": "historicoDePagto",
					"outputs": [
						{
							"internalType": "uint256",
							"name": "valorTotalRecebido",
							"type": "uint256"
						},
						{
							"internalType": "uint256",
							"name": "numAluguelRecebido",
							"type": "uint256"
						}
					],
					"stateMutability": "view",
					"type": "function"
				},
				{
					"inputs": [],
					"name": "locador",
					"outputs": [
						{
							"internalType": "string",
							"name": "",
							"type": "string"
						}
					],
					"stateMutability": "view",
					"type": "function"
				},
				{
					"inputs": [],
					"name": "locatario",
					"outputs": [
						{
							"internalType": "string",
							"name": "",
							"type": "string"
						}
					],
					"stateMutability": "view",
					"type": "function"
				},
				{
					"inputs": [],
					"name": "numeroMaximoLegalDeAlugueisParaMulta",
					"outputs": [
						{
							"internalType": "uint256",
							"name": "",
							"type": "uint256"
						}
					],
					"stateMutability": "view",
					"type": "function"
				},
				{
					"inputs": [],
					"name": "owner",
					"outputs": [
						{
							"internalType": "address",
							"name": "",
							"type": "address"
						}
					],
					"stateMutability": "view",
					"type": "function"
				},
				{
					"inputs": [],
					"name": "quantosPagamentosJaForamFeitos",
					"outputs": [
						{
							"internalType": "uint256",
							"name": "",
							"type": "uint256"
						}
					],
					"stateMutability": "view",
					"type": "function"
				},
				{
					"inputs": [
						{
							"internalType": "uint256",
							"name": "percentualReajuste",
							"type": "uint256"
						}
					],
					"name": "reajustaAluguel",
					"outputs": [],
					"stateMutability": "nonpayable",
					"type": "function"
				},
				{
					"inputs": [],
					"name": "receberPagamento",
					"outputs": [],
					"stateMutability": "payable",
					"type": "function"
				},
				{
					"inputs": [
						{
							"internalType": "uint256",
							"name": "_parametro",
							"type": "uint256"
						}
					],
					"name": "retornaTexto",
					"outputs": [
						{
							"internalType": "string",
							"name": "",
							"type": "string"
						}
					],
					"stateMutability": "view",
					"type": "function"
				},
				{
					"inputs": [
						{
							"internalType": "uint256",
							"name": "mesesRestantes",
							"type": "uint256"
						},
						{
							"internalType": "uint256",
							"name": "totalMesesContrato",
							"type": "uint256"
						}
					],
					"name": "simulaMulta",
					"outputs": [
						{
							"internalType": "uint256",
							"name": "valorMulta",
							"type": "uint256"
						}
					],
					"stateMutability": "view",
					"type": "function"
				},
				{
					"inputs": [
						{
							"internalType": "uint256",
							"name": "",
							"type": "uint256"
						}
					],
					"name": "statusPagamento",
					"outputs": [
						{
							"internalType": "uint256",
							"name": "quandoFoiPago",
							"type": "uint256"
						},
						{
							"internalType": "uint256",
							"name": "valorPago",
							"type": "uint256"
						}
					],
					"stateMutability": "view",
					"type": "function"
				},
				{
					"inputs": [],
					"name": "valorAtualDoAluguel",
					"outputs": [
						{
							"internalType": "uint256",
							"name": "",
							"type": "uint256"
						}
					],
					"stateMutability": "view",
					"type": "function"
				}
			],
			"devdoc": {
				"kind": "dev",
				"methods": {},
				"version": 1
			},
			"evm": {
				"assembly": "    /* \"nuclea-aula05.sol\":676:3844  contract Aluguel {... */\n  mstore(0x40, 0x80)\n    /* \"nuclea-aula05.sol\":1169:1545  constructor(    string memory _nomeLocador, ... */\n  mload(0x40)\n  sub(codesize, bytecodeSize)\n  dup1\n  bytecodeSize\n  dup4\n  codecopy\n  dup2\n  dup2\n  add\n  0x40\n  mstore\n  dup2\n  add\n  swap1\n  tag_1\n  swap2\n  swap1\n  tag_2\n  jump\t// in\ntag_1:\n    /* \"nuclea-aula05.sol\":1391:1403  _nomeLocador */\n  dup4\n    /* \"nuclea-aula05.sol\":1381:1388  locador */\n  0x01\n    /* \"nuclea-aula05.sol\":1381:1403  locador = _nomeLocador */\n  swap1\n  dup2\n  tag_5\n  swap2\n  swap1\n  tag_6\n  jump\t// in\ntag_5:\n  pop\n    /* \"nuclea-aula05.sol\":1425:1439  _nomeLocatario */\n  dup3\n    /* \"nuclea-aula05.sol\":1413:1422  locatario */\n  0x00\n    /* \"nuclea-aula05.sol\":1413:1439  locatario = _nomeLocatario */\n  swap1\n  dup2\n  tag_7\n  swap2\n  swap1\n  tag_6\n  jump\t// in\ntag_7:\n  pop\n    /* \"nuclea-aula05.sol\":1457:1472  _valorDoAluguel */\n  dup1\n    /* \"nuclea-aula05.sol\":1449:1454  valor */\n  0x02\n    /* \"nuclea-aula05.sol\":1449:1472  valor = _valorDoAluguel */\n  dup2\n  swap1\n  sstore\n  pop\n    /* \"nuclea-aula05.sol\":1497:1510  _contaLocador */\n  dup2\n    /* \"nuclea-aula05.sol\":1482:1494  contaLocador */\n  0x04\n  0x00\n    /* \"nuclea-aula05.sol\":1482:1510  contaLocador = _contaLocador */\n  0x0100\n  exp\n  dup2\n  sload\n  dup2\n  0xffffffffffffffffffffffffffffffffffffffff\n  mul\n  not\n  and\n  swap1\n  dup4\n  0xffffffffffffffffffffffffffffffffffffffff\n  and\n  mul\n  or\n  swap1\n  sstore\n  pop\n    /* \"nuclea-aula05.sol\":1528:1538  msg.sender */\n  caller\n    /* \"nuclea-aula05.sol\":1520:1525  owner */\n  0x05\n  0x00\n    /* \"nuclea-aula05.sol\":1520:1538  owner = msg.sender */\n  0x0100\n  exp\n  dup2\n  sload\n  dup2\n  0xffffffffffffffffffffffffffffffffffffffff\n  mul\n  not\n  and\n  swap1\n  dup4\n  0xffffffffffffffffffffffffffffffffffffffff\n  and\n  mul\n  or\n  swap1\n  sstore\n  pop\n    /* \"nuclea-aula05.sol\":1169:1545  constructor(    string memory _nomeLocador, ... */\n  pop\n  pop\n  pop\n  pop\n    /* \"nuclea-aula05.sol\":676:3844  contract Aluguel {... */\n  jump(tag_8)\n    /* \"#utility.yul\":7:82   */\ntag_9:\n    /* \"#utility.yul\":40:46   */\n  0x00\n    /* \"#utility.yul\":73:75   */\n  0x40\n    /* \"#utility.yul\":67:76   */\n  mload\n    /* \"#utility.yul\":57:76   */\n  swap1\n  pop\n    /* \"#utility.yul\":7:82   */\n  swap1\n  jump\t// out\n    /* \"#utility.yul\":88:205   */\ntag_10:\n    /* \"#utility.yul\":197:198   */\n  0x00\n    /* \"#utility.yul\":194:195   */\n  dup1\n    /* \"#utility.yul\":187:199   */\n  revert\n    /* \"#utility.yul\":211:328   */\ntag_11:\n    /* \"#utility.yul\":320:321   */\n  0x00\n    /* \"#utility.yul\":317:318   */\n  dup1\n    /* \"#utility.yul\":310:322   */\n  revert\n    /* \"#utility.yul\":334:451   */\ntag_12:\n    /* \"#utility.yul\":443:444   */\n  0x00\n    /* \"#utility.yul\":440:441   */\n  dup1\n    /* \"#utility.yul\":433:445   */\n  revert\n    /* \"#utility.yul\":457:574   */\ntag_13:\n    /* \"#utility.yul\":566:567   */\n  0x00\n    /* \"#utility.yul\":563:564   */\n  dup1\n    /* \"#utility.yul\":556:568   */\n  revert\n    /* \"#utility.yul\":580:682   */\ntag_14:\n    /* \"#utility.yul\":621:627   */\n  0x00\n    /* \"#utility.yul\":672:674   */\n  0x1f\n    /* \"#utility.yul\":668:675   */\n  not\n    /* \"#utility.yul\":663:665   */\n  0x1f\n    /* \"#utility.yul\":656:661   */\n  dup4\n    /* \"#utility.yul\":652:666   */\n  add\n    /* \"#utility.yul\":648:676   */\n  and\n    /* \"#utility.yul\":638:676   */\n  swap1\n  pop\n    /* \"#utility.yul\":580:682   */\n  swap2\n  swap1\n  pop\n  jump\t// out\n    /* \"#utility.yul\":688:868   */\ntag_15:\n    /* \"#utility.yul\":736:813   */\n  0x4e487b7100000000000000000000000000000000000000000000000000000000\n    /* \"#utility.yul\":733:734   */\n  0x00\n    /* \"#utility.yul\":726:814   */\n  mstore\n    /* \"#utility.yul\":833:837   */\n  0x41\n    /* \"#utility.yul\":830:831   */\n  0x04\n    /* \"#utility.yul\":823:838   */\n  mstore\n    /* \"#utility.yul\":857:861   */\n  0x24\n    /* \"#utility.yul\":854:855   */\n  0x00\n    /* \"#utility.yul\":847:862   */\n  revert\n    /* \"#utility.yul\":874:1155   */\ntag_16:\n    /* \"#utility.yul\":957:984   */\n  tag_56\n    /* \"#utility.yul\":979:983   */\n  dup3\n    /* \"#utility.yul\":957:984   */\n  tag_14\n  jump\t// in\ntag_56:\n    /* \"#utility.yul\":949:955   */\n  dup2\n    /* \"#utility.yul\":945:985   */\n  add\n    /* \"#utility.yul\":1087:1093   */\n  dup2\n    /* \"#utility.yul\":1075:1085   */\n  dup2\n    /* \"#utility.yul\":1072:1094   */\n  lt\n    /* \"#utility.yul\":1051:1069   */\n  0xffffffffffffffff\n    /* \"#utility.yul\":1039:1049   */\n  dup3\n    /* \"#utility.yul\":1036:1070   */\n  gt\n    /* \"#utility.yul\":1033:1095   */\n  or\n    /* \"#utility.yul\":1030:1118   */\n  iszero\n  tag_57\n  jumpi\n    /* \"#utility.yul\":1098:1116   */\n  tag_58\n  tag_15\n  jump\t// in\ntag_58:\n    /* \"#utility.yul\":1030:1118   */\ntag_57:\n    /* \"#utility.yul\":1138:1148   */\n  dup1\n    /* \"#utility.yul\":1134:1136   */\n  0x40\n    /* \"#utility.yul\":1127:1149   */\n  mstore\n    /* \"#utility.yul\":917:1155   */\n  pop\n    /* \"#utility.yul\":874:1155   */\n  pop\n  pop\n  jump\t// out\n    /* \"#utility.yul\":1161:1290   */\ntag_17:\n    /* \"#utility.yul\":1195:1201   */\n  0x00\n    /* \"#utility.yul\":1222:1242   */\n  tag_60\n  tag_9\n  jump\t// in\ntag_60:\n    /* \"#utility.yul\":1212:1242   */\n  swap1\n  pop\n    /* \"#utility.yul\":1251:1284   */\n  tag_61\n    /* \"#utility.yul\":1279:1283   */\n  dup3\n    /* \"#utility.yul\":1271:1277   */\n  dup3\n    /* \"#utility.yul\":1251:1284   */\n  tag_16\n  jump\t// in\ntag_61:\n    /* \"#utility.yul\":1161:1290   */\n  swap2\n  swap1\n  pop\n  jump\t// out\n    /* \"#utility.yul\":1296:1604   */\ntag_18:\n    /* \"#utility.yul\":1358:1362   */\n  0x00\n    /* \"#utility.yul\":1448:1466   */\n  0xffffffffffffffff\n    /* \"#utility.yul\":1440:1446   */\n  dup3\n    /* \"#utility.yul\":1437:1467   */\n  gt\n    /* \"#utility.yul\":1434:1490   */\n  iszero\n  tag_63\n  jumpi\n    /* \"#utility.yul\":1470:1488   */\n  tag_64\n  tag_15\n  jump\t// in\ntag_64:\n    /* \"#utility.yul\":1434:1490   */\ntag_63:\n    /* \"#utility.yul\":1508:1537   */\n  tag_65\n    /* \"#utility.yul\":1530:1536   */\n  dup3\n    /* \"#utility.yul\":1508:1537   */\n  tag_14\n  jump\t// in\ntag_65:\n    /* \"#utility.yul\":1500:1537   */\n  swap1\n  pop\n    /* \"#utility.yul\":1592:1596   */\n  0x20\n    /* \"#utility.yul\":1586:1590   */\n  dup2\n    /* \"#utility.yul\":1582:1597   */\n  add\n    /* \"#utility.yul\":1574:1597   */\n  swap1\n  pop\n    /* \"#utility.yul\":1296:1604   */\n  swap2\n  swap1\n  pop\n  jump\t// out\n    /* \"#utility.yul\":1610:1856   */\ntag_19:\n    /* \"#utility.yul\":1691:1692   */\n  0x00\n    /* \"#utility.yul\":1701:1814   */\ntag_67:\n    /* \"#utility.yul\":1715:1721   */\n  dup4\n    /* \"#utility.yul\":1712:1713   */\n  dup2\n    /* \"#utility.yul\":1709:1722   */\n  lt\n    /* \"#utility.yul\":1701:1814   */\n  iszero\n  tag_69\n  jumpi\n    /* \"#utility.yul\":1800:1801   */\n  dup1\n    /* \"#utility.yul\":1795:1798   */\n  dup3\n    /* \"#utility.yul\":1791:1802   */\n  add\n    /* \"#utility.yul\":1785:1803   */\n  mload\n    /* \"#utility.yul\":1781:1782   */\n  dup2\n    /* \"#utility.yul\":1776:1779   */\n  dup5\n    /* \"#utility.yul\":1772:1783   */\n  add\n    /* \"#utility.yul\":1765:1804   */\n  mstore\n    /* \"#utility.yul\":1737:1739   */\n  0x20\n    /* \"#utility.yul\":1734:1735   */\n  dup2\n    /* \"#utility.yul\":1730:1740   */\n  add\n    /* \"#utility.yul\":1725:1740   */\n  swap1\n  pop\n    /* \"#utility.yul\":1701:1814   */\n  jump(tag_67)\ntag_69:\n    /* \"#utility.yul\":1848:1849   */\n  0x00\n    /* \"#utility.yul\":1839:1845   */\n  dup5\n    /* \"#utility.yul\":1834:1837   */\n  dup5\n    /* \"#utility.yul\":1830:1846   */\n  add\n    /* \"#utility.yul\":1823:1850   */\n  mstore\n    /* \"#utility.yul\":1672:1856   */\n  pop\n    /* \"#utility.yul\":1610:1856   */\n  pop\n  pop\n  pop\n  jump\t// out\n    /* \"#utility.yul\":1862:2296   */\ntag_20:\n    /* \"#utility.yul\":1951:1956   */\n  0x00\n    /* \"#utility.yul\":1976:2042   */\n  tag_71\n    /* \"#utility.yul\":1992:2041   */\n  tag_72\n    /* \"#utility.yul\":2034:2040   */\n  dup5\n    /* \"#utility.yul\":1992:2041   */\n  tag_18\n  jump\t// in\ntag_72:\n    /* \"#utility.yul\":1976:2042   */\n  tag_17\n  jump\t// in\ntag_71:\n    /* \"#utility.yul\":1967:2042   */\n  swap1\n  pop\n    /* \"#utility.yul\":2065:2071   */\n  dup3\n    /* \"#utility.yul\":2058:2063   */\n  dup2\n    /* \"#utility.yul\":2051:2072   */\n  mstore\n    /* \"#utility.yul\":2103:2107   */\n  0x20\n    /* \"#utility.yul\":2096:2101   */\n  dup2\n    /* \"#utility.yul\":2092:2108   */\n  add\n    /* \"#utility.yul\":2141:2144   */\n  dup5\n    /* \"#utility.yul\":2132:2138   */\n  dup5\n    /* \"#utility.yul\":2127:2130   */\n  dup5\n    /* \"#utility.yul\":2123:2139   */\n  add\n    /* \"#utility.yul\":2120:2145   */\n  gt\n    /* \"#utility.yul\":2117:2229   */\n  iszero\n  tag_73\n  jumpi\n    /* \"#utility.yul\":2148:2227   */\n  tag_74\n  tag_13\n  jump\t// in\ntag_74:\n    /* \"#utility.yul\":2117:2229   */\ntag_73:\n    /* \"#utility.yul\":2238:2290   */\n  tag_75\n    /* \"#utility.yul\":2283:2289   */\n  dup5\n    /* \"#utility.yul\":2278:2281   */\n  dup3\n    /* \"#utility.yul\":2273:2276   */\n  dup6\n    /* \"#utility.yul\":2238:2290   */\n  tag_19\n  jump\t// in\ntag_75:\n    /* \"#utility.yul\":1957:2296   */\n  pop\n    /* \"#utility.yul\":1862:2296   */\n  swap4\n  swap3\n  pop\n  pop\n  pop\n  jump\t// out\n    /* \"#utility.yul\":2316:2671   */\ntag_21:\n    /* \"#utility.yul\":2383:2388   */\n  0x00\n    /* \"#utility.yul\":2432:2435   */\n  dup3\n    /* \"#utility.yul\":2425:2429   */\n  0x1f\n    /* \"#utility.yul\":2417:2423   */\n  dup4\n    /* \"#utility.yul\":2413:2430   */\n  add\n    /* \"#utility.yul\":2409:2436   */\n  slt\n    /* \"#utility.yul\":2399:2521   */\n  tag_77\n  jumpi\n    /* \"#utility.yul\":2440:2519   */\n  tag_78\n  tag_12\n  jump\t// in\ntag_78:\n    /* \"#utility.yul\":2399:2521   */\ntag_77:\n    /* \"#utility.yul\":2550:2556   */\n  dup2\n    /* \"#utility.yul\":2544:2557   */\n  mload\n    /* \"#utility.yul\":2575:2665   */\n  tag_79\n    /* \"#utility.yul\":2661:2664   */\n  dup5\n    /* \"#utility.yul\":2653:2659   */\n  dup3\n    /* \"#utility.yul\":2646:2650   */\n  0x20\n    /* \"#utility.yul\":2638:2644   */\n  dup7\n    /* \"#utility.yul\":2634:2651   */\n  add\n    /* \"#utility.yul\":2575:2665   */\n  tag_20\n  jump\t// in\ntag_79:\n    /* \"#utility.yul\":2566:2665   */\n  swap2\n  pop\n    /* \"#utility.yul\":2389:2671   */\n  pop\n    /* \"#utility.yul\":2316:2671   */\n  swap3\n  swap2\n  pop\n  pop\n  jump\t// out\n    /* \"#utility.yul\":2677:2803   */\ntag_22:\n    /* \"#utility.yul\":2714:2721   */\n  0x00\n    /* \"#utility.yul\":2754:2796   */\n  0xffffffffffffffffffffffffffffffffffffffff\n    /* \"#utility.yul\":2747:2752   */\n  dup3\n    /* \"#utility.yul\":2743:2797   */\n  and\n    /* \"#utility.yul\":2732:2797   */\n  swap1\n  pop\n    /* \"#utility.yul\":2677:2803   */\n  swap2\n  swap1\n  pop\n  jump\t// out\n    /* \"#utility.yul\":2809:2913   */\ntag_23:\n    /* \"#utility.yul\":2854:2861   */\n  0x00\n    /* \"#utility.yul\":2883:2907   */\n  tag_82\n    /* \"#utility.yul\":2901:2906   */\n  dup3\n    /* \"#utility.yul\":2883:2907   */\n  tag_22\n  jump\t// in\ntag_82:\n    /* \"#utility.yul\":2872:2907   */\n  swap1\n  pop\n    /* \"#utility.yul\":2809:2913   */\n  swap2\n  swap1\n  pop\n  jump\t// out\n    /* \"#utility.yul\":2919:3057   */\ntag_24:\n    /* \"#utility.yul\":3000:3032   */\n  tag_84\n    /* \"#utility.yul\":3026:3031   */\n  dup2\n    /* \"#utility.yul\":3000:3032   */\n  tag_23\n  jump\t// in\ntag_84:\n    /* \"#utility.yul\":2993:2998   */\n  dup2\n    /* \"#utility.yul\":2990:3033   */\n  eq\n    /* \"#utility.yul\":2980:3051   */\n  tag_85\n  jumpi\n    /* \"#utility.yul\":3047:3048   */\n  0x00\n    /* \"#utility.yul\":3044:3045   */\n  dup1\n    /* \"#utility.yul\":3037:3049   */\n  revert\n    /* \"#utility.yul\":2980:3051   */\ntag_85:\n    /* \"#utility.yul\":2919:3057   */\n  pop\n  jump\t// out\n    /* \"#utility.yul\":3063:3222   */\ntag_25:\n    /* \"#utility.yul\":3128:3133   */\n  0x00\n    /* \"#utility.yul\":3159:3165   */\n  dup2\n    /* \"#utility.yul\":3153:3166   */\n  mload\n    /* \"#utility.yul\":3144:3166   */\n  swap1\n  pop\n    /* \"#utility.yul\":3175:3216   */\n  tag_87\n    /* \"#utility.yul\":3210:3215   */\n  dup2\n    /* \"#utility.yul\":3175:3216   */\n  tag_24\n  jump\t// in\ntag_87:\n    /* \"#utility.yul\":3063:3222   */\n  swap3\n  swap2\n  pop\n  pop\n  jump\t// out\n    /* \"#utility.yul\":3228:3305   */\ntag_26:\n    /* \"#utility.yul\":3265:3272   */\n  0x00\n    /* \"#utility.yul\":3294:3299   */\n  dup2\n    /* \"#utility.yul\":3283:3299   */\n  swap1\n  pop\n    /* \"#utility.yul\":3228:3305   */\n  swap2\n  swap1\n  pop\n  jump\t// out\n    /* \"#utility.yul\":3311:3433   */\ntag_27:\n    /* \"#utility.yul\":3384:3408   */\n  tag_90\n    /* \"#utility.yul\":3402:3407   */\n  dup2\n    /* \"#utility.yul\":3384:3408   */\n  tag_26\n  jump\t// in\ntag_90:\n    /* \"#utility.yul\":3377:3382   */\n  dup2\n    /* \"#utility.yul\":3374:3409   */\n  eq\n    /* \"#utility.yul\":3364:3427   */\n  tag_91\n  jumpi\n    /* \"#utility.yul\":3423:3424   */\n  0x00\n    /* \"#utility.yul\":3420:3421   */\n  dup1\n    /* \"#utility.yul\":3413:3425   */\n  revert\n    /* \"#utility.yul\":3364:3427   */\ntag_91:\n    /* \"#utility.yul\":3311:3433   */\n  pop\n  jump\t// out\n    /* \"#utility.yul\":3439:3582   */\ntag_28:\n    /* \"#utility.yul\":3496:3501   */\n  0x00\n    /* \"#utility.yul\":3527:3533   */\n  dup2\n    /* \"#utility.yul\":3521:3534   */\n  mload\n    /* \"#utility.yul\":3512:3534   */\n  swap1\n  pop\n    /* \"#utility.yul\":3543:3576   */\n  tag_93\n    /* \"#utility.yul\":3570:3575   */\n  dup2\n    /* \"#utility.yul\":3543:3576   */\n  tag_27\n  jump\t// in\ntag_93:\n    /* \"#utility.yul\":3439:3582   */\n  swap3\n  swap2\n  pop\n  pop\n  jump\t// out\n    /* \"#utility.yul\":3588:4770   */\ntag_2:\n    /* \"#utility.yul\":3713:3719   */\n  0x00\n    /* \"#utility.yul\":3721:3727   */\n  dup1\n    /* \"#utility.yul\":3729:3735   */\n  0x00\n    /* \"#utility.yul\":3737:3743   */\n  dup1\n    /* \"#utility.yul\":3786:3789   */\n  0x80\n    /* \"#utility.yul\":3774:3783   */\n  dup6\n    /* \"#utility.yul\":3765:3772   */\n  dup8\n    /* \"#utility.yul\":3761:3784   */\n  sub\n    /* \"#utility.yul\":3757:3790   */\n  slt\n    /* \"#utility.yul\":3754:3874   */\n  iszero\n  tag_95\n  jumpi\n    /* \"#utility.yul\":3793:3872   */\n  tag_96\n  tag_10\n  jump\t// in\ntag_96:\n    /* \"#utility.yul\":3754:3874   */\ntag_95:\n    /* \"#utility.yul\":3934:3935   */\n  0x00\n    /* \"#utility.yul\":3923:3932   */\n  dup6\n    /* \"#utility.yul\":3919:3936   */\n  add\n    /* \"#utility.yul\":3913:3937   */\n  mload\n    /* \"#utility.yul\":3964:3982   */\n  0xffffffffffffffff\n    /* \"#utility.yul\":3956:3962   */\n  dup2\n    /* \"#utility.yul\":3953:3983   */\n  gt\n    /* \"#utility.yul\":3950:4067   */\n  iszero\n  tag_97\n  jumpi\n    /* \"#utility.yul\":3986:4065   */\n  tag_98\n  tag_11\n  jump\t// in\ntag_98:\n    /* \"#utility.yul\":3950:4067   */\ntag_97:\n    /* \"#utility.yul\":4091:4165   */\n  tag_99\n    /* \"#utility.yul\":4157:4164   */\n  dup8\n    /* \"#utility.yul\":4148:4154   */\n  dup3\n    /* \"#utility.yul\":4137:4146   */\n  dup9\n    /* \"#utility.yul\":4133:4155   */\n  add\n    /* \"#utility.yul\":4091:4165   */\n  tag_21\n  jump\t// in\ntag_99:\n    /* \"#utility.yul\":4081:4165   */\n  swap5\n  pop\n    /* \"#utility.yul\":3884:4175   */\n  pop\n    /* \"#utility.yul\":4235:4237   */\n  0x20\n    /* \"#utility.yul\":4224:4233   */\n  dup6\n    /* \"#utility.yul\":4220:4238   */\n  add\n    /* \"#utility.yul\":4214:4239   */\n  mload\n    /* \"#utility.yul\":4266:4284   */\n  0xffffffffffffffff\n    /* \"#utility.yul\":4258:4264   */\n  dup2\n    /* \"#utility.yul\":4255:4285   */\n  gt\n    /* \"#utility.yul\":4252:4369   */\n  iszero\n  tag_100\n  jumpi\n    /* \"#utility.yul\":4288:4367   */\n  tag_101\n  tag_11\n  jump\t// in\ntag_101:\n    /* \"#utility.yul\":4252:4369   */\ntag_100:\n    /* \"#utility.yul\":4393:4467   */\n  tag_102\n    /* \"#utility.yul\":4459:4466   */\n  dup8\n    /* \"#utility.yul\":4450:4456   */\n  dup3\n    /* \"#utility.yul\":4439:4448   */\n  dup9\n    /* \"#utility.yul\":4435:4457   */\n  add\n    /* \"#utility.yul\":4393:4467   */\n  tag_21\n  jump\t// in\ntag_102:\n    /* \"#utility.yul\":4383:4467   */\n  swap4\n  pop\n    /* \"#utility.yul\":4185:4477   */\n  pop\n    /* \"#utility.yul\":4516:4518   */\n  0x40\n    /* \"#utility.yul\":4542:4614   */\n  tag_103\n    /* \"#utility.yul\":4606:4613   */\n  dup8\n    /* \"#utility.yul\":4597:4603   */\n  dup3\n    /* \"#utility.yul\":4586:4595   */\n  dup9\n    /* \"#utility.yul\":4582:4604   */\n  add\n    /* \"#utility.yul\":4542:4614   */\n  tag_25\n  jump\t// in\ntag_103:\n    /* \"#utility.yul\":4532:4614   */\n  swap3\n  pop\n    /* \"#utility.yul\":4487:4624   */\n  pop\n    /* \"#utility.yul\":4663:4665   */\n  0x60\n    /* \"#utility.yul\":4689:4753   */\n  tag_104\n    /* \"#utility.yul\":4745:4752   */\n  dup8\n    /* \"#utility.yul\":4736:4742   */\n  dup3\n    /* \"#utility.yul\":4725:4734   */\n  dup9\n    /* \"#utility.yul\":4721:4743   */\n  add\n    /* \"#utility.yul\":4689:4753   */\n  tag_28\n  jump\t// in\ntag_104:\n    /* \"#utility.yul\":4679:4753   */\n  swap2\n  pop\n    /* \"#utility.yul\":4634:4763   */\n  pop\n    /* \"#utility.yul\":3588:4770   */\n  swap3\n  swap6\n  swap2\n  swap5\n  pop\n  swap3\n  pop\n  jump\t// out\n    /* \"#utility.yul\":4776:4875   */\ntag_29:\n    /* \"#utility.yul\":4828:4834   */\n  0x00\n    /* \"#utility.yul\":4862:4867   */\n  dup2\n    /* \"#utility.yul\":4856:4868   */\n  mload\n    /* \"#utility.yul\":4846:4868   */\n  swap1\n  pop\n    /* \"#utility.yul\":4776:4875   */\n  swap2\n  swap1\n  pop\n  jump\t// out\n    /* \"#utility.yul\":4881:5061   */\ntag_30:\n    /* \"#utility.yul\":4929:5006   */\n  0x4e487b7100000000000000000000000000000000000000000000000000000000\n    /* \"#utility.yul\":4926:4927   */\n  0x00\n    /* \"#utility.yul\":4919:5007   */\n  mstore\n    /* \"#utility.yul\":5026:5030   */\n  0x22\n    /* \"#utility.yul\":5023:5024   */\n  0x04\n    /* \"#utility.yul\":5016:5031   */\n  mstore\n    /* \"#utility.yul\":5050:5054   */\n  0x24\n    /* \"#utility.yul\":5047:5048   */\n  0x00\n    /* \"#utility.yul\":5040:5055   */\n  revert\n    /* \"#utility.yul\":5067:5387   */\ntag_31:\n    /* \"#utility.yul\":5111:5117   */\n  0x00\n    /* \"#utility.yul\":5148:5149   */\n  0x02\n    /* \"#utility.yul\":5142:5146   */\n  dup3\n    /* \"#utility.yul\":5138:5150   */\n  div\n    /* \"#utility.yul\":5128:5150   */\n  swap1\n  pop\n    /* \"#utility.yul\":5195:5196   */\n  0x01\n    /* \"#utility.yul\":5189:5193   */\n  dup3\n    /* \"#utility.yul\":5185:5197   */\n  and\n    /* \"#utility.yul\":5216:5234   */\n  dup1\n    /* \"#utility.yul\":5206:5287   */\n  tag_108\n  jumpi\n    /* \"#utility.yul\":5272:5276   */\n  0x7f\n    /* \"#utility.yul\":5264:5270   */\n  dup3\n    /* \"#utility.yul\":5260:5277   */\n  and\n    /* \"#utility.yul\":5250:5277   */\n  swap2\n  pop\n    /* \"#utility.yul\":5206:5287   */\ntag_108:\n    /* \"#utility.yul\":5334:5336   */\n  0x20\n    /* \"#utility.yul\":5326:5332   */\n  dup3\n    /* \"#utility.yul\":5323:5337   */\n  lt\n    /* \"#utility.yul\":5303:5321   */\n  dup2\n    /* \"#utility.yul\":5300:5338   */\n  sub\n    /* \"#utility.yul\":5297:5381   */\n  tag_109\n  jumpi\n    /* \"#utility.yul\":5353:5371   */\n  tag_110\n  tag_30\n  jump\t// in\ntag_110:\n    /* \"#utility.yul\":5297:5381   */\ntag_109:\n    /* \"#utility.yul\":5118:5387   */\n  pop\n    /* \"#utility.yul\":5067:5387   */\n  swap2\n  swap1\n  pop\n  jump\t// out\n    /* \"#utility.yul\":5393:5534   */\ntag_32:\n    /* \"#utility.yul\":5442:5446   */\n  0x00\n    /* \"#utility.yul\":5465:5468   */\n  dup2\n    /* \"#utility.yul\":5457:5468   */\n  swap1\n  pop\n    /* \"#utility.yul\":5488:5491   */\n  dup2\n    /* \"#utility.yul\":5485:5486   */\n  0x00\n    /* \"#utility.yul\":5478:5492   */\n  mstore\n    /* \"#utility.yul\":5522:5526   */\n  0x20\n    /* \"#utility.yul\":5519:5520   */\n  0x00\n    /* \"#utility.yul\":5509:5527   */\n  keccak256\n    /* \"#utility.yul\":5501:5527   */\n  swap1\n  pop\n    /* \"#utility.yul\":5393:5534   */\n  swap2\n  swap1\n  pop\n  jump\t// out\n    /* \"#utility.yul\":5540:5633   */\ntag_33:\n    /* \"#utility.yul\":5577:5583   */\n  0x00\n    /* \"#utility.yul\":5624:5626   */\n  0x20\n    /* \"#utility.yul\":5619:5621   */\n  0x1f\n    /* \"#utility.yul\":5612:5617   */\n  dup4\n    /* \"#utility.yul\":5608:5622   */\n  add\n    /* \"#utility.yul\":5604:5627   */\n  div\n    /* \"#utility.yul\":5594:5627   */\n  swap1\n  pop\n    /* \"#utility.yul\":5540:5633   */\n  swap2\n  swap1\n  pop\n  jump\t// out\n    /* \"#utility.yul\":5639:5746   */\ntag_34:\n    /* \"#utility.yul\":5683:5691   */\n  0x00\n    /* \"#utility.yul\":5733:5738   */\n  dup3\n    /* \"#utility.yul\":5727:5731   */\n  dup3\n    /* \"#utility.yul\":5723:5739   */\n  shl\n    /* \"#utility.yul\":5702:5739   */\n  swap1\n  pop\n    /* \"#utility.yul\":5639:5746   */\n  swap3\n  swap2\n  pop\n  pop\n  jump\t// out\n    /* \"#utility.yul\":5752:6145   */\ntag_35:\n    /* \"#utility.yul\":5821:5827   */\n  0x00\n    /* \"#utility.yul\":5871:5872   */\n  0x08\n    /* \"#utility.yul\":5859:5869   */\n  dup4\n    /* \"#utility.yul\":5855:5873   */\n  mul\n    /* \"#utility.yul\":5894:5991   */\n  tag_115\n    /* \"#utility.yul\":5924:5990   */\n  0xffffffffffffffffffffffffffffffffffffffffffffffffffffffffffffffff\n    /* \"#utility.yul\":5913:5922   */\n  dup3\n    /* \"#utility.yul\":5894:5991   */\n  tag_34\n  jump\t// in\ntag_115:\n    /* \"#utility.yul\":6012:6051   */\n  tag_116\n    /* \"#utility.yul\":6042:6050   */\n  dup7\n    /* \"#utility.yul\":6031:6040   */\n  dup4\n    /* \"#utility.yul\":6012:6051   */\n  tag_34\n  jump\t// in\ntag_116:\n    /* \"#utility.yul\":6000:6051   */\n  swap6\n  pop\n    /* \"#utility.yul\":6084:6088   */\n  dup1\n    /* \"#utility.yul\":6080:6089   */\n  not\n    /* \"#utility.yul\":6073:6078   */\n  dup5\n    /* \"#utility.yul\":6069:6090   */\n  and\n    /* \"#utility.yul\":6060:6090   */\n  swap4\n  pop\n    /* \"#utility.yul\":6133:6137   */\n  dup1\n    /* \"#utility.yul\":6123:6131   */\n  dup7\n    /* \"#utility.yul\":6119:6138   */\n  and\n    /* \"#utility.yul\":6112:6117   */\n  dup5\n    /* \"#utility.yul\":6109:6139   */\n  or\n    /* \"#utility.yul\":6099:6139   */\n  swap3\n  pop\n    /* \"#utility.yul\":5828:6145   */\n  pop\n  pop\n    /* \"#utility.yul\":5752:6145   */\n  swap4\n  swap3\n  pop\n  pop\n  pop\n  jump\t// out\n    /* \"#utility.yul\":6151:6211   */\ntag_36:\n    /* \"#utility.yul\":6179:6182   */\n  0x00\n    /* \"#utility.yul\":6200:6205   */\n  dup2\n    /* \"#utility.yul\":6193:6205   */\n  swap1\n  pop\n    /* \"#utility.yul\":6151:6211   */\n  swap2\n  swap1\n  pop\n  jump\t// out\n    /* \"#utility.yul\":6217:6359   */\ntag_37:\n    /* \"#utility.yul\":6267:6276   */\n  0x00\n    /* \"#utility.yul\":6300:6353   */\n  tag_119\n    /* \"#utility.yul\":6318:6352   */\n  tag_120\n    /* \"#utility.yul\":6327:6351   */\n  tag_121\n    /* \"#utility.yul\":6345:6350   */\n  dup5\n    /* \"#utility.yul\":6327:6351   */\n  tag_26\n  jump\t// in\ntag_121:\n    /* \"#utility.yul\":6318:6352   */\n  tag_36\n  jump\t// in\ntag_120:\n    /* \"#utility.yul\":6300:6353   */\n  tag_26\n  jump\t// in\ntag_119:\n    /* \"#utility.yul\":6287:6353   */\n  swap1\n  pop\n    /* \"#utility.yul\":6217:6359   */\n  swap2\n  swap1\n  pop\n  jump\t// out\n    /* \"#utility.yul\":6365:6440   */\ntag_38:\n    /* \"#utility.yul\":6408:6411   */\n  0x00\n    /* \"#utility.yul\":6429:6434   */\n  dup2\n    /* \"#utility.yul\":6422:6434   */\n  swap1\n  pop\n    /* \"#utility.yul\":6365:6440   */\n  swap2\n  swap1\n  pop\n  jump\t// out\n    /* \"#utility.yul\":6446:6715   */\ntag_39:\n    /* \"#utility.yul\":6556:6595   */\n  tag_124\n    /* \"#utility.yul\":6587:6594   */\n  dup4\n    /* \"#utility.yul\":6556:6595   */\n  tag_37\n  jump\t// in\ntag_124:\n    /* \"#utility.yul\":6617:6708   */\n  tag_125\n    /* \"#utility.yul\":6666:6707   */\n  tag_126\n    /* \"#utility.yul\":6690:6706   */\n  dup3\n    /* \"#utility.yul\":6666:6707   */\n  tag_38\n  jump\t// in\ntag_126:\n    /* \"#utility.yul\":6658:6664   */\n  dup5\n    /* \"#utility.yul\":6651:6655   */\n  dup5\n    /* \"#utility.yul\":6645:6656   */\n  sload\n    /* \"#utility.yul\":6617:6708   */\n  tag_35\n  jump\t// in\ntag_125:\n    /* \"#utility.yul\":6611:6615   */\n  dup3\n    /* \"#utility.yul\":6604:6709   */\n  sstore\n    /* \"#utility.yul\":6522:6715   */\n  pop\n    /* \"#utility.yul\":6446:6715   */\n  pop\n  pop\n  pop\n  jump\t// out\n    /* \"#utility.yul\":6721:6794   */\ntag_40:\n    /* \"#utility.yul\":6766:6769   */\n  0x00\n    /* \"#utility.yul\":6721:6794   */\n  swap1\n  jump\t// out\n    /* \"#utility.yul\":6800:6989   */\ntag_41:\n    /* \"#utility.yul\":6877:6909   */\n  tag_129\n  tag_40\n  jump\t// in\ntag_129:\n    /* \"#utility.yul\":6918:6983   */\n  tag_130\n    /* \"#utility.yul\":6976:6982   */\n  dup2\n    /* \"#utility.yul\":6968:6974   */\n  dup5\n    /* \"#utility.yul\":6962:6966   */\n  dup5\n    /* \"#utility.yul\":6918:6983   */\n  tag_39\n  jump\t// in\ntag_130:\n    /* \"#utility.yul\":6853:6989   */\n  pop\n    /* \"#utility.yul\":6800:6989   */\n  pop\n  pop\n  jump\t// out\n    /* \"#utility.yul\":6995:7181   */\ntag_42:\n    /* \"#utility.yul\":7055:7175   */\ntag_132:\n    /* \"#utility.yul\":7072:7075   */\n  dup2\n    /* \"#utility.yul\":7065:7070   */\n  dup2\n    /* \"#utility.yul\":7062:7076   */\n  lt\n    /* \"#utility.yul\":7055:7175   */\n  iszero\n  tag_134\n  jumpi\n    /* \"#utility.yul\":7126:7165   */\n  tag_135\n    /* \"#utility.yul\":7163:7164   */\n  0x00\n    /* \"#utility.yul\":7156:7161   */\n  dup3\n    /* \"#utility.yul\":7126:7165   */\n  tag_41\n  jump\t// in\ntag_135:\n    /* \"#utility.yul\":7099:7100   */\n  0x01\n    /* \"#utility.yul\":7092:7097   */\n  dup2\n    /* \"#utility.yul\":7088:7101   */\n  add\n    /* \"#utility.yul\":7079:7101   */\n  swap1\n  pop\n    /* \"#utility.yul\":7055:7175   */\n  jump(tag_132)\ntag_134:\n    /* \"#utility.yul\":6995:7181   */\n  pop\n  pop\n  jump\t// out\n    /* \"#utility.yul\":7187:7730   */\ntag_43:\n    /* \"#utility.yul\":7288:7290   */\n  0x1f\n    /* \"#utility.yul\":7283:7286   */\n  dup3\n    /* \"#utility.yul\":7280:7291   */\n  gt\n    /* \"#utility.yul\":7277:7723   */\n  iszero\n  tag_137\n  jumpi\n    /* \"#utility.yul\":7322:7360   */\n  tag_138\n    /* \"#utility.yul\":7354:7359   */\n  dup2\n    /* \"#utility.yul\":7322:7360   */\n  tag_32\n  jump\t// in\ntag_138:\n    /* \"#utility.yul\":7406:7435   */\n  tag_139\n    /* \"#utility.yul\":7424:7434   */\n  dup5\n    /* \"#utility.yul\":7406:7435   */\n  tag_33\n  jump\t// in\ntag_139:\n    /* \"#utility.yul\":7396:7404   */\n  dup2\n    /* \"#utility.yul\":7392:7436   */\n  add\n    /* \"#utility.yul\":7589:7591   */\n  0x20\n    /* \"#utility.yul\":7577:7587   */\n  dup6\n    /* \"#utility.yul\":7574:7592   */\n  lt\n    /* \"#utility.yul\":7571:7620   */\n  iszero\n  tag_140\n  jumpi\n    /* \"#utility.yul\":7610:7618   */\n  dup2\n    /* \"#utility.yul\":7595:7618   */\n  swap1\n  pop\n    /* \"#utility.yul\":7571:7620   */\ntag_140:\n    /* \"#utility.yul\":7633:7713   */\n  tag_141\n    /* \"#utility.yul\":7689:7711   */\n  tag_142\n    /* \"#utility.yul\":7707:7710   */\n  dup6\n    /* \"#utility.yul\":7689:7711   */\n  tag_33\n  jump\t// in\ntag_142:\n    /* \"#utility.yul\":7679:7687   */\n  dup4\n    /* \"#utility.yul\":7675:7712   */\n  add\n    /* \"#utility.yul\":7662:7673   */\n  dup3\n    /* \"#utility.yul\":7633:7713   */\n  tag_42\n  jump\t// in\ntag_141:\n    /* \"#utility.yul\":7292:7723   */\n  pop\n  pop\n    /* \"#utility.yul\":7277:7723   */\ntag_137:\n    /* \"#utility.yul\":7187:7730   */\n  pop\n  pop\n  pop\n  jump\t// out\n    /* \"#utility.yul\":7736:7853   */\ntag_44:\n    /* \"#utility.yul\":7790:7798   */\n  0x00\n    /* \"#utility.yul\":7840:7845   */\n  dup3\n    /* \"#utility.yul\":7834:7838   */\n  dup3\n    /* \"#utility.yul\":7830:7846   */\n  shr\n    /* \"#utility.yul\":7809:7846   */\n  swap1\n  pop\n    /* \"#utility.yul\":7736:7853   */\n  swap3\n  swap2\n  pop\n  pop\n  jump\t// out\n    /* \"#utility.yul\":7859:8028   */\ntag_45:\n    /* \"#utility.yul\":7903:7909   */\n  0x00\n    /* \"#utility.yul\":7936:7987   */\n  tag_145\n    /* \"#utility.yul\":7984:7985   */\n  0x00\n    /* \"#utility.yul\":7980:7986   */\n  not\n    /* \"#utility.yul\":7972:7977   */\n  dup5\n    /* \"#utility.yul\":7969:7970   */\n  0x08\n    /* \"#utility.yul\":7965:7978   */\n  mul\n    /* \"#utility.yul\":7936:7987   */\n  tag_44\n  jump\t// in\ntag_145:\n    /* \"#utility.yul\":7932:7988   */\n  not\n    /* \"#utility.yul\":8017:8021   */\n  dup1\n    /* \"#utility.yul\":8011:8015   */\n  dup4\n    /* \"#utility.yul\":8007:8022   */\n  and\n    /* \"#utility.yul\":7997:8022   */\n  swap2\n  pop\n    /* \"#utility.yul\":7910:8028   */\n  pop\n    /* \"#utility.yul\":7859:8028   */\n  swap3\n  swap2\n  pop\n  pop\n  jump\t// out\n    /* \"#utility.yul\":8033:8328   */\ntag_46:\n    /* \"#utility.yul\":8109:8113   */\n  0x00\n    /* \"#utility.yul\":8255:8284   */\n  tag_147\n    /* \"#utility.yul\":8280:8283   */\n  dup4\n    /* \"#utility.yul\":8274:8278   */\n  dup4\n    /* \"#utility.yul\":8255:8284   */\n  tag_45\n  jump\t// in\ntag_147:\n    /* \"#utility.yul\":8247:8284   */\n  swap2\n  pop\n    /* \"#utility.yul\":8317:8320   */\n  dup3\n    /* \"#utility.yul\":8314:8315   */\n  0x02\n    /* \"#utility.yul\":8310:8321   */\n  mul\n    /* \"#utility.yul\":8304:8308   */\n  dup3\n    /* \"#utility.yul\":8301:8322   */\n  or\n    /* \"#utility.yul\":8293:8322   */\n  swap1\n  pop\n    /* \"#utility.yul\":8033:8328   */\n  swap3\n  swap2\n  pop\n  pop\n  jump\t// out\n    /* \"#utility.yul\":8333:9728   */\ntag_6:\n    /* \"#utility.yul\":8450:8487   */\n  tag_149\n    /* \"#utility.yul\":8483:8486   */\n  dup3\n    /* \"#utility.yul\":8450:8487   */\n  tag_29\n  jump\t// in\ntag_149:\n    /* \"#utility.yul\":8552:8570   */\n  0xffffffffffffffff\n    /* \"#utility.yul\":8544:8550   */\n  dup2\n    /* \"#utility.yul\":8541:8571   */\n  gt\n    /* \"#utility.yul\":8538:8594   */\n  iszero\n  tag_150\n  jumpi\n    /* \"#utility.yul\":8574:8592   */\n  tag_151\n  tag_15\n  jump\t// in\ntag_151:\n    /* \"#utility.yul\":8538:8594   */\ntag_150:\n    /* \"#utility.yul\":8618:8656   */\n  tag_152\n    /* \"#utility.yul\":8650:8654   */\n  dup3\n    /* \"#utility.yul\":8644:8655   */\n  sload\n    /* \"#utility.yul\":8618:8656   */\n  tag_31\n  jump\t// in\ntag_152:\n    /* \"#utility.yul\":8703:8770   */\n  tag_153\n    /* \"#utility.yul\":8763:8769   */\n  dup3\n    /* \"#utility.yul\":8755:8761   */\n  dup3\n    /* \"#utility.yul\":8749:8753   */\n  dup6\n    /* \"#utility.yul\":8703:8770   */\n  tag_43\n  jump\t// in\ntag_153:\n    /* \"#utility.yul\":8797:8798   */\n  0x00\n    /* \"#utility.yul\":8821:8825   */\n  0x20\n    /* \"#utility.yul\":8808:8825   */\n  swap1\n  pop\n    /* \"#utility.yul\":8853:8855   */\n  0x1f\n    /* \"#utility.yul\":8845:8851   */\n  dup4\n    /* \"#utility.yul\":8842:8856   */\n  gt\n    /* \"#utility.yul\":8870:8871   */\n  0x01\n    /* \"#utility.yul\":8865:9483   */\n  dup2\n  eq\n  tag_155\n  jumpi\n    /* \"#utility.yul\":9527:9528   */\n  0x00\n    /* \"#utility.yul\":9544:9550   */\n  dup5\n    /* \"#utility.yul\":9541:9618   */\n  iszero\n  tag_156\n  jumpi\n    /* \"#utility.yul\":9593:9602   */\n  dup3\n    /* \"#utility.yul\":9588:9591   */\n  dup8\n    /* \"#utility.yul\":9584:9603   */\n  add\n    /* \"#utility.yul\":9578:9604   */\n  mload\n    /* \"#utility.yul\":9569:9604   */\n  swap1\n  pop\n    /* \"#utility.yul\":9541:9618   */\ntag_156:\n    /* \"#utility.yul\":9644:9711   */\n  tag_157\n    /* \"#utility.yul\":9704:9710   */\n  dup6\n    /* \"#utility.yul\":9697:9702   */\n  dup3\n    /* \"#utility.yul\":9644:9711   */\n  tag_46\n  jump\t// in\ntag_157:\n    /* \"#utility.yul\":9638:9642   */\n  dup7\n    /* \"#utility.yul\":9631:9712   */\n  sstore\n    /* \"#utility.yul\":9500:9722   */\n  pop\n    /* \"#utility.yul\":8835:9722   */\n  jump(tag_154)\n    /* \"#utility.yul\":8865:9483   */\ntag_155:\n    /* \"#utility.yul\":8917:8921   */\n  0x1f\n    /* \"#utility.yul\":8913:8922   */\n  not\n    /* \"#utility.yul\":8905:8911   */\n  dup5\n    /* \"#utility.yul\":8901:8923   */\n  and\n    /* \"#utility.yul\":8951:8988   */\n  tag_158\n    /* \"#utility.yul\":8983:8987   */\n  dup7\n    /* \"#utility.yul\":8951:8988   */\n  tag_32\n  jump\t// in\ntag_158:\n    /* \"#utility.yul\":9010:9011   */\n  0x00\n    /* \"#utility.yul\":9024:9232   */\ntag_159:\n    /* \"#utility.yul\":9038:9045   */\n  dup3\n    /* \"#utility.yul\":9035:9036   */\n  dup2\n    /* \"#utility.yul\":9032:9046   */\n  lt\n    /* \"#utility.yul\":9024:9232   */\n  iszero\n  tag_161\n  jumpi\n    /* \"#utility.yul\":9117:9126   */\n  dup5\n    /* \"#utility.yul\":9112:9115   */\n  dup10\n    /* \"#utility.yul\":9108:9127   */\n  add\n    /* \"#utility.yul\":9102:9128   */\n  mload\n    /* \"#utility.yul\":9094:9100   */\n  dup3\n    /* \"#utility.yul\":9087:9129   */\n  sstore\n    /* \"#utility.yul\":9168:9169   */\n  0x01\n    /* \"#utility.yul\":9160:9166   */\n  dup3\n    /* \"#utility.yul\":9156:9170   */\n  add\n    /* \"#utility.yul\":9146:9170   */\n  swap2\n  pop\n    /* \"#utility.yul\":9215:9217   */\n  0x20\n    /* \"#utility.yul\":9204:9213   */\n  dup6\n    /* \"#utility.yul\":9200:9218   */\n  add\n    /* \"#utility.yul\":9187:9218   */\n  swap5\n  pop\n    /* \"#utility.yul\":9061:9065   */\n  0x20\n    /* \"#utility.yul\":9058:9059   */\n  dup2\n    /* \"#utility.yul\":9054:9066   */\n  add\n    /* \"#utility.yul\":9049:9066   */\n  swap1\n  pop\n    /* \"#utility.yul\":9024:9232   */\n  jump(tag_159)\ntag_161:\n    /* \"#utility.yul\":9260:9266   */\n  dup7\n    /* \"#utility.yul\":9251:9258   */\n  dup4\n    /* \"#utility.yul\":9248:9267   */\n  lt\n    /* \"#utility.yul\":9245:9424   */\n  iszero\n  tag_162\n  jumpi\n    /* \"#utility.yul\":9318:9327   */\n  dup5\n    /* \"#utility.yul\":9313:9316   */\n  dup10\n    /* \"#utility.yul\":9309:9328   */\n  add\n    /* \"#utility.yul\":9303:9329   */\n  mload\n    /* \"#utility.yul\":9361:9409   */\n  tag_163\n    /* \"#utility.yul\":9403:9407   */\n  0x1f\n    /* \"#utility.yul\":9395:9401   */\n  dup10\n    /* \"#utility.yul\":9391:9408   */\n  and\n    /* \"#utility.yul\":9380:9389   */\n  dup3\n    /* \"#utility.yul\":9361:9409   */\n  tag_45\n  jump\t// in\ntag_163:\n    /* \"#utility.yul\":9353:9359   */\n  dup4\n    /* \"#utility.yul\":9346:9410   */\n  sstore\n    /* \"#utility.yul\":9268:9424   */\n  pop\n    /* \"#utility.yul\":9245:9424   */\ntag_162:\n    /* \"#utility.yul\":9470:9471   */\n  0x01\n    /* \"#utility.yul\":9466:9467   */\n  0x02\n    /* \"#utility.yul\":9458:9464   */\n  dup9\n    /* \"#utility.yul\":9454:9468   */\n  mul\n    /* \"#utility.yul\":9450:9472   */\n  add\n    /* \"#utility.yul\":9444:9448   */\n  dup9\n    /* \"#utility.yul\":9437:9473   */\n  sstore\n    /* \"#utility.yul\":8872:9483   */\n  pop\n  pop\n  pop\n    /* \"#utility.yul\":8835:9722   */\ntag_154:\n  pop\n    /* \"#utility.yul\":8425:9728   */\n  pop\n  pop\n  pop\n    /* \"#utility.yul\":8333:9728   */\n  pop\n  pop\n  jump\t// out\n    /* \"nuclea-aula05.sol\":676:3844  contract Aluguel {... */\ntag_8:\n  dataSize(sub_0)\n  dup1\n  dataOffset(sub_0)\n  0x00\n  codecopy\n  0x00\n  return\nstop\n\nsub_0: assembly {\n        /* \"nuclea-aula05.sol\":676:3844  contract Aluguel {... */\n      mstore(0x40, 0x80)\n      jumpi(tag_1, lt(calldatasize, 0x04))\n      shr(0xe0, calldataload(0x00))\n      dup1\n      0x8d2802d9\n      gt\n      tag_17\n      jumpi\n      dup1\n      0xaf74c59a\n      gt\n      tag_18\n      jumpi\n      dup1\n      0xaf74c59a\n      eq\n      tag_13\n      jumpi\n      dup1\n      0xb235612a\n      eq\n      tag_14\n      jumpi\n      dup1\n      0xb3fbc324\n      eq\n      tag_15\n      jumpi\n      dup1\n      0xe862b9e1\n      eq\n      tag_16\n      jumpi\n      jump(tag_1)\n    tag_18:\n      dup1\n      0x8d2802d9\n      eq\n      tag_9\n      jumpi\n      dup1\n      0x8da5cb5b\n      eq\n      tag_10\n      jumpi\n      dup1\n      0x960daf46\n      eq\n      tag_11\n      jumpi\n      dup1\n      0xaec7f99c\n      eq\n      tag_12\n      jumpi\n      jump(tag_1)\n    tag_17:\n      dup1\n      0x409bb8ab\n      gt\n      tag_19\n      jumpi\n      dup1\n      0x409bb8ab\n      eq\n      tag_5\n      jumpi\n      dup1\n      0x5098e165\n      eq\n      tag_6\n      jumpi\n      dup1\n      0x5a661872\n      eq\n      tag_7\n      jumpi\n      dup1\n      0x68f01ee9\n      eq\n      tag_8\n      jumpi\n      jump(tag_1)\n    tag_19:\n      dup1\n      0x03deed58\n      eq\n      tag_2\n      jumpi\n      dup1\n      0x2d058150\n      eq\n      tag_3\n      jumpi\n      dup1\n      0x35f580f0\n      eq\n      tag_4\n      jumpi\n    tag_1:\n      0x00\n      dup1\n      revert\n        /* \"nuclea-aula05.sol\":1649:1967  function simulaMulta( uint256 mesesRestantes, uint256 totalMesesContrato) public view returns(uint256 valorMulta) ... */\n    tag_2:\n      callvalue\n      dup1\n      iszero\n      tag_20\n      jumpi\n      0x00\n      dup1\n      revert\n    tag_20:\n      pop\n      tag_21\n      0x04\n      dup1\n      calldatasize\n      sub\n      dup2\n      add\n      swap1\n      tag_22\n      swap2\n      swap1\n      tag_23\n      jump\t// in\n    tag_22:\n      tag_24\n      jump\t// in\n    tag_21:\n      mload(0x40)\n      tag_25\n      swap2\n      swap1\n      tag_26\n      jump\t// in\n    tag_25:\n      mload(0x40)\n      dup1\n      swap2\n      sub\n      swap1\n      return\n        /* \"nuclea-aula05.sol\":1552:1642  function valorAtualDoAluguel() public view returns (uint256) {... */\n    tag_3:\n      callvalue\n      dup1\n      iszero\n      tag_27\n      jumpi\n      0x00\n      dup1\n      revert\n    tag_27:\n      pop\n      tag_28\n      tag_29\n      jump\t// in\n    tag_28:\n      mload(0x40)\n      tag_30\n      swap2\n      swap1\n      tag_26\n      jump\t// in\n    tag_30:\n      mload(0x40)\n      dup1\n      swap2\n      sub\n      swap1\n      return\n        /* \"nuclea-aula05.sol\":2479:2796  function aplicaMulta(uint256 mesesRestantes, uint256 percentual) public     {... */\n    tag_4:\n      callvalue\n      dup1\n      iszero\n      tag_31\n      jumpi\n      0x00\n      dup1\n      revert\n    tag_31:\n      pop\n      tag_32\n      0x04\n      dup1\n      calldatasize\n      sub\n      dup2\n      add\n      swap1\n      tag_33\n      swap2\n      swap1\n      tag_23\n      jump\t// in\n    tag_33:\n      tag_34\n      jump\t// in\n    tag_32:\n      stop\n        /* \"nuclea-aula05.sol\":795:818  string public locatario */\n    tag_5:\n      callvalue\n      dup1\n      iszero\n      tag_35\n      jumpi\n      0x00\n      dup1\n      revert\n    tag_35:\n      pop\n      tag_36\n      tag_37\n      jump\t// in\n    tag_36:\n      mload(0x40)\n      tag_38\n      swap2\n      swap1\n      tag_39\n      jump\t// in\n    tag_38:\n      mload(0x40)\n      dup1\n      swap2\n      sub\n      swap1\n      return\n        /* \"nuclea-aula05.sol\":824:845  string public locador */\n    tag_6:\n      callvalue\n      dup1\n      iszero\n      tag_40\n      jumpi\n      0x00\n      dup1\n      revert\n    tag_40:\n      pop\n      tag_41\n      tag_42\n      jump\t// in\n    tag_41:\n      mload(0x40)\n      tag_43\n      swap2\n      swap1\n      tag_39\n      jump\t// in\n    tag_43:\n      mload(0x40)\n      dup1\n      swap2\n      sub\n      swap1\n      return\n        /* \"nuclea-aula05.sol\":948:987  DadosPagamento[] public statusPagamento */\n    tag_7:\n      callvalue\n      dup1\n      iszero\n      tag_44\n      jumpi\n      0x00\n      dup1\n      revert\n    tag_44:\n      pop\n      tag_45\n      0x04\n      dup1\n      calldatasize\n      sub\n      dup2\n      add\n      swap1\n      tag_46\n      swap2\n      swap1\n      tag_47\n      jump\t// in\n    tag_46:\n      tag_48\n      jump\t// in\n    tag_45:\n      mload(0x40)\n      tag_49\n      swap3\n      swap2\n      swap1\n      tag_50\n      jump\t// in\n    tag_49:\n      mload(0x40)\n      dup1\n      swap2\n      sub\n      swap1\n      return\n        /* \"nuclea-aula05.sol\":878:942  uint256 constant public numeroMaximoLegalDeAlugueisParaMulta = 3 */\n    tag_8:\n      callvalue\n      dup1\n      iszero\n      tag_51\n      jumpi\n      0x00\n      dup1\n      revert\n    tag_51:\n      pop\n      tag_52\n      tag_53\n      jump\t// in\n    tag_52:\n      mload(0x40)\n      tag_54\n      swap2\n      swap1\n      tag_26\n      jump\t// in\n    tag_54:\n      mload(0x40)\n      dup1\n      swap2\n      sub\n      swap1\n      return\n        /* \"nuclea-aula05.sol\":2811:3087  function receberPagamento() public payable {        ... */\n    tag_9:\n      tag_55\n      tag_56\n      jump\t// in\n    tag_55:\n      stop\n        /* \"nuclea-aula05.sol\":1142:1162  address public owner */\n    tag_10:\n      callvalue\n      dup1\n      iszero\n      tag_57\n      jumpi\n      0x00\n      dup1\n      revert\n    tag_57:\n      pop\n      tag_58\n      tag_59\n      jump\t// in\n    tag_58:\n      mload(0x40)\n      tag_60\n      swap2\n      swap1\n      tag_61\n      jump\t// in\n    tag_60:\n      mload(0x40)\n      dup1\n      swap2\n      sub\n      swap1\n      return\n        /* \"nuclea-aula05.sol\":1982:2367  function reajustaAluguel(uint256 percentualReajuste) public {... */\n    tag_11:\n      callvalue\n      dup1\n      iszero\n      tag_62\n      jumpi\n      0x00\n      dup1\n      revert\n    tag_62:\n      pop\n      tag_63\n      0x04\n      dup1\n      calldatasize\n      sub\n      dup2\n      add\n      swap1\n      tag_64\n      swap2\n      swap1\n      tag_47\n      jump\t// in\n    tag_64:\n      tag_65\n      jump\t// in\n    tag_63:\n      stop\n        /* \"nuclea-aula05.sol\":3512:3842  function historicoDePagto() public view returns (uint valorTotalRecebido, uint numAluguelRecebido) {... */\n    tag_12:\n      callvalue\n      dup1\n      iszero\n      tag_66\n      jumpi\n      0x00\n      dup1\n      revert\n    tag_66:\n      pop\n      tag_67\n      tag_68\n      jump\t// in\n    tag_67:\n      mload(0x40)\n      tag_69\n      swap3\n      swap2\n      swap1\n      tag_50\n      jump\t// in\n    tag_69:\n      mload(0x40)\n      dup1\n      swap2\n      sub\n      swap1\n      return\n        /* \"nuclea-aula05.sol\":1101:1136  address payable public contaLocador */\n    tag_13:\n      callvalue\n      dup1\n      iszero\n      tag_70\n      jumpi\n      0x00\n      dup1\n      revert\n    tag_70:\n      pop\n      tag_71\n      tag_72\n      jump\t// in\n    tag_71:\n      mload(0x40)\n      tag_73\n      swap2\n      swap1\n      tag_74\n      jump\t// in\n    tag_73:\n      mload(0x40)\n      dup1\n      swap2\n      sub\n      swap1\n      return\n        /* \"nuclea-aula05.sol\":2377:2473  function aditamentoValorAluguel(uint256 valorCerto) public   {... */\n    tag_14:\n      callvalue\n      dup1\n      iszero\n      tag_75\n      jumpi\n      0x00\n      dup1\n      revert\n    tag_75:\n      pop\n      tag_76\n      0x04\n      dup1\n      calldatasize\n      sub\n      dup2\n      add\n      swap1\n      tag_77\n      swap2\n      swap1\n      tag_47\n      jump\t// in\n    tag_77:\n      tag_78\n      jump\t// in\n    tag_76:\n      stop\n        /* \"nuclea-aula05.sol\":3153:3378  function retornaTexto(uint256 _parametro) public view returns (string memory) {... */\n    tag_15:\n      callvalue\n      dup1\n      iszero\n      tag_79\n      jumpi\n      0x00\n      dup1\n      revert\n    tag_79:\n      pop\n      tag_80\n      0x04\n      dup1\n      calldatasize\n      sub\n      dup2\n      add\n      swap1\n      tag_81\n      swap2\n      swap1\n      tag_47\n      jump\t// in\n    tag_81:\n      tag_82\n      jump\t// in\n    tag_80:\n      mload(0x40)\n      tag_83\n      swap2\n      swap1\n      tag_39\n      jump\t// in\n    tag_83:\n      mload(0x40)\n      dup1\n      swap2\n      sub\n      swap1\n      return\n        /* \"nuclea-aula05.sol\":3388:3506  function quantosPagamentosJaForamFeitos() public view returns (uint256) {... */\n    tag_16:\n      callvalue\n      dup1\n      iszero\n      tag_84\n      jumpi\n      0x00\n      dup1\n      revert\n    tag_84:\n      pop\n      tag_85\n      tag_86\n      jump\t// in\n    tag_85:\n      mload(0x40)\n      tag_87\n      swap2\n      swap1\n      tag_26\n      jump\t// in\n    tag_87:\n      mload(0x40)\n      dup1\n      swap2\n      sub\n      swap1\n      return\n        /* \"nuclea-aula05.sol\":1649:1967  function simulaMulta( uint256 mesesRestantes, uint256 totalMesesContrato) public view returns(uint256 valorMulta) ... */\n    tag_24:\n        /* \"nuclea-aula05.sol\":1743:1761  uint256 valorMulta */\n      0x00\n        /* \"nuclea-aula05.sol\":941:942  3 */\n      0x03\n        /* \"nuclea-aula05.sol\":1791:1796  valor */\n      sload(0x02)\n        /* \"nuclea-aula05.sol\":1791:1833  valor*numeroMaximoLegalDeAlugueisParaMulta */\n      tag_89\n      swap2\n      swap1\n      tag_90\n      jump\t// in\n    tag_89:\n        /* \"nuclea-aula05.sol\":1778:1833  valorMulta = valor*numeroMaximoLegalDeAlugueisParaMulta */\n      swap1\n      pop\n        /* \"nuclea-aula05.sol\":1867:1885  totalMesesContrato */\n      dup2\n        /* \"nuclea-aula05.sol\":1856:1866  valorMulta */\n      dup2\n        /* \"nuclea-aula05.sol\":1856:1885  valorMulta/totalMesesContrato */\n      tag_91\n      swap2\n      swap1\n      tag_92\n      jump\t// in\n    tag_91:\n        /* \"nuclea-aula05.sol\":1843:1885  valorMulta = valorMulta/totalMesesContrato */\n      swap1\n      pop\n        /* \"nuclea-aula05.sol\":1919:1933  mesesRestantes */\n      dup3\n        /* \"nuclea-aula05.sol\":1908:1918  valorMulta */\n      dup2\n        /* \"nuclea-aula05.sol\":1908:1933  valorMulta*mesesRestantes */\n      tag_93\n      swap2\n      swap1\n      tag_90\n      jump\t// in\n    tag_93:\n        /* \"nuclea-aula05.sol\":1895:1933  valorMulta = valorMulta*mesesRestantes */\n      swap1\n      pop\n        /* \"nuclea-aula05.sol\":1649:1967  function simulaMulta( uint256 mesesRestantes, uint256 totalMesesContrato) public view returns(uint256 valorMulta) ... */\n      swap3\n      swap2\n      pop\n      pop\n      jump\t// out\n        /* \"nuclea-aula05.sol\":1552:1642  function valorAtualDoAluguel() public view returns (uint256) {... */\n    tag_29:\n        /* \"nuclea-aula05.sol\":1604:1611  uint256 */\n      0x00\n        /* \"nuclea-aula05.sol\":1630:1635  valor */\n      sload(0x02)\n        /* \"nuclea-aula05.sol\":1623:1635  return valor */\n      swap1\n      pop\n        /* \"nuclea-aula05.sol\":1552:1642  function valorAtualDoAluguel() public view returns (uint256) {... */\n      swap1\n      jump\t// out\n        /* \"nuclea-aula05.sol\":2479:2796  function aplicaMulta(uint256 mesesRestantes, uint256 percentual) public     {... */\n    tag_34:\n        /* \"nuclea-aula05.sol\":2588:2590  30 */\n      0x1e\n        /* \"nuclea-aula05.sol\":2573:2587  mesesRestantes */\n      dup3\n        /* \"nuclea-aula05.sol\":2573:2590  mesesRestantes<30 */\n      lt\n        /* \"nuclea-aula05.sol\":2565:2623  require(mesesRestantes<30, \"Periodo de contrato invalido\") */\n      tag_96\n      jumpi\n      mload(0x40)\n      0x08c379a000000000000000000000000000000000000000000000000000000000\n      dup2\n      mstore\n      0x04\n      add\n      tag_97\n      swap1\n      tag_98\n      jump\t// in\n    tag_97:\n      mload(0x40)\n      dup1\n      swap2\n      sub\n      swap1\n      revert\n    tag_96:\n        /* \"nuclea-aula05.sol\":2638:2657  uint numeroDeVoltas */\n      0x00\n        /* \"nuclea-aula05.sol\":2633:2790  for (uint numeroDeVoltas=0; numeroDeVoltas < mesesRestantes; numeroDeVoltas=numeroDeVoltas+2) {... */\n    tag_99:\n        /* \"nuclea-aula05.sol\":2678:2692  mesesRestantes */\n      dup3\n        /* \"nuclea-aula05.sol\":2661:2675  numeroDeVoltas */\n      dup2\n        /* \"nuclea-aula05.sol\":2661:2692  numeroDeVoltas < mesesRestantes */\n      lt\n        /* \"nuclea-aula05.sol\":2633:2790  for (uint numeroDeVoltas=0; numeroDeVoltas < mesesRestantes; numeroDeVoltas=numeroDeVoltas+2) {... */\n      iszero\n      tag_100\n      jumpi\n        /* \"nuclea-aula05.sol\":2775:2778  100 */\n      0x64\n        /* \"nuclea-aula05.sol\":2763:2773  percentual */\n      dup3\n        /* \"nuclea-aula05.sol\":2757:2762  valor */\n      sload(0x02)\n        /* \"nuclea-aula05.sol\":2757:2773  valor*percentual */\n      tag_102\n      swap2\n      swap1\n      tag_90\n      jump\t// in\n    tag_102:\n        /* \"nuclea-aula05.sol\":2756:2778  (valor*percentual)/100 */\n      tag_103\n      swap2\n      swap1\n      tag_92\n      jump\t// in\n    tag_103:\n        /* \"nuclea-aula05.sol\":2749:2754  valor */\n      sload(0x02)\n        /* \"nuclea-aula05.sol\":2749:2779  valor+((valor*percentual)/100) */\n      tag_104\n      swap2\n      swap1\n      tag_105\n      jump\t// in\n    tag_104:\n        /* \"nuclea-aula05.sol\":2741:2746  valor */\n      0x02\n        /* \"nuclea-aula05.sol\":2741:2779  valor = valor+((valor*percentual)/100) */\n      dup2\n      swap1\n      sstore\n      pop\n        /* \"nuclea-aula05.sol\":2724:2725  2 */\n      0x02\n        /* \"nuclea-aula05.sol\":2709:2723  numeroDeVoltas */\n      dup2\n        /* \"nuclea-aula05.sol\":2709:2725  numeroDeVoltas+2 */\n      tag_106\n      swap2\n      swap1\n      tag_105\n      jump\t// in\n    tag_106:\n        /* \"nuclea-aula05.sol\":2694:2725  numeroDeVoltas=numeroDeVoltas+2 */\n      swap1\n      pop\n        /* \"nuclea-aula05.sol\":2633:2790  for (uint numeroDeVoltas=0; numeroDeVoltas < mesesRestantes; numeroDeVoltas=numeroDeVoltas+2) {... */\n      jump(tag_99)\n    tag_100:\n      pop\n        /* \"nuclea-aula05.sol\":2479:2796  function aplicaMulta(uint256 mesesRestantes, uint256 percentual) public     {... */\n      pop\n      pop\n      jump\t// out\n        /* \"nuclea-aula05.sol\":795:818  string public locatario */\n    tag_37:\n      0x00\n      dup1\n      sload\n      tag_107\n      swap1\n      tag_108\n      jump\t// in\n    tag_107:\n      dup1\n      0x1f\n      add\n      0x20\n      dup1\n      swap2\n      div\n      mul\n      0x20\n      add\n      mload(0x40)\n      swap1\n      dup2\n      add\n      0x40\n      mstore\n      dup1\n      swap3\n      swap2\n      swap1\n      dup2\n      dup2\n      mstore\n      0x20\n      add\n      dup3\n      dup1\n      sload\n      tag_109\n      swap1\n      tag_108\n      jump\t// in\n    tag_109:\n      dup1\n      iszero\n      tag_110\n      jumpi\n      dup1\n      0x1f\n      lt\n      tag_111\n      jumpi\n      0x0100\n      dup1\n      dup4\n      sload\n      div\n      mul\n      dup4\n      mstore\n      swap2\n      0x20\n      add\n      swap2\n      jump(tag_110)\n    tag_111:\n      dup3\n      add\n      swap2\n      swap1\n      0x00\n      mstore\n      keccak256(0x00, 0x20)\n      swap1\n    tag_112:\n      dup2\n      sload\n      dup2\n      mstore\n      swap1\n      0x01\n      add\n      swap1\n      0x20\n      add\n      dup1\n      dup4\n      gt\n      tag_112\n      jumpi\n      dup3\n      swap1\n      sub\n      0x1f\n      and\n      dup3\n      add\n      swap2\n    tag_110:\n      pop\n      pop\n      pop\n      pop\n      pop\n      dup2\n      jump\t// out\n        /* \"nuclea-aula05.sol\":824:845  string public locador */\n    tag_42:\n      0x01\n      dup1\n      sload\n      tag_113\n      swap1\n      tag_108\n      jump\t// in\n    tag_113:\n      dup1\n      0x1f\n      add\n      0x20\n      dup1\n      swap2\n      div\n      mul\n      0x20\n      add\n      mload(0x40)\n      swap1\n      dup2\n      add\n      0x40\n      mstore\n      dup1\n      swap3\n      swap2\n      swap1\n      dup2\n      dup2\n      mstore\n      0x20\n      add\n      dup3\n      dup1\n      sload\n      tag_114\n      swap1\n      tag_108\n      jump\t// in\n    tag_114:\n      dup1\n      iszero\n      tag_115\n      jumpi\n      dup1\n      0x1f\n      lt\n      tag_116\n      jumpi\n      0x0100\n      dup1\n      dup4\n      sload\n      div\n      mul\n      dup4\n      mstore\n      swap2\n      0x20\n      add\n      swap2\n      jump(tag_115)\n    tag_116:\n      dup3\n      add\n      swap2\n      swap1\n      0x00\n      mstore\n      keccak256(0x00, 0x20)\n      swap1\n    tag_117:\n      dup2\n      sload\n      dup2\n      mstore\n      swap1\n      0x01\n      add\n      swap1\n      0x20\n      add\n      dup1\n      dup4\n      gt\n      tag_117\n      jumpi\n      dup3\n      swap1\n      sub\n      0x1f\n      and\n      dup3\n      add\n      swap2\n    tag_115:\n      pop\n      pop\n      pop\n      pop\n      pop\n      dup2\n      jump\t// out\n        /* \"nuclea-aula05.sol\":948:987  DadosPagamento[] public statusPagamento */\n    tag_48:\n      0x03\n      dup2\n      dup2\n      sload\n      dup2\n      lt\n      tag_118\n      jumpi\n      0x00\n      dup1\n      revert\n    tag_118:\n      swap1\n      0x00\n      mstore\n      keccak256(0x00, 0x20)\n      swap1\n      0x02\n      mul\n      add\n      0x00\n      swap2\n      pop\n      swap1\n      pop\n      dup1\n      0x00\n      add\n      sload\n      swap1\n      dup1\n      0x01\n      add\n      sload\n      swap1\n      pop\n      dup3\n      jump\t// out\n        /* \"nuclea-aula05.sol\":878:942  uint256 constant public numeroMaximoLegalDeAlugueisParaMulta = 3 */\n    tag_53:\n        /* \"nuclea-aula05.sol\":941:942  3 */\n      0x03\n        /* \"nuclea-aula05.sol\":878:942  uint256 constant public numeroMaximoLegalDeAlugueisParaMulta = 3 */\n      dup2\n      jump\t// out\n        /* \"nuclea-aula05.sol\":2811:3087  function receberPagamento() public payable {        ... */\n    tag_56:\n        /* \"nuclea-aula05.sol\":2891:2896  valor */\n      sload(0x02)\n        /* \"nuclea-aula05.sol\":2880:2889  msg.value */\n      callvalue\n        /* \"nuclea-aula05.sol\":2880:2896  msg.value>=valor */\n      lt\n      iszero\n        /* \"nuclea-aula05.sol\":2872:2919  require(msg.value>=valor, \"Valor insuficiente\") */\n      tag_121\n      jumpi\n      mload(0x40)\n      0x08c379a000000000000000000000000000000000000000000000000000000000\n      dup2\n      mstore\n      0x04\n      add\n      tag_122\n      swap1\n      tag_123\n      jump\t// in\n    tag_122:\n      mload(0x40)\n      dup1\n      swap2\n      sub\n      swap1\n      revert\n    tag_121:\n        /* \"nuclea-aula05.sol\":2929:2941  contaLocador */\n      0x04\n      0x00\n      swap1\n      sload\n      swap1\n      0x0100\n      exp\n      swap1\n      div\n      0xffffffffffffffffffffffffffffffffffffffff\n      and\n        /* \"nuclea-aula05.sol\":2929:2950  contaLocador.transfer */\n      0xffffffffffffffffffffffffffffffffffffffff\n      and\n        /* \"nuclea-aula05.sol\":2929:2961  contaLocador.transfer(msg.value) */\n      0x08fc\n        /* \"nuclea-aula05.sol\":2951:2960  msg.value */\n      callvalue\n        /* \"nuclea-aula05.sol\":2929:2961  contaLocador.transfer(msg.value) */\n      swap1\n      dup2\n      iszero\n      mul\n      swap1\n      mload(0x40)\n      0x00\n      mload(0x40)\n      dup1\n      dup4\n      sub\n      dup2\n      dup6\n      dup9\n      dup9\n      call\n      swap4\n      pop\n      pop\n      pop\n      pop\n      iszero\n      dup1\n      iszero\n      tag_125\n      jumpi\n      returndatasize\n      0x00\n      dup1\n      returndatacopy\n      revert(0x00, returndatasize)\n    tag_125:\n      pop\n        /* \"nuclea-aula05.sol\":2971:2998  DadosPagamento memory dPgto */\n      0x00\n        /* \"nuclea-aula05.sol\":3001:3043  DadosPagamento(block.timestamp, msg.value) */\n      mload(0x40)\n      dup1\n      0x40\n      add\n      0x40\n      mstore\n      dup1\n        /* \"nuclea-aula05.sol\":3016:3031  block.timestamp */\n      timestamp\n        /* \"nuclea-aula05.sol\":3001:3043  DadosPagamento(block.timestamp, msg.value) */\n      dup2\n      mstore\n      0x20\n      add\n        /* \"nuclea-aula05.sol\":3033:3042  msg.value */\n      callvalue\n        /* \"nuclea-aula05.sol\":3001:3043  DadosPagamento(block.timestamp, msg.value) */\n      dup2\n      mstore\n      pop\n        /* \"nuclea-aula05.sol\":2971:3043  DadosPagamento memory dPgto = DadosPagamento(block.timestamp, msg.value) */\n      swap1\n      pop\n        /* \"nuclea-aula05.sol\":3053:3068  statusPagamento */\n      0x03\n        /* \"nuclea-aula05.sol\":3074:3079  dPgto */\n      dup2\n        /* \"nuclea-aula05.sol\":3053:3080  statusPagamento.push(dPgto) */\n      swap1\n      dup1\n      0x01\n      dup2\n      sload\n      add\n      dup1\n      dup3\n      sstore\n      dup1\n      swap2\n      pop\n      pop\n      0x01\n      swap1\n      sub\n      swap1\n      0x00\n      mstore\n      keccak256(0x00, 0x20)\n      swap1\n      0x02\n      mul\n      add\n      0x00\n      swap1\n      swap2\n      swap1\n      swap2\n      swap1\n      swap2\n      pop\n      0x00\n      dup3\n      add\n      mload\n      dup2\n      0x00\n      add\n      sstore\n      0x20\n      dup3\n      add\n      mload\n      dup2\n      0x01\n      add\n      sstore\n      pop\n      pop\n        /* \"nuclea-aula05.sol\":2854:3087  {        ... */\n      pop\n        /* \"nuclea-aula05.sol\":2811:3087  function receberPagamento() public payable {        ... */\n      jump\t// out\n        /* \"nuclea-aula05.sol\":1142:1162  address public owner */\n    tag_59:\n      0x05\n      0x00\n      swap1\n      sload\n      swap1\n      0x0100\n      exp\n      swap1\n      div\n      0xffffffffffffffffffffffffffffffffffffffff\n      and\n      dup2\n      jump\t// out\n        /* \"nuclea-aula05.sol\":1982:2367  function reajustaAluguel(uint256 percentualReajuste) public {... */\n    tag_65:\n        /* \"nuclea-aula05.sol\":2074:2079  owner */\n      0x05\n      0x00\n      swap1\n      sload\n      swap1\n      0x0100\n      exp\n      swap1\n      div\n      0xffffffffffffffffffffffffffffffffffffffff\n      and\n        /* \"nuclea-aula05.sol\":2060:2079  msg.sender == owner */\n      0xffffffffffffffffffffffffffffffffffffffff\n      and\n        /* \"nuclea-aula05.sol\":2060:2070  msg.sender */\n      caller\n        /* \"nuclea-aula05.sol\":2060:2079  msg.sender == owner */\n      0xffffffffffffffffffffffffffffffffffffffff\n      and\n      eq\n        /* \"nuclea-aula05.sol\":2052:2133  require(msg.sender == owner, \"somente o dono do imovel pode reajustar o aluguel\") */\n      tag_128\n      jumpi\n      mload(0x40)\n      0x08c379a000000000000000000000000000000000000000000000000000000000\n      dup2\n      mstore\n      0x04\n      add\n      tag_129\n      swap1\n      tag_130\n      jump\t// in\n    tag_129:\n      mload(0x40)\n      dup1\n      swap2\n      sub\n      swap1\n      revert\n    tag_128:\n        /* \"nuclea-aula05.sol\":2168:2170  20 */\n      0x14\n        /* \"nuclea-aula05.sol\":2147:2165  percentualReajuste */\n      dup2\n        /* \"nuclea-aula05.sol\":2147:2170  percentualReajuste > 20 */\n      gt\n        /* \"nuclea-aula05.sol\":2143:2220  if (percentualReajuste > 20) {... */\n      iszero\n      tag_131\n      jumpi\n        /* \"nuclea-aula05.sol\":2207:2209  20 */\n      0x14\n        /* \"nuclea-aula05.sol\":2186:2209  percentualReajuste = 20 */\n      swap1\n      pop\n        /* \"nuclea-aula05.sol\":2143:2220  if (percentualReajuste > 20) {... */\n    tag_131:\n        /* \"nuclea-aula05.sol\":2229:2253  uint256 valorDoAcrescimo */\n      0x00\n        /* \"nuclea-aula05.sol\":2314:2317  100 */\n      0x64\n        /* \"nuclea-aula05.sol\":2294:2312  percentualReajuste */\n      dup3\n        /* \"nuclea-aula05.sol\":2288:2293  valor */\n      sload(0x02)\n        /* \"nuclea-aula05.sol\":2288:2312  valor*percentualReajuste */\n      tag_132\n      swap2\n      swap1\n      tag_90\n      jump\t// in\n    tag_132:\n        /* \"nuclea-aula05.sol\":2287:2317  (valor*percentualReajuste)/100 */\n      tag_133\n      swap2\n      swap1\n      tag_92\n      jump\t// in\n    tag_133:\n        /* \"nuclea-aula05.sol\":2267:2318  valorDoAcrescimo = ((valor*percentualReajuste)/100) */\n      swap1\n      pop\n        /* \"nuclea-aula05.sol\":2344:2360  valorDoAcrescimo */\n      dup1\n        /* \"nuclea-aula05.sol\":2336:2341  valor */\n      sload(0x02)\n        /* \"nuclea-aula05.sol\":2336:2360  valor + valorDoAcrescimo */\n      tag_134\n      swap2\n      swap1\n      tag_105\n      jump\t// in\n    tag_134:\n        /* \"nuclea-aula05.sol\":2328:2333  valor */\n      0x02\n        /* \"nuclea-aula05.sol\":2328:2360  valor = valor + valorDoAcrescimo */\n      dup2\n      swap1\n      sstore\n      pop\n        /* \"nuclea-aula05.sol\":2042:2367  {... */\n      pop\n        /* \"nuclea-aula05.sol\":1982:2367  function reajustaAluguel(uint256 percentualReajuste) public {... */\n      pop\n      jump\t// out\n        /* \"nuclea-aula05.sol\":3512:3842  function historicoDePagto() public view returns (uint valorTotalRecebido, uint numAluguelRecebido) {... */\n    tag_68:\n        /* \"nuclea-aula05.sol\":3561:3584  uint valorTotalRecebido */\n      0x00\n        /* \"nuclea-aula05.sol\":3586:3609  uint numAluguelRecebido */\n      dup1\n        /* \"nuclea-aula05.sol\":3626:3635  uint256 i */\n      0x00\n        /* \"nuclea-aula05.sol\":3621:3779  for (uint256 i; i < statusPagamento.length; i++) {... */\n    tag_136:\n        /* \"nuclea-aula05.sol\":3641:3656  statusPagamento */\n      0x03\n        /* \"nuclea-aula05.sol\":3641:3663  statusPagamento.length */\n      dup1\n      sload\n      swap1\n      pop\n        /* \"nuclea-aula05.sol\":3637:3638  i */\n      dup2\n        /* \"nuclea-aula05.sol\":3637:3663  i < statusPagamento.length */\n      lt\n        /* \"nuclea-aula05.sol\":3621:3779  for (uint256 i; i < statusPagamento.length; i++) {... */\n      iszero\n      tag_137\n      jumpi\n        /* \"nuclea-aula05.sol\":3706:3721  statusPagamento */\n      0x03\n        /* \"nuclea-aula05.sol\":3722:3723  i */\n      dup2\n        /* \"nuclea-aula05.sol\":3706:3724  statusPagamento[i] */\n      dup2\n      sload\n      dup2\n      lt\n      tag_139\n      jumpi\n      tag_140\n      tag_141\n      jump\t// in\n    tag_140:\n    tag_139:\n      swap1\n      0x00\n      mstore\n      keccak256(0x00, 0x20)\n      swap1\n      0x02\n      mul\n      add\n        /* \"nuclea-aula05.sol\":3706:3734  statusPagamento[i].valorPago */\n      0x01\n      add\n      sload\n        /* \"nuclea-aula05.sol\":3684:3734  valorTotalRecebido += statusPagamento[i].valorPago */\n      dup4\n      tag_143\n      swap2\n      swap1\n      tag_105\n      jump\t// in\n    tag_143:\n      swap3\n      pop\n        /* \"nuclea-aula05.sol\":3748:3768  numAluguelRecebido++ */\n      dup2\n      dup1\n      tag_144\n      swap1\n      tag_145\n      jump\t// in\n    tag_144:\n      swap3\n      pop\n      pop\n        /* \"nuclea-aula05.sol\":3665:3668  i++ */\n      dup1\n      dup1\n      tag_146\n      swap1\n      tag_145\n      jump\t// in\n    tag_146:\n      swap2\n      pop\n      pop\n        /* \"nuclea-aula05.sol\":3621:3779  for (uint256 i; i < statusPagamento.length; i++) {... */\n      jump(tag_136)\n    tag_137:\n      pop\n        /* \"nuclea-aula05.sol\":3512:3842  function historicoDePagto() public view returns (uint valorTotalRecebido, uint numAluguelRecebido) {... */\n      swap1\n      swap2\n      jump\t// out\n        /* \"nuclea-aula05.sol\":1101:1136  address payable public contaLocador */\n    tag_72:\n      0x04\n      0x00\n      swap1\n      sload\n      swap1\n      0x0100\n      exp\n      swap1\n      div\n      0xffffffffffffffffffffffffffffffffffffffff\n      and\n      dup2\n      jump\t// out\n        /* \"nuclea-aula05.sol\":2377:2473  function aditamentoValorAluguel(uint256 valorCerto) public   {... */\n    tag_78:\n        /* \"nuclea-aula05.sol\":2456:2466  valorCerto */\n      dup1\n        /* \"nuclea-aula05.sol\":2448:2453  valor */\n      0x02\n        /* \"nuclea-aula05.sol\":2448:2466  valor = valorCerto */\n      dup2\n      swap1\n      sstore\n      pop\n        /* \"nuclea-aula05.sol\":2377:2473  function aditamentoValorAluguel(uint256 valorCerto) public   {... */\n      pop\n      jump\t// out\n        /* \"nuclea-aula05.sol\":3153:3378  function retornaTexto(uint256 _parametro) public view returns (string memory) {... */\n    tag_82:\n        /* \"nuclea-aula05.sol\":3216:3229  string memory */\n      0x60\n        /* \"nuclea-aula05.sol\":3268:3272  5000 */\n      0x1388\n        /* \"nuclea-aula05.sol\":3254:3264  _parametro */\n      dup3\n        /* \"nuclea-aula05.sol\":3246:3251  valor */\n      sload(0x02)\n        /* \"nuclea-aula05.sol\":3246:3264  valor * _parametro */\n      tag_149\n      swap2\n      swap1\n      tag_90\n      jump\t// in\n    tag_149:\n        /* \"nuclea-aula05.sol\":3245:3272  (valor * _parametro) > 5000 */\n      gt\n        /* \"nuclea-aula05.sol\":3241:3372  if ((valor * _parametro) > 5000) {... */\n      iszero\n      tag_150\n      jumpi\n        /* \"nuclea-aula05.sol\":3288:3307  return \"Muito caro\" */\n      mload(0x40)\n      dup1\n      0x40\n      add\n      0x40\n      mstore\n      dup1\n      0x0a\n      dup2\n      mstore\n      0x20\n      add\n      0x4d7569746f206361726f00000000000000000000000000000000000000000000\n      dup2\n      mstore\n      pop\n      swap1\n      pop\n      jump(tag_148)\n        /* \"nuclea-aula05.sol\":3241:3372  if ((valor * _parametro) > 5000) {... */\n    tag_150:\n        /* \"nuclea-aula05.sol\":3338:3361  return \"Preco razoavel\" */\n      mload(0x40)\n      dup1\n      0x40\n      add\n      0x40\n      mstore\n      dup1\n      0x0e\n      dup2\n      mstore\n      0x20\n      add\n      0x507265636f2072617a6f6176656c000000000000000000000000000000000000\n      dup2\n      mstore\n      pop\n      swap1\n      pop\n        /* \"nuclea-aula05.sol\":3153:3378  function retornaTexto(uint256 _parametro) public view returns (string memory) {... */\n    tag_148:\n      swap2\n      swap1\n      pop\n      jump\t// out\n        /* \"nuclea-aula05.sol\":3388:3506  function quantosPagamentosJaForamFeitos() public view returns (uint256) {... */\n    tag_86:\n        /* \"nuclea-aula05.sol\":3451:3458  uint256 */\n      0x00\n        /* \"nuclea-aula05.sol\":3477:3492  statusPagamento */\n      0x03\n        /* \"nuclea-aula05.sol\":3477:3499  statusPagamento.length */\n      dup1\n      sload\n      swap1\n      pop\n        /* \"nuclea-aula05.sol\":3470:3499  return statusPagamento.length */\n      swap1\n      pop\n        /* \"nuclea-aula05.sol\":3388:3506  function quantosPagamentosJaForamFeitos() public view returns (uint256) {... */\n      swap1\n      jump\t// out\n        /* \"#utility.yul\":88:205   */\n    tag_154:\n        /* \"#utility.yul\":197:198   */\n      0x00\n        /* \"#utility.yul\":194:195   */\n      dup1\n        /* \"#utility.yul\":187:199   */\n      revert\n        /* \"#utility.yul\":334:411   */\n    tag_156:\n        /* \"#utility.yul\":371:378   */\n      0x00\n        /* \"#utility.yul\":400:405   */\n      dup2\n        /* \"#utility.yul\":389:405   */\n      swap1\n      pop\n        /* \"#utility.yul\":334:411   */\n      swap2\n      swap1\n      pop\n      jump\t// out\n        /* \"#utility.yul\":417:539   */\n    tag_157:\n        /* \"#utility.yul\":490:514   */\n      tag_185\n        /* \"#utility.yul\":508:513   */\n      dup2\n        /* \"#utility.yul\":490:514   */\n      tag_156\n      jump\t// in\n    tag_185:\n        /* \"#utility.yul\":483:488   */\n      dup2\n        /* \"#utility.yul\":480:515   */\n      eq\n        /* \"#utility.yul\":470:533   */\n      tag_186\n      jumpi\n        /* \"#utility.yul\":529:530   */\n      0x00\n        /* \"#utility.yul\":526:527   */\n      dup1\n        /* \"#utility.yul\":519:531   */\n      revert\n        /* \"#utility.yul\":470:533   */\n    tag_186:\n        /* \"#utility.yul\":417:539   */\n      pop\n      jump\t// out\n        /* \"#utility.yul\":545:684   */\n    tag_158:\n        /* \"#utility.yul\":591:596   */\n      0x00\n        /* \"#utility.yul\":629:635   */\n      dup2\n        /* \"#utility.yul\":616:636   */\n      calldataload\n        /* \"#utility.yul\":607:636   */\n      swap1\n      pop\n        /* \"#utility.yul\":645:678   */\n      tag_188\n        /* \"#utility.yul\":672:677   */\n      dup2\n        /* \"#utility.yul\":645:678   */\n      tag_157\n      jump\t// in\n    tag_188:\n        /* \"#utility.yul\":545:684   */\n      swap3\n      swap2\n      pop\n      pop\n      jump\t// out\n        /* \"#utility.yul\":690:1164   */\n    tag_23:\n        /* \"#utility.yul\":758:764   */\n      0x00\n        /* \"#utility.yul\":766:772   */\n      dup1\n        /* \"#utility.yul\":815:817   */\n      0x40\n        /* \"#utility.yul\":803:812   */\n      dup4\n        /* \"#utility.yul\":794:801   */\n      dup6\n        /* \"#utility.yul\":790:813   */\n      sub\n        /* \"#utility.yul\":786:818   */\n      slt\n        /* \"#utility.yul\":783:902   */\n      iszero\n      tag_190\n      jumpi\n        /* \"#utility.yul\":821:900   */\n      tag_191\n      tag_154\n      jump\t// in\n    tag_191:\n        /* \"#utility.yul\":783:902   */\n    tag_190:\n        /* \"#utility.yul\":941:942   */\n      0x00\n        /* \"#utility.yul\":966:1019   */\n      tag_192\n        /* \"#utility.yul\":1011:1018   */\n      dup6\n        /* \"#utility.yul\":1002:1008   */\n      dup3\n        /* \"#utility.yul\":991:1000   */\n      dup7\n        /* \"#utility.yul\":987:1009   */\n      add\n        /* \"#utility.yul\":966:1019   */\n      tag_158\n      jump\t// in\n    tag_192:\n        /* \"#utility.yul\":956:1019   */\n      swap3\n      pop\n        /* \"#utility.yul\":912:1029   */\n      pop\n        /* \"#utility.yul\":1068:1070   */\n      0x20\n        /* \"#utility.yul\":1094:1147   */\n      tag_193\n        /* \"#utility.yul\":1139:1146   */\n      dup6\n        /* \"#utility.yul\":1130:1136   */\n      dup3\n        /* \"#utility.yul\":1119:1128   */\n      dup7\n        /* \"#utility.yul\":1115:1137   */\n      add\n        /* \"#utility.yul\":1094:1147   */\n      tag_158\n      jump\t// in\n    tag_193:\n        /* \"#utility.yul\":1084:1147   */\n      swap2\n      pop\n        /* \"#utility.yul\":1039:1157   */\n      pop\n        /* \"#utility.yul\":690:1164   */\n      swap3\n      pop\n      swap3\n      swap1\n      pop\n      jump\t// out\n        /* \"#utility.yul\":1170:1288   */\n    tag_159:\n        /* \"#utility.yul\":1257:1281   */\n      tag_195\n        /* \"#utility.yul\":1275:1280   */\n      dup2\n        /* \"#utility.yul\":1257:1281   */\n      tag_156\n      jump\t// in\n    tag_195:\n        /* \"#utility.yul\":1252:1255   */\n      dup3\n        /* \"#utility.yul\":1245:1282   */\n      mstore\n        /* \"#utility.yul\":1170:1288   */\n      pop\n      pop\n      jump\t// out\n        /* \"#utility.yul\":1294:1516   */\n    tag_26:\n        /* \"#utility.yul\":1387:1391   */\n      0x00\n        /* \"#utility.yul\":1425:1427   */\n      0x20\n        /* \"#utility.yul\":1414:1423   */\n      dup3\n        /* \"#utility.yul\":1410:1428   */\n      add\n        /* \"#utility.yul\":1402:1428   */\n      swap1\n      pop\n        /* \"#utility.yul\":1438:1509   */\n      tag_197\n        /* \"#utility.yul\":1506:1507   */\n      0x00\n        /* \"#utility.yul\":1495:1504   */\n      dup4\n        /* \"#utility.yul\":1491:1508   */\n      add\n        /* \"#utility.yul\":1482:1488   */\n      dup5\n        /* \"#utility.yul\":1438:1509   */\n      tag_159\n      jump\t// in\n    tag_197:\n        /* \"#utility.yul\":1294:1516   */\n      swap3\n      swap2\n      pop\n      pop\n      jump\t// out\n        /* \"#utility.yul\":1522:1621   */\n    tag_160:\n        /* \"#utility.yul\":1574:1580   */\n      0x00\n        /* \"#utility.yul\":1608:1613   */\n      dup2\n        /* \"#utility.yul\":1602:1614   */\n      mload\n        /* \"#utility.yul\":1592:1614   */\n      swap1\n      pop\n        /* \"#utility.yul\":1522:1621   */\n      swap2\n      swap1\n      pop\n      jump\t// out\n        /* \"#utility.yul\":1627:1796   */\n    tag_161:\n        /* \"#utility.yul\":1711:1722   */\n      0x00\n        /* \"#utility.yul\":1745:1751   */\n      dup3\n        /* \"#utility.yul\":1740:1743   */\n      dup3\n        /* \"#utility.yul\":1733:1752   */\n      mstore\n        /* \"#utility.yul\":1785:1789   */\n      0x20\n        /* \"#utility.yul\":1780:1783   */\n      dup3\n        /* \"#utility.yul\":1776:1790   */\n      add\n        /* \"#utility.yul\":1761:1790   */\n      swap1\n      pop\n        /* \"#utility.yul\":1627:1796   */\n      swap3\n      swap2\n      pop\n      pop\n      jump\t// out\n        /* \"#utility.yul\":1802:2048   */\n    tag_162:\n        /* \"#utility.yul\":1883:1884   */\n      0x00\n        /* \"#utility.yul\":1893:2006   */\n    tag_201:\n        /* \"#utility.yul\":1907:1913   */\n      dup4\n        /* \"#utility.yul\":1904:1905   */\n      dup2\n        /* \"#utility.yul\":1901:1914   */\n      lt\n        /* \"#utility.yul\":1893:2006   */\n      iszero\n      tag_203\n      jumpi\n        /* \"#utility.yul\":1992:1993   */\n      dup1\n        /* \"#utility.yul\":1987:1990   */\n      dup3\n        /* \"#utility.yul\":1983:1994   */\n      add\n        /* \"#utility.yul\":1977:1995   */\n      mload\n        /* \"#utility.yul\":1973:1974   */\n      dup2\n        /* \"#utility.yul\":1968:1971   */\n      dup5\n        /* \"#utility.yul\":1964:1975   */\n      add\n        /* \"#utility.yul\":1957:1996   */\n      mstore\n        /* \"#utility.yul\":1929:1931   */\n      0x20\n        /* \"#utility.yul\":1926:1927   */\n      dup2\n        /* \"#utility.yul\":1922:1932   */\n      add\n        /* \"#utility.yul\":1917:1932   */\n      swap1\n      pop\n        /* \"#utility.yul\":1893:2006   */\n      jump(tag_201)\n    tag_203:\n        /* \"#utility.yul\":2040:2041   */\n      0x00\n        /* \"#utility.yul\":2031:2037   */\n      dup5\n        /* \"#utility.yul\":2026:2029   */\n      dup5\n        /* \"#utility.yul\":2022:2038   */\n      add\n        /* \"#utility.yul\":2015:2042   */\n      mstore\n        /* \"#utility.yul\":1864:2048   */\n      pop\n        /* \"#utility.yul\":1802:2048   */\n      pop\n      pop\n      pop\n      jump\t// out\n        /* \"#utility.yul\":2054:2156   */\n    tag_163:\n        /* \"#utility.yul\":2095:2101   */\n      0x00\n        /* \"#utility.yul\":2146:2148   */\n      0x1f\n        /* \"#utility.yul\":2142:2149   */\n      not\n        /* \"#utility.yul\":2137:2139   */\n      0x1f\n        /* \"#utility.yul\":2130:2135   */\n      dup4\n        /* \"#utility.yul\":2126:2140   */\n      add\n        /* \"#utility.yul\":2122:2150   */\n      and\n        /* \"#utility.yul\":2112:2150   */\n      swap1\n      pop\n        /* \"#utility.yul\":2054:2156   */\n      swap2\n      swap1\n      pop\n      jump\t// out\n        /* \"#utility.yul\":2162:2539   */\n    tag_164:\n        /* \"#utility.yul\":2250:2253   */\n      0x00\n        /* \"#utility.yul\":2278:2317   */\n      tag_206\n        /* \"#utility.yul\":2311:2316   */\n      dup3\n        /* \"#utility.yul\":2278:2317   */\n      tag_160\n      jump\t// in\n    tag_206:\n        /* \"#utility.yul\":2333:2404   */\n      tag_207\n        /* \"#utility.yul\":2397:2403   */\n      dup2\n        /* \"#utility.yul\":2392:2395   */\n      dup6\n        /* \"#utility.yul\":2333:2404   */\n      tag_161\n      jump\t// in\n    tag_207:\n        /* \"#utility.yul\":2326:2404   */\n      swap4\n      pop\n        /* \"#utility.yul\":2413:2478   */\n      tag_208\n        /* \"#utility.yul\":2471:2477   */\n      dup2\n        /* \"#utility.yul\":2466:2469   */\n      dup6\n        /* \"#utility.yul\":2459:2463   */\n      0x20\n        /* \"#utility.yul\":2452:2457   */\n      dup7\n        /* \"#utility.yul\":2448:2464   */\n      add\n        /* \"#utility.yul\":2413:2478   */\n      tag_162\n      jump\t// in\n    tag_208:\n        /* \"#utility.yul\":2503:2532   */\n      tag_209\n        /* \"#utility.yul\":2525:2531   */\n      dup2\n        /* \"#utility.yul\":2503:2532   */\n      tag_163\n      jump\t// in\n    tag_209:\n        /* \"#utility.yul\":2498:2501   */\n      dup5\n        /* \"#utility.yul\":2494:2533   */\n      add\n        /* \"#utility.yul\":2487:2533   */\n      swap2\n      pop\n        /* \"#utility.yul\":2254:2539   */\n      pop\n        /* \"#utility.yul\":2162:2539   */\n      swap3\n      swap2\n      pop\n      pop\n      jump\t// out\n        /* \"#utility.yul\":2545:2858   */\n    tag_39:\n        /* \"#utility.yul\":2658:2662   */\n      0x00\n        /* \"#utility.yul\":2696:2698   */\n      0x20\n        /* \"#utility.yul\":2685:2694   */\n      dup3\n        /* \"#utility.yul\":2681:2699   */\n      add\n        /* \"#utility.yul\":2673:2699   */\n      swap1\n      pop\n        /* \"#utility.yul\":2745:2754   */\n      dup2\n        /* \"#utility.yul\":2739:2743   */\n      dup2\n        /* \"#utility.yul\":2735:2755   */\n      sub\n        /* \"#utility.yul\":2731:2732   */\n      0x00\n        /* \"#utility.yul\":2720:2729   */\n      dup4\n        /* \"#utility.yul\":2716:2733   */\n      add\n        /* \"#utility.yul\":2709:2756   */\n      mstore\n        /* \"#utility.yul\":2773:2851   */\n      tag_211\n        /* \"#utility.yul\":2846:2850   */\n      dup2\n        /* \"#utility.yul\":2837:2843   */\n      dup5\n        /* \"#utility.yul\":2773:2851   */\n      tag_164\n      jump\t// in\n    tag_211:\n        /* \"#utility.yul\":2765:2851   */\n      swap1\n      pop\n        /* \"#utility.yul\":2545:2858   */\n      swap3\n      swap2\n      pop\n      pop\n      jump\t// out\n        /* \"#utility.yul\":2864:3193   */\n    tag_47:\n        /* \"#utility.yul\":2923:2929   */\n      0x00\n        /* \"#utility.yul\":2972:2974   */\n      0x20\n        /* \"#utility.yul\":2960:2969   */\n      dup3\n        /* \"#utility.yul\":2951:2958   */\n      dup5\n        /* \"#utility.yul\":2947:2970   */\n      sub\n        /* \"#utility.yul\":2943:2975   */\n      slt\n        /* \"#utility.yul\":2940:3059   */\n      iszero\n      tag_213\n      jumpi\n        /* \"#utility.yul\":2978:3057   */\n      tag_214\n      tag_154\n      jump\t// in\n    tag_214:\n        /* \"#utility.yul\":2940:3059   */\n    tag_213:\n        /* \"#utility.yul\":3098:3099   */\n      0x00\n        /* \"#utility.yul\":3123:3176   */\n      tag_215\n        /* \"#utility.yul\":3168:3175   */\n      dup5\n        /* \"#utility.yul\":3159:3165   */\n      dup3\n        /* \"#utility.yul\":3148:3157   */\n      dup6\n        /* \"#utility.yul\":3144:3166   */\n      add\n        /* \"#utility.yul\":3123:3176   */\n      tag_158\n      jump\t// in\n    tag_215:\n        /* \"#utility.yul\":3113:3176   */\n      swap2\n      pop\n        /* \"#utility.yul\":3069:3186   */\n      pop\n        /* \"#utility.yul\":2864:3193   */\n      swap3\n      swap2\n      pop\n      pop\n      jump\t// out\n        /* \"#utility.yul\":3199:3531   */\n    tag_50:\n        /* \"#utility.yul\":3320:3324   */\n      0x00\n        /* \"#utility.yul\":3358:3360   */\n      0x40\n        /* \"#utility.yul\":3347:3356   */\n      dup3\n        /* \"#utility.yul\":3343:3361   */\n      add\n        /* \"#utility.yul\":3335:3361   */\n      swap1\n      pop\n        /* \"#utility.yul\":3371:3442   */\n      tag_217\n        /* \"#utility.yul\":3439:3440   */\n      0x00\n        /* \"#utility.yul\":3428:3437   */\n      dup4\n        /* \"#utility.yul\":3424:3441   */\n      add\n        /* \"#utility.yul\":3415:3421   */\n      dup6\n        /* \"#utility.yul\":3371:3442   */\n      tag_159\n      jump\t// in\n    tag_217:\n        /* \"#utility.yul\":3452:3524   */\n      tag_218\n        /* \"#utility.yul\":3520:3522   */\n      0x20\n        /* \"#utility.yul\":3509:3518   */\n      dup4\n        /* \"#utility.yul\":3505:3523   */\n      add\n        /* \"#utility.yul\":3496:3502   */\n      dup5\n        /* \"#utility.yul\":3452:3524   */\n      tag_159\n      jump\t// in\n    tag_218:\n        /* \"#utility.yul\":3199:3531   */\n      swap4\n      swap3\n      pop\n      pop\n      pop\n      jump\t// out\n        /* \"#utility.yul\":3537:3663   */\n    tag_165:\n        /* \"#utility.yul\":3574:3581   */\n      0x00\n        /* \"#utility.yul\":3614:3656   */\n      0xffffffffffffffffffffffffffffffffffffffff\n        /* \"#utility.yul\":3607:3612   */\n      dup3\n        /* \"#utility.yul\":3603:3657   */\n      and\n        /* \"#utility.yul\":3592:3657   */\n      swap1\n      pop\n        /* \"#utility.yul\":3537:3663   */\n      swap2\n      swap1\n      pop\n      jump\t// out\n        /* \"#utility.yul\":3669:3765   */\n    tag_166:\n        /* \"#utility.yul\":3706:3713   */\n      0x00\n        /* \"#utility.yul\":3735:3759   */\n      tag_221\n        /* \"#utility.yul\":3753:3758   */\n      dup3\n        /* \"#utility.yul\":3735:3759   */\n      tag_165\n      jump\t// in\n    tag_221:\n        /* \"#utility.yul\":3724:3759   */\n      swap1\n      pop\n        /* \"#utility.yul\":3669:3765   */\n      swap2\n      swap1\n      pop\n      jump\t// out\n        /* \"#utility.yul\":3771:3889   */\n    tag_167:\n        /* \"#utility.yul\":3858:3882   */\n      tag_223\n        /* \"#utility.yul\":3876:3881   */\n      dup2\n        /* \"#utility.yul\":3858:3882   */\n      tag_166\n      jump\t// in\n    tag_223:\n        /* \"#utility.yul\":3853:3856   */\n      dup3\n        /* \"#utility.yul\":3846:3883   */\n      mstore\n        /* \"#utility.yul\":3771:3889   */\n      pop\n      pop\n      jump\t// out\n        /* \"#utility.yul\":3895:4117   */\n    tag_61:\n        /* \"#utility.yul\":3988:3992   */\n      0x00\n        /* \"#utility.yul\":4026:4028   */\n      0x20\n        /* \"#utility.yul\":4015:4024   */\n      dup3\n        /* \"#utility.yul\":4011:4029   */\n      add\n        /* \"#utility.yul\":4003:4029   */\n      swap1\n      pop\n        /* \"#utility.yul\":4039:4110   */\n      tag_225\n        /* \"#utility.yul\":4107:4108   */\n      0x00\n        /* \"#utility.yul\":4096:4105   */\n      dup4\n        /* \"#utility.yul\":4092:4109   */\n      add\n        /* \"#utility.yul\":4083:4089   */\n      dup5\n        /* \"#utility.yul\":4039:4110   */\n      tag_167\n      jump\t// in\n    tag_225:\n        /* \"#utility.yul\":3895:4117   */\n      swap3\n      swap2\n      pop\n      pop\n      jump\t// out\n        /* \"#utility.yul\":4123:4227   */\n    tag_168:\n        /* \"#utility.yul\":4168:4175   */\n      0x00\n        /* \"#utility.yul\":4197:4221   */\n      tag_227\n        /* \"#utility.yul\":4215:4220   */\n      dup3\n        /* \"#utility.yul\":4197:4221   */\n      tag_165\n      jump\t// in\n    tag_227:\n        /* \"#utility.yul\":4186:4221   */\n      swap1\n      pop\n        /* \"#utility.yul\":4123:4227   */\n      swap2\n      swap1\n      pop\n      jump\t// out\n        /* \"#utility.yul\":4233:4375   */\n    tag_169:\n        /* \"#utility.yul\":4336:4368   */\n      tag_229\n        /* \"#utility.yul\":4362:4367   */\n      dup2\n        /* \"#utility.yul\":4336:4368   */\n      tag_168\n      jump\t// in\n    tag_229:\n        /* \"#utility.yul\":4331:4334   */\n      dup3\n        /* \"#utility.yul\":4324:4369   */\n      mstore\n        /* \"#utility.yul\":4233:4375   */\n      pop\n      pop\n      jump\t// out\n        /* \"#utility.yul\":4381:4635   */\n    tag_74:\n        /* \"#utility.yul\":4490:4494   */\n      0x00\n        /* \"#utility.yul\":4528:4530   */\n      0x20\n        /* \"#utility.yul\":4517:4526   */\n      dup3\n        /* \"#utility.yul\":4513:4531   */\n      add\n        /* \"#utility.yul\":4505:4531   */\n      swap1\n      pop\n        /* \"#utility.yul\":4541:4628   */\n      tag_231\n        /* \"#utility.yul\":4625:4626   */\n      0x00\n        /* \"#utility.yul\":4614:4623   */\n      dup4\n        /* \"#utility.yul\":4610:4627   */\n      add\n        /* \"#utility.yul\":4601:4607   */\n      dup5\n        /* \"#utility.yul\":4541:4628   */\n      tag_169\n      jump\t// in\n    tag_231:\n        /* \"#utility.yul\":4381:4635   */\n      swap3\n      swap2\n      pop\n      pop\n      jump\t// out\n        /* \"#utility.yul\":4641:4821   */\n    tag_170:\n        /* \"#utility.yul\":4689:4766   */\n      0x4e487b7100000000000000000000000000000000000000000000000000000000\n        /* \"#utility.yul\":4686:4687   */\n      0x00\n        /* \"#utility.yul\":4679:4767   */\n      mstore\n        /* \"#utility.yul\":4786:4790   */\n      0x11\n        /* \"#utility.yul\":4783:4784   */\n      0x04\n        /* \"#utility.yul\":4776:4791   */\n      mstore\n        /* \"#utility.yul\":4810:4814   */\n      0x24\n        /* \"#utility.yul\":4807:4808   */\n      0x00\n        /* \"#utility.yul\":4800:4815   */\n      revert\n        /* \"#utility.yul\":4827:5237   */\n    tag_90:\n        /* \"#utility.yul\":4867:4874   */\n      0x00\n        /* \"#utility.yul\":4890:4910   */\n      tag_234\n        /* \"#utility.yul\":4908:4909   */\n      dup3\n        /* \"#utility.yul\":4890:4910   */\n      tag_156\n      jump\t// in\n    tag_234:\n        /* \"#utility.yul\":4885:4910   */\n      swap2\n      pop\n        /* \"#utility.yul\":4924:4944   */\n      tag_235\n        /* \"#utility.yul\":4942:4943   */\n      dup4\n        /* \"#utility.yul\":4924:4944   */\n      tag_156\n      jump\t// in\n    tag_235:\n        /* \"#utility.yul\":4919:4944   */\n      swap3\n      pop\n        /* \"#utility.yul\":4979:4980   */\n      dup3\n        /* \"#utility.yul\":4976:4977   */\n      dup3\n        /* \"#utility.yul\":4972:4981   */\n      mul\n        /* \"#utility.yul\":5001:5031   */\n      tag_236\n        /* \"#utility.yul\":5019:5030   */\n      dup2\n        /* \"#utility.yul\":5001:5031   */\n      tag_156\n      jump\t// in\n    tag_236:\n        /* \"#utility.yul\":4990:5031   */\n      swap2\n      pop\n        /* \"#utility.yul\":5180:5181   */\n      dup3\n        /* \"#utility.yul\":5171:5178   */\n      dup3\n        /* \"#utility.yul\":5167:5182   */\n      div\n        /* \"#utility.yul\":5164:5165   */\n      dup5\n        /* \"#utility.yul\":5161:5183   */\n      eq\n        /* \"#utility.yul\":5141:5142   */\n      dup4\n        /* \"#utility.yul\":5134:5143   */\n      iszero\n        /* \"#utility.yul\":5114:5197   */\n      or\n        /* \"#utility.yul\":5091:5230   */\n      tag_237\n      jumpi\n        /* \"#utility.yul\":5210:5228   */\n      tag_238\n      tag_170\n      jump\t// in\n    tag_238:\n        /* \"#utility.yul\":5091:5230   */\n    tag_237:\n        /* \"#utility.yul\":4875:5237   */\n      pop\n        /* \"#utility.yul\":4827:5237   */\n      swap3\n      swap2\n      pop\n      pop\n      jump\t// out\n        /* \"#utility.yul\":5243:5423   */\n    tag_171:\n        /* \"#utility.yul\":5291:5368   */\n      0x4e487b7100000000000000000000000000000000000000000000000000000000\n        /* \"#utility.yul\":5288:5289   */\n      0x00\n        /* \"#utility.yul\":5281:5369   */\n      mstore\n        /* \"#utility.yul\":5388:5392   */\n      0x12\n        /* \"#utility.yul\":5385:5386   */\n      0x04\n        /* \"#utility.yul\":5378:5393   */\n      mstore\n        /* \"#utility.yul\":5412:5416   */\n      0x24\n        /* \"#utility.yul\":5409:5410   */\n      0x00\n        /* \"#utility.yul\":5402:5417   */\n      revert\n        /* \"#utility.yul\":5429:5614   */\n    tag_92:\n        /* \"#utility.yul\":5469:5470   */\n      0x00\n        /* \"#utility.yul\":5486:5506   */\n      tag_241\n        /* \"#utility.yul\":5504:5505   */\n      dup3\n        /* \"#utility.yul\":5486:5506   */\n      tag_156\n      jump\t// in\n    tag_241:\n        /* \"#utility.yul\":5481:5506   */\n      swap2\n      pop\n        /* \"#utility.yul\":5520:5540   */\n      tag_242\n        /* \"#utility.yul\":5538:5539   */\n      dup4\n        /* \"#utility.yul\":5520:5540   */\n      tag_156\n      jump\t// in\n    tag_242:\n        /* \"#utility.yul\":5515:5540   */\n      swap3\n      pop\n        /* \"#utility.yul\":5559:5560   */\n      dup3\n        /* \"#utility.yul\":5549:5584   */\n      tag_243\n      jumpi\n        /* \"#utility.yul\":5564:5582   */\n      tag_244\n      tag_171\n      jump\t// in\n    tag_244:\n        /* \"#utility.yul\":5549:5584   */\n    tag_243:\n        /* \"#utility.yul\":5606:5607   */\n      dup3\n        /* \"#utility.yul\":5603:5604   */\n      dup3\n        /* \"#utility.yul\":5599:5608   */\n      div\n        /* \"#utility.yul\":5594:5608   */\n      swap1\n      pop\n        /* \"#utility.yul\":5429:5614   */\n      swap3\n      swap2\n      pop\n      pop\n      jump\t// out\n        /* \"#utility.yul\":5620:5798   */\n    tag_172:\n        /* \"#utility.yul\":5760:5790   */\n      0x506572696f646f20646520636f6e747261746f20696e76616c69646f00000000\n        /* \"#utility.yul\":5756:5757   */\n      0x00\n        /* \"#utility.yul\":5748:5754   */\n      dup3\n        /* \"#utility.yul\":5744:5758   */\n      add\n        /* \"#utility.yul\":5737:5791   */\n      mstore\n        /* \"#utility.yul\":5620:5798   */\n      pop\n      jump\t// out\n        /* \"#utility.yul\":5804:6170   */\n    tag_173:\n        /* \"#utility.yul\":5946:5949   */\n      0x00\n        /* \"#utility.yul\":5967:6034   */\n      tag_247\n        /* \"#utility.yul\":6031:6033   */\n      0x1c\n        /* \"#utility.yul\":6026:6029   */\n      dup4\n        /* \"#utility.yul\":5967:6034   */\n      tag_161\n      jump\t// in\n    tag_247:\n        /* \"#utility.yul\":5960:6034   */\n      swap2\n      pop\n        /* \"#utility.yul\":6043:6136   */\n      tag_248\n        /* \"#utility.yul\":6132:6135   */\n      dup3\n        /* \"#utility.yul\":6043:6136   */\n      tag_172\n      jump\t// in\n    tag_248:\n        /* \"#utility.yul\":6161:6163   */\n      0x20\n        /* \"#utility.yul\":6156:6159   */\n      dup3\n        /* \"#utility.yul\":6152:6164   */\n      add\n        /* \"#utility.yul\":6145:6164   */\n      swap1\n      pop\n        /* \"#utility.yul\":5804:6170   */\n      swap2\n      swap1\n      pop\n      jump\t// out\n        /* \"#utility.yul\":6176:6595   */\n    tag_98:\n        /* \"#utility.yul\":6342:6346   */\n      0x00\n        /* \"#utility.yul\":6380:6382   */\n      0x20\n        /* \"#utility.yul\":6369:6378   */\n      dup3\n        /* \"#utility.yul\":6365:6383   */\n      add\n        /* \"#utility.yul\":6357:6383   */\n      swap1\n      pop\n        /* \"#utility.yul\":6429:6438   */\n      dup2\n        /* \"#utility.yul\":6423:6427   */\n      dup2\n        /* \"#utility.yul\":6419:6439   */\n      sub\n        /* \"#utility.yul\":6415:6416   */\n      0x00\n        /* \"#utility.yul\":6404:6413   */\n      dup4\n        /* \"#utility.yul\":6400:6417   */\n      add\n        /* \"#utility.yul\":6393:6440   */\n      mstore\n        /* \"#utility.yul\":6457:6588   */\n      tag_250\n        /* \"#utility.yul\":6583:6587   */\n      dup2\n        /* \"#utility.yul\":6457:6588   */\n      tag_173\n      jump\t// in\n    tag_250:\n        /* \"#utility.yul\":6449:6588   */\n      swap1\n      pop\n        /* \"#utility.yul\":6176:6595   */\n      swap2\n      swap1\n      pop\n      jump\t// out\n        /* \"#utility.yul\":6601:6792   */\n    tag_105:\n        /* \"#utility.yul\":6641:6644   */\n      0x00\n        /* \"#utility.yul\":6660:6680   */\n      tag_252\n        /* \"#utility.yul\":6678:6679   */\n      dup3\n        /* \"#utility.yul\":6660:6680   */\n      tag_156\n      jump\t// in\n    tag_252:\n        /* \"#utility.yul\":6655:6680   */\n      swap2\n      pop\n        /* \"#utility.yul\":6694:6714   */\n      tag_253\n        /* \"#utility.yul\":6712:6713   */\n      dup4\n        /* \"#utility.yul\":6694:6714   */\n      tag_156\n      jump\t// in\n    tag_253:\n        /* \"#utility.yul\":6689:6714   */\n      swap3\n      pop\n        /* \"#utility.yul\":6737:6738   */\n      dup3\n        /* \"#utility.yul\":6734:6735   */\n      dup3\n        /* \"#utility.yul\":6730:6739   */\n      add\n        /* \"#utility.yul\":6723:6739   */\n      swap1\n      pop\n        /* \"#utility.yul\":6758:6761   */\n      dup1\n        /* \"#utility.yul\":6755:6756   */\n      dup3\n        /* \"#utility.yul\":6752:6762   */\n      gt\n        /* \"#utility.yul\":6749:6785   */\n      iszero\n      tag_254\n      jumpi\n        /* \"#utility.yul\":6765:6783   */\n      tag_255\n      tag_170\n      jump\t// in\n    tag_255:\n        /* \"#utility.yul\":6749:6785   */\n    tag_254:\n        /* \"#utility.yul\":6601:6792   */\n      swap3\n      swap2\n      pop\n      pop\n      jump\t// out\n        /* \"#utility.yul\":6798:6978   */\n    tag_174:\n        /* \"#utility.yul\":6846:6923   */\n      0x4e487b7100000000000000000000000000000000000000000000000000000000\n        /* \"#utility.yul\":6843:6844   */\n      0x00\n        /* \"#utility.yul\":6836:6924   */\n      mstore\n        /* \"#utility.yul\":6943:6947   */\n      0x22\n        /* \"#utility.yul\":6940:6941   */\n      0x04\n        /* \"#utility.yul\":6933:6948   */\n      mstore\n        /* \"#utility.yul\":6967:6971   */\n      0x24\n        /* \"#utility.yul\":6964:6965   */\n      0x00\n        /* \"#utility.yul\":6957:6972   */\n      revert\n        /* \"#utility.yul\":6984:7304   */\n    tag_108:\n        /* \"#utility.yul\":7028:7034   */\n      0x00\n        /* \"#utility.yul\":7065:7066   */\n      0x02\n        /* \"#utility.yul\":7059:7063   */\n      dup3\n        /* \"#utility.yul\":7055:7067   */\n      div\n        /* \"#utility.yul\":7045:7067   */\n      swap1\n      pop\n        /* \"#utility.yul\":7112:7113   */\n      0x01\n        /* \"#utility.yul\":7106:7110   */\n      dup3\n        /* \"#utility.yul\":7102:7114   */\n      and\n        /* \"#utility.yul\":7133:7151   */\n      dup1\n        /* \"#utility.yul\":7123:7204   */\n      tag_258\n      jumpi\n        /* \"#utility.yul\":7189:7193   */\n      0x7f\n        /* \"#utility.yul\":7181:7187   */\n      dup3\n        /* \"#utility.yul\":7177:7194   */\n      and\n        /* \"#utility.yul\":7167:7194   */\n      swap2\n      pop\n        /* \"#utility.yul\":7123:7204   */\n    tag_258:\n        /* \"#utility.yul\":7251:7253   */\n      0x20\n        /* \"#utility.yul\":7243:7249   */\n      dup3\n        /* \"#utility.yul\":7240:7254   */\n      lt\n        /* \"#utility.yul\":7220:7238   */\n      dup2\n        /* \"#utility.yul\":7217:7255   */\n      sub\n        /* \"#utility.yul\":7214:7298   */\n      tag_259\n      jumpi\n        /* \"#utility.yul\":7270:7288   */\n      tag_260\n      tag_174\n      jump\t// in\n    tag_260:\n        /* \"#utility.yul\":7214:7298   */\n    tag_259:\n        /* \"#utility.yul\":7035:7304   */\n      pop\n        /* \"#utility.yul\":6984:7304   */\n      swap2\n      swap1\n      pop\n      jump\t// out\n        /* \"#utility.yul\":7310:7478   */\n    tag_175:\n        /* \"#utility.yul\":7450:7470   */\n      0x56616c6f7220696e737566696369656e74650000000000000000000000000000\n        /* \"#utility.yul\":7446:7447   */\n      0x00\n        /* \"#utility.yul\":7438:7444   */\n      dup3\n        /* \"#utility.yul\":7434:7448   */\n      add\n        /* \"#utility.yul\":7427:7471   */\n      mstore\n        /* \"#utility.yul\":7310:7478   */\n      pop\n      jump\t// out\n        /* \"#utility.yul\":7484:7850   */\n    tag_176:\n        /* \"#utility.yul\":7626:7629   */\n      0x00\n        /* \"#utility.yul\":7647:7714   */\n      tag_263\n        /* \"#utility.yul\":7711:7713   */\n      0x12\n        /* \"#utility.yul\":7706:7709   */\n      dup4\n        /* \"#utility.yul\":7647:7714   */\n      tag_161\n      jump\t// in\n    tag_263:\n        /* \"#utility.yul\":7640:7714   */\n      swap2\n      pop\n        /* \"#utility.yul\":7723:7816   */\n      tag_264\n        /* \"#utility.yul\":7812:7815   */\n      dup3\n        /* \"#utility.yul\":7723:7816   */\n      tag_175\n      jump\t// in\n    tag_264:\n        /* \"#utility.yul\":7841:7843   */\n      0x20\n        /* \"#utility.yul\":7836:7839   */\n      dup3\n        /* \"#utility.yul\":7832:7844   */\n      add\n        /* \"#utility.yul\":7825:7844   */\n      swap1\n      pop\n        /* \"#utility.yul\":7484:7850   */\n      swap2\n      swap1\n      pop\n      jump\t// out\n        /* \"#utility.yul\":7856:8275   */\n    tag_123:\n        /* \"#utility.yul\":8022:8026   */\n      0x00\n        /* \"#utility.yul\":8060:8062   */\n      0x20\n        /* \"#utility.yul\":8049:8058   */\n      dup3\n        /* \"#utility.yul\":8045:8063   */\n      add\n        /* \"#utility.yul\":8037:8063   */\n      swap1\n      pop\n        /* \"#utility.yul\":8109:8118   */\n      dup2\n        /* \"#utility.yul\":8103:8107   */\n      dup2\n        /* \"#utility.yul\":8099:8119   */\n      sub\n        /* \"#utility.yul\":8095:8096   */\n      0x00\n        /* \"#utility.yul\":8084:8093   */\n      dup4\n        /* \"#utility.yul\":8080:8097   */\n      add\n        /* \"#utility.yul\":8073:8120   */\n      mstore\n        /* \"#utility.yul\":8137:8268   */\n      tag_266\n        /* \"#utility.yul\":8263:8267   */\n      dup2\n        /* \"#utility.yul\":8137:8268   */\n      tag_176\n      jump\t// in\n    tag_266:\n        /* \"#utility.yul\":8129:8268   */\n      swap1\n      pop\n        /* \"#utility.yul\":7856:8275   */\n      swap2\n      swap1\n      pop\n      jump\t// out\n        /* \"#utility.yul\":8281:8517   */\n    tag_177:\n        /* \"#utility.yul\":8421:8455   */\n      0x736f6d656e7465206f20646f6e6f20646f20696d6f76656c20706f6465207265\n        /* \"#utility.yul\":8417:8418   */\n      0x00\n        /* \"#utility.yul\":8409:8415   */\n      dup3\n        /* \"#utility.yul\":8405:8419   */\n      add\n        /* \"#utility.yul\":8398:8456   */\n      mstore\n        /* \"#utility.yul\":8490:8509   */\n      0x616a7573746172206f20616c756775656c000000000000000000000000000000\n        /* \"#utility.yul\":8485:8487   */\n      0x20\n        /* \"#utility.yul\":8477:8483   */\n      dup3\n        /* \"#utility.yul\":8473:8488   */\n      add\n        /* \"#utility.yul\":8466:8510   */\n      mstore\n        /* \"#utility.yul\":8281:8517   */\n      pop\n      jump\t// out\n        /* \"#utility.yul\":8523:8889   */\n    tag_178:\n        /* \"#utility.yul\":8665:8668   */\n      0x00\n        /* \"#utility.yul\":8686:8753   */\n      tag_269\n        /* \"#utility.yul\":8750:8752   */\n      0x31\n        /* \"#utility.yul\":8745:8748   */\n      dup4\n        /* \"#utility.yul\":8686:8753   */\n      tag_161\n      jump\t// in\n    tag_269:\n        /* \"#utility.yul\":8679:8753   */\n      swap2\n      pop\n        /* \"#utility.yul\":8762:8855   */\n      tag_270\n        /* \"#utility.yul\":8851:8854   */\n      dup3\n        /* \"#utility.yul\":8762:8855   */\n      tag_177\n      jump\t// in\n    tag_270:\n        /* \"#utility.yul\":8880:8882   */\n      0x40\n        /* \"#utility.yul\":8875:8878   */\n      dup3\n        /* \"#utility.yul\":8871:8883   */\n      add\n        /* \"#utility.yul\":8864:8883   */\n      swap1\n      pop\n        /* \"#utility.yul\":8523:8889   */\n      swap2\n      swap1\n      pop\n      jump\t// out\n        /* \"#utility.yul\":8895:9314   */\n    tag_130:\n        /* \"#utility.yul\":9061:9065   */\n      0x00\n        /* \"#utility.yul\":9099:9101   */\n      0x20\n        /* \"#utility.yul\":9088:9097   */\n      dup3\n        /* \"#utility.yul\":9084:9102   */\n      add\n        /* \"#utility.yul\":9076:9102   */\n      swap1\n      pop\n        /* \"#utility.yul\":9148:9157   */\n      dup2\n        /* \"#utility.yul\":9142:9146   */\n      dup2\n        /* \"#utility.yul\":9138:9158   */\n      sub\n        /* \"#utility.yul\":9134:9135   */\n      0x00\n        /* \"#utility.yul\":9123:9132   */\n      dup4\n        /* \"#utility.yul\":9119:9136   */\n      add\n        /* \"#utility.yul\":9112:9159   */\n      mstore\n        /* \"#utility.yul\":9176:9307   */\n      tag_272\n        /* \"#utility.yul\":9302:9306   */\n      dup2\n        /* \"#utility.yul\":9176:9307   */\n      tag_178\n      jump\t// in\n    tag_272:\n        /* \"#utility.yul\":9168:9307   */\n      swap1\n      pop\n        /* \"#utility.yul\":8895:9314   */\n      swap2\n      swap1\n      pop\n      jump\t// out\n        /* \"#utility.yul\":9320:9500   */\n    tag_141:\n        /* \"#utility.yul\":9368:9445   */\n      0x4e487b7100000000000000000000000000000000000000000000000000000000\n        /* \"#utility.yul\":9365:9366   */\n      0x00\n        /* \"#utility.yul\":9358:9446   */\n      mstore\n        /* \"#utility.yul\":9465:9469   */\n      0x32\n        /* \"#utility.yul\":9462:9463   */\n      0x04\n        /* \"#utility.yul\":9455:9470   */\n      mstore\n        /* \"#utility.yul\":9489:9493   */\n      0x24\n        /* \"#utility.yul\":9486:9487   */\n      0x00\n        /* \"#utility.yul\":9479:9494   */\n      revert\n        /* \"#utility.yul\":9506:9739   */\n    tag_145:\n        /* \"#utility.yul\":9545:9548   */\n      0x00\n        /* \"#utility.yul\":9568:9592   */\n      tag_275\n        /* \"#utility.yul\":9586:9591   */\n      dup3\n        /* \"#utility.yul\":9568:9592   */\n      tag_156\n      jump\t// in\n    tag_275:\n        /* \"#utility.yul\":9559:9592   */\n      swap2\n      pop\n        /* \"#utility.yul\":9614:9680   */\n      0xffffffffffffffffffffffffffffffffffffffffffffffffffffffffffffffff\n        /* \"#utility.yul\":9607:9612   */\n      dup3\n        /* \"#utility.yul\":9604:9681   */\n      sub\n        /* \"#utility.yul\":9601:9704   */\n      tag_276\n      jumpi\n        /* \"#utility.yul\":9684:9702   */\n      tag_277\n      tag_170\n      jump\t// in\n    tag_277:\n        /* \"#utility.yul\":9601:9704   */\n    tag_276:\n        /* \"#utility.yul\":9731:9732   */\n      0x01\n        /* \"#utility.yul\":9724:9729   */\n      dup3\n        /* \"#utility.yul\":9720:9733   */\n      add\n        /* \"#utility.yul\":9713:9733   */\n      swap1\n      pop\n        /* \"#utility.yul\":9506:9739   */\n      swap2\n      swap1\n      pop\n      jump\t// out\n\n    auxdata: 0xa26469706673582212207bc6962e057fe063922b9e3c71a697bea44fefde9972c82364ce450ada8b136964736f6c63430008130033\n}\n",
				"bytecode": {
					"linkReferences": {},
					"object": "6080604052604051620015aa380380620015aa833981810160405281019062000029919062000313565b83600190816200003a919062000604565b5082600090816200004c919062000604565b508060028190555081600460006101000a81548173ffffffffffffffffffffffffffffffffffffffff021916908373ffffffffffffffffffffffffffffffffffffffff16021790555033600560006101000a81548173ffffffffffffffffffffffffffffffffffffffff021916908373ffffffffffffffffffffffffffffffffffffffff16021790555050505050620006eb565b6000604051905090565b600080fd5b600080fd5b600080fd5b600080fd5b6000601f19601f8301169050919050565b7f4e487b7100000000000000000000000000000000000000000000000000000000600052604160045260246000fd5b6200014982620000fe565b810181811067ffffffffffffffff821117156200016b576200016a6200010f565b5b80604052505050565b600062000180620000e0565b90506200018e82826200013e565b919050565b600067ffffffffffffffff821115620001b157620001b06200010f565b5b620001bc82620000fe565b9050602081019050919050565b60005b83811015620001e9578082015181840152602081019050620001cc565b60008484015250505050565b60006200020c620002068462000193565b62000174565b9050828152602081018484840111156200022b576200022a620000f9565b5b62000238848285620001c9565b509392505050565b600082601f830112620002585762000257620000f4565b5b81516200026a848260208601620001f5565b91505092915050565b600073ffffffffffffffffffffffffffffffffffffffff82169050919050565b6000620002a08262000273565b9050919050565b620002b28162000293565b8114620002be57600080fd5b50565b600081519050620002d281620002a7565b92915050565b6000819050919050565b620002ed81620002d8565b8114620002f957600080fd5b50565b6000815190506200030d81620002e2565b92915050565b6000806000806080858703121562000330576200032f620000ea565b5b600085015167ffffffffffffffff811115620003515762000350620000ef565b5b6200035f8782880162000240565b945050602085015167ffffffffffffffff811115620003835762000382620000ef565b5b620003918782880162000240565b9350506040620003a487828801620002c1565b9250506060620003b787828801620002fc565b91505092959194509250565b600081519050919050565b7f4e487b7100000000000000000000000000000000000000000000000000000000600052602260045260246000fd5b600060028204905060018216806200041657607f821691505b6020821081036200042c576200042b620003ce565b5b50919050565b60008190508160005260206000209050919050565b60006020601f8301049050919050565b600082821b905092915050565b600060088302620004967fffffffffffffffffffffffffffffffffffffffffffffffffffffffffffffffff8262000457565b620004a2868362000457565b95508019841693508086168417925050509392505050565b6000819050919050565b6000620004e5620004df620004d984620002d8565b620004ba565b620002d8565b9050919050565b6000819050919050565b6200050183620004c4565b620005196200051082620004ec565b84845462000464565b825550505050565b600090565b6200053062000521565b6200053d818484620004f6565b505050565b5b8181101562000565576200055960008262000526565b60018101905062000543565b5050565b601f821115620005b4576200057e8162000432565b620005898462000447565b8101602085101562000599578190505b620005b1620005a88562000447565b83018262000542565b50505b505050565b600082821c905092915050565b6000620005d960001984600802620005b9565b1980831691505092915050565b6000620005f48383620005c6565b9150826002028217905092915050565b6200060f82620003c3565b67ffffffffffffffff8111156200062b576200062a6200010f565b5b620006378254620003fd565b6200064482828562000569565b600060209050601f8311600181146200067c576000841562000667578287015190505b620006738582620005e6565b865550620006e3565b601f1984166200068c8662000432565b60005b82811015620006b6578489015182556001820191506020850194506020810190506200068f565b86831015620006d65784890151620006d2601f891682620005c6565b8355505b6001600288020188555050505b505050505050565b610eaf80620006fb6000396000f3fe6080604052600436106100e85760003560e01c80638d2802d91161008a578063af74c59a11610059578063af74c59a146102c7578063b235612a146102f2578063b3fbc3241461031b578063e862b9e114610358576100e8565b80638d2802d91461023d5780638da5cb5b14610247578063960daf4614610272578063aec7f99c1461029b576100e8565b8063409bb8ab116100c6578063409bb8ab1461017e5780635098e165146101a95780635a661872146101d457806368f01ee914610212576100e8565b806303deed58146100ed5780632d0581501461012a57806335f580f014610155575b600080fd5b3480156100f957600080fd5b50610114600480360381019061010f9190610929565b610383565b6040516101219190610978565b60405180910390f35b34801561013657600080fd5b5061013f6103b8565b60405161014c9190610978565b60405180910390f35b34801561016157600080fd5b5061017c60048036038101906101779190610929565b6103c2565b005b34801561018a57600080fd5b50610193610456565b6040516101a09190610a23565b60405180910390f35b3480156101b557600080fd5b506101be6104e4565b6040516101cb9190610a23565b60405180910390f35b3480156101e057600080fd5b506101fb60048036038101906101f69190610a45565b610572565b604051610209929190610a72565b60405180910390f35b34801561021e57600080fd5b506102276105a6565b6040516102349190610978565b60405180910390f35b6102456105ab565b005b34801561025357600080fd5b5061025c6106b7565b6040516102699190610adc565b60405180910390f35b34801561027e57600080fd5b5061029960048036038101906102949190610a45565b6106dd565b005b3480156102a757600080fd5b506102b06107b1565b6040516102be929190610a72565b60405180910390f35b3480156102d357600080fd5b506102dc61081d565b6040516102e99190610b18565b60405180910390f35b3480156102fe57600080fd5b5061031960048036038101906103149190610a45565b610843565b005b34801561032757600080fd5b50610342600480360381019061033d9190610a45565b61084d565b60405161034f9190610a23565b60405180910390f35b34801561036457600080fd5b5061036d6108e1565b60405161037a9190610978565b60405180910390f35b600060036002546103949190610b62565b905081816103a29190610bd3565b905082816103b09190610b62565b905092915050565b6000600254905090565b601e8210610405576040517f08c379a00000000000000000000000000000000000000000000000000000000081526004016103fc90610c50565b60405180910390fd5b60005b82811015610451576064826002546104209190610b62565b61042a9190610bd3565b6002546104379190610c70565b60028190555060028161044a9190610c70565b9050610408565b505050565b6000805461046390610cd3565b80601f016020809104026020016040519081016040528092919081815260200182805461048f90610cd3565b80156104dc5780601f106104b1576101008083540402835291602001916104dc565b820191906000526020600020905b8154815290600101906020018083116104bf57829003601f168201915b505050505081565b600180546104f190610cd3565b80601f016020809104026020016040519081016040528092919081815260200182805461051d90610cd3565b801561056a5780601f1061053f5761010080835404028352916020019161056a565b820191906000526020600020905b81548152906001019060200180831161054d57829003601f168201915b505050505081565b6003818154811061058257600080fd5b90600052602060002090600202016000915090508060000154908060010154905082565b600381565b6002543410156105f0576040517f08c379a00000000000000000000000000000000000000000000000000000000081526004016105e790610d50565b60405180910390fd5b600460009054906101000a900473ffffffffffffffffffffffffffffffffffffffff1673ffffffffffffffffffffffffffffffffffffffff166108fc349081150290604051600060405180830381858888f19350505050158015610658573d6000803e3d6000fd5b506000604051806040016040528042815260200134815250905060038190806001815401808255809150506001900390600052602060002090600202016000909190919091506000820151816000015560208201518160010155505050565b600560009054906101000a900473ffffffffffffffffffffffffffffffffffffffff1681565b600560009054906101000a900473ffffffffffffffffffffffffffffffffffffffff1673ffffffffffffffffffffffffffffffffffffffff163373ffffffffffffffffffffffffffffffffffffffff161461076d576040517f08c379a000000000000000000000000000000000000000000000000000000000815260040161076490610de2565b60405180910390fd5b601481111561077b57601490505b600060648260025461078d9190610b62565b6107979190610bd3565b9050806002546107a79190610c70565b6002819055505050565b60008060005b60038054905081101561081857600381815481106107d8576107d7610e02565b5b906000526020600020906002020160010154836107f59190610c70565b9250818061080290610e31565b925050808061081090610e31565b9150506107b7565b509091565b600460009054906101000a900473ffffffffffffffffffffffffffffffffffffffff1681565b8060028190555050565b6060611388826002546108609190610b62565b11156108a3576040518060400160405280600a81526020017f4d7569746f206361726f0000000000000000000000000000000000000000000081525090506108dc565b6040518060400160405280600e81526020017f507265636f2072617a6f6176656c00000000000000000000000000000000000081525090505b919050565b6000600380549050905090565b600080fd5b6000819050919050565b610906816108f3565b811461091157600080fd5b50565b600081359050610923816108fd565b92915050565b600080604083850312156109405761093f6108ee565b5b600061094e85828601610914565b925050602061095f85828601610914565b9150509250929050565b610972816108f3565b82525050565b600060208201905061098d6000830184610969565b92915050565b600081519050919050565b600082825260208201905092915050565b60005b838110156109cd5780820151818401526020810190506109b2565b60008484015250505050565b6000601f19601f8301169050919050565b60006109f582610993565b6109ff818561099e565b9350610a0f8185602086016109af565b610a18816109d9565b840191505092915050565b60006020820190508181036000830152610a3d81846109ea565b905092915050565b600060208284031215610a5b57610a5a6108ee565b5b6000610a6984828501610914565b91505092915050565b6000604082019050610a876000830185610969565b610a946020830184610969565b9392505050565b600073ffffffffffffffffffffffffffffffffffffffff82169050919050565b6000610ac682610a9b565b9050919050565b610ad681610abb565b82525050565b6000602082019050610af16000830184610acd565b92915050565b6000610b0282610a9b565b9050919050565b610b1281610af7565b82525050565b6000602082019050610b2d6000830184610b09565b92915050565b7f4e487b7100000000000000000000000000000000000000000000000000000000600052601160045260246000fd5b6000610b6d826108f3565b9150610b78836108f3565b9250828202610b86816108f3565b91508282048414831517610b9d57610b9c610b33565b5b5092915050565b7f4e487b7100000000000000000000000000000000000000000000000000000000600052601260045260246000fd5b6000610bde826108f3565b9150610be9836108f3565b925082610bf957610bf8610ba4565b5b828204905092915050565b7f506572696f646f20646520636f6e747261746f20696e76616c69646f00000000600082015250565b6000610c3a601c8361099e565b9150610c4582610c04565b602082019050919050565b60006020820190508181036000830152610c6981610c2d565b9050919050565b6000610c7b826108f3565b9150610c86836108f3565b9250828201905080821115610c9e57610c9d610b33565b5b92915050565b7f4e487b7100000000000000000000000000000000000000000000000000000000600052602260045260246000fd5b60006002820490506001821680610ceb57607f821691505b602082108103610cfe57610cfd610ca4565b5b50919050565b7f56616c6f7220696e737566696369656e74650000000000000000000000000000600082015250565b6000610d3a60128361099e565b9150610d4582610d04565b602082019050919050565b60006020820190508181036000830152610d6981610d2d565b9050919050565b7f736f6d656e7465206f20646f6e6f20646f20696d6f76656c20706f646520726560008201527f616a7573746172206f20616c756775656c000000000000000000000000000000602082015250565b6000610dcc60318361099e565b9150610dd782610d70565b604082019050919050565b60006020820190508181036000830152610dfb81610dbf565b9050919050565b7f4e487b7100000000000000000000000000000000000000000000000000000000600052603260045260246000fd5b6000610e3c826108f3565b91507fffffffffffffffffffffffffffffffffffffffffffffffffffffffffffffffff8203610e6e57610e6d610b33565b5b60018201905091905056fea26469706673582212207bc6962e057fe063922b9e3c71a697bea44fefde9972c82364ce450ada8b136964736f6c63430008130033",
					"opcodes": "PUSH1 0x80 PUSH1 0x40 MSTORE PUSH1 0x40 MLOAD PUSH3 0x15AA CODESIZE SUB DUP1 PUSH3 0x15AA DUP4 CODECOPY DUP2 DUP2 ADD PUSH1 0x40 MSTORE DUP2 ADD SWAP1 PUSH3 0x29 SWAP2 SWAP1 PUSH3 0x313 JUMP JUMPDEST DUP4 PUSH1 0x1 SWAP1 DUP2 PUSH3 0x3A SWAP2 SWAP1 PUSH3 0x604 JUMP JUMPDEST POP DUP3 PUSH1 0x0 SWAP1 DUP2 PUSH3 0x4C SWAP2 SWAP1 PUSH3 0x604 JUMP JUMPDEST POP DUP1 PUSH1 0x2 DUP2 SWAP1 SSTORE POP DUP2 PUSH1 0x4 PUSH1 0x0 PUSH2 0x100 EXP DUP2 SLOAD DUP2 PUSH20 0xFFFFFFFFFFFFFFFFFFFFFFFFFFFFFFFFFFFFFFFF MUL NOT AND SWAP1 DUP4 PUSH20 0xFFFFFFFFFFFFFFFFFFFFFFFFFFFFFFFFFFFFFFFF AND MUL OR SWAP1 SSTORE POP CALLER PUSH1 0x5 PUSH1 0x0 PUSH2 0x100 EXP DUP2 SLOAD DUP2 PUSH20 0xFFFFFFFFFFFFFFFFFFFFFFFFFFFFFFFFFFFFFFFF MUL NOT AND SWAP1 DUP4 PUSH20 0xFFFFFFFFFFFFFFFFFFFFFFFFFFFFFFFFFFFFFFFF AND MUL OR SWAP1 SSTORE POP POP POP POP POP PUSH3 0x6EB JUMP JUMPDEST PUSH1 0x0 PUSH1 0x40 MLOAD SWAP1 POP SWAP1 JUMP JUMPDEST PUSH1 0x0 DUP1 REVERT JUMPDEST PUSH1 0x0 DUP1 REVERT JUMPDEST PUSH1 0x0 DUP1 REVERT JUMPDEST PUSH1 0x0 DUP1 REVERT JUMPDEST PUSH1 0x0 PUSH1 0x1F NOT PUSH1 0x1F DUP4 ADD AND SWAP1 POP SWAP2 SWAP1 POP JUMP JUMPDEST PUSH32 0x4E487B7100000000000000000000000000000000000000000000000000000000 PUSH1 0x0 MSTORE PUSH1 0x41 PUSH1 0x4 MSTORE PUSH1 0x24 PUSH1 0x0 REVERT JUMPDEST PUSH3 0x149 DUP3 PUSH3 0xFE JUMP JUMPDEST DUP2 ADD DUP2 DUP2 LT PUSH8 0xFFFFFFFFFFFFFFFF DUP3 GT OR ISZERO PUSH3 0x16B JUMPI PUSH3 0x16A PUSH3 0x10F JUMP JUMPDEST JUMPDEST DUP1 PUSH1 0x40 MSTORE POP POP POP JUMP JUMPDEST PUSH1 0x0 PUSH3 0x180 PUSH3 0xE0 JUMP JUMPDEST SWAP1 POP PUSH3 0x18E DUP3 DUP3 PUSH3 0x13E JUMP JUMPDEST SWAP2 SWAP1 POP JUMP JUMPDEST PUSH1 0x0 PUSH8 0xFFFFFFFFFFFFFFFF DUP3 GT ISZERO PUSH3 0x1B1 JUMPI PUSH3 0x1B0 PUSH3 0x10F JUMP JUMPDEST JUMPDEST PUSH3 0x1BC DUP3 PUSH3 0xFE JUMP JUMPDEST SWAP1 POP PUSH1 0x20 DUP2 ADD SWAP1 POP SWAP2 SWAP1 POP JUMP JUMPDEST PUSH1 0x0 JUMPDEST DUP4 DUP2 LT ISZERO PUSH3 0x1E9 JUMPI DUP1 DUP3 ADD MLOAD DUP2 DUP5 ADD MSTORE PUSH1 0x20 DUP2 ADD SWAP1 POP PUSH3 0x1CC JUMP JUMPDEST PUSH1 0x0 DUP5 DUP5 ADD MSTORE POP POP POP POP JUMP JUMPDEST PUSH1 0x0 PUSH3 0x20C PUSH3 0x206 DUP5 PUSH3 0x193 JUMP JUMPDEST PUSH3 0x174 JUMP JUMPDEST SWAP1 POP DUP3 DUP2 MSTORE PUSH1 0x20 DUP2 ADD DUP5 DUP5 DUP5 ADD GT ISZERO PUSH3 0x22B JUMPI PUSH3 0x22A PUSH3 0xF9 JUMP JUMPDEST JUMPDEST PUSH3 0x238 DUP5 DUP3 DUP6 PUSH3 0x1C9 JUMP JUMPDEST POP SWAP4 SWAP3 POP POP POP JUMP JUMPDEST PUSH1 0x0 DUP3 PUSH1 0x1F DUP4 ADD SLT PUSH3 0x258 JUMPI PUSH3 0x257 PUSH3 0xF4 JUMP JUMPDEST JUMPDEST DUP2 MLOAD PUSH3 0x26A DUP5 DUP3 PUSH1 0x20 DUP7 ADD PUSH3 0x1F5 JUMP JUMPDEST SWAP2 POP POP SWAP3 SWAP2 POP POP JUMP JUMPDEST PUSH1 0x0 PUSH20 0xFFFFFFFFFFFFFFFFFFFFFFFFFFFFFFFFFFFFFFFF DUP3 AND SWAP1 POP SWAP2 SWAP1 POP JUMP JUMPDEST PUSH1 0x0 PUSH3 0x2A0 DUP3 PUSH3 0x273 JUMP JUMPDEST SWAP1 POP SWAP2 SWAP1 POP JUMP JUMPDEST PUSH3 0x2B2 DUP2 PUSH3 0x293 JUMP JUMPDEST DUP2 EQ PUSH3 0x2BE JUMPI PUSH1 0x0 DUP1 REVERT JUMPDEST POP JUMP JUMPDEST PUSH1 0x0 DUP2 MLOAD SWAP1 POP PUSH3 0x2D2 DUP2 PUSH3 0x2A7 JUMP JUMPDEST SWAP3 SWAP2 POP POP JUMP JUMPDEST PUSH1 0x0 DUP2 SWAP1 POP SWAP2 SWAP1 POP JUMP JUMPDEST PUSH3 0x2ED DUP2 PUSH3 0x2D8 JUMP JUMPDEST DUP2 EQ PUSH3 0x2F9 JUMPI PUSH1 0x0 DUP1 REVERT JUMPDEST POP JUMP JUMPDEST PUSH1 0x0 DUP2 MLOAD SWAP1 POP PUSH3 0x30D DUP2 PUSH3 0x2E2 JUMP JUMPDEST SWAP3 SWAP2 POP POP JUMP JUMPDEST PUSH1 0x0 DUP1 PUSH1 0x0 DUP1 PUSH1 0x80 DUP6 DUP8 SUB SLT ISZERO PUSH3 0x330 JUMPI PUSH3 0x32F PUSH3 0xEA JUMP JUMPDEST JUMPDEST PUSH1 0x0 DUP6 ADD MLOAD PUSH8 0xFFFFFFFFFFFFFFFF DUP2 GT ISZERO PUSH3 0x351 JUMPI PUSH3 0x350 PUSH3 0xEF JUMP JUMPDEST JUMPDEST PUSH3 0x35F DUP8 DUP3 DUP9 ADD PUSH3 0x240 JUMP JUMPDEST SWAP5 POP POP PUSH1 0x20 DUP6 ADD MLOAD PUSH8 0xFFFFFFFFFFFFFFFF DUP2 GT ISZERO PUSH3 0x383 JUMPI PUSH3 0x382 PUSH3 0xEF JUMP JUMPDEST JUMPDEST PUSH3 0x391 DUP8 DUP3 DUP9 ADD PUSH3 0x240 JUMP JUMPDEST SWAP4 POP POP PUSH1 0x40 PUSH3 0x3A4 DUP8 DUP3 DUP9 ADD PUSH3 0x2C1 JUMP JUMPDEST SWAP3 POP POP PUSH1 0x60 PUSH3 0x3B7 DUP8 DUP3 DUP9 ADD PUSH3 0x2FC JUMP JUMPDEST SWAP2 POP POP SWAP3 SWAP6 SWAP2 SWAP5 POP SWAP3 POP JUMP JUMPDEST PUSH1 0x0 DUP2 MLOAD SWAP1 POP SWAP2 SWAP1 POP JUMP JUMPDEST PUSH32 0x4E487B7100000000000000000000000000000000000000000000000000000000 PUSH1 0x0 MSTORE PUSH1 0x22 PUSH1 0x4 MSTORE PUSH1 0x24 PUSH1 0x0 REVERT JUMPDEST PUSH1 0x0 PUSH1 0x2 DUP3 DIV SWAP1 POP PUSH1 0x1 DUP3 AND DUP1 PUSH3 0x416 JUMPI PUSH1 0x7F DUP3 AND SWAP2 POP JUMPDEST PUSH1 0x20 DUP3 LT DUP2 SUB PUSH3 0x42C JUMPI PUSH3 0x42B PUSH3 0x3CE JUMP JUMPDEST JUMPDEST POP SWAP2 SWAP1 POP JUMP JUMPDEST PUSH1 0x0 DUP2 SWAP1 POP DUP2 PUSH1 0x0 MSTORE PUSH1 0x20 PUSH1 0x0 KECCAK256 SWAP1 POP SWAP2 SWAP1 POP JUMP JUMPDEST PUSH1 0x0 PUSH1 0x20 PUSH1 0x1F DUP4 ADD DIV SWAP1 POP SWAP2 SWAP1 POP JUMP JUMPDEST PUSH1 0x0 DUP3 DUP3 SHL SWAP1 POP SWAP3 SWAP2 POP POP JUMP JUMPDEST PUSH1 0x0 PUSH1 0x8 DUP4 MUL PUSH3 0x496 PUSH32 0xFFFFFFFFFFFFFFFFFFFFFFFFFFFFFFFFFFFFFFFFFFFFFFFFFFFFFFFFFFFFFFFF DUP3 PUSH3 0x457 JUMP JUMPDEST PUSH3 0x4A2 DUP7 DUP4 PUSH3 0x457 JUMP JUMPDEST SWAP6 POP DUP1 NOT DUP5 AND SWAP4 POP DUP1 DUP7 AND DUP5 OR SWAP3 POP POP POP SWAP4 SWAP3 POP POP POP JUMP JUMPDEST PUSH1 0x0 DUP2 SWAP1 POP SWAP2 SWAP1 POP JUMP JUMPDEST PUSH1 0x0 PUSH3 0x4E5 PUSH3 0x4DF PUSH3 0x4D9 DUP5 PUSH3 0x2D8 JUMP JUMPDEST PUSH3 0x4BA JUMP JUMPDEST PUSH3 0x2D8 JUMP JUMPDEST SWAP1 POP SWAP2 SWAP1 POP JUMP JUMPDEST PUSH1 0x0 DUP2 SWAP1 POP SWAP2 SWAP1 POP JUMP JUMPDEST PUSH3 0x501 DUP4 PUSH3 0x4C4 JUMP JUMPDEST PUSH3 0x519 PUSH3 0x510 DUP3 PUSH3 0x4EC JUMP JUMPDEST DUP5 DUP5 SLOAD PUSH3 0x464 JUMP JUMPDEST DUP3 SSTORE POP POP POP POP JUMP JUMPDEST PUSH1 0x0 SWAP1 JUMP JUMPDEST PUSH3 0x530 PUSH3 0x521 JUMP JUMPDEST PUSH3 0x53D DUP2 DUP5 DUP5 PUSH3 0x4F6 JUMP JUMPDEST POP POP POP JUMP JUMPDEST JUMPDEST DUP2 DUP2 LT ISZERO PUSH3 0x565 JUMPI PUSH3 0x559 PUSH1 0x0 DUP3 PUSH3 0x526 JUMP JUMPDEST PUSH1 0x1 DUP2 ADD SWAP1 POP PUSH3 0x543 JUMP JUMPDEST POP POP JUMP JUMPDEST PUSH1 0x1F DUP3 GT ISZERO PUSH3 0x5B4 JUMPI PUSH3 0x57E DUP2 PUSH3 0x432 JUMP JUMPDEST PUSH3 0x589 DUP5 PUSH3 0x447 JUMP JUMPDEST DUP2 ADD PUSH1 0x20 DUP6 LT ISZERO PUSH3 0x599 JUMPI DUP2 SWAP1 POP JUMPDEST PUSH3 0x5B1 PUSH3 0x5A8 DUP6 PUSH3 0x447 JUMP JUMPDEST DUP4 ADD DUP3 PUSH3 0x542 JUMP JUMPDEST POP POP JUMPDEST POP POP POP JUMP JUMPDEST PUSH1 0x0 DUP3 DUP3 SHR SWAP1 POP SWAP3 SWAP2 POP POP JUMP JUMPDEST PUSH1 0x0 PUSH3 0x5D9 PUSH1 0x0 NOT DUP5 PUSH1 0x8 MUL PUSH3 0x5B9 JUMP JUMPDEST NOT DUP1 DUP4 AND SWAP2 POP POP SWAP3 SWAP2 POP POP JUMP JUMPDEST PUSH1 0x0 PUSH3 0x5F4 DUP4 DUP4 PUSH3 0x5C6 JUMP JUMPDEST SWAP2 POP DUP3 PUSH1 0x2 MUL DUP3 OR SWAP1 POP SWAP3 SWAP2 POP POP JUMP JUMPDEST PUSH3 0x60F DUP3 PUSH3 0x3C3 JUMP JUMPDEST PUSH8 0xFFFFFFFFFFFFFFFF DUP2 GT ISZERO PUSH3 0x62B JUMPI PUSH3 0x62A PUSH3 0x10F JUMP JUMPDEST JUMPDEST PUSH3 0x637 DUP3 SLOAD PUSH3 0x3FD JUMP JUMPDEST PUSH3 0x644 DUP3 DUP3 DUP6 PUSH3 0x569 JUMP JUMPDEST PUSH1 0x0 PUSH1 0x20 SWAP1 POP PUSH1 0x1F DUP4 GT PUSH1 0x1 DUP2 EQ PUSH3 0x67C JUMPI PUSH1 0x0 DUP5 ISZERO PUSH3 0x667 JUMPI DUP3 DUP8 ADD MLOAD SWAP1 POP JUMPDEST PUSH3 0x673 DUP6 DUP3 PUSH3 0x5E6 JUMP JUMPDEST DUP7 SSTORE POP PUSH3 0x6E3 JUMP JUMPDEST PUSH1 0x1F NOT DUP5 AND PUSH3 0x68C DUP7 PUSH3 0x432 JUMP JUMPDEST PUSH1 0x0 JUMPDEST DUP3 DUP2 LT ISZERO PUSH3 0x6B6 JUMPI DUP5 DUP10 ADD MLOAD DUP3 SSTORE PUSH1 0x1 DUP3 ADD SWAP2 POP PUSH1 0x20 DUP6 ADD SWAP5 POP PUSH1 0x20 DUP2 ADD SWAP1 POP PUSH3 0x68F JUMP JUMPDEST DUP7 DUP4 LT ISZERO PUSH3 0x6D6 JUMPI DUP5 DUP10 ADD MLOAD PUSH3 0x6D2 PUSH1 0x1F DUP10 AND DUP3 PUSH3 0x5C6 JUMP JUMPDEST DUP4 SSTORE POP JUMPDEST PUSH1 0x1 PUSH1 0x2 DUP9 MUL ADD DUP9 SSTORE POP POP POP JUMPDEST POP POP POP POP POP POP JUMP JUMPDEST PUSH2 0xEAF DUP1 PUSH3 0x6FB PUSH1 0x0 CODECOPY PUSH1 0x0 RETURN INVALID PUSH1 0x80 PUSH1 0x40 MSTORE PUSH1 0x4 CALLDATASIZE LT PUSH2 0xE8 JUMPI PUSH1 0x0 CALLDATALOAD PUSH1 0xE0 SHR DUP1 PUSH4 0x8D2802D9 GT PUSH2 0x8A JUMPI DUP1 PUSH4 0xAF74C59A GT PUSH2 0x59 JUMPI DUP1 PUSH4 0xAF74C59A EQ PUSH2 0x2C7 JUMPI DUP1 PUSH4 0xB235612A EQ PUSH2 0x2F2 JUMPI DUP1 PUSH4 0xB3FBC324 EQ PUSH2 0x31B JUMPI DUP1 PUSH4 0xE862B9E1 EQ PUSH2 0x358 JUMPI PUSH2 0xE8 JUMP JUMPDEST DUP1 PUSH4 0x8D2802D9 EQ PUSH2 0x23D JUMPI DUP1 PUSH4 0x8DA5CB5B EQ PUSH2 0x247 JUMPI DUP1 PUSH4 0x960DAF46 EQ PUSH2 0x272 JUMPI DUP1 PUSH4 0xAEC7F99C EQ PUSH2 0x29B JUMPI PUSH2 0xE8 JUMP JUMPDEST DUP1 PUSH4 0x409BB8AB GT PUSH2 0xC6 JUMPI DUP1 PUSH4 0x409BB8AB EQ PUSH2 0x17E JUMPI DUP1 PUSH4 0x5098E165 EQ PUSH2 0x1A9 JUMPI DUP1 PUSH4 0x5A661872 EQ PUSH2 0x1D4 JUMPI DUP1 PUSH4 0x68F01EE9 EQ PUSH2 0x212 JUMPI PUSH2 0xE8 JUMP JUMPDEST DUP1 PUSH4 0x3DEED58 EQ PUSH2 0xED JUMPI DUP1 PUSH4 0x2D058150 EQ PUSH2 0x12A JUMPI DUP1 PUSH4 0x35F580F0 EQ PUSH2 0x155 JUMPI JUMPDEST PUSH1 0x0 DUP1 REVERT JUMPDEST CALLVALUE DUP1 ISZERO PUSH2 0xF9 JUMPI PUSH1 0x0 DUP1 REVERT JUMPDEST POP PUSH2 0x114 PUSH1 0x4 DUP1 CALLDATASIZE SUB DUP2 ADD SWAP1 PUSH2 0x10F SWAP2 SWAP1 PUSH2 0x929 JUMP JUMPDEST PUSH2 0x383 JUMP JUMPDEST PUSH1 0x40 MLOAD PUSH2 0x121 SWAP2 SWAP1 PUSH2 0x978 JUMP JUMPDEST PUSH1 0x40 MLOAD DUP1 SWAP2 SUB SWAP1 RETURN JUMPDEST CALLVALUE DUP1 ISZERO PUSH2 0x136 JUMPI PUSH1 0x0 DUP1 REVERT JUMPDEST POP PUSH2 0x13F PUSH2 0x3B8 JUMP JUMPDEST PUSH1 0x40 MLOAD PUSH2 0x14C SWAP2 SWAP1 PUSH2 0x978 JUMP JUMPDEST PUSH1 0x40 MLOAD DUP1 SWAP2 SUB SWAP1 RETURN JUMPDEST CALLVALUE DUP1 ISZERO PUSH2 0x161 JUMPI PUSH1 0x0 DUP1 REVERT JUMPDEST POP PUSH2 0x17C PUSH1 0x4 DUP1 CALLDATASIZE SUB DUP2 ADD SWAP1 PUSH2 0x177 SWAP2 SWAP1 PUSH2 0x929 JUMP JUMPDEST PUSH2 0x3C2 JUMP JUMPDEST STOP JUMPDEST CALLVALUE DUP1 ISZERO PUSH2 0x18A JUMPI PUSH1 0x0 DUP1 REVERT JUMPDEST POP PUSH2 0x193 PUSH2 0x456 JUMP JUMPDEST PUSH1 0x40 MLOAD PUSH2 0x1A0 SWAP2 SWAP1 PUSH2 0xA23 JUMP JUMPDEST PUSH1 0x40 MLOAD DUP1 SWAP2 SUB SWAP1 RETURN JUMPDEST CALLVALUE DUP1 ISZERO PUSH2 0x1B5 JUMPI PUSH1 0x0 DUP1 REVERT JUMPDEST POP PUSH2 0x1BE PUSH2 0x4E4 JUMP JUMPDEST PUSH1 0x40 MLOAD PUSH2 0x1CB SWAP2 SWAP1 PUSH2 0xA23 JUMP JUMPDEST PUSH1 0x40 MLOAD DUP1 SWAP2 SUB SWAP1 RETURN JUMPDEST CALLVALUE DUP1 ISZERO PUSH2 0x1E0 JUMPI PUSH1 0x0 DUP1 REVERT JUMPDEST POP PUSH2 0x1FB PUSH1 0x4 DUP1 CALLDATASIZE SUB DUP2 ADD SWAP1 PUSH2 0x1F6 SWAP2 SWAP1 PUSH2 0xA45 JUMP JUMPDEST PUSH2 0x572 JUMP JUMPDEST PUSH1 0x40 MLOAD PUSH2 0x209 SWAP3 SWAP2 SWAP1 PUSH2 0xA72 JUMP JUMPDEST PUSH1 0x40 MLOAD DUP1 SWAP2 SUB SWAP1 RETURN JUMPDEST CALLVALUE DUP1 ISZERO PUSH2 0x21E JUMPI PUSH1 0x0 DUP1 REVERT JUMPDEST POP PUSH2 0x227 PUSH2 0x5A6 JUMP JUMPDEST PUSH1 0x40 MLOAD PUSH2 0x234 SWAP2 SWAP1 PUSH2 0x978 JUMP JUMPDEST PUSH1 0x40 MLOAD DUP1 SWAP2 SUB SWAP1 RETURN JUMPDEST PUSH2 0x245 PUSH2 0x5AB JUMP JUMPDEST STOP JUMPDEST CALLVALUE DUP1 ISZERO PUSH2 0x253 JUMPI PUSH1 0x0 DUP1 REVERT JUMPDEST POP PUSH2 0x25C PUSH2 0x6B7 JUMP JUMPDEST PUSH1 0x40 MLOAD PUSH2 0x269 SWAP2 SWAP1 PUSH2 0xADC JUMP JUMPDEST PUSH1 0x40 MLOAD DUP1 SWAP2 SUB SWAP1 RETURN JUMPDEST CALLVALUE DUP1 ISZERO PUSH2 0x27E JUMPI PUSH1 0x0 DUP1 REVERT JUMPDEST POP PUSH2 0x299 PUSH1 0x4 DUP1 CALLDATASIZE SUB DUP2 ADD SWAP1 PUSH2 0x294 SWAP2 SWAP1 PUSH2 0xA45 JUMP JUMPDEST PUSH2 0x6DD JUMP JUMPDEST STOP JUMPDEST CALLVALUE DUP1 ISZERO PUSH2 0x2A7 JUMPI PUSH1 0x0 DUP1 REVERT JUMPDEST POP PUSH2 0x2B0 PUSH2 0x7B1 JUMP JUMPDEST PUSH1 0x40 MLOAD PUSH2 0x2BE SWAP3 SWAP2 SWAP1 PUSH2 0xA72 JUMP JUMPDEST PUSH1 0x40 MLOAD DUP1 SWAP2 SUB SWAP1 RETURN JUMPDEST CALLVALUE DUP1 ISZERO PUSH2 0x2D3 JUMPI PUSH1 0x0 DUP1 REVERT JUMPDEST POP PUSH2 0x2DC PUSH2 0x81D JUMP JUMPDEST PUSH1 0x40 MLOAD PUSH2 0x2E9 SWAP2 SWAP1 PUSH2 0xB18 JUMP JUMPDEST PUSH1 0x40 MLOAD DUP1 SWAP2 SUB SWAP1 RETURN JUMPDEST CALLVALUE DUP1 ISZERO PUSH2 0x2FE JUMPI PUSH1 0x0 DUP1 REVERT JUMPDEST POP PUSH2 0x319 PUSH1 0x4 DUP1 CALLDATASIZE SUB DUP2 ADD SWAP1 PUSH2 0x314 SWAP2 SWAP1 PUSH2 0xA45 JUMP JUMPDEST PUSH2 0x843 JUMP JUMPDEST STOP JUMPDEST CALLVALUE DUP1 ISZERO PUSH2 0x327 JUMPI PUSH1 0x0 DUP1 REVERT JUMPDEST POP PUSH2 0x342 PUSH1 0x4 DUP1 CALLDATASIZE SUB DUP2 ADD SWAP1 PUSH2 0x33D SWAP2 SWAP1 PUSH2 0xA45 JUMP JUMPDEST PUSH2 0x84D JUMP JUMPDEST PUSH1 0x40 MLOAD PUSH2 0x34F SWAP2 SWAP1 PUSH2 0xA23 JUMP JUMPDEST PUSH1 0x40 MLOAD DUP1 SWAP2 SUB SWAP1 RETURN JUMPDEST CALLVALUE DUP1 ISZERO PUSH2 0x364 JUMPI PUSH1 0x0 DUP1 REVERT JUMPDEST POP PUSH2 0x36D PUSH2 0x8E1 JUMP JUMPDEST PUSH1 0x40 MLOAD PUSH2 0x37A SWAP2 SWAP1 PUSH2 0x978 JUMP JUMPDEST PUSH1 0x40 MLOAD DUP1 SWAP2 SUB SWAP1 RETURN JUMPDEST PUSH1 0x0 PUSH1 0x3 PUSH1 0x2 SLOAD PUSH2 0x394 SWAP2 SWAP1 PUSH2 0xB62 JUMP JUMPDEST SWAP1 POP DUP2 DUP2 PUSH2 0x3A2 SWAP2 SWAP1 PUSH2 0xBD3 JUMP JUMPDEST SWAP1 POP DUP3 DUP2 PUSH2 0x3B0 SWAP2 SWAP1 PUSH2 0xB62 JUMP JUMPDEST SWAP1 POP SWAP3 SWAP2 POP POP JUMP JUMPDEST PUSH1 0x0 PUSH1 0x2 SLOAD SWAP1 POP SWAP1 JUMP JUMPDEST PUSH1 0x1E DUP3 LT PUSH2 0x405 JUMPI PUSH1 0x40 MLOAD PUSH32 0x8C379A000000000000000000000000000000000000000000000000000000000 DUP2 MSTORE PUSH1 0x4 ADD PUSH2 0x3FC SWAP1 PUSH2 0xC50 JUMP JUMPDEST PUSH1 0x40 MLOAD DUP1 SWAP2 SUB SWAP1 REVERT JUMPDEST PUSH1 0x0 JUMPDEST DUP3 DUP2 LT ISZERO PUSH2 0x451 JUMPI PUSH1 0x64 DUP3 PUSH1 0x2 SLOAD PUSH2 0x420 SWAP2 SWAP1 PUSH2 0xB62 JUMP JUMPDEST PUSH2 0x42A SWAP2 SWAP1 PUSH2 0xBD3 JUMP JUMPDEST PUSH1 0x2 SLOAD PUSH2 0x437 SWAP2 SWAP1 PUSH2 0xC70 JUMP JUMPDEST PUSH1 0x2 DUP2 SWAP1 SSTORE POP PUSH1 0x2 DUP2 PUSH2 0x44A SWAP2 SWAP1 PUSH2 0xC70 JUMP JUMPDEST SWAP1 POP PUSH2 0x408 JUMP JUMPDEST POP POP POP JUMP JUMPDEST PUSH1 0x0 DUP1 SLOAD PUSH2 0x463 SWAP1 PUSH2 0xCD3 JUMP JUMPDEST DUP1 PUSH1 0x1F ADD PUSH1 0x20 DUP1 SWAP2 DIV MUL PUSH1 0x20 ADD PUSH1 0x40 MLOAD SWAP1 DUP2 ADD PUSH1 0x40 MSTORE DUP1 SWAP3 SWAP2 SWAP1 DUP2 DUP2 MSTORE PUSH1 0x20 ADD DUP3 DUP1 SLOAD PUSH2 0x48F SWAP1 PUSH2 0xCD3 JUMP JUMPDEST DUP1 ISZERO PUSH2 0x4DC JUMPI DUP1 PUSH1 0x1F LT PUSH2 0x4B1 JUMPI PUSH2 0x100 DUP1 DUP4 SLOAD DIV MUL DUP4 MSTORE SWAP2 PUSH1 0x20 ADD SWAP2 PUSH2 0x4DC JUMP JUMPDEST DUP3 ADD SWAP2 SWAP1 PUSH1 0x0 MSTORE PUSH1 0x20 PUSH1 0x0 KECCAK256 SWAP1 JUMPDEST DUP2 SLOAD DUP2 MSTORE SWAP1 PUSH1 0x1 ADD SWAP1 PUSH1 0x20 ADD DUP1 DUP4 GT PUSH2 0x4BF JUMPI DUP3 SWAP1 SUB PUSH1 0x1F AND DUP3 ADD SWAP2 JUMPDEST POP POP POP POP POP DUP2 JUMP JUMPDEST PUSH1 0x1 DUP1 SLOAD PUSH2 0x4F1 SWAP1 PUSH2 0xCD3 JUMP JUMPDEST DUP1 PUSH1 0x1F ADD PUSH1 0x20 DUP1 SWAP2 DIV MUL PUSH1 0x20 ADD PUSH1 0x40 MLOAD SWAP1 DUP2 ADD PUSH1 0x40 MSTORE DUP1 SWAP3 SWAP2 SWAP1 DUP2 DUP2 MSTORE PUSH1 0x20 ADD DUP3 DUP1 SLOAD PUSH2 0x51D SWAP1 PUSH2 0xCD3 JUMP JUMPDEST DUP1 ISZERO PUSH2 0x56A JUMPI DUP1 PUSH1 0x1F LT PUSH2 0x53F JUMPI PUSH2 0x100 DUP1 DUP4 SLOAD DIV MUL DUP4 MSTORE SWAP2 PUSH1 0x20 ADD SWAP2 PUSH2 0x56A JUMP JUMPDEST DUP3 ADD SWAP2 SWAP1 PUSH1 0x0 MSTORE PUSH1 0x20 PUSH1 0x0 KECCAK256 SWAP1 JUMPDEST DUP2 SLOAD DUP2 MSTORE SWAP1 PUSH1 0x1 ADD SWAP1 PUSH1 0x20 ADD DUP1 DUP4 GT PUSH2 0x54D JUMPI DUP3 SWAP1 SUB PUSH1 0x1F AND DUP3 ADD SWAP2 JUMPDEST POP POP POP POP POP DUP2 JUMP JUMPDEST PUSH1 0x3 DUP2 DUP2 SLOAD DUP2 LT PUSH2 0x582 JUMPI PUSH1 0x0 DUP1 REVERT JUMPDEST SWAP1 PUSH1 0x0 MSTORE PUSH1 0x20 PUSH1 0x0 KECCAK256 SWAP1 PUSH1 0x2 MUL ADD PUSH1 0x0 SWAP2 POP SWAP1 POP DUP1 PUSH1 0x0 ADD SLOAD SWAP1 DUP1 PUSH1 0x1 ADD SLOAD SWAP1 POP DUP3 JUMP JUMPDEST PUSH1 0x3 DUP2 JUMP JUMPDEST PUSH1 0x2 SLOAD CALLVALUE LT ISZERO PUSH2 0x5F0 JUMPI PUSH1 0x40 MLOAD PUSH32 0x8C379A000000000000000000000000000000000000000000000000000000000 DUP2 MSTORE PUSH1 0x4 ADD PUSH2 0x5E7 SWAP1 PUSH2 0xD50 JUMP JUMPDEST PUSH1 0x40 MLOAD DUP1 SWAP2 SUB SWAP1 REVERT JUMPDEST PUSH1 0x4 PUSH1 0x0 SWAP1 SLOAD SWAP1 PUSH2 0x100 EXP SWAP1 DIV PUSH20 0xFFFFFFFFFFFFFFFFFFFFFFFFFFFFFFFFFFFFFFFF AND PUSH20 0xFFFFFFFFFFFFFFFFFFFFFFFFFFFFFFFFFFFFFFFF AND PUSH2 0x8FC CALLVALUE SWAP1 DUP2 ISZERO MUL SWAP1 PUSH1 0x40 MLOAD PUSH1 0x0 PUSH1 0x40 MLOAD DUP1 DUP4 SUB DUP2 DUP6 DUP9 DUP9 CALL SWAP4 POP POP POP POP ISZERO DUP1 ISZERO PUSH2 0x658 JUMPI RETURNDATASIZE PUSH1 0x0 DUP1 RETURNDATACOPY RETURNDATASIZE PUSH1 0x0 REVERT JUMPDEST POP PUSH1 0x0 PUSH1 0x40 MLOAD DUP1 PUSH1 0x40 ADD PUSH1 0x40 MSTORE DUP1 TIMESTAMP DUP2 MSTORE PUSH1 0x20 ADD CALLVALUE DUP2 MSTORE POP SWAP1 POP PUSH1 0x3 DUP2 SWAP1 DUP1 PUSH1 0x1 DUP2 SLOAD ADD DUP1 DUP3 SSTORE DUP1 SWAP2 POP POP PUSH1 0x1 SWAP1 SUB SWAP1 PUSH1 0x0 MSTORE PUSH1 0x20 PUSH1 0x0 KECCAK256 SWAP1 PUSH1 0x2 MUL ADD PUSH1 0x0 SWAP1 SWAP2 SWAP1 SWAP2 SWAP1 SWAP2 POP PUSH1 0x0 DUP3 ADD MLOAD DUP2 PUSH1 0x0 ADD SSTORE PUSH1 0x20 DUP3 ADD MLOAD DUP2 PUSH1 0x1 ADD SSTORE POP POP POP JUMP JUMPDEST PUSH1 0x5 PUSH1 0x0 SWAP1 SLOAD SWAP1 PUSH2 0x100 EXP SWAP1 DIV PUSH20 0xFFFFFFFFFFFFFFFFFFFFFFFFFFFFFFFFFFFFFFFF AND DUP2 JUMP JUMPDEST PUSH1 0x5 PUSH1 0x0 SWAP1 SLOAD SWAP1 PUSH2 0x100 EXP SWAP1 DIV PUSH20 0xFFFFFFFFFFFFFFFFFFFFFFFFFFFFFFFFFFFFFFFF AND PUSH20 0xFFFFFFFFFFFFFFFFFFFFFFFFFFFFFFFFFFFFFFFF AND CALLER PUSH20 0xFFFFFFFFFFFFFFFFFFFFFFFFFFFFFFFFFFFFFFFF AND EQ PUSH2 0x76D JUMPI PUSH1 0x40 MLOAD PUSH32 0x8C379A000000000000000000000000000000000000000000000000000000000 DUP2 MSTORE PUSH1 0x4 ADD PUSH2 0x764 SWAP1 PUSH2 0xDE2 JUMP JUMPDEST PUSH1 0x40 MLOAD DUP1 SWAP2 SUB SWAP1 REVERT JUMPDEST PUSH1 0x14 DUP2 GT ISZERO PUSH2 0x77B JUMPI PUSH1 0x14 SWAP1 POP JUMPDEST PUSH1 0x0 PUSH1 0x64 DUP3 PUSH1 0x2 SLOAD PUSH2 0x78D SWAP2 SWAP1 PUSH2 0xB62 JUMP JUMPDEST PUSH2 0x797 SWAP2 SWAP1 PUSH2 0xBD3 JUMP JUMPDEST SWAP1 POP DUP1 PUSH1 0x2 SLOAD PUSH2 0x7A7 SWAP2 SWAP1 PUSH2 0xC70 JUMP JUMPDEST PUSH1 0x2 DUP2 SWAP1 SSTORE POP POP POP JUMP JUMPDEST PUSH1 0x0 DUP1 PUSH1 0x0 JUMPDEST PUSH1 0x3 DUP1 SLOAD SWAP1 POP DUP2 LT ISZERO PUSH2 0x818 JUMPI PUSH1 0x3 DUP2 DUP2 SLOAD DUP2 LT PUSH2 0x7D8 JUMPI PUSH2 0x7D7 PUSH2 0xE02 JUMP JUMPDEST JUMPDEST SWAP1 PUSH1 0x0 MSTORE PUSH1 0x20 PUSH1 0x0 KECCAK256 SWAP1 PUSH1 0x2 MUL ADD PUSH1 0x1 ADD SLOAD DUP4 PUSH2 0x7F5 SWAP2 SWAP1 PUSH2 0xC70 JUMP JUMPDEST SWAP3 POP DUP2 DUP1 PUSH2 0x802 SWAP1 PUSH2 0xE31 JUMP JUMPDEST SWAP3 POP POP DUP1 DUP1 PUSH2 0x810 SWAP1 PUSH2 0xE31 JUMP JUMPDEST SWAP2 POP POP PUSH2 0x7B7 JUMP JUMPDEST POP SWAP1 SWAP2 JUMP JUMPDEST PUSH1 0x4 PUSH1 0x0 SWAP1 SLOAD SWAP1 PUSH2 0x100 EXP SWAP1 DIV PUSH20 0xFFFFFFFFFFFFFFFFFFFFFFFFFFFFFFFFFFFFFFFF AND DUP2 JUMP JUMPDEST DUP1 PUSH1 0x2 DUP2 SWAP1 SSTORE POP POP JUMP JUMPDEST PUSH1 0x60 PUSH2 0x1388 DUP3 PUSH1 0x2 SLOAD PUSH2 0x860 SWAP2 SWAP1 PUSH2 0xB62 JUMP JUMPDEST GT ISZERO PUSH2 0x8A3 JUMPI PUSH1 0x40 MLOAD DUP1 PUSH1 0x40 ADD PUSH1 0x40 MSTORE DUP1 PUSH1 0xA DUP2 MSTORE PUSH1 0x20 ADD PUSH32 0x4D7569746F206361726F00000000000000000000000000000000000000000000 DUP2 MSTORE POP SWAP1 POP PUSH2 0x8DC JUMP JUMPDEST PUSH1 0x40 MLOAD DUP1 PUSH1 0x40 ADD PUSH1 0x40 MSTORE DUP1 PUSH1 0xE DUP2 MSTORE PUSH1 0x20 ADD PUSH32 0x507265636F2072617A6F6176656C000000000000000000000000000000000000 DUP2 MSTORE POP SWAP1 POP JUMPDEST SWAP2 SWAP1 POP JUMP JUMPDEST PUSH1 0x0 PUSH1 0x3 DUP1 SLOAD SWAP1 POP SWAP1 POP SWAP1 JUMP JUMPDEST PUSH1 0x0 DUP1 REVERT JUMPDEST PUSH1 0x0 DUP2 SWAP1 POP SWAP2 SWAP1 POP JUMP JUMPDEST PUSH2 0x906 DUP2 PUSH2 0x8F3 JUMP JUMPDEST DUP2 EQ PUSH2 0x911 JUMPI PUSH1 0x0 DUP1 REVERT JUMPDEST POP JUMP JUMPDEST PUSH1 0x0 DUP2 CALLDATALOAD SWAP1 POP PUSH2 0x923 DUP2 PUSH2 0x8FD JUMP JUMPDEST SWAP3 SWAP2 POP POP JUMP JUMPDEST PUSH1 0x0 DUP1 PUSH1 0x40 DUP4 DUP6 SUB SLT ISZERO PUSH2 0x940 JUMPI PUSH2 0x93F PUSH2 0x8EE JUMP JUMPDEST JUMPDEST PUSH1 0x0 PUSH2 0x94E DUP6 DUP3 DUP7 ADD PUSH2 0x914 JUMP JUMPDEST SWAP3 POP POP PUSH1 0x20 PUSH2 0x95F DUP6 DUP3 DUP7 ADD PUSH2 0x914 JUMP JUMPDEST SWAP2 POP POP SWAP3 POP SWAP3 SWAP1 POP JUMP JUMPDEST PUSH2 0x972 DUP2 PUSH2 0x8F3 JUMP JUMPDEST DUP3 MSTORE POP POP JUMP JUMPDEST PUSH1 0x0 PUSH1 0x20 DUP3 ADD SWAP1 POP PUSH2 0x98D PUSH1 0x0 DUP4 ADD DUP5 PUSH2 0x969 JUMP JUMPDEST SWAP3 SWAP2 POP POP JUMP JUMPDEST PUSH1 0x0 DUP2 MLOAD SWAP1 POP SWAP2 SWAP1 POP JUMP JUMPDEST PUSH1 0x0 DUP3 DUP3 MSTORE PUSH1 0x20 DUP3 ADD SWAP1 POP SWAP3 SWAP2 POP POP JUMP JUMPDEST PUSH1 0x0 JUMPDEST DUP4 DUP2 LT ISZERO PUSH2 0x9CD JUMPI DUP1 DUP3 ADD MLOAD DUP2 DUP5 ADD MSTORE PUSH1 0x20 DUP2 ADD SWAP1 POP PUSH2 0x9B2 JUMP JUMPDEST PUSH1 0x0 DUP5 DUP5 ADD MSTORE POP POP POP POP JUMP JUMPDEST PUSH1 0x0 PUSH1 0x1F NOT PUSH1 0x1F DUP4 ADD AND SWAP1 POP SWAP2 SWAP1 POP JUMP JUMPDEST PUSH1 0x0 PUSH2 0x9F5 DUP3 PUSH2 0x993 JUMP JUMPDEST PUSH2 0x9FF DUP2 DUP6 PUSH2 0x99E JUMP JUMPDEST SWAP4 POP PUSH2 0xA0F DUP2 DUP6 PUSH1 0x20 DUP7 ADD PUSH2 0x9AF JUMP JUMPDEST PUSH2 0xA18 DUP2 PUSH2 0x9D9 JUMP JUMPDEST DUP5 ADD SWAP2 POP POP SWAP3 SWAP2 POP POP JUMP JUMPDEST PUSH1 0x0 PUSH1 0x20 DUP3 ADD SWAP1 POP DUP2 DUP2 SUB PUSH1 0x0 DUP4 ADD MSTORE PUSH2 0xA3D DUP2 DUP5 PUSH2 0x9EA JUMP JUMPDEST SWAP1 POP SWAP3 SWAP2 POP POP JUMP JUMPDEST PUSH1 0x0 PUSH1 0x20 DUP3 DUP5 SUB SLT ISZERO PUSH2 0xA5B JUMPI PUSH2 0xA5A PUSH2 0x8EE JUMP JUMPDEST JUMPDEST PUSH1 0x0 PUSH2 0xA69 DUP5 DUP3 DUP6 ADD PUSH2 0x914 JUMP JUMPDEST SWAP2 POP POP SWAP3 SWAP2 POP POP JUMP JUMPDEST PUSH1 0x0 PUSH1 0x40 DUP3 ADD SWAP1 POP PUSH2 0xA87 PUSH1 0x0 DUP4 ADD DUP6 PUSH2 0x969 JUMP JUMPDEST PUSH2 0xA94 PUSH1 0x20 DUP4 ADD DUP5 PUSH2 0x969 JUMP JUMPDEST SWAP4 SWAP3 POP POP POP JUMP JUMPDEST PUSH1 0x0 PUSH20 0xFFFFFFFFFFFFFFFFFFFFFFFFFFFFFFFFFFFFFFFF DUP3 AND SWAP1 POP SWAP2 SWAP1 POP JUMP JUMPDEST PUSH1 0x0 PUSH2 0xAC6 DUP3 PUSH2 0xA9B JUMP JUMPDEST SWAP1 POP SWAP2 SWAP1 POP JUMP JUMPDEST PUSH2 0xAD6 DUP2 PUSH2 0xABB JUMP JUMPDEST DUP3 MSTORE POP POP JUMP JUMPDEST PUSH1 0x0 PUSH1 0x20 DUP3 ADD SWAP1 POP PUSH2 0xAF1 PUSH1 0x0 DUP4 ADD DUP5 PUSH2 0xACD JUMP JUMPDEST SWAP3 SWAP2 POP POP JUMP JUMPDEST PUSH1 0x0 PUSH2 0xB02 DUP3 PUSH2 0xA9B JUMP JUMPDEST SWAP1 POP SWAP2 SWAP1 POP JUMP JUMPDEST PUSH2 0xB12 DUP2 PUSH2 0xAF7 JUMP JUMPDEST DUP3 MSTORE POP POP JUMP JUMPDEST PUSH1 0x0 PUSH1 0x20 DUP3 ADD SWAP1 POP PUSH2 0xB2D PUSH1 0x0 DUP4 ADD DUP5 PUSH2 0xB09 JUMP JUMPDEST SWAP3 SWAP2 POP POP JUMP JUMPDEST PUSH32 0x4E487B7100000000000000000000000000000000000000000000000000000000 PUSH1 0x0 MSTORE PUSH1 0x11 PUSH1 0x4 MSTORE PUSH1 0x24 PUSH1 0x0 REVERT JUMPDEST PUSH1 0x0 PUSH2 0xB6D DUP3 PUSH2 0x8F3 JUMP JUMPDEST SWAP2 POP PUSH2 0xB78 DUP4 PUSH2 0x8F3 JUMP JUMPDEST SWAP3 POP DUP3 DUP3 MUL PUSH2 0xB86 DUP2 PUSH2 0x8F3 JUMP JUMPDEST SWAP2 POP DUP3 DUP3 DIV DUP5 EQ DUP4 ISZERO OR PUSH2 0xB9D JUMPI PUSH2 0xB9C PUSH2 0xB33 JUMP JUMPDEST JUMPDEST POP SWAP3 SWAP2 POP POP JUMP JUMPDEST PUSH32 0x4E487B7100000000000000000000000000000000000000000000000000000000 PUSH1 0x0 MSTORE PUSH1 0x12 PUSH1 0x4 MSTORE PUSH1 0x24 PUSH1 0x0 REVERT JUMPDEST PUSH1 0x0 PUSH2 0xBDE DUP3 PUSH2 0x8F3 JUMP JUMPDEST SWAP2 POP PUSH2 0xBE9 DUP4 PUSH2 0x8F3 JUMP JUMPDEST SWAP3 POP DUP3 PUSH2 0xBF9 JUMPI PUSH2 0xBF8 PUSH2 0xBA4 JUMP JUMPDEST JUMPDEST DUP3 DUP3 DIV SWAP1 POP SWAP3 SWAP2 POP POP JUMP JUMPDEST PUSH32 0x506572696F646F20646520636F6E747261746F20696E76616C69646F00000000 PUSH1 0x0 DUP3 ADD MSTORE POP JUMP JUMPDEST PUSH1 0x0 PUSH2 0xC3A PUSH1 0x1C DUP4 PUSH2 0x99E JUMP JUMPDEST SWAP2 POP PUSH2 0xC45 DUP3 PUSH2 0xC04 JUMP JUMPDEST PUSH1 0x20 DUP3 ADD SWAP1 POP SWAP2 SWAP1 POP JUMP JUMPDEST PUSH1 0x0 PUSH1 0x20 DUP3 ADD SWAP1 POP DUP2 DUP2 SUB PUSH1 0x0 DUP4 ADD MSTORE PUSH2 0xC69 DUP2 PUSH2 0xC2D JUMP JUMPDEST SWAP1 POP SWAP2 SWAP1 POP JUMP JUMPDEST PUSH1 0x0 PUSH2 0xC7B DUP3 PUSH2 0x8F3 JUMP JUMPDEST SWAP2 POP PUSH2 0xC86 DUP4 PUSH2 0x8F3 JUMP JUMPDEST SWAP3 POP DUP3 DUP3 ADD SWAP1 POP DUP1 DUP3 GT ISZERO PUSH2 0xC9E JUMPI PUSH2 0xC9D PUSH2 0xB33 JUMP JUMPDEST JUMPDEST SWAP3 SWAP2 POP POP JUMP JUMPDEST PUSH32 0x4E487B7100000000000000000000000000000000000000000000000000000000 PUSH1 0x0 MSTORE PUSH1 0x22 PUSH1 0x4 MSTORE PUSH1 0x24 PUSH1 0x0 REVERT JUMPDEST PUSH1 0x0 PUSH1 0x2 DUP3 DIV SWAP1 POP PUSH1 0x1 DUP3 AND DUP1 PUSH2 0xCEB JUMPI PUSH1 0x7F DUP3 AND SWAP2 POP JUMPDEST PUSH1 0x20 DUP3 LT DUP2 SUB PUSH2 0xCFE JUMPI PUSH2 0xCFD PUSH2 0xCA4 JUMP JUMPDEST JUMPDEST POP SWAP2 SWAP1 POP JUMP JUMPDEST PUSH32 0x56616C6F7220696E737566696369656E74650000000000000000000000000000 PUSH1 0x0 DUP3 ADD MSTORE POP JUMP JUMPDEST PUSH1 0x0 PUSH2 0xD3A PUSH1 0x12 DUP4 PUSH2 0x99E JUMP JUMPDEST SWAP2 POP PUSH2 0xD45 DUP3 PUSH2 0xD04 JUMP JUMPDEST PUSH1 0x20 DUP3 ADD SWAP1 POP SWAP2 SWAP1 POP JUMP JUMPDEST PUSH1 0x0 PUSH1 0x20 DUP3 ADD SWAP1 POP DUP2 DUP2 SUB PUSH1 0x0 DUP4 ADD MSTORE PUSH2 0xD69 DUP2 PUSH2 0xD2D JUMP JUMPDEST SWAP1 POP SWAP2 SWAP1 POP JUMP JUMPDEST PUSH32 0x736F6D656E7465206F20646F6E6F20646F20696D6F76656C20706F6465207265 PUSH1 0x0 DUP3 ADD MSTORE PUSH32 0x616A7573746172206F20616C756775656C000000000000000000000000000000 PUSH1 0x20 DUP3 ADD MSTORE POP JUMP JUMPDEST PUSH1 0x0 PUSH2 0xDCC PUSH1 0x31 DUP4 PUSH2 0x99E JUMP JUMPDEST SWAP2 POP PUSH2 0xDD7 DUP3 PUSH2 0xD70 JUMP JUMPDEST PUSH1 0x40 DUP3 ADD SWAP1 POP SWAP2 SWAP1 POP JUMP JUMPDEST PUSH1 0x0 PUSH1 0x20 DUP3 ADD SWAP1 POP DUP2 DUP2 SUB PUSH1 0x0 DUP4 ADD MSTORE PUSH2 0xDFB DUP2 PUSH2 0xDBF JUMP JUMPDEST SWAP1 POP SWAP2 SWAP1 POP JUMP JUMPDEST PUSH32 0x4E487B7100000000000000000000000000000000000000000000000000000000 PUSH1 0x0 MSTORE PUSH1 0x32 PUSH1 0x4 MSTORE PUSH1 0x24 PUSH1 0x0 REVERT JUMPDEST PUSH1 0x0 PUSH2 0xE3C DUP3 PUSH2 0x8F3 JUMP JUMPDEST SWAP2 POP PUSH32 0xFFFFFFFFFFFFFFFFFFFFFFFFFFFFFFFFFFFFFFFFFFFFFFFFFFFFFFFFFFFFFFFF DUP3 SUB PUSH2 0xE6E JUMPI PUSH2 0xE6D PUSH2 0xB33 JUMP JUMPDEST JUMPDEST PUSH1 0x1 DUP3 ADD SWAP1 POP SWAP2 SWAP1 POP JUMP INVALID LOG2 PUSH5 0x6970667358 0x22 SLT KECCAK256 PUSH28 0xC6962E057FE063922B9E3C71A697BEA44FEFDE9972C82364CE450ADA DUP12 SGT PUSH10 0x64736F6C634300081300 CALLER "
				},
				"gasEstimates": {
					"creation": {
						"codeDepositCost": "751800",
						"executionCost": "infinite",
						"totalCost": "infinite"
					},
					"external": {
						"aditamentoValorAluguel(uint256)": "22564",
						"aplicaMulta(uint256,uint256)": "infinite",
						"contaLocador()": "2536",
						"historicoDePagto()": "infinite",
						"locador()": "infinite",
						"locatario()": "infinite",
						"numeroMaximoLegalDeAlugueisParaMulta()": "418",
						"owner()": "2559",
						"quantosPagamentosJaForamFeitos()": "2533",
						"reajustaAluguel(uint256)": "infinite",
						"receberPagamento()": "infinite",
						"retornaTexto(uint256)": "infinite",
						"simulaMulta(uint256,uint256)": "infinite",
						"statusPagamento(uint256)": "infinite",
						"valorAtualDoAluguel()": "2483"
					}
				},
				"methodIdentifiers": {
					"aditamentoValorAluguel(uint256)": "b235612a",
					"aplicaMulta(uint256,uint256)": "35f580f0",
					"contaLocador()": "af74c59a",
					"historicoDePagto()": "aec7f99c",
					"locador()": "5098e165",
					"locatario()": "409bb8ab",
					"numeroMaximoLegalDeAlugueisParaMulta()": "68f01ee9",
					"owner()": "8da5cb5b",
					"quantosPagamentosJaForamFeitos()": "e862b9e1",
					"reajustaAluguel(uint256)": "960daf46",
					"receberPagamento()": "8d2802d9",
					"retornaTexto(uint256)": "b3fbc324",
					"simulaMulta(uint256,uint256)": "03deed58",
					"statusPagamento(uint256)": "5a661872",
					"valorAtualDoAluguel()": "2d058150"
				}
			},
			"storageLayout": {
				"storage": [
					{
						"astId": 8,
						"contract": "nuclea-aula05.sol:Aluguel",
						"label": "locatario",
						"offset": 0,
						"slot": "0",
						"type": "t_string_storage"
					},
					{
						"astId": 10,
						"contract": "nuclea-aula05.sol:Aluguel",
						"label": "locador",
						"offset": 0,
						"slot": "1",
						"type": "t_string_storage"
					},
					{
						"astId": 12,
						"contract": "nuclea-aula05.sol:Aluguel",
						"label": "valor",
						"offset": 0,
						"slot": "2",
						"type": "t_uint256"
					},
					{
						"astId": 19,
						"contract": "nuclea-aula05.sol:Aluguel",
						"label": "statusPagamento",
						"offset": 0,
						"slot": "3",
						"type": "t_array(t_struct(DadosPagamento)6_storage)dyn_storage"
					},
					{
						"astId": 21,
						"contract": "nuclea-aula05.sol:Aluguel",
						"label": "contaLocador",
						"offset": 0,
						"slot": "4",
						"type": "t_address_payable"
					},
					{
						"astId": 23,
						"contract": "nuclea-aula05.sol:Aluguel",
						"label": "owner",
						"offset": 0,
						"slot": "5",
						"type": "t_address"
					}
				],
				"types": {
					"t_address": {
						"encoding": "inplace",
						"label": "address",
						"numberOfBytes": "20"
					},
					"t_address_payable": {
						"encoding": "inplace",
						"label": "address payable",
						"numberOfBytes": "20"
					},
					"t_array(t_struct(DadosPagamento)6_storage)dyn_storage": {
						"base": "t_struct(DadosPagamento)6_storage",
						"encoding": "dynamic_array",
						"label": "struct Aluguel.DadosPagamento[]",
						"numberOfBytes": "32"
					},
					"t_string_storage": {
						"encoding": "bytes",
						"label": "string",
						"numberOfBytes": "32"
					},
					"t_struct(DadosPagamento)6_storage": {
						"encoding": "inplace",
						"label": "struct Aluguel.DadosPagamento",
						"members": [
							{
								"astId": 3,
								"contract": "nuclea-aula05.sol:Aluguel",
								"label": "quandoFoiPago",
								"offset": 0,
								"slot": "0",
								"type": "t_uint256"
							},
							{
								"astId": 5,
								"contract": "nuclea-aula05.sol:Aluguel",
								"label": "valorPago",
								"offset": 0,
								"slot": "1",
								"type": "t_uint256"
							}
						],
						"numberOfBytes": "64"
					},
					"t_uint256": {
						"encoding": "inplace",
						"label": "uint256",
						"numberOfBytes": "32"
					}
				}
			},
			"userdoc": {
				"kind": "user",
				"methods": {},
				"version": 1
			}
		}
	}
}