{
	"aula06_02/atividade.sol": {
		"Patinhos": {
			"abi": [
				{
					"anonymous": false,
					"inputs": [
						{
							"indexed": false,
							"internalType": "address[]",
							"name": "patinhos",
							"type": "address[]"
						},
						{
							"indexed": false,
							"internalType": "uint8",
							"name": "quantos",
							"type": "uint8"
						}
					],
					"name": "MamaePatinhoFoiBuscar",
					"type": "event"
				},
				{
					"anonymous": false,
					"inputs": [
						{
							"indexed": false,
							"internalType": "address",
							"name": "patinho",
							"type": "address"
						},
						{
							"indexed": false,
							"internalType": "uint8",
							"name": "quantos",
							"type": "uint8"
						}
					],
					"name": "NovoPatinhoFoiPassear",
					"type": "event"
				},
				{
					"inputs": [],
					"name": "mamaeBuscaPatos",
					"outputs": [],
					"stateMutability": "nonpayable",
					"type": "function"
				},
				{
					"inputs": [
						{
							"internalType": "address",
							"name": "pato",
							"type": "address"
						}
					],
					"name": "novoPatinho",
					"outputs": [
						{
							"internalType": "uint8",
							"name": "",
							"type": "uint8"
						}
					],
					"stateMutability": "nonpayable",
					"type": "function"
				},
				{
					"inputs": [
						{
							"internalType": "address",
							"name": "",
							"type": "address"
						}
					],
					"name": "patinhosUnicos",
					"outputs": [
						{
							"internalType": "bool",
							"name": "",
							"type": "bool"
						}
					],
					"stateMutability": "view",
					"type": "function"
				},
				{
					"inputs": [],
					"name": "totalPatinhos",
					"outputs": [
						{
							"internalType": "uint8",
							"name": "",
							"type": "uint8"
						}
					],
					"stateMutability": "view",
					"type": "function"
				}
			],
			"devdoc": {
				"author": "Felipph Calado",
				"kind": "dev",
				"methods": {},
				"title": "Patinhos foram",
				"version": 1
			},
			"evm": {
				"assembly": "    /* \"aula06_02/atividade.sol\":302:1824  contract Patinhos {... */\n  mstore(0x40, 0x80)\n    /* \"aula06_02/atividade.sol\":432:433  0 */\n  0x00\n    /* \"aula06_02/atividade.sol\":403:433  uint8 public totalPatinhos = 0 */\n  0x02\n  exp(0x0100, 0x00)\n  dup2\n  sload\n  dup2\n  0xff\n  mul\n  not\n  and\n  swap1\n  dup4\n  0xff\n  and\n  mul\n  or\n  swap1\n  sstore\n  pop\n    /* \"aula06_02/atividade.sol\":302:1824  contract Patinhos {... */\n  callvalue\n  dup1\n  iszero\n  tag_1\n  jumpi\n  0x00\n  dup1\n  revert\ntag_1:\n  pop\n  dataSize(sub_0)\n  dup1\n  dataOffset(sub_0)\n  0x00\n  codecopy\n  0x00\n  return\nstop\n\nsub_0: assembly {\n        /* \"aula06_02/atividade.sol\":302:1824  contract Patinhos {... */\n      mstore(0x40, 0x80)\n      callvalue\n      dup1\n      iszero\n      tag_1\n      jumpi\n      0x00\n      dup1\n      revert\n    tag_1:\n      pop\n      jumpi(tag_2, lt(calldatasize, 0x04))\n      shr(0xe0, calldataload(0x00))\n      dup1\n      0x0479a795\n      eq\n      tag_3\n      jumpi\n      dup1\n      0x2ca82d49\n      eq\n      tag_4\n      jumpi\n      dup1\n      0x8e4ad5a3\n      eq\n      tag_5\n      jumpi\n      dup1\n      0xd42e3e9d\n      eq\n      tag_6\n      jumpi\n    tag_2:\n      0x00\n      dup1\n      revert\n        /* \"aula06_02/atividade.sol\":327:371  mapping(address=>bool) public patinhosUnicos */\n    tag_3:\n      tag_7\n      0x04\n      dup1\n      calldatasize\n      sub\n      dup2\n      add\n      swap1\n      tag_8\n      swap2\n      swap1\n      tag_9\n      jump\t// in\n    tag_8:\n      tag_10\n      jump\t// in\n    tag_7:\n      mload(0x40)\n      tag_11\n      swap2\n      swap1\n      tag_12\n      jump\t// in\n    tag_11:\n      mload(0x40)\n      dup1\n      swap2\n      sub\n      swap1\n      return\n        /* \"aula06_02/atividade.sol\":907:1370  function novoPatinho(address pato) public returns (uint8) {... */\n    tag_4:\n      tag_13\n      0x04\n      dup1\n      calldatasize\n      sub\n      dup2\n      add\n      swap1\n      tag_14\n      swap2\n      swap1\n      tag_9\n      jump\t// in\n    tag_14:\n      tag_15\n      jump\t// in\n    tag_13:\n      mload(0x40)\n      tag_16\n      swap2\n      swap1\n      tag_17\n      jump\t// in\n    tag_16:\n      mload(0x40)\n      dup1\n      swap2\n      sub\n      swap1\n      return\n        /* \"aula06_02/atividade.sol\":1380:1821  function mamaeBuscaPatos() public  {... */\n    tag_5:\n      tag_18\n      tag_19\n      jump\t// in\n    tag_18:\n      stop\n        /* \"aula06_02/atividade.sol\":403:433  uint8 public totalPatinhos = 0 */\n    tag_6:\n      tag_20\n      tag_21\n      jump\t// in\n    tag_20:\n      mload(0x40)\n      tag_22\n      swap2\n      swap1\n      tag_17\n      jump\t// in\n    tag_22:\n      mload(0x40)\n      dup1\n      swap2\n      sub\n      swap1\n      return\n        /* \"aula06_02/atividade.sol\":327:371  mapping(address=>bool) public patinhosUnicos */\n    tag_10:\n      mstore(0x20, 0x00)\n      dup1\n      0x00\n      mstore\n      keccak256(0x00, 0x40)\n      0x00\n      swap2\n      pop\n      sload\n      swap1\n      0x0100\n      exp\n      swap1\n      div\n      0xff\n      and\n      dup2\n      jump\t// out\n        /* \"aula06_02/atividade.sol\":907:1370  function novoPatinho(address pato) public returns (uint8) {... */\n    tag_15:\n        /* \"aula06_02/atividade.sol\":958:963  uint8 */\n      0x00\n        /* \"aula06_02/atividade.sol\":473:474  4 */\n      0x04\n        /* \"aula06_02/atividade.sol\":983:996  totalPatinhos */\n      0x02\n      0x00\n      swap1\n      sload\n      swap1\n      0x0100\n      exp\n      swap1\n      div\n      0xff\n      and\n        /* \"aula06_02/atividade.sol\":983:1015  totalPatinhos < QNT_MAX_PATINHOS */\n      0xff\n      and\n      lt\n        /* \"aula06_02/atividade.sol\":975:1077  require(totalPatinhos < QNT_MAX_PATINHOS , \"Ja temos patinhos demais! Mande a mamae pato ir buscar!!\") */\n      tag_24\n      jumpi\n      mload(0x40)\n      0x08c379a000000000000000000000000000000000000000000000000000000000\n      dup2\n      mstore\n      0x04\n      add\n      tag_25\n      swap1\n      tag_26\n      jump\t// in\n    tag_25:\n      mload(0x40)\n      dup1\n      swap2\n      sub\n      swap1\n      revert\n    tag_24:\n        /* \"aula06_02/atividade.sol\":1119:1124  false */\n      0x00\n        /* \"aula06_02/atividade.sol\":1095:1124  patinhosUnicos[pato] == false */\n      iszero\n      iszero\n        /* \"aula06_02/atividade.sol\":1095:1109  patinhosUnicos */\n      0x00\n        /* \"aula06_02/atividade.sol\":1095:1115  patinhosUnicos[pato] */\n      dup1\n        /* \"aula06_02/atividade.sol\":1110:1114  pato */\n      dup5\n        /* \"aula06_02/atividade.sol\":1095:1115  patinhosUnicos[pato] */\n      0xffffffffffffffffffffffffffffffffffffffff\n      and\n      0xffffffffffffffffffffffffffffffffffffffff\n      and\n      dup2\n      mstore\n      0x20\n      add\n      swap1\n      dup2\n      mstore\n      0x20\n      add\n      0x00\n      keccak256\n      0x00\n      swap1\n      sload\n      swap1\n      0x0100\n      exp\n      swap1\n      div\n      0xff\n      and\n        /* \"aula06_02/atividade.sol\":1095:1124  patinhosUnicos[pato] == false */\n      iszero\n      iszero\n      eq\n        /* \"aula06_02/atividade.sol\":1087:1158  require(patinhosUnicos[pato] == false , \"Esse patinho ja foi passear!\") */\n      tag_27\n      jumpi\n      mload(0x40)\n      0x08c379a000000000000000000000000000000000000000000000000000000000\n      dup2\n      mstore\n      0x04\n      add\n      tag_28\n      swap1\n      tag_29\n      jump\t// in\n    tag_28:\n      mload(0x40)\n      dup1\n      swap2\n      sub\n      swap1\n      revert\n    tag_27:\n        /* \"aula06_02/atividade.sol\":1192:1196  true */\n      0x01\n        /* \"aula06_02/atividade.sol\":1169:1183  patinhosUnicos */\n      0x00\n        /* \"aula06_02/atividade.sol\":1169:1189  patinhosUnicos[pato] */\n      dup1\n        /* \"aula06_02/atividade.sol\":1184:1188  pato */\n      dup5\n        /* \"aula06_02/atividade.sol\":1169:1189  patinhosUnicos[pato] */\n      0xffffffffffffffffffffffffffffffffffffffff\n      and\n      0xffffffffffffffffffffffffffffffffffffffff\n      and\n      dup2\n      mstore\n      0x20\n      add\n      swap1\n      dup2\n      mstore\n      0x20\n      add\n      0x00\n      keccak256\n      0x00\n        /* \"aula06_02/atividade.sol\":1169:1196  patinhosUnicos[pato] = true */\n      0x0100\n      exp\n      dup2\n      sload\n      dup2\n      0xff\n      mul\n      not\n      and\n      swap1\n      dup4\n      iszero\n      iszero\n      mul\n      or\n      swap1\n      sstore\n      pop\n        /* \"aula06_02/atividade.sol\":1206:1214  patinhos */\n      0x01\n        /* \"aula06_02/atividade.sol\":1220:1224  pato */\n      dup3\n        /* \"aula06_02/atividade.sol\":1206:1225  patinhos.push(pato) */\n      swap1\n      dup1\n      0x01\n      dup2\n      sload\n      add\n      dup1\n      dup3\n      sstore\n      dup1\n      swap2\n      pop\n      pop\n      0x01\n      swap1\n      sub\n      swap1\n      0x00\n      mstore\n      keccak256(0x00, 0x20)\n      add\n      0x00\n      swap1\n      swap2\n      swap1\n      swap2\n      swap1\n      swap2\n      0x0100\n      exp\n      dup2\n      sload\n      dup2\n      0xffffffffffffffffffffffffffffffffffffffff\n      mul\n      not\n      and\n      swap1\n      dup4\n      0xffffffffffffffffffffffffffffffffffffffff\n      and\n      mul\n      or\n      swap1\n      sstore\n      pop\n        /* \"aula06_02/atividade.sol\":1235:1248  totalPatinhos */\n      0x02\n      0x00\n        /* \"aula06_02/atividade.sol\":1235:1250  totalPatinhos++ */\n      dup2\n      dup2\n      swap1\n      sload\n      swap1\n      0x0100\n      exp\n      swap1\n      div\n      0xff\n      and\n      dup1\n      swap3\n      swap2\n      swap1\n      tag_31\n      swap1\n      tag_32\n      jump\t// in\n    tag_31:\n      swap2\n      swap1\n      0x0100\n      exp\n      dup2\n      sload\n      dup2\n      0xff\n      mul\n      not\n      and\n      swap1\n      dup4\n      0xff\n      and\n      mul\n      or\n      swap1\n      sstore\n      pop\n      pop\n        /* \"aula06_02/atividade.sol\":1274:1316  NovoPatinhoFoiPassear(pato, totalPatinhos) */\n      0x65b7059a3a19dcc18256085814ff4ae91fe7c9733e267c8c8ec177747b111b95\n        /* \"aula06_02/atividade.sol\":1296:1300  pato */\n      dup3\n        /* \"aula06_02/atividade.sol\":1302:1315  totalPatinhos */\n      0x02\n      0x00\n      swap1\n      sload\n      swap1\n      0x0100\n      exp\n      swap1\n      div\n      0xff\n      and\n        /* \"aula06_02/atividade.sol\":1274:1316  NovoPatinhoFoiPassear(pato, totalPatinhos) */\n      mload(0x40)\n      tag_33\n      swap3\n      swap2\n      swap1\n      tag_34\n      jump\t// in\n    tag_33:\n      mload(0x40)\n      dup1\n      swap2\n      sub\n      swap1\n      log1\n        /* \"aula06_02/atividade.sol\":1342:1355  totalPatinhos */\n      0x02\n      0x00\n      swap1\n      sload\n      swap1\n      0x0100\n      exp\n      swap1\n      div\n      0xff\n      and\n        /* \"aula06_02/atividade.sol\":1335:1355  return totalPatinhos */\n      swap1\n      pop\n        /* \"aula06_02/atividade.sol\":907:1370  function novoPatinho(address pato) public returns (uint8) {... */\n      swap2\n      swap1\n      pop\n      jump\t// out\n        /* \"aula06_02/atividade.sol\":1380:1821  function mamaeBuscaPatos() public  {... */\n    tag_19:\n        /* \"aula06_02/atividade.sol\":473:474  4 */\n      0x04\n        /* \"aula06_02/atividade.sol\":1434:1447  totalPatinhos */\n      0x02\n      0x00\n      swap1\n      sload\n      swap1\n      0x0100\n      exp\n      swap1\n      div\n      0xff\n      and\n        /* \"aula06_02/atividade.sol\":1434:1467  totalPatinhos == QNT_MAX_PATINHOS */\n      0xff\n      and\n      eq\n        /* \"aula06_02/atividade.sol\":1426:1521  require(totalPatinhos == QNT_MAX_PATINHOS , \"Mamae pato so se preocupa se todos patos sumirem\") */\n      tag_36\n      jumpi\n      mload(0x40)\n      0x08c379a000000000000000000000000000000000000000000000000000000000\n      dup2\n      mstore\n      0x04\n      add\n      tag_37\n      swap1\n      tag_38\n      jump\t// in\n    tag_37:\n      mload(0x40)\n      dup1\n      swap2\n      sub\n      swap1\n      revert\n    tag_36:\n        /* \"aula06_02/atividade.sol\":1545:1591  MamaePatinhoFoiBuscar(patinhos, totalPatinhos) */\n      0xb3e9305c09efdea817d172e02aee6940b77dcf9088d56a6f6c85b925639f0881\n        /* \"aula06_02/atividade.sol\":1567:1575  patinhos */\n      0x01\n        /* \"aula06_02/atividade.sol\":1577:1590  totalPatinhos */\n      0x02\n      0x00\n      swap1\n      sload\n      swap1\n      0x0100\n      exp\n      swap1\n      div\n      0xff\n      and\n        /* \"aula06_02/atividade.sol\":1545:1591  MamaePatinhoFoiBuscar(patinhos, totalPatinhos) */\n      mload(0x40)\n      tag_39\n      swap3\n      swap2\n      swap1\n      tag_40\n      jump\t// in\n    tag_39:\n      mload(0x40)\n      dup1\n      swap2\n      sub\n      swap1\n      log1\n        /* \"aula06_02/atividade.sol\":1606:1613  uint8 i */\n      0x00\n        /* \"aula06_02/atividade.sol\":1602:1702  for(uint8 i = 0; i < totalPatinhos; i++) {... */\n    tag_41:\n        /* \"aula06_02/atividade.sol\":1623:1636  totalPatinhos */\n      0x02\n      0x00\n      swap1\n      sload\n      swap1\n      0x0100\n      exp\n      swap1\n      div\n      0xff\n      and\n        /* \"aula06_02/atividade.sol\":1619:1636  i < totalPatinhos */\n      0xff\n      and\n        /* \"aula06_02/atividade.sol\":1619:1620  i */\n      dup2\n        /* \"aula06_02/atividade.sol\":1619:1636  i < totalPatinhos */\n      0xff\n      and\n      lt\n        /* \"aula06_02/atividade.sol\":1602:1702  for(uint8 i = 0; i < totalPatinhos; i++) {... */\n      iszero\n      tag_42\n      jumpi\n        /* \"aula06_02/atividade.sol\":1664:1678  patinhosUnicos */\n      0x00\n        /* \"aula06_02/atividade.sol\":1664:1691  patinhosUnicos[patinhos[i]] */\n      dup1\n        /* \"aula06_02/atividade.sol\":1679:1687  patinhos */\n      0x01\n        /* \"aula06_02/atividade.sol\":1688:1689  i */\n      dup4\n        /* \"aula06_02/atividade.sol\":1679:1690  patinhos[i] */\n      0xff\n      and\n      dup2\n      sload\n      dup2\n      lt\n      tag_44\n      jumpi\n      tag_45\n      tag_46\n      jump\t// in\n    tag_45:\n    tag_44:\n      swap1\n      0x00\n      mstore\n      keccak256(0x00, 0x20)\n      add\n      0x00\n      swap1\n      sload\n      swap1\n      0x0100\n      exp\n      swap1\n      div\n      0xffffffffffffffffffffffffffffffffffffffff\n      and\n        /* \"aula06_02/atividade.sol\":1664:1691  patinhosUnicos[patinhos[i]] */\n      0xffffffffffffffffffffffffffffffffffffffff\n      and\n      0xffffffffffffffffffffffffffffffffffffffff\n      and\n      dup2\n      mstore\n      0x20\n      add\n      swap1\n      dup2\n      mstore\n      0x20\n      add\n      0x00\n      keccak256\n      0x00\n        /* \"aula06_02/atividade.sol\":1657:1691  delete patinhosUnicos[patinhos[i]] */\n      0x0100\n      exp\n      dup2\n      sload\n      swap1\n      0xff\n      mul\n      not\n      and\n      swap1\n      sstore\n        /* \"aula06_02/atividade.sol\":1638:1641  i++ */\n      dup1\n      dup1\n      tag_48\n      swap1\n      tag_32\n      jump\t// in\n    tag_48:\n      swap2\n      pop\n      pop\n        /* \"aula06_02/atividade.sol\":1602:1702  for(uint8 i = 0; i < totalPatinhos; i++) {... */\n      jump(tag_41)\n    tag_42:\n      pop\n        /* \"aula06_02/atividade.sol\":1718:1726  patinhos */\n      0x01\n      0x00\n        /* \"aula06_02/atividade.sol\":1711:1726  delete patinhos */\n      tag_49\n      swap2\n      swap1\n      tag_50\n      jump\t// in\n    tag_49:\n        /* \"aula06_02/atividade.sol\":1752:1753  0 */\n      0x00\n        /* \"aula06_02/atividade.sol\":1736:1749  totalPatinhos */\n      0x02\n      0x00\n        /* \"aula06_02/atividade.sol\":1736:1753  totalPatinhos = 0 */\n      0x0100\n      exp\n      dup2\n      sload\n      dup2\n      0xff\n      mul\n      not\n      and\n      swap1\n      dup4\n      0xff\n      and\n      mul\n      or\n      swap1\n      sstore\n      pop\n        /* \"aula06_02/atividade.sol\":1768:1814  MamaePatinhoFoiBuscar(patinhos, totalPatinhos) */\n      0xb3e9305c09efdea817d172e02aee6940b77dcf9088d56a6f6c85b925639f0881\n        /* \"aula06_02/atividade.sol\":1790:1798  patinhos */\n      0x01\n        /* \"aula06_02/atividade.sol\":1800:1813  totalPatinhos */\n      0x02\n      0x00\n      swap1\n      sload\n      swap1\n      0x0100\n      exp\n      swap1\n      div\n      0xff\n      and\n        /* \"aula06_02/atividade.sol\":1768:1814  MamaePatinhoFoiBuscar(patinhos, totalPatinhos) */\n      mload(0x40)\n      tag_51\n      swap3\n      swap2\n      swap1\n      tag_40\n      jump\t// in\n    tag_51:\n      mload(0x40)\n      dup1\n      swap2\n      sub\n      swap1\n      log1\n        /* \"aula06_02/atividade.sol\":1380:1821  function mamaeBuscaPatos() public  {... */\n      jump\t// out\n        /* \"aula06_02/atividade.sol\":403:433  uint8 public totalPatinhos = 0 */\n    tag_21:\n      0x02\n      0x00\n      swap1\n      sload\n      swap1\n      0x0100\n      exp\n      swap1\n      div\n      0xff\n      and\n      dup2\n      jump\t// out\n    tag_50:\n      pop\n      dup1\n      sload\n      0x00\n      dup3\n      sstore\n      swap1\n      0x00\n      mstore\n      keccak256(0x00, 0x20)\n      swap1\n      dup2\n      add\n      swap1\n      tag_53\n      swap2\n      swap1\n      tag_54\n      jump\t// in\n    tag_53:\n      pop\n      jump\t// out\n    tag_54:\n    tag_55:\n      dup1\n      dup3\n      gt\n      iszero\n      tag_56\n      jumpi\n      0x00\n      dup2\n      0x00\n      swap1\n      sstore\n      pop\n      0x01\n      add\n      jump(tag_55)\n    tag_56:\n      pop\n      swap1\n      jump\t// out\n        /* \"#utility.yul\":88:205   */\n    tag_58:\n        /* \"#utility.yul\":197:198   */\n      0x00\n        /* \"#utility.yul\":194:195   */\n      dup1\n        /* \"#utility.yul\":187:199   */\n      revert\n        /* \"#utility.yul\":334:460   */\n    tag_60:\n        /* \"#utility.yul\":371:378   */\n      0x00\n        /* \"#utility.yul\":411:453   */\n      0xffffffffffffffffffffffffffffffffffffffff\n        /* \"#utility.yul\":404:409   */\n      dup3\n        /* \"#utility.yul\":400:454   */\n      and\n        /* \"#utility.yul\":389:454   */\n      swap1\n      pop\n        /* \"#utility.yul\":334:460   */\n      swap2\n      swap1\n      pop\n      jump\t// out\n        /* \"#utility.yul\":466:562   */\n    tag_61:\n        /* \"#utility.yul\":503:510   */\n      0x00\n        /* \"#utility.yul\":532:556   */\n      tag_94\n        /* \"#utility.yul\":550:555   */\n      dup3\n        /* \"#utility.yul\":532:556   */\n      tag_60\n      jump\t// in\n    tag_94:\n        /* \"#utility.yul\":521:556   */\n      swap1\n      pop\n        /* \"#utility.yul\":466:562   */\n      swap2\n      swap1\n      pop\n      jump\t// out\n        /* \"#utility.yul\":568:690   */\n    tag_62:\n        /* \"#utility.yul\":641:665   */\n      tag_96\n        /* \"#utility.yul\":659:664   */\n      dup2\n        /* \"#utility.yul\":641:665   */\n      tag_61\n      jump\t// in\n    tag_96:\n        /* \"#utility.yul\":634:639   */\n      dup2\n        /* \"#utility.yul\":631:666   */\n      eq\n        /* \"#utility.yul\":621:684   */\n      tag_97\n      jumpi\n        /* \"#utility.yul\":680:681   */\n      0x00\n        /* \"#utility.yul\":677:678   */\n      dup1\n        /* \"#utility.yul\":670:682   */\n      revert\n        /* \"#utility.yul\":621:684   */\n    tag_97:\n        /* \"#utility.yul\":568:690   */\n      pop\n      jump\t// out\n        /* \"#utility.yul\":696:835   */\n    tag_63:\n        /* \"#utility.yul\":742:747   */\n      0x00\n        /* \"#utility.yul\":780:786   */\n      dup2\n        /* \"#utility.yul\":767:787   */\n      calldataload\n        /* \"#utility.yul\":758:787   */\n      swap1\n      pop\n        /* \"#utility.yul\":796:829   */\n      tag_99\n        /* \"#utility.yul\":823:828   */\n      dup2\n        /* \"#utility.yul\":796:829   */\n      tag_62\n      jump\t// in\n    tag_99:\n        /* \"#utility.yul\":696:835   */\n      swap3\n      swap2\n      pop\n      pop\n      jump\t// out\n        /* \"#utility.yul\":841:1170   */\n    tag_9:\n        /* \"#utility.yul\":900:906   */\n      0x00\n        /* \"#utility.yul\":949:951   */\n      0x20\n        /* \"#utility.yul\":937:946   */\n      dup3\n        /* \"#utility.yul\":928:935   */\n      dup5\n        /* \"#utility.yul\":924:947   */\n      sub\n        /* \"#utility.yul\":920:952   */\n      slt\n        /* \"#utility.yul\":917:1036   */\n      iszero\n      tag_101\n      jumpi\n        /* \"#utility.yul\":955:1034   */\n      tag_102\n      tag_58\n      jump\t// in\n    tag_102:\n        /* \"#utility.yul\":917:1036   */\n    tag_101:\n        /* \"#utility.yul\":1075:1076   */\n      0x00\n        /* \"#utility.yul\":1100:1153   */\n      tag_103\n        /* \"#utility.yul\":1145:1152   */\n      dup5\n        /* \"#utility.yul\":1136:1142   */\n      dup3\n        /* \"#utility.yul\":1125:1134   */\n      dup6\n        /* \"#utility.yul\":1121:1143   */\n      add\n        /* \"#utility.yul\":1100:1153   */\n      tag_63\n      jump\t// in\n    tag_103:\n        /* \"#utility.yul\":1090:1153   */\n      swap2\n      pop\n        /* \"#utility.yul\":1046:1163   */\n      pop\n        /* \"#utility.yul\":841:1170   */\n      swap3\n      swap2\n      pop\n      pop\n      jump\t// out\n        /* \"#utility.yul\":1176:1266   */\n    tag_64:\n        /* \"#utility.yul\":1210:1217   */\n      0x00\n        /* \"#utility.yul\":1253:1258   */\n      dup2\n        /* \"#utility.yul\":1246:1259   */\n      iszero\n        /* \"#utility.yul\":1239:1260   */\n      iszero\n        /* \"#utility.yul\":1228:1260   */\n      swap1\n      pop\n        /* \"#utility.yul\":1176:1266   */\n      swap2\n      swap1\n      pop\n      jump\t// out\n        /* \"#utility.yul\":1272:1381   */\n    tag_65:\n        /* \"#utility.yul\":1353:1374   */\n      tag_106\n        /* \"#utility.yul\":1368:1373   */\n      dup2\n        /* \"#utility.yul\":1353:1374   */\n      tag_64\n      jump\t// in\n    tag_106:\n        /* \"#utility.yul\":1348:1351   */\n      dup3\n        /* \"#utility.yul\":1341:1375   */\n      mstore\n        /* \"#utility.yul\":1272:1381   */\n      pop\n      pop\n      jump\t// out\n        /* \"#utility.yul\":1387:1597   */\n    tag_12:\n        /* \"#utility.yul\":1474:1478   */\n      0x00\n        /* \"#utility.yul\":1512:1514   */\n      0x20\n        /* \"#utility.yul\":1501:1510   */\n      dup3\n        /* \"#utility.yul\":1497:1515   */\n      add\n        /* \"#utility.yul\":1489:1515   */\n      swap1\n      pop\n        /* \"#utility.yul\":1525:1590   */\n      tag_108\n        /* \"#utility.yul\":1587:1588   */\n      0x00\n        /* \"#utility.yul\":1576:1585   */\n      dup4\n        /* \"#utility.yul\":1572:1589   */\n      add\n        /* \"#utility.yul\":1563:1569   */\n      dup5\n        /* \"#utility.yul\":1525:1590   */\n      tag_65\n      jump\t// in\n    tag_108:\n        /* \"#utility.yul\":1387:1597   */\n      swap3\n      swap2\n      pop\n      pop\n      jump\t// out\n        /* \"#utility.yul\":1603:1689   */\n    tag_66:\n        /* \"#utility.yul\":1638:1645   */\n      0x00\n        /* \"#utility.yul\":1678:1682   */\n      0xff\n        /* \"#utility.yul\":1671:1676   */\n      dup3\n        /* \"#utility.yul\":1667:1683   */\n      and\n        /* \"#utility.yul\":1656:1683   */\n      swap1\n      pop\n        /* \"#utility.yul\":1603:1689   */\n      swap2\n      swap1\n      pop\n      jump\t// out\n        /* \"#utility.yul\":1695:1807   */\n    tag_67:\n        /* \"#utility.yul\":1778:1800   */\n      tag_111\n        /* \"#utility.yul\":1794:1799   */\n      dup2\n        /* \"#utility.yul\":1778:1800   */\n      tag_66\n      jump\t// in\n    tag_111:\n        /* \"#utility.yul\":1773:1776   */\n      dup3\n        /* \"#utility.yul\":1766:1801   */\n      mstore\n        /* \"#utility.yul\":1695:1807   */\n      pop\n      pop\n      jump\t// out\n        /* \"#utility.yul\":1813:2027   */\n    tag_17:\n        /* \"#utility.yul\":1902:1906   */\n      0x00\n        /* \"#utility.yul\":1940:1942   */\n      0x20\n        /* \"#utility.yul\":1929:1938   */\n      dup3\n        /* \"#utility.yul\":1925:1943   */\n      add\n        /* \"#utility.yul\":1917:1943   */\n      swap1\n      pop\n        /* \"#utility.yul\":1953:2020   */\n      tag_113\n        /* \"#utility.yul\":2017:2018   */\n      0x00\n        /* \"#utility.yul\":2006:2015   */\n      dup4\n        /* \"#utility.yul\":2002:2019   */\n      add\n        /* \"#utility.yul\":1993:1999   */\n      dup5\n        /* \"#utility.yul\":1953:2020   */\n      tag_67\n      jump\t// in\n    tag_113:\n        /* \"#utility.yul\":1813:2027   */\n      swap3\n      swap2\n      pop\n      pop\n      jump\t// out\n        /* \"#utility.yul\":2033:2202   */\n    tag_68:\n        /* \"#utility.yul\":2117:2128   */\n      0x00\n        /* \"#utility.yul\":2151:2157   */\n      dup3\n        /* \"#utility.yul\":2146:2149   */\n      dup3\n        /* \"#utility.yul\":2139:2158   */\n      mstore\n        /* \"#utility.yul\":2191:2195   */\n      0x20\n        /* \"#utility.yul\":2186:2189   */\n      dup3\n        /* \"#utility.yul\":2182:2196   */\n      add\n        /* \"#utility.yul\":2167:2196   */\n      swap1\n      pop\n        /* \"#utility.yul\":2033:2202   */\n      swap3\n      swap2\n      pop\n      pop\n      jump\t// out\n        /* \"#utility.yul\":2208:2451   */\n    tag_69:\n        /* \"#utility.yul\":2348:2382   */\n      0x4a612074656d6f7320706174696e686f732064656d61697321204d616e646520\n        /* \"#utility.yul\":2344:2345   */\n      0x00\n        /* \"#utility.yul\":2336:2342   */\n      dup3\n        /* \"#utility.yul\":2332:2346   */\n      add\n        /* \"#utility.yul\":2325:2383   */\n      mstore\n        /* \"#utility.yul\":2417:2443   */\n      0x61206d616d6165207061746f2069722062757363617221210000000000000000\n        /* \"#utility.yul\":2412:2414   */\n      0x20\n        /* \"#utility.yul\":2404:2410   */\n      dup3\n        /* \"#utility.yul\":2400:2415   */\n      add\n        /* \"#utility.yul\":2393:2444   */\n      mstore\n        /* \"#utility.yul\":2208:2451   */\n      pop\n      jump\t// out\n        /* \"#utility.yul\":2457:2823   */\n    tag_70:\n        /* \"#utility.yul\":2599:2602   */\n      0x00\n        /* \"#utility.yul\":2620:2687   */\n      tag_117\n        /* \"#utility.yul\":2684:2686   */\n      0x38\n        /* \"#utility.yul\":2679:2682   */\n      dup4\n        /* \"#utility.yul\":2620:2687   */\n      tag_68\n      jump\t// in\n    tag_117:\n        /* \"#utility.yul\":2613:2687   */\n      swap2\n      pop\n        /* \"#utility.yul\":2696:2789   */\n      tag_118\n        /* \"#utility.yul\":2785:2788   */\n      dup3\n        /* \"#utility.yul\":2696:2789   */\n      tag_69\n      jump\t// in\n    tag_118:\n        /* \"#utility.yul\":2814:2816   */\n      0x40\n        /* \"#utility.yul\":2809:2812   */\n      dup3\n        /* \"#utility.yul\":2805:2817   */\n      add\n        /* \"#utility.yul\":2798:2817   */\n      swap1\n      pop\n        /* \"#utility.yul\":2457:2823   */\n      swap2\n      swap1\n      pop\n      jump\t// out\n        /* \"#utility.yul\":2829:3248   */\n    tag_26:\n        /* \"#utility.yul\":2995:2999   */\n      0x00\n        /* \"#utility.yul\":3033:3035   */\n      0x20\n        /* \"#utility.yul\":3022:3031   */\n      dup3\n        /* \"#utility.yul\":3018:3036   */\n      add\n        /* \"#utility.yul\":3010:3036   */\n      swap1\n      pop\n        /* \"#utility.yul\":3082:3091   */\n      dup2\n        /* \"#utility.yul\":3076:3080   */\n      dup2\n        /* \"#utility.yul\":3072:3092   */\n      sub\n        /* \"#utility.yul\":3068:3069   */\n      0x00\n        /* \"#utility.yul\":3057:3066   */\n      dup4\n        /* \"#utility.yul\":3053:3070   */\n      add\n        /* \"#utility.yul\":3046:3093   */\n      mstore\n        /* \"#utility.yul\":3110:3241   */\n      tag_120\n        /* \"#utility.yul\":3236:3240   */\n      dup2\n        /* \"#utility.yul\":3110:3241   */\n      tag_70\n      jump\t// in\n    tag_120:\n        /* \"#utility.yul\":3102:3241   */\n      swap1\n      pop\n        /* \"#utility.yul\":2829:3248   */\n      swap2\n      swap1\n      pop\n      jump\t// out\n        /* \"#utility.yul\":3254:3432   */\n    tag_71:\n        /* \"#utility.yul\":3394:3424   */\n      0x4573736520706174696e686f206a6120666f6920706173736561722100000000\n        /* \"#utility.yul\":3390:3391   */\n      0x00\n        /* \"#utility.yul\":3382:3388   */\n      dup3\n        /* \"#utility.yul\":3378:3392   */\n      add\n        /* \"#utility.yul\":3371:3425   */\n      mstore\n        /* \"#utility.yul\":3254:3432   */\n      pop\n      jump\t// out\n        /* \"#utility.yul\":3438:3804   */\n    tag_72:\n        /* \"#utility.yul\":3580:3583   */\n      0x00\n        /* \"#utility.yul\":3601:3668   */\n      tag_123\n        /* \"#utility.yul\":3665:3667   */\n      0x1c\n        /* \"#utility.yul\":3660:3663   */\n      dup4\n        /* \"#utility.yul\":3601:3668   */\n      tag_68\n      jump\t// in\n    tag_123:\n        /* \"#utility.yul\":3594:3668   */\n      swap2\n      pop\n        /* \"#utility.yul\":3677:3770   */\n      tag_124\n        /* \"#utility.yul\":3766:3769   */\n      dup3\n        /* \"#utility.yul\":3677:3770   */\n      tag_71\n      jump\t// in\n    tag_124:\n        /* \"#utility.yul\":3795:3797   */\n      0x20\n        /* \"#utility.yul\":3790:3793   */\n      dup3\n        /* \"#utility.yul\":3786:3798   */\n      add\n        /* \"#utility.yul\":3779:3798   */\n      swap1\n      pop\n        /* \"#utility.yul\":3438:3804   */\n      swap2\n      swap1\n      pop\n      jump\t// out\n        /* \"#utility.yul\":3810:4229   */\n    tag_29:\n        /* \"#utility.yul\":3976:3980   */\n      0x00\n        /* \"#utility.yul\":4014:4016   */\n      0x20\n        /* \"#utility.yul\":4003:4012   */\n      dup3\n        /* \"#utility.yul\":3999:4017   */\n      add\n        /* \"#utility.yul\":3991:4017   */\n      swap1\n      pop\n        /* \"#utility.yul\":4063:4072   */\n      dup2\n        /* \"#utility.yul\":4057:4061   */\n      dup2\n        /* \"#utility.yul\":4053:4073   */\n      sub\n        /* \"#utility.yul\":4049:4050   */\n      0x00\n        /* \"#utility.yul\":4038:4047   */\n      dup4\n        /* \"#utility.yul\":4034:4051   */\n      add\n        /* \"#utility.yul\":4027:4074   */\n      mstore\n        /* \"#utility.yul\":4091:4222   */\n      tag_126\n        /* \"#utility.yul\":4217:4221   */\n      dup2\n        /* \"#utility.yul\":4091:4222   */\n      tag_72\n      jump\t// in\n    tag_126:\n        /* \"#utility.yul\":4083:4222   */\n      swap1\n      pop\n        /* \"#utility.yul\":3810:4229   */\n      swap2\n      swap1\n      pop\n      jump\t// out\n        /* \"#utility.yul\":4235:4415   */\n    tag_73:\n        /* \"#utility.yul\":4283:4360   */\n      0x4e487b7100000000000000000000000000000000000000000000000000000000\n        /* \"#utility.yul\":4280:4281   */\n      0x00\n        /* \"#utility.yul\":4273:4361   */\n      mstore\n        /* \"#utility.yul\":4380:4384   */\n      0x11\n        /* \"#utility.yul\":4377:4378   */\n      0x04\n        /* \"#utility.yul\":4370:4385   */\n      mstore\n        /* \"#utility.yul\":4404:4408   */\n      0x24\n        /* \"#utility.yul\":4401:4402   */\n      0x00\n        /* \"#utility.yul\":4394:4409   */\n      revert\n        /* \"#utility.yul\":4421:4588   */\n    tag_32:\n        /* \"#utility.yul\":4458:4461   */\n      0x00\n        /* \"#utility.yul\":4481:4503   */\n      tag_129\n        /* \"#utility.yul\":4497:4502   */\n      dup3\n        /* \"#utility.yul\":4481:4503   */\n      tag_66\n      jump\t// in\n    tag_129:\n        /* \"#utility.yul\":4472:4503   */\n      swap2\n      pop\n        /* \"#utility.yul\":4525:4529   */\n      0xff\n        /* \"#utility.yul\":4518:4523   */\n      dup3\n        /* \"#utility.yul\":4515:4530   */\n      sub\n        /* \"#utility.yul\":4512:4553   */\n      tag_130\n      jumpi\n        /* \"#utility.yul\":4533:4551   */\n      tag_131\n      tag_73\n      jump\t// in\n    tag_131:\n        /* \"#utility.yul\":4512:4553   */\n    tag_130:\n        /* \"#utility.yul\":4580:4581   */\n      0x01\n        /* \"#utility.yul\":4573:4578   */\n      dup3\n        /* \"#utility.yul\":4569:4582   */\n      add\n        /* \"#utility.yul\":4562:4582   */\n      swap1\n      pop\n        /* \"#utility.yul\":4421:4588   */\n      swap2\n      swap1\n      pop\n      jump\t// out\n        /* \"#utility.yul\":4594:4712   */\n    tag_74:\n        /* \"#utility.yul\":4681:4705   */\n      tag_133\n        /* \"#utility.yul\":4699:4704   */\n      dup2\n        /* \"#utility.yul\":4681:4705   */\n      tag_61\n      jump\t// in\n    tag_133:\n        /* \"#utility.yul\":4676:4679   */\n      dup3\n        /* \"#utility.yul\":4669:4706   */\n      mstore\n        /* \"#utility.yul\":4594:4712   */\n      pop\n      pop\n      jump\t// out\n        /* \"#utility.yul\":4718:5042   */\n    tag_34:\n        /* \"#utility.yul\":4835:4839   */\n      0x00\n        /* \"#utility.yul\":4873:4875   */\n      0x40\n        /* \"#utility.yul\":4862:4871   */\n      dup3\n        /* \"#utility.yul\":4858:4876   */\n      add\n        /* \"#utility.yul\":4850:4876   */\n      swap1\n      pop\n        /* \"#utility.yul\":4886:4957   */\n      tag_135\n        /* \"#utility.yul\":4954:4955   */\n      0x00\n        /* \"#utility.yul\":4943:4952   */\n      dup4\n        /* \"#utility.yul\":4939:4956   */\n      add\n        /* \"#utility.yul\":4930:4936   */\n      dup6\n        /* \"#utility.yul\":4886:4957   */\n      tag_74\n      jump\t// in\n    tag_135:\n        /* \"#utility.yul\":4967:5035   */\n      tag_136\n        /* \"#utility.yul\":5031:5033   */\n      0x20\n        /* \"#utility.yul\":5020:5029   */\n      dup4\n        /* \"#utility.yul\":5016:5034   */\n      add\n        /* \"#utility.yul\":5007:5013   */\n      dup5\n        /* \"#utility.yul\":4967:5035   */\n      tag_67\n      jump\t// in\n    tag_136:\n        /* \"#utility.yul\":4718:5042   */\n      swap4\n      swap3\n      pop\n      pop\n      pop\n      jump\t// out\n        /* \"#utility.yul\":5048:5283   */\n    tag_75:\n        /* \"#utility.yul\":5188:5222   */\n      0x4d616d6165207061746f20736f207365207072656f6375706120736520746f64\n        /* \"#utility.yul\":5184:5185   */\n      0x00\n        /* \"#utility.yul\":5176:5182   */\n      dup3\n        /* \"#utility.yul\":5172:5186   */\n      add\n        /* \"#utility.yul\":5165:5223   */\n      mstore\n        /* \"#utility.yul\":5257:5275   */\n      0x6f73207061746f732073756d6972656d00000000000000000000000000000000\n        /* \"#utility.yul\":5252:5254   */\n      0x20\n        /* \"#utility.yul\":5244:5250   */\n      dup3\n        /* \"#utility.yul\":5240:5255   */\n      add\n        /* \"#utility.yul\":5233:5276   */\n      mstore\n        /* \"#utility.yul\":5048:5283   */\n      pop\n      jump\t// out\n        /* \"#utility.yul\":5289:5655   */\n    tag_76:\n        /* \"#utility.yul\":5431:5434   */\n      0x00\n        /* \"#utility.yul\":5452:5519   */\n      tag_139\n        /* \"#utility.yul\":5516:5518   */\n      0x30\n        /* \"#utility.yul\":5511:5514   */\n      dup4\n        /* \"#utility.yul\":5452:5519   */\n      tag_68\n      jump\t// in\n    tag_139:\n        /* \"#utility.yul\":5445:5519   */\n      swap2\n      pop\n        /* \"#utility.yul\":5528:5621   */\n      tag_140\n        /* \"#utility.yul\":5617:5620   */\n      dup3\n        /* \"#utility.yul\":5528:5621   */\n      tag_75\n      jump\t// in\n    tag_140:\n        /* \"#utility.yul\":5646:5648   */\n      0x40\n        /* \"#utility.yul\":5641:5644   */\n      dup3\n        /* \"#utility.yul\":5637:5649   */\n      add\n        /* \"#utility.yul\":5630:5649   */\n      swap1\n      pop\n        /* \"#utility.yul\":5289:5655   */\n      swap2\n      swap1\n      pop\n      jump\t// out\n        /* \"#utility.yul\":5661:6080   */\n    tag_38:\n        /* \"#utility.yul\":5827:5831   */\n      0x00\n        /* \"#utility.yul\":5865:5867   */\n      0x20\n        /* \"#utility.yul\":5854:5863   */\n      dup3\n        /* \"#utility.yul\":5850:5868   */\n      add\n        /* \"#utility.yul\":5842:5868   */\n      swap1\n      pop\n        /* \"#utility.yul\":5914:5923   */\n      dup2\n        /* \"#utility.yul\":5908:5912   */\n      dup2\n        /* \"#utility.yul\":5904:5924   */\n      sub\n        /* \"#utility.yul\":5900:5901   */\n      0x00\n        /* \"#utility.yul\":5889:5898   */\n      dup4\n        /* \"#utility.yul\":5885:5902   */\n      add\n        /* \"#utility.yul\":5878:5925   */\n      mstore\n        /* \"#utility.yul\":5942:6073   */\n      tag_142\n        /* \"#utility.yul\":6068:6072   */\n      dup2\n        /* \"#utility.yul\":5942:6073   */\n      tag_76\n      jump\t// in\n    tag_142:\n        /* \"#utility.yul\":5934:6073   */\n      swap1\n      pop\n        /* \"#utility.yul\":5661:6080   */\n      swap2\n      swap1\n      pop\n      jump\t// out\n        /* \"#utility.yul\":6086:6197   */\n    tag_77:\n        /* \"#utility.yul\":6150:6156   */\n      0x00\n        /* \"#utility.yul\":6184:6189   */\n      dup2\n        /* \"#utility.yul\":6178:6190   */\n      sload\n        /* \"#utility.yul\":6168:6190   */\n      swap1\n      pop\n        /* \"#utility.yul\":6086:6197   */\n      swap2\n      swap1\n      pop\n      jump\t// out\n        /* \"#utility.yul\":6203:6387   */\n    tag_78:\n        /* \"#utility.yul\":6302:6313   */\n      0x00\n        /* \"#utility.yul\":6336:6342   */\n      dup3\n        /* \"#utility.yul\":6331:6334   */\n      dup3\n        /* \"#utility.yul\":6324:6343   */\n      mstore\n        /* \"#utility.yul\":6376:6380   */\n      0x20\n        /* \"#utility.yul\":6371:6374   */\n      dup3\n        /* \"#utility.yul\":6367:6381   */\n      add\n        /* \"#utility.yul\":6352:6381   */\n      swap1\n      pop\n        /* \"#utility.yul\":6203:6387   */\n      swap3\n      swap2\n      pop\n      pop\n      jump\t// out\n        /* \"#utility.yul\":6393:6549   */\n    tag_79:\n        /* \"#utility.yul\":6457:6461   */\n      0x00\n        /* \"#utility.yul\":6480:6483   */\n      dup2\n        /* \"#utility.yul\":6472:6483   */\n      swap1\n      pop\n        /* \"#utility.yul\":6503:6506   */\n      dup2\n        /* \"#utility.yul\":6500:6501   */\n      0x00\n        /* \"#utility.yul\":6493:6507   */\n      mstore\n        /* \"#utility.yul\":6537:6541   */\n      0x20\n        /* \"#utility.yul\":6534:6535   */\n      0x00\n        /* \"#utility.yul\":6524:6542   */\n      keccak256\n        /* \"#utility.yul\":6516:6542   */\n      swap1\n      pop\n        /* \"#utility.yul\":6393:6549   */\n      swap2\n      swap1\n      pop\n      jump\t// out\n        /* \"#utility.yul\":6555:6663   */\n    tag_80:\n        /* \"#utility.yul\":6632:6656   */\n      tag_147\n        /* \"#utility.yul\":6650:6655   */\n      dup2\n        /* \"#utility.yul\":6632:6656   */\n      tag_61\n      jump\t// in\n    tag_147:\n        /* \"#utility.yul\":6627:6630   */\n      dup3\n        /* \"#utility.yul\":6620:6657   */\n      mstore\n        /* \"#utility.yul\":6555:6663   */\n      pop\n      pop\n      jump\t// out\n        /* \"#utility.yul\":6669:6848   */\n    tag_81:\n        /* \"#utility.yul\":6738:6748   */\n      0x00\n        /* \"#utility.yul\":6759:6805   */\n      tag_149\n        /* \"#utility.yul\":6801:6804   */\n      dup4\n        /* \"#utility.yul\":6793:6799   */\n      dup4\n        /* \"#utility.yul\":6759:6805   */\n      tag_80\n      jump\t// in\n    tag_149:\n        /* \"#utility.yul\":6837:6841   */\n      0x20\n        /* \"#utility.yul\":6832:6835   */\n      dup4\n        /* \"#utility.yul\":6828:6842   */\n      add\n        /* \"#utility.yul\":6814:6842   */\n      swap1\n      pop\n        /* \"#utility.yul\":6669:6848   */\n      swap3\n      swap2\n      pop\n      pop\n      jump\t// out\n        /* \"#utility.yul\":6854:6956   */\n    tag_82:\n        /* \"#utility.yul\":6896:6904   */\n      0x00\n        /* \"#utility.yul\":6943:6948   */\n      dup2\n        /* \"#utility.yul\":6940:6941   */\n      0x00\n        /* \"#utility.yul\":6936:6949   */\n      shr\n        /* \"#utility.yul\":6915:6949   */\n      swap1\n      pop\n        /* \"#utility.yul\":6854:6956   */\n      swap2\n      swap1\n      pop\n      jump\t// out\n        /* \"#utility.yul\":6962:7101   */\n    tag_83:\n        /* \"#utility.yul\":7012:7019   */\n      0x00\n        /* \"#utility.yul\":7052:7094   */\n      0xffffffffffffffffffffffffffffffffffffffff\n        /* \"#utility.yul\":7045:7050   */\n      dup3\n        /* \"#utility.yul\":7041:7095   */\n      and\n        /* \"#utility.yul\":7030:7095   */\n      swap1\n      pop\n        /* \"#utility.yul\":6962:7101   */\n      swap2\n      swap1\n      pop\n      jump\t// out\n        /* \"#utility.yul\":7107:7273   */\n    tag_84:\n        /* \"#utility.yul\":7176:7181   */\n      0x00\n        /* \"#utility.yul\":7201:7267   */\n      tag_153\n        /* \"#utility.yul\":7232:7266   */\n      tag_154\n        /* \"#utility.yul\":7255:7265   */\n      dup4\n        /* \"#utility.yul\":7232:7266   */\n      tag_82\n      jump\t// in\n    tag_154:\n        /* \"#utility.yul\":7201:7267   */\n      tag_83\n      jump\t// in\n    tag_153:\n        /* \"#utility.yul\":7192:7267   */\n      swap1\n      pop\n        /* \"#utility.yul\":7107:7273   */\n      swap2\n      swap1\n      pop\n      jump\t// out\n        /* \"#utility.yul\":7279:7423   */\n    tag_85:\n        /* \"#utility.yul\":7334:7339   */\n      0x00\n        /* \"#utility.yul\":7359:7416   */\n      tag_156\n        /* \"#utility.yul\":7410:7414   */\n      dup3\n        /* \"#utility.yul\":7404:7415   */\n      sload\n        /* \"#utility.yul\":7359:7416   */\n      tag_84\n      jump\t// in\n    tag_156:\n        /* \"#utility.yul\":7350:7416   */\n      swap1\n      pop\n        /* \"#utility.yul\":7279:7423   */\n      swap2\n      swap1\n      pop\n      jump\t// out\n        /* \"#utility.yul\":7429:7539   */\n    tag_86:\n        /* \"#utility.yul\":7496:7500   */\n      0x00\n        /* \"#utility.yul\":7528:7532   */\n      0x01\n        /* \"#utility.yul\":7523:7526   */\n      dup3\n        /* \"#utility.yul\":7519:7533   */\n      add\n        /* \"#utility.yul\":7511:7533   */\n      swap1\n      pop\n        /* \"#utility.yul\":7429:7539   */\n      swap2\n      swap1\n      pop\n      jump\t// out\n        /* \"#utility.yul\":7575:8326   */\n    tag_87:\n        /* \"#utility.yul\":7691:7694   */\n      0x00\n        /* \"#utility.yul\":7720:7771   */\n      tag_159\n        /* \"#utility.yul\":7765:7770   */\n      dup3\n        /* \"#utility.yul\":7720:7771   */\n      tag_77\n      jump\t// in\n    tag_159:\n        /* \"#utility.yul\":7787:7873   */\n      tag_160\n        /* \"#utility.yul\":7866:7872   */\n      dup2\n        /* \"#utility.yul\":7861:7864   */\n      dup6\n        /* \"#utility.yul\":7787:7873   */\n      tag_78\n      jump\t// in\n    tag_160:\n        /* \"#utility.yul\":7780:7873   */\n      swap4\n      pop\n        /* \"#utility.yul\":7897:7950   */\n      tag_161\n        /* \"#utility.yul\":7944:7949   */\n      dup4\n        /* \"#utility.yul\":7897:7950   */\n      tag_79\n      jump\t// in\n    tag_161:\n        /* \"#utility.yul\":7973:7980   */\n      dup1\n        /* \"#utility.yul\":8004:8005   */\n      0x00\n        /* \"#utility.yul\":7989:8301   */\n    tag_162:\n        /* \"#utility.yul\":8014:8020   */\n      dup4\n        /* \"#utility.yul\":8011:8012   */\n      dup2\n        /* \"#utility.yul\":8008:8021   */\n      lt\n        /* \"#utility.yul\":7989:8301   */\n      iszero\n      tag_164\n      jumpi\n        /* \"#utility.yul\":8084:8128   */\n      tag_165\n        /* \"#utility.yul\":8121:8127   */\n      dup3\n        /* \"#utility.yul\":8084:8128   */\n      tag_85\n      jump\t// in\n    tag_165:\n        /* \"#utility.yul\":8148:8211   */\n      tag_166\n        /* \"#utility.yul\":8207:8210   */\n      dup9\n        /* \"#utility.yul\":8192:8205   */\n      dup3\n        /* \"#utility.yul\":8148:8211   */\n      tag_81\n      jump\t// in\n    tag_166:\n        /* \"#utility.yul\":8141:8211   */\n      swap8\n      pop\n        /* \"#utility.yul\":8234:8291   */\n      tag_167\n        /* \"#utility.yul\":8284:8290   */\n      dup4\n        /* \"#utility.yul\":8234:8291   */\n      tag_86\n      jump\t// in\n    tag_167:\n        /* \"#utility.yul\":8224:8291   */\n      swap3\n      pop\n        /* \"#utility.yul\":8049:8301   */\n      pop\n        /* \"#utility.yul\":8036:8037   */\n      0x01\n        /* \"#utility.yul\":8033:8034   */\n      dup2\n        /* \"#utility.yul\":8029:8038   */\n      add\n        /* \"#utility.yul\":8024:8038   */\n      swap1\n      pop\n        /* \"#utility.yul\":7989:8301   */\n      jump(tag_162)\n    tag_164:\n        /* \"#utility.yul\":7993:8007   */\n      pop\n        /* \"#utility.yul\":8317:8320   */\n      dup6\n        /* \"#utility.yul\":8310:8320   */\n      swap4\n      pop\n        /* \"#utility.yul\":7696:8326   */\n      pop\n      pop\n      pop\n        /* \"#utility.yul\":7575:8326   */\n      swap3\n      swap2\n      pop\n      pop\n      jump\t// out\n        /* \"#utility.yul\":8332:8801   */\n    tag_40:\n        /* \"#utility.yul\":8496:8500   */\n      0x00\n        /* \"#utility.yul\":8534:8536   */\n      0x40\n        /* \"#utility.yul\":8523:8532   */\n      dup3\n        /* \"#utility.yul\":8519:8537   */\n      add\n        /* \"#utility.yul\":8511:8537   */\n      swap1\n      pop\n        /* \"#utility.yul\":8583:8592   */\n      dup2\n        /* \"#utility.yul\":8577:8581   */\n      dup2\n        /* \"#utility.yul\":8573:8593   */\n      sub\n        /* \"#utility.yul\":8569:8570   */\n      0x00\n        /* \"#utility.yul\":8558:8567   */\n      dup4\n        /* \"#utility.yul\":8554:8571   */\n      add\n        /* \"#utility.yul\":8547:8594   */\n      mstore\n        /* \"#utility.yul\":8611:8716   */\n      tag_169\n        /* \"#utility.yul\":8711:8715   */\n      dup2\n        /* \"#utility.yul\":8702:8708   */\n      dup6\n        /* \"#utility.yul\":8611:8716   */\n      tag_87\n      jump\t// in\n    tag_169:\n        /* \"#utility.yul\":8603:8716   */\n      swap1\n      pop\n        /* \"#utility.yul\":8726:8794   */\n      tag_170\n        /* \"#utility.yul\":8790:8792   */\n      0x20\n        /* \"#utility.yul\":8779:8788   */\n      dup4\n        /* \"#utility.yul\":8775:8793   */\n      add\n        /* \"#utility.yul\":8766:8772   */\n      dup5\n        /* \"#utility.yul\":8726:8794   */\n      tag_67\n      jump\t// in\n    tag_170:\n        /* \"#utility.yul\":8332:8801   */\n      swap4\n      swap3\n      pop\n      pop\n      pop\n      jump\t// out\n        /* \"#utility.yul\":8807:8987   */\n    tag_46:\n        /* \"#utility.yul\":8855:8932   */\n      0x4e487b7100000000000000000000000000000000000000000000000000000000\n        /* \"#utility.yul\":8852:8853   */\n      0x00\n        /* \"#utility.yul\":8845:8933   */\n      mstore\n        /* \"#utility.yul\":8952:8956   */\n      0x32\n        /* \"#utility.yul\":8949:8950   */\n      0x04\n        /* \"#utility.yul\":8942:8957   */\n      mstore\n        /* \"#utility.yul\":8976:8980   */\n      0x24\n        /* \"#utility.yul\":8973:8974   */\n      0x00\n        /* \"#utility.yul\":8966:8981   */\n      revert\n\n    auxdata: 0xa2646970667358221220a463572c413ea2c6a1726c83b246d52f2b894389d6bd78c7de392aa3d5a601f664736f6c63430008130033\n}\n",
				"bytecode": {
					"linkReferences": {},
					"object": "60806040526000600260006101000a81548160ff021916908360ff16021790555034801561002c57600080fd5b50610a418061003c6000396000f3fe608060405234801561001057600080fd5b506004361061004c5760003560e01c80630479a795146100515780632ca82d49146100815780638e4ad5a3146100b1578063d42e3e9d146100bb575b600080fd5b61006b600480360381019061006691906105bd565b6100d9565b6040516100789190610605565b60405180910390f35b61009b600480360381019061009691906105bd565b6100f9565b6040516100a8919061063c565b60405180910390f35b6100b9610333565b005b6100c3610509565b6040516100d0919061063c565b60405180910390f35b60006020528060005260406000206000915054906101000a900460ff1681565b60006004600260009054906101000a900460ff1660ff1610610150576040517f08c379a0000000000000000000000000000000000000000000000000000000008152600401610147906106da565b60405180910390fd5b600015156000808473ffffffffffffffffffffffffffffffffffffffff1673ffffffffffffffffffffffffffffffffffffffff16815260200190815260200160002060009054906101000a900460ff161515146101e2576040517f08c379a00000000000000000000000000000000000000000000000000000000081526004016101d990610746565b60405180910390fd5b60016000808473ffffffffffffffffffffffffffffffffffffffff1673ffffffffffffffffffffffffffffffffffffffff16815260200190815260200160002060006101000a81548160ff0219169083151502179055506001829080600181540180825580915050600190039060005260206000200160009091909190916101000a81548173ffffffffffffffffffffffffffffffffffffffff021916908373ffffffffffffffffffffffffffffffffffffffff1602179055506002600081819054906101000a900460ff16809291906102bb90610795565b91906101000a81548160ff021916908360ff160217905550507f65b7059a3a19dcc18256085814ff4ae91fe7c9733e267c8c8ec177747b111b9582600260009054906101000a900460ff166040516103149291906107cd565b60405180910390a1600260009054906101000a900460ff169050919050565b6004600260009054906101000a900460ff1660ff1614610388576040517f08c379a000000000000000000000000000000000000000000000000000000000815260040161037f90610868565b60405180910390fd5b7fb3e9305c09efdea817d172e02aee6940b77dcf9088d56a6f6c85b925639f08816001600260009054906101000a900460ff166040516103c99291906109ac565b60405180910390a160005b600260009054906101000a900460ff1660ff168160ff1610156104935760008060018360ff168154811061040b5761040a6109dc565b5b9060005260206000200160009054906101000a900473ffffffffffffffffffffffffffffffffffffffff1673ffffffffffffffffffffffffffffffffffffffff1673ffffffffffffffffffffffffffffffffffffffff16815260200190815260200160002060006101000a81549060ff0219169055808061048b90610795565b9150506103d4565b50600160006104a2919061051c565b6000600260006101000a81548160ff021916908360ff1602179055507fb3e9305c09efdea817d172e02aee6940b77dcf9088d56a6f6c85b925639f08816001600260009054906101000a900460ff166040516104ff9291906109ac565b60405180910390a1565b600260009054906101000a900460ff1681565b508054600082559060005260206000209081019061053a919061053d565b50565b5b8082111561055657600081600090555060010161053e565b5090565b600080fd5b600073ffffffffffffffffffffffffffffffffffffffff82169050919050565b600061058a8261055f565b9050919050565b61059a8161057f565b81146105a557600080fd5b50565b6000813590506105b781610591565b92915050565b6000602082840312156105d3576105d261055a565b5b60006105e1848285016105a8565b91505092915050565b60008115159050919050565b6105ff816105ea565b82525050565b600060208201905061061a60008301846105f6565b92915050565b600060ff82169050919050565b61063681610620565b82525050565b6000602082019050610651600083018461062d565b92915050565b600082825260208201905092915050565b7f4a612074656d6f7320706174696e686f732064656d61697321204d616e64652060008201527f61206d616d6165207061746f2069722062757363617221210000000000000000602082015250565b60006106c4603883610657565b91506106cf82610668565b604082019050919050565b600060208201905081810360008301526106f3816106b7565b9050919050565b7f4573736520706174696e686f206a6120666f6920706173736561722100000000600082015250565b6000610730601c83610657565b915061073b826106fa565b602082019050919050565b6000602082019050818103600083015261075f81610723565b9050919050565b7f4e487b7100000000000000000000000000000000000000000000000000000000600052601160045260246000fd5b60006107a082610620565b915060ff82036107b3576107b2610766565b5b600182019050919050565b6107c78161057f565b82525050565b60006040820190506107e260008301856107be565b6107ef602083018461062d565b9392505050565b7f4d616d6165207061746f20736f207365207072656f6375706120736520746f6460008201527f6f73207061746f732073756d6972656d00000000000000000000000000000000602082015250565b6000610852603083610657565b915061085d826107f6565b604082019050919050565b6000602082019050818103600083015261088181610845565b9050919050565b600081549050919050565b600082825260208201905092915050565b60008190508160005260206000209050919050565b6108c28161057f565b82525050565b60006108d483836108b9565b60208301905092915050565b60008160001c9050919050565b600073ffffffffffffffffffffffffffffffffffffffff82169050919050565b600061092061091b836108e0565b6108ed565b9050919050565b6000610933825461090d565b9050919050565b6000600182019050919050565b600061095282610888565b61095c8185610893565b9350610967836108a4565b8060005b8381101561099f5761097c82610927565b61098688826108c8565b97506109918361093a565b92505060018101905061096b565b5085935050505092915050565b600060408201905081810360008301526109c68185610947565b90506109d5602083018461062d565b9392505050565b7f4e487b7100000000000000000000000000000000000000000000000000000000600052603260045260246000fdfea2646970667358221220a463572c413ea2c6a1726c83b246d52f2b894389d6bd78c7de392aa3d5a601f664736f6c63430008130033",
					"opcodes": "PUSH1 0x80 PUSH1 0x40 MSTORE PUSH1 0x0 PUSH1 0x2 PUSH1 0x0 PUSH2 0x100 EXP DUP2 SLOAD DUP2 PUSH1 0xFF MUL NOT AND SWAP1 DUP4 PUSH1 0xFF AND MUL OR SWAP1 SSTORE POP CALLVALUE DUP1 ISZERO PUSH2 0x2C JUMPI PUSH1 0x0 DUP1 REVERT JUMPDEST POP PUSH2 0xA41 DUP1 PUSH2 0x3C PUSH1 0x0 CODECOPY PUSH1 0x0 RETURN INVALID PUSH1 0x80 PUSH1 0x40 MSTORE CALLVALUE DUP1 ISZERO PUSH2 0x10 JUMPI PUSH1 0x0 DUP1 REVERT JUMPDEST POP PUSH1 0x4 CALLDATASIZE LT PUSH2 0x4C JUMPI PUSH1 0x0 CALLDATALOAD PUSH1 0xE0 SHR DUP1 PUSH4 0x479A795 EQ PUSH2 0x51 JUMPI DUP1 PUSH4 0x2CA82D49 EQ PUSH2 0x81 JUMPI DUP1 PUSH4 0x8E4AD5A3 EQ PUSH2 0xB1 JUMPI DUP1 PUSH4 0xD42E3E9D EQ PUSH2 0xBB JUMPI JUMPDEST PUSH1 0x0 DUP1 REVERT JUMPDEST PUSH2 0x6B PUSH1 0x4 DUP1 CALLDATASIZE SUB DUP2 ADD SWAP1 PUSH2 0x66 SWAP2 SWAP1 PUSH2 0x5BD JUMP JUMPDEST PUSH2 0xD9 JUMP JUMPDEST PUSH1 0x40 MLOAD PUSH2 0x78 SWAP2 SWAP1 PUSH2 0x605 JUMP JUMPDEST PUSH1 0x40 MLOAD DUP1 SWAP2 SUB SWAP1 RETURN JUMPDEST PUSH2 0x9B PUSH1 0x4 DUP1 CALLDATASIZE SUB DUP2 ADD SWAP1 PUSH2 0x96 SWAP2 SWAP1 PUSH2 0x5BD JUMP JUMPDEST PUSH2 0xF9 JUMP JUMPDEST PUSH1 0x40 MLOAD PUSH2 0xA8 SWAP2 SWAP1 PUSH2 0x63C JUMP JUMPDEST PUSH1 0x40 MLOAD DUP1 SWAP2 SUB SWAP1 RETURN JUMPDEST PUSH2 0xB9 PUSH2 0x333 JUMP JUMPDEST STOP JUMPDEST PUSH2 0xC3 PUSH2 0x509 JUMP JUMPDEST PUSH1 0x40 MLOAD PUSH2 0xD0 SWAP2 SWAP1 PUSH2 0x63C JUMP JUMPDEST PUSH1 0x40 MLOAD DUP1 SWAP2 SUB SWAP1 RETURN JUMPDEST PUSH1 0x0 PUSH1 0x20 MSTORE DUP1 PUSH1 0x0 MSTORE PUSH1 0x40 PUSH1 0x0 KECCAK256 PUSH1 0x0 SWAP2 POP SLOAD SWAP1 PUSH2 0x100 EXP SWAP1 DIV PUSH1 0xFF AND DUP2 JUMP JUMPDEST PUSH1 0x0 PUSH1 0x4 PUSH1 0x2 PUSH1 0x0 SWAP1 SLOAD SWAP1 PUSH2 0x100 EXP SWAP1 DIV PUSH1 0xFF AND PUSH1 0xFF AND LT PUSH2 0x150 JUMPI PUSH1 0x40 MLOAD PUSH32 0x8C379A000000000000000000000000000000000000000000000000000000000 DUP2 MSTORE PUSH1 0x4 ADD PUSH2 0x147 SWAP1 PUSH2 0x6DA JUMP JUMPDEST PUSH1 0x40 MLOAD DUP1 SWAP2 SUB SWAP1 REVERT JUMPDEST PUSH1 0x0 ISZERO ISZERO PUSH1 0x0 DUP1 DUP5 PUSH20 0xFFFFFFFFFFFFFFFFFFFFFFFFFFFFFFFFFFFFFFFF AND PUSH20 0xFFFFFFFFFFFFFFFFFFFFFFFFFFFFFFFFFFFFFFFF AND DUP2 MSTORE PUSH1 0x20 ADD SWAP1 DUP2 MSTORE PUSH1 0x20 ADD PUSH1 0x0 KECCAK256 PUSH1 0x0 SWAP1 SLOAD SWAP1 PUSH2 0x100 EXP SWAP1 DIV PUSH1 0xFF AND ISZERO ISZERO EQ PUSH2 0x1E2 JUMPI PUSH1 0x40 MLOAD PUSH32 0x8C379A000000000000000000000000000000000000000000000000000000000 DUP2 MSTORE PUSH1 0x4 ADD PUSH2 0x1D9 SWAP1 PUSH2 0x746 JUMP JUMPDEST PUSH1 0x40 MLOAD DUP1 SWAP2 SUB SWAP1 REVERT JUMPDEST PUSH1 0x1 PUSH1 0x0 DUP1 DUP5 PUSH20 0xFFFFFFFFFFFFFFFFFFFFFFFFFFFFFFFFFFFFFFFF AND PUSH20 0xFFFFFFFFFFFFFFFFFFFFFFFFFFFFFFFFFFFFFFFF AND DUP2 MSTORE PUSH1 0x20 ADD SWAP1 DUP2 MSTORE PUSH1 0x20 ADD PUSH1 0x0 KECCAK256 PUSH1 0x0 PUSH2 0x100 EXP DUP2 SLOAD DUP2 PUSH1 0xFF MUL NOT AND SWAP1 DUP4 ISZERO ISZERO MUL OR SWAP1 SSTORE POP PUSH1 0x1 DUP3 SWAP1 DUP1 PUSH1 0x1 DUP2 SLOAD ADD DUP1 DUP3 SSTORE DUP1 SWAP2 POP POP PUSH1 0x1 SWAP1 SUB SWAP1 PUSH1 0x0 MSTORE PUSH1 0x20 PUSH1 0x0 KECCAK256 ADD PUSH1 0x0 SWAP1 SWAP2 SWAP1 SWAP2 SWAP1 SWAP2 PUSH2 0x100 EXP DUP2 SLOAD DUP2 PUSH20 0xFFFFFFFFFFFFFFFFFFFFFFFFFFFFFFFFFFFFFFFF MUL NOT AND SWAP1 DUP4 PUSH20 0xFFFFFFFFFFFFFFFFFFFFFFFFFFFFFFFFFFFFFFFF AND MUL OR SWAP1 SSTORE POP PUSH1 0x2 PUSH1 0x0 DUP2 DUP2 SWAP1 SLOAD SWAP1 PUSH2 0x100 EXP SWAP1 DIV PUSH1 0xFF AND DUP1 SWAP3 SWAP2 SWAP1 PUSH2 0x2BB SWAP1 PUSH2 0x795 JUMP JUMPDEST SWAP2 SWAP1 PUSH2 0x100 EXP DUP2 SLOAD DUP2 PUSH1 0xFF MUL NOT AND SWAP1 DUP4 PUSH1 0xFF AND MUL OR SWAP1 SSTORE POP POP PUSH32 0x65B7059A3A19DCC18256085814FF4AE91FE7C9733E267C8C8EC177747B111B95 DUP3 PUSH1 0x2 PUSH1 0x0 SWAP1 SLOAD SWAP1 PUSH2 0x100 EXP SWAP1 DIV PUSH1 0xFF AND PUSH1 0x40 MLOAD PUSH2 0x314 SWAP3 SWAP2 SWAP1 PUSH2 0x7CD JUMP JUMPDEST PUSH1 0x40 MLOAD DUP1 SWAP2 SUB SWAP1 LOG1 PUSH1 0x2 PUSH1 0x0 SWAP1 SLOAD SWAP1 PUSH2 0x100 EXP SWAP1 DIV PUSH1 0xFF AND SWAP1 POP SWAP2 SWAP1 POP JUMP JUMPDEST PUSH1 0x4 PUSH1 0x2 PUSH1 0x0 SWAP1 SLOAD SWAP1 PUSH2 0x100 EXP SWAP1 DIV PUSH1 0xFF AND PUSH1 0xFF AND EQ PUSH2 0x388 JUMPI PUSH1 0x40 MLOAD PUSH32 0x8C379A000000000000000000000000000000000000000000000000000000000 DUP2 MSTORE PUSH1 0x4 ADD PUSH2 0x37F SWAP1 PUSH2 0x868 JUMP JUMPDEST PUSH1 0x40 MLOAD DUP1 SWAP2 SUB SWAP1 REVERT JUMPDEST PUSH32 0xB3E9305C09EFDEA817D172E02AEE6940B77DCF9088D56A6F6C85B925639F0881 PUSH1 0x1 PUSH1 0x2 PUSH1 0x0 SWAP1 SLOAD SWAP1 PUSH2 0x100 EXP SWAP1 DIV PUSH1 0xFF AND PUSH1 0x40 MLOAD PUSH2 0x3C9 SWAP3 SWAP2 SWAP1 PUSH2 0x9AC JUMP JUMPDEST PUSH1 0x40 MLOAD DUP1 SWAP2 SUB SWAP1 LOG1 PUSH1 0x0 JUMPDEST PUSH1 0x2 PUSH1 0x0 SWAP1 SLOAD SWAP1 PUSH2 0x100 EXP SWAP1 DIV PUSH1 0xFF AND PUSH1 0xFF AND DUP2 PUSH1 0xFF AND LT ISZERO PUSH2 0x493 JUMPI PUSH1 0x0 DUP1 PUSH1 0x1 DUP4 PUSH1 0xFF AND DUP2 SLOAD DUP2 LT PUSH2 0x40B JUMPI PUSH2 0x40A PUSH2 0x9DC JUMP JUMPDEST JUMPDEST SWAP1 PUSH1 0x0 MSTORE PUSH1 0x20 PUSH1 0x0 KECCAK256 ADD PUSH1 0x0 SWAP1 SLOAD SWAP1 PUSH2 0x100 EXP SWAP1 DIV PUSH20 0xFFFFFFFFFFFFFFFFFFFFFFFFFFFFFFFFFFFFFFFF AND PUSH20 0xFFFFFFFFFFFFFFFFFFFFFFFFFFFFFFFFFFFFFFFF AND PUSH20 0xFFFFFFFFFFFFFFFFFFFFFFFFFFFFFFFFFFFFFFFF AND DUP2 MSTORE PUSH1 0x20 ADD SWAP1 DUP2 MSTORE PUSH1 0x20 ADD PUSH1 0x0 KECCAK256 PUSH1 0x0 PUSH2 0x100 EXP DUP2 SLOAD SWAP1 PUSH1 0xFF MUL NOT AND SWAP1 SSTORE DUP1 DUP1 PUSH2 0x48B SWAP1 PUSH2 0x795 JUMP JUMPDEST SWAP2 POP POP PUSH2 0x3D4 JUMP JUMPDEST POP PUSH1 0x1 PUSH1 0x0 PUSH2 0x4A2 SWAP2 SWAP1 PUSH2 0x51C JUMP JUMPDEST PUSH1 0x0 PUSH1 0x2 PUSH1 0x0 PUSH2 0x100 EXP DUP2 SLOAD DUP2 PUSH1 0xFF MUL NOT AND SWAP1 DUP4 PUSH1 0xFF AND MUL OR SWAP1 SSTORE POP PUSH32 0xB3E9305C09EFDEA817D172E02AEE6940B77DCF9088D56A6F6C85B925639F0881 PUSH1 0x1 PUSH1 0x2 PUSH1 0x0 SWAP1 SLOAD SWAP1 PUSH2 0x100 EXP SWAP1 DIV PUSH1 0xFF AND PUSH1 0x40 MLOAD PUSH2 0x4FF SWAP3 SWAP2 SWAP1 PUSH2 0x9AC JUMP JUMPDEST PUSH1 0x40 MLOAD DUP1 SWAP2 SUB SWAP1 LOG1 JUMP JUMPDEST PUSH1 0x2 PUSH1 0x0 SWAP1 SLOAD SWAP1 PUSH2 0x100 EXP SWAP1 DIV PUSH1 0xFF AND DUP2 JUMP JUMPDEST POP DUP1 SLOAD PUSH1 0x0 DUP3 SSTORE SWAP1 PUSH1 0x0 MSTORE PUSH1 0x20 PUSH1 0x0 KECCAK256 SWAP1 DUP2 ADD SWAP1 PUSH2 0x53A SWAP2 SWAP1 PUSH2 0x53D JUMP JUMPDEST POP JUMP JUMPDEST JUMPDEST DUP1 DUP3 GT ISZERO PUSH2 0x556 JUMPI PUSH1 0x0 DUP2 PUSH1 0x0 SWAP1 SSTORE POP PUSH1 0x1 ADD PUSH2 0x53E JUMP JUMPDEST POP SWAP1 JUMP JUMPDEST PUSH1 0x0 DUP1 REVERT JUMPDEST PUSH1 0x0 PUSH20 0xFFFFFFFFFFFFFFFFFFFFFFFFFFFFFFFFFFFFFFFF DUP3 AND SWAP1 POP SWAP2 SWAP1 POP JUMP JUMPDEST PUSH1 0x0 PUSH2 0x58A DUP3 PUSH2 0x55F JUMP JUMPDEST SWAP1 POP SWAP2 SWAP1 POP JUMP JUMPDEST PUSH2 0x59A DUP2 PUSH2 0x57F JUMP JUMPDEST DUP2 EQ PUSH2 0x5A5 JUMPI PUSH1 0x0 DUP1 REVERT JUMPDEST POP JUMP JUMPDEST PUSH1 0x0 DUP2 CALLDATALOAD SWAP1 POP PUSH2 0x5B7 DUP2 PUSH2 0x591 JUMP JUMPDEST SWAP3 SWAP2 POP POP JUMP JUMPDEST PUSH1 0x0 PUSH1 0x20 DUP3 DUP5 SUB SLT ISZERO PUSH2 0x5D3 JUMPI PUSH2 0x5D2 PUSH2 0x55A JUMP JUMPDEST JUMPDEST PUSH1 0x0 PUSH2 0x5E1 DUP5 DUP3 DUP6 ADD PUSH2 0x5A8 JUMP JUMPDEST SWAP2 POP POP SWAP3 SWAP2 POP POP JUMP JUMPDEST PUSH1 0x0 DUP2 ISZERO ISZERO SWAP1 POP SWAP2 SWAP1 POP JUMP JUMPDEST PUSH2 0x5FF DUP2 PUSH2 0x5EA JUMP JUMPDEST DUP3 MSTORE POP POP JUMP JUMPDEST PUSH1 0x0 PUSH1 0x20 DUP3 ADD SWAP1 POP PUSH2 0x61A PUSH1 0x0 DUP4 ADD DUP5 PUSH2 0x5F6 JUMP JUMPDEST SWAP3 SWAP2 POP POP JUMP JUMPDEST PUSH1 0x0 PUSH1 0xFF DUP3 AND SWAP1 POP SWAP2 SWAP1 POP JUMP JUMPDEST PUSH2 0x636 DUP2 PUSH2 0x620 JUMP JUMPDEST DUP3 MSTORE POP POP JUMP JUMPDEST PUSH1 0x0 PUSH1 0x20 DUP3 ADD SWAP1 POP PUSH2 0x651 PUSH1 0x0 DUP4 ADD DUP5 PUSH2 0x62D JUMP JUMPDEST SWAP3 SWAP2 POP POP JUMP JUMPDEST PUSH1 0x0 DUP3 DUP3 MSTORE PUSH1 0x20 DUP3 ADD SWAP1 POP SWAP3 SWAP2 POP POP JUMP JUMPDEST PUSH32 0x4A612074656D6F7320706174696E686F732064656D61697321204D616E646520 PUSH1 0x0 DUP3 ADD MSTORE PUSH32 0x61206D616D6165207061746F2069722062757363617221210000000000000000 PUSH1 0x20 DUP3 ADD MSTORE POP JUMP JUMPDEST PUSH1 0x0 PUSH2 0x6C4 PUSH1 0x38 DUP4 PUSH2 0x657 JUMP JUMPDEST SWAP2 POP PUSH2 0x6CF DUP3 PUSH2 0x668 JUMP JUMPDEST PUSH1 0x40 DUP3 ADD SWAP1 POP SWAP2 SWAP1 POP JUMP JUMPDEST PUSH1 0x0 PUSH1 0x20 DUP3 ADD SWAP1 POP DUP2 DUP2 SUB PUSH1 0x0 DUP4 ADD MSTORE PUSH2 0x6F3 DUP2 PUSH2 0x6B7 JUMP JUMPDEST SWAP1 POP SWAP2 SWAP1 POP JUMP JUMPDEST PUSH32 0x4573736520706174696E686F206A6120666F6920706173736561722100000000 PUSH1 0x0 DUP3 ADD MSTORE POP JUMP JUMPDEST PUSH1 0x0 PUSH2 0x730 PUSH1 0x1C DUP4 PUSH2 0x657 JUMP JUMPDEST SWAP2 POP PUSH2 0x73B DUP3 PUSH2 0x6FA JUMP JUMPDEST PUSH1 0x20 DUP3 ADD SWAP1 POP SWAP2 SWAP1 POP JUMP JUMPDEST PUSH1 0x0 PUSH1 0x20 DUP3 ADD SWAP1 POP DUP2 DUP2 SUB PUSH1 0x0 DUP4 ADD MSTORE PUSH2 0x75F DUP2 PUSH2 0x723 JUMP JUMPDEST SWAP1 POP SWAP2 SWAP1 POP JUMP JUMPDEST PUSH32 0x4E487B7100000000000000000000000000000000000000000000000000000000 PUSH1 0x0 MSTORE PUSH1 0x11 PUSH1 0x4 MSTORE PUSH1 0x24 PUSH1 0x0 REVERT JUMPDEST PUSH1 0x0 PUSH2 0x7A0 DUP3 PUSH2 0x620 JUMP JUMPDEST SWAP2 POP PUSH1 0xFF DUP3 SUB PUSH2 0x7B3 JUMPI PUSH2 0x7B2 PUSH2 0x766 JUMP JUMPDEST JUMPDEST PUSH1 0x1 DUP3 ADD SWAP1 POP SWAP2 SWAP1 POP JUMP JUMPDEST PUSH2 0x7C7 DUP2 PUSH2 0x57F JUMP JUMPDEST DUP3 MSTORE POP POP JUMP JUMPDEST PUSH1 0x0 PUSH1 0x40 DUP3 ADD SWAP1 POP PUSH2 0x7E2 PUSH1 0x0 DUP4 ADD DUP6 PUSH2 0x7BE JUMP JUMPDEST PUSH2 0x7EF PUSH1 0x20 DUP4 ADD DUP5 PUSH2 0x62D JUMP JUMPDEST SWAP4 SWAP3 POP POP POP JUMP JUMPDEST PUSH32 0x4D616D6165207061746F20736F207365207072656F6375706120736520746F64 PUSH1 0x0 DUP3 ADD MSTORE PUSH32 0x6F73207061746F732073756D6972656D00000000000000000000000000000000 PUSH1 0x20 DUP3 ADD MSTORE POP JUMP JUMPDEST PUSH1 0x0 PUSH2 0x852 PUSH1 0x30 DUP4 PUSH2 0x657 JUMP JUMPDEST SWAP2 POP PUSH2 0x85D DUP3 PUSH2 0x7F6 JUMP JUMPDEST PUSH1 0x40 DUP3 ADD SWAP1 POP SWAP2 SWAP1 POP JUMP JUMPDEST PUSH1 0x0 PUSH1 0x20 DUP3 ADD SWAP1 POP DUP2 DUP2 SUB PUSH1 0x0 DUP4 ADD MSTORE PUSH2 0x881 DUP2 PUSH2 0x845 JUMP JUMPDEST SWAP1 POP SWAP2 SWAP1 POP JUMP JUMPDEST PUSH1 0x0 DUP2 SLOAD SWAP1 POP SWAP2 SWAP1 POP JUMP JUMPDEST PUSH1 0x0 DUP3 DUP3 MSTORE PUSH1 0x20 DUP3 ADD SWAP1 POP SWAP3 SWAP2 POP POP JUMP JUMPDEST PUSH1 0x0 DUP2 SWAP1 POP DUP2 PUSH1 0x0 MSTORE PUSH1 0x20 PUSH1 0x0 KECCAK256 SWAP1 POP SWAP2 SWAP1 POP JUMP JUMPDEST PUSH2 0x8C2 DUP2 PUSH2 0x57F JUMP JUMPDEST DUP3 MSTORE POP POP JUMP JUMPDEST PUSH1 0x0 PUSH2 0x8D4 DUP4 DUP4 PUSH2 0x8B9 JUMP JUMPDEST PUSH1 0x20 DUP4 ADD SWAP1 POP SWAP3 SWAP2 POP POP JUMP JUMPDEST PUSH1 0x0 DUP2 PUSH1 0x0 SHR SWAP1 POP SWAP2 SWAP1 POP JUMP JUMPDEST PUSH1 0x0 PUSH20 0xFFFFFFFFFFFFFFFFFFFFFFFFFFFFFFFFFFFFFFFF DUP3 AND SWAP1 POP SWAP2 SWAP1 POP JUMP JUMPDEST PUSH1 0x0 PUSH2 0x920 PUSH2 0x91B DUP4 PUSH2 0x8E0 JUMP JUMPDEST PUSH2 0x8ED JUMP JUMPDEST SWAP1 POP SWAP2 SWAP1 POP JUMP JUMPDEST PUSH1 0x0 PUSH2 0x933 DUP3 SLOAD PUSH2 0x90D JUMP JUMPDEST SWAP1 POP SWAP2 SWAP1 POP JUMP JUMPDEST PUSH1 0x0 PUSH1 0x1 DUP3 ADD SWAP1 POP SWAP2 SWAP1 POP JUMP JUMPDEST PUSH1 0x0 PUSH2 0x952 DUP3 PUSH2 0x888 JUMP JUMPDEST PUSH2 0x95C DUP2 DUP6 PUSH2 0x893 JUMP JUMPDEST SWAP4 POP PUSH2 0x967 DUP4 PUSH2 0x8A4 JUMP JUMPDEST DUP1 PUSH1 0x0 JUMPDEST DUP4 DUP2 LT ISZERO PUSH2 0x99F JUMPI PUSH2 0x97C DUP3 PUSH2 0x927 JUMP JUMPDEST PUSH2 0x986 DUP9 DUP3 PUSH2 0x8C8 JUMP JUMPDEST SWAP8 POP PUSH2 0x991 DUP4 PUSH2 0x93A JUMP JUMPDEST SWAP3 POP POP PUSH1 0x1 DUP2 ADD SWAP1 POP PUSH2 0x96B JUMP JUMPDEST POP DUP6 SWAP4 POP POP POP POP SWAP3 SWAP2 POP POP JUMP JUMPDEST PUSH1 0x0 PUSH1 0x40 DUP3 ADD SWAP1 POP DUP2 DUP2 SUB PUSH1 0x0 DUP4 ADD MSTORE PUSH2 0x9C6 DUP2 DUP6 PUSH2 0x947 JUMP JUMPDEST SWAP1 POP PUSH2 0x9D5 PUSH1 0x20 DUP4 ADD DUP5 PUSH2 0x62D JUMP JUMPDEST SWAP4 SWAP3 POP POP POP JUMP JUMPDEST PUSH32 0x4E487B7100000000000000000000000000000000000000000000000000000000 PUSH1 0x0 MSTORE PUSH1 0x32 PUSH1 0x4 MSTORE PUSH1 0x24 PUSH1 0x0 REVERT INVALID LOG2 PUSH5 0x6970667358 0x22 SLT KECCAK256 LOG4 PUSH4 0x572C413E LOG2 0xC6 LOG1 PUSH19 0x6C83B246D52F2B894389D6BD78C7DE392AA3D5 0xA6 ADD 0xF6 PUSH5 0x736F6C6343 STOP ADDMOD SGT STOP CALLER "
				},
				"gasEstimates": {
					"creation": {
						"codeDepositCost": "525000",
						"executionCost": "24829",
						"totalCost": "549829"
					},
					"external": {
						"mamaeBuscaPatos()": "infinite",
						"novoPatinho(address)": "infinite",
						"patinhosUnicos(address)": "2823",
						"totalPatinhos()": "2515"
					}
				},
				"methodIdentifiers": {
					"mamaeBuscaPatos()": "8e4ad5a3",
					"novoPatinho(address)": "2ca82d49",
					"patinhosUnicos(address)": "0479a795",
					"totalPatinhos()": "d42e3e9d"
				}
			},
			"storageLayout": {
				"storage": [
					{
						"astId": 6,
						"contract": "aula06_02/atividade.sol:Patinhos",
						"label": "patinhosUnicos",
						"offset": 0,
						"slot": "0",
						"type": "t_mapping(t_address,t_bool)"
					},
					{
						"astId": 9,
						"contract": "aula06_02/atividade.sol:Patinhos",
						"label": "patinhos",
						"offset": 0,
						"slot": "1",
						"type": "t_array(t_address)dyn_storage"
					},
					{
						"astId": 12,
						"contract": "aula06_02/atividade.sol:Patinhos",
						"label": "totalPatinhos",
						"offset": 0,
						"slot": "2",
						"type": "t_uint8"
					}
				],
				"types": {
					"t_address": {
						"encoding": "inplace",
						"label": "address",
						"numberOfBytes": "20"
					},
					"t_array(t_address)dyn_storage": {
						"base": "t_address",
						"encoding": "dynamic_array",
						"label": "address[]",
						"numberOfBytes": "32"
					},
					"t_bool": {
						"encoding": "inplace",
						"label": "bool",
						"numberOfBytes": "1"
					},
					"t_mapping(t_address,t_bool)": {
						"encoding": "mapping",
						"key": "t_address",
						"label": "mapping(address => bool)",
						"numberOfBytes": "32",
						"value": "t_bool"
					},
					"t_uint8": {
						"encoding": "inplace",
						"label": "uint8",
						"numberOfBytes": "1"
					}
				}
			},
			"userdoc": {
				"kind": "user",
				"methods": {},
				"version": 1
			}
		}
	}
}