{
	"contracts/4_Aluguel.sol": {
		"Aluguel": {
			"abi": [
				{
					"inputs": [
						{
							"internalType": "string",
							"name": "_nomeLocador",
							"type": "string"
						},
						{
							"internalType": "string",
							"name": "_nomeLocatario",
							"type": "string"
						},
						{
							"internalType": "address payable",
							"name": "_contaLocador",
							"type": "address"
						},
						{
							"internalType": "uint256",
							"name": "_valorDoAluguel",
							"type": "uint256"
						}
					],
					"stateMutability": "payable",
					"type": "constructor"
				},
				{
					"inputs": [
						{
							"internalType": "uint256",
							"name": "valorCerto",
							"type": "uint256"
						}
					],
					"name": "aditamentoValorAluguel",
					"outputs": [],
					"stateMutability": "nonpayable",
					"type": "function"
				},
				{
					"inputs": [
						{
							"internalType": "uint256",
							"name": "mesesRestantes",
							"type": "uint256"
						},
						{
							"internalType": "uint256",
							"name": "percentual",
							"type": "uint256"
						}
					],
					"name": "aplicaMulta",
					"outputs": [],
					"stateMutability": "nonpayable",
					"type": "function"
				},
				{
					"inputs": [],
					"name": "contaLocador",
					"outputs": [
						{
							"internalType": "address payable",
							"name": "",
							"type": "address"
						}
					],
					"stateMutability": "view",
					"type": "function"
				},
				{
					"inputs": [],
					"name": "locador",
					"outputs": [
						{
							"internalType": "string",
							"name": "",
							"type": "string"
						}
					],
					"stateMutability": "view",
					"type": "function"
				},
				{
					"inputs": [],
					"name": "locatario",
					"outputs": [
						{
							"internalType": "string",
							"name": "",
							"type": "string"
						}
					],
					"stateMutability": "view",
					"type": "function"
				},
				{
					"inputs": [],
					"name": "numeroMaximoLegalDeAlugueisParaMulta",
					"outputs": [
						{
							"internalType": "uint256",
							"name": "",
							"type": "uint256"
						}
					],
					"stateMutability": "view",
					"type": "function"
				},
				{
					"inputs": [],
					"name": "owner",
					"outputs": [
						{
							"internalType": "address",
							"name": "",
							"type": "address"
						}
					],
					"stateMutability": "view",
					"type": "function"
				},
				{
					"inputs": [],
					"name": "quantosPagamentosJaForamFeitos",
					"outputs": [
						{
							"internalType": "uint256",
							"name": "",
							"type": "uint256"
						}
					],
					"stateMutability": "view",
					"type": "function"
				},
				{
					"inputs": [
						{
							"internalType": "uint256",
							"name": "percentualReajuste",
							"type": "uint256"
						}
					],
					"name": "reajustaAluguel",
					"outputs": [],
					"stateMutability": "nonpayable",
					"type": "function"
				},
				{
					"inputs": [],
					"name": "receberPagamento",
					"outputs": [],
					"stateMutability": "payable",
					"type": "function"
				},
				{
					"inputs": [
						{
							"internalType": "uint256",
							"name": "_parametro",
							"type": "uint256"
						}
					],
					"name": "retornaTexto",
					"outputs": [
						{
							"internalType": "string",
							"name": "",
							"type": "string"
						}
					],
					"stateMutability": "view",
					"type": "function"
				},
				{
					"inputs": [
						{
							"internalType": "uint256",
							"name": "mesesRestantes",
							"type": "uint256"
						},
						{
							"internalType": "uint256",
							"name": "totalMesesContrato",
							"type": "uint256"
						}
					],
					"name": "simulaMulta",
					"outputs": [
						{
							"internalType": "uint256",
							"name": "valorMulta",
							"type": "uint256"
						}
					],
					"stateMutability": "view",
					"type": "function"
				},
				{
					"inputs": [
						{
							"internalType": "uint256",
							"name": "",
							"type": "uint256"
						}
					],
					"name": "statusPagamento",
					"outputs": [
						{
							"internalType": "bool",
							"name": "",
							"type": "bool"
						}
					],
					"stateMutability": "view",
					"type": "function"
				},
				{
					"inputs": [
						{
							"internalType": "uint256",
							"name": "valor1",
							"type": "uint256"
						},
						{
							"internalType": "uint256",
							"name": "valor2",
							"type": "uint256"
						}
					],
					"name": "testeCalculo",
					"outputs": [
						{
							"internalType": "uint256",
							"name": "resultado",
							"type": "uint256"
						}
					],
					"stateMutability": "pure",
					"type": "function"
				},
				{
					"inputs": [],
					"name": "valorAtualDoAluguel",
					"outputs": [
						{
							"internalType": "uint256",
							"name": "",
							"type": "uint256"
						}
					],
					"stateMutability": "view",
					"type": "function"
				}
			],
			"devdoc": {
				"kind": "dev",
				"methods": {},
				"version": 1
			},
			"evm": {
				"assembly": "    /* \"contracts/4_Aluguel.sol\":186:3005  contract Aluguel {... */\n  mstore(0x40, 0x80)\n    /* \"contracts/4_Aluguel.sol\":595:971  constructor(    string memory _nomeLocador, ... */\n  mload(0x40)\n  sub(codesize, bytecodeSize)\n  dup1\n  bytecodeSize\n  dup4\n  codecopy\n  dup2\n  dup2\n  add\n  0x40\n  mstore\n  dup2\n  add\n  swap1\n  tag_1\n  swap2\n  swap1\n  tag_2\n  jump\t// in\ntag_1:\n    /* \"contracts/4_Aluguel.sol\":817:829  _nomeLocador */\n  dup4\n    /* \"contracts/4_Aluguel.sol\":807:814  locador */\n  0x01\n    /* \"contracts/4_Aluguel.sol\":807:829  locador = _nomeLocador */\n  swap1\n  dup2\n  tag_5\n  swap2\n  swap1\n  tag_6\n  jump\t// in\ntag_5:\n  pop\n    /* \"contracts/4_Aluguel.sol\":851:865  _nomeLocatario */\n  dup3\n    /* \"contracts/4_Aluguel.sol\":839:848  locatario */\n  0x00\n    /* \"contracts/4_Aluguel.sol\":839:865  locatario = _nomeLocatario */\n  swap1\n  dup2\n  tag_7\n  swap2\n  swap1\n  tag_6\n  jump\t// in\ntag_7:\n  pop\n    /* \"contracts/4_Aluguel.sol\":883:898  _valorDoAluguel */\n  dup1\n    /* \"contracts/4_Aluguel.sol\":875:880  valor */\n  0x02\n    /* \"contracts/4_Aluguel.sol\":875:898  valor = _valorDoAluguel */\n  dup2\n  swap1\n  sstore\n  pop\n    /* \"contracts/4_Aluguel.sol\":923:936  _contaLocador */\n  dup2\n    /* \"contracts/4_Aluguel.sol\":908:920  contaLocador */\n  0x04\n  0x00\n    /* \"contracts/4_Aluguel.sol\":908:936  contaLocador = _contaLocador */\n  0x0100\n  exp\n  dup2\n  sload\n  dup2\n  0xffffffffffffffffffffffffffffffffffffffff\n  mul\n  not\n  and\n  swap1\n  dup4\n  0xffffffffffffffffffffffffffffffffffffffff\n  and\n  mul\n  or\n  swap1\n  sstore\n  pop\n    /* \"contracts/4_Aluguel.sol\":954:964  msg.sender */\n  caller\n    /* \"contracts/4_Aluguel.sol\":946:951  owner */\n  0x05\n  0x00\n    /* \"contracts/4_Aluguel.sol\":946:964  owner = msg.sender */\n  0x0100\n  exp\n  dup2\n  sload\n  dup2\n  0xffffffffffffffffffffffffffffffffffffffff\n  mul\n  not\n  and\n  swap1\n  dup4\n  0xffffffffffffffffffffffffffffffffffffffff\n  and\n  mul\n  or\n  swap1\n  sstore\n  pop\n    /* \"contracts/4_Aluguel.sol\":595:971  constructor(    string memory _nomeLocador, ... */\n  pop\n  pop\n  pop\n  pop\n    /* \"contracts/4_Aluguel.sol\":186:3005  contract Aluguel {... */\n  jump(tag_8)\n    /* \"#utility.yul\":7:82   */\ntag_9:\n    /* \"#utility.yul\":40:46   */\n  0x00\n    /* \"#utility.yul\":73:75   */\n  0x40\n    /* \"#utility.yul\":67:76   */\n  mload\n    /* \"#utility.yul\":57:76   */\n  swap1\n  pop\n    /* \"#utility.yul\":7:82   */\n  swap1\n  jump\t// out\n    /* \"#utility.yul\":88:205   */\ntag_10:\n    /* \"#utility.yul\":197:198   */\n  0x00\n    /* \"#utility.yul\":194:195   */\n  dup1\n    /* \"#utility.yul\":187:199   */\n  revert\n    /* \"#utility.yul\":211:328   */\ntag_11:\n    /* \"#utility.yul\":320:321   */\n  0x00\n    /* \"#utility.yul\":317:318   */\n  dup1\n    /* \"#utility.yul\":310:322   */\n  revert\n    /* \"#utility.yul\":334:451   */\ntag_12:\n    /* \"#utility.yul\":443:444   */\n  0x00\n    /* \"#utility.yul\":440:441   */\n  dup1\n    /* \"#utility.yul\":433:445   */\n  revert\n    /* \"#utility.yul\":457:574   */\ntag_13:\n    /* \"#utility.yul\":566:567   */\n  0x00\n    /* \"#utility.yul\":563:564   */\n  dup1\n    /* \"#utility.yul\":556:568   */\n  revert\n    /* \"#utility.yul\":580:682   */\ntag_14:\n    /* \"#utility.yul\":621:627   */\n  0x00\n    /* \"#utility.yul\":672:674   */\n  0x1f\n    /* \"#utility.yul\":668:675   */\n  not\n    /* \"#utility.yul\":663:665   */\n  0x1f\n    /* \"#utility.yul\":656:661   */\n  dup4\n    /* \"#utility.yul\":652:666   */\n  add\n    /* \"#utility.yul\":648:676   */\n  and\n    /* \"#utility.yul\":638:676   */\n  swap1\n  pop\n    /* \"#utility.yul\":580:682   */\n  swap2\n  swap1\n  pop\n  jump\t// out\n    /* \"#utility.yul\":688:868   */\ntag_15:\n    /* \"#utility.yul\":736:813   */\n  0x4e487b7100000000000000000000000000000000000000000000000000000000\n    /* \"#utility.yul\":733:734   */\n  0x00\n    /* \"#utility.yul\":726:814   */\n  mstore\n    /* \"#utility.yul\":833:837   */\n  0x41\n    /* \"#utility.yul\":830:831   */\n  0x04\n    /* \"#utility.yul\":823:838   */\n  mstore\n    /* \"#utility.yul\":857:861   */\n  0x24\n    /* \"#utility.yul\":854:855   */\n  0x00\n    /* \"#utility.yul\":847:862   */\n  revert\n    /* \"#utility.yul\":874:1155   */\ntag_16:\n    /* \"#utility.yul\":957:984   */\n  tag_56\n    /* \"#utility.yul\":979:983   */\n  dup3\n    /* \"#utility.yul\":957:984   */\n  tag_14\n  jump\t// in\ntag_56:\n    /* \"#utility.yul\":949:955   */\n  dup2\n    /* \"#utility.yul\":945:985   */\n  add\n    /* \"#utility.yul\":1087:1093   */\n  dup2\n    /* \"#utility.yul\":1075:1085   */\n  dup2\n    /* \"#utility.yul\":1072:1094   */\n  lt\n    /* \"#utility.yul\":1051:1069   */\n  0xffffffffffffffff\n    /* \"#utility.yul\":1039:1049   */\n  dup3\n    /* \"#utility.yul\":1036:1070   */\n  gt\n    /* \"#utility.yul\":1033:1095   */\n  or\n    /* \"#utility.yul\":1030:1118   */\n  iszero\n  tag_57\n  jumpi\n    /* \"#utility.yul\":1098:1116   */\n  tag_58\n  tag_15\n  jump\t// in\ntag_58:\n    /* \"#utility.yul\":1030:1118   */\ntag_57:\n    /* \"#utility.yul\":1138:1148   */\n  dup1\n    /* \"#utility.yul\":1134:1136   */\n  0x40\n    /* \"#utility.yul\":1127:1149   */\n  mstore\n    /* \"#utility.yul\":917:1155   */\n  pop\n    /* \"#utility.yul\":874:1155   */\n  pop\n  pop\n  jump\t// out\n    /* \"#utility.yul\":1161:1290   */\ntag_17:\n    /* \"#utility.yul\":1195:1201   */\n  0x00\n    /* \"#utility.yul\":1222:1242   */\n  tag_60\n  tag_9\n  jump\t// in\ntag_60:\n    /* \"#utility.yul\":1212:1242   */\n  swap1\n  pop\n    /* \"#utility.yul\":1251:1284   */\n  tag_61\n    /* \"#utility.yul\":1279:1283   */\n  dup3\n    /* \"#utility.yul\":1271:1277   */\n  dup3\n    /* \"#utility.yul\":1251:1284   */\n  tag_16\n  jump\t// in\ntag_61:\n    /* \"#utility.yul\":1161:1290   */\n  swap2\n  swap1\n  pop\n  jump\t// out\n    /* \"#utility.yul\":1296:1604   */\ntag_18:\n    /* \"#utility.yul\":1358:1362   */\n  0x00\n    /* \"#utility.yul\":1448:1466   */\n  0xffffffffffffffff\n    /* \"#utility.yul\":1440:1446   */\n  dup3\n    /* \"#utility.yul\":1437:1467   */\n  gt\n    /* \"#utility.yul\":1434:1490   */\n  iszero\n  tag_63\n  jumpi\n    /* \"#utility.yul\":1470:1488   */\n  tag_64\n  tag_15\n  jump\t// in\ntag_64:\n    /* \"#utility.yul\":1434:1490   */\ntag_63:\n    /* \"#utility.yul\":1508:1537   */\n  tag_65\n    /* \"#utility.yul\":1530:1536   */\n  dup3\n    /* \"#utility.yul\":1508:1537   */\n  tag_14\n  jump\t// in\ntag_65:\n    /* \"#utility.yul\":1500:1537   */\n  swap1\n  pop\n    /* \"#utility.yul\":1592:1596   */\n  0x20\n    /* \"#utility.yul\":1586:1590   */\n  dup2\n    /* \"#utility.yul\":1582:1597   */\n  add\n    /* \"#utility.yul\":1574:1597   */\n  swap1\n  pop\n    /* \"#utility.yul\":1296:1604   */\n  swap2\n  swap1\n  pop\n  jump\t// out\n    /* \"#utility.yul\":1610:1856   */\ntag_19:\n    /* \"#utility.yul\":1691:1692   */\n  0x00\n    /* \"#utility.yul\":1701:1814   */\ntag_67:\n    /* \"#utility.yul\":1715:1721   */\n  dup4\n    /* \"#utility.yul\":1712:1713   */\n  dup2\n    /* \"#utility.yul\":1709:1722   */\n  lt\n    /* \"#utility.yul\":1701:1814   */\n  iszero\n  tag_69\n  jumpi\n    /* \"#utility.yul\":1800:1801   */\n  dup1\n    /* \"#utility.yul\":1795:1798   */\n  dup3\n    /* \"#utility.yul\":1791:1802   */\n  add\n    /* \"#utility.yul\":1785:1803   */\n  mload\n    /* \"#utility.yul\":1781:1782   */\n  dup2\n    /* \"#utility.yul\":1776:1779   */\n  dup5\n    /* \"#utility.yul\":1772:1783   */\n  add\n    /* \"#utility.yul\":1765:1804   */\n  mstore\n    /* \"#utility.yul\":1737:1739   */\n  0x20\n    /* \"#utility.yul\":1734:1735   */\n  dup2\n    /* \"#utility.yul\":1730:1740   */\n  add\n    /* \"#utility.yul\":1725:1740   */\n  swap1\n  pop\n    /* \"#utility.yul\":1701:1814   */\n  jump(tag_67)\ntag_69:\n    /* \"#utility.yul\":1848:1849   */\n  0x00\n    /* \"#utility.yul\":1839:1845   */\n  dup5\n    /* \"#utility.yul\":1834:1837   */\n  dup5\n    /* \"#utility.yul\":1830:1846   */\n  add\n    /* \"#utility.yul\":1823:1850   */\n  mstore\n    /* \"#utility.yul\":1672:1856   */\n  pop\n    /* \"#utility.yul\":1610:1856   */\n  pop\n  pop\n  pop\n  jump\t// out\n    /* \"#utility.yul\":1862:2296   */\ntag_20:\n    /* \"#utility.yul\":1951:1956   */\n  0x00\n    /* \"#utility.yul\":1976:2042   */\n  tag_71\n    /* \"#utility.yul\":1992:2041   */\n  tag_72\n    /* \"#utility.yul\":2034:2040   */\n  dup5\n    /* \"#utility.yul\":1992:2041   */\n  tag_18\n  jump\t// in\ntag_72:\n    /* \"#utility.yul\":1976:2042   */\n  tag_17\n  jump\t// in\ntag_71:\n    /* \"#utility.yul\":1967:2042   */\n  swap1\n  pop\n    /* \"#utility.yul\":2065:2071   */\n  dup3\n    /* \"#utility.yul\":2058:2063   */\n  dup2\n    /* \"#utility.yul\":2051:2072   */\n  mstore\n    /* \"#utility.yul\":2103:2107   */\n  0x20\n    /* \"#utility.yul\":2096:2101   */\n  dup2\n    /* \"#utility.yul\":2092:2108   */\n  add\n    /* \"#utility.yul\":2141:2144   */\n  dup5\n    /* \"#utility.yul\":2132:2138   */\n  dup5\n    /* \"#utility.yul\":2127:2130   */\n  dup5\n    /* \"#utility.yul\":2123:2139   */\n  add\n    /* \"#utility.yul\":2120:2145   */\n  gt\n    /* \"#utility.yul\":2117:2229   */\n  iszero\n  tag_73\n  jumpi\n    /* \"#utility.yul\":2148:2227   */\n  tag_74\n  tag_13\n  jump\t// in\ntag_74:\n    /* \"#utility.yul\":2117:2229   */\ntag_73:\n    /* \"#utility.yul\":2238:2290   */\n  tag_75\n    /* \"#utility.yul\":2283:2289   */\n  dup5\n    /* \"#utility.yul\":2278:2281   */\n  dup3\n    /* \"#utility.yul\":2273:2276   */\n  dup6\n    /* \"#utility.yul\":2238:2290   */\n  tag_19\n  jump\t// in\ntag_75:\n    /* \"#utility.yul\":1957:2296   */\n  pop\n    /* \"#utility.yul\":1862:2296   */\n  swap4\n  swap3\n  pop\n  pop\n  pop\n  jump\t// out\n    /* \"#utility.yul\":2316:2671   */\ntag_21:\n    /* \"#utility.yul\":2383:2388   */\n  0x00\n    /* \"#utility.yul\":2432:2435   */\n  dup3\n    /* \"#utility.yul\":2425:2429   */\n  0x1f\n    /* \"#utility.yul\":2417:2423   */\n  dup4\n    /* \"#utility.yul\":2413:2430   */\n  add\n    /* \"#utility.yul\":2409:2436   */\n  slt\n    /* \"#utility.yul\":2399:2521   */\n  tag_77\n  jumpi\n    /* \"#utility.yul\":2440:2519   */\n  tag_78\n  tag_12\n  jump\t// in\ntag_78:\n    /* \"#utility.yul\":2399:2521   */\ntag_77:\n    /* \"#utility.yul\":2550:2556   */\n  dup2\n    /* \"#utility.yul\":2544:2557   */\n  mload\n    /* \"#utility.yul\":2575:2665   */\n  tag_79\n    /* \"#utility.yul\":2661:2664   */\n  dup5\n    /* \"#utility.yul\":2653:2659   */\n  dup3\n    /* \"#utility.yul\":2646:2650   */\n  0x20\n    /* \"#utility.yul\":2638:2644   */\n  dup7\n    /* \"#utility.yul\":2634:2651   */\n  add\n    /* \"#utility.yul\":2575:2665   */\n  tag_20\n  jump\t// in\ntag_79:\n    /* \"#utility.yul\":2566:2665   */\n  swap2\n  pop\n    /* \"#utility.yul\":2389:2671   */\n  pop\n    /* \"#utility.yul\":2316:2671   */\n  swap3\n  swap2\n  pop\n  pop\n  jump\t// out\n    /* \"#utility.yul\":2677:2803   */\ntag_22:\n    /* \"#utility.yul\":2714:2721   */\n  0x00\n    /* \"#utility.yul\":2754:2796   */\n  0xffffffffffffffffffffffffffffffffffffffff\n    /* \"#utility.yul\":2747:2752   */\n  dup3\n    /* \"#utility.yul\":2743:2797   */\n  and\n    /* \"#utility.yul\":2732:2797   */\n  swap1\n  pop\n    /* \"#utility.yul\":2677:2803   */\n  swap2\n  swap1\n  pop\n  jump\t// out\n    /* \"#utility.yul\":2809:2913   */\ntag_23:\n    /* \"#utility.yul\":2854:2861   */\n  0x00\n    /* \"#utility.yul\":2883:2907   */\n  tag_82\n    /* \"#utility.yul\":2901:2906   */\n  dup3\n    /* \"#utility.yul\":2883:2907   */\n  tag_22\n  jump\t// in\ntag_82:\n    /* \"#utility.yul\":2872:2907   */\n  swap1\n  pop\n    /* \"#utility.yul\":2809:2913   */\n  swap2\n  swap1\n  pop\n  jump\t// out\n    /* \"#utility.yul\":2919:3057   */\ntag_24:\n    /* \"#utility.yul\":3000:3032   */\n  tag_84\n    /* \"#utility.yul\":3026:3031   */\n  dup2\n    /* \"#utility.yul\":3000:3032   */\n  tag_23\n  jump\t// in\ntag_84:\n    /* \"#utility.yul\":2993:2998   */\n  dup2\n    /* \"#utility.yul\":2990:3033   */\n  eq\n    /* \"#utility.yul\":2980:3051   */\n  tag_85\n  jumpi\n    /* \"#utility.yul\":3047:3048   */\n  0x00\n    /* \"#utility.yul\":3044:3045   */\n  dup1\n    /* \"#utility.yul\":3037:3049   */\n  revert\n    /* \"#utility.yul\":2980:3051   */\ntag_85:\n    /* \"#utility.yul\":2919:3057   */\n  pop\n  jump\t// out\n    /* \"#utility.yul\":3063:3222   */\ntag_25:\n    /* \"#utility.yul\":3128:3133   */\n  0x00\n    /* \"#utility.yul\":3159:3165   */\n  dup2\n    /* \"#utility.yul\":3153:3166   */\n  mload\n    /* \"#utility.yul\":3144:3166   */\n  swap1\n  pop\n    /* \"#utility.yul\":3175:3216   */\n  tag_87\n    /* \"#utility.yul\":3210:3215   */\n  dup2\n    /* \"#utility.yul\":3175:3216   */\n  tag_24\n  jump\t// in\ntag_87:\n    /* \"#utility.yul\":3063:3222   */\n  swap3\n  swap2\n  pop\n  pop\n  jump\t// out\n    /* \"#utility.yul\":3228:3305   */\ntag_26:\n    /* \"#utility.yul\":3265:3272   */\n  0x00\n    /* \"#utility.yul\":3294:3299   */\n  dup2\n    /* \"#utility.yul\":3283:3299   */\n  swap1\n  pop\n    /* \"#utility.yul\":3228:3305   */\n  swap2\n  swap1\n  pop\n  jump\t// out\n    /* \"#utility.yul\":3311:3433   */\ntag_27:\n    /* \"#utility.yul\":3384:3408   */\n  tag_90\n    /* \"#utility.yul\":3402:3407   */\n  dup2\n    /* \"#utility.yul\":3384:3408   */\n  tag_26\n  jump\t// in\ntag_90:\n    /* \"#utility.yul\":3377:3382   */\n  dup2\n    /* \"#utility.yul\":3374:3409   */\n  eq\n    /* \"#utility.yul\":3364:3427   */\n  tag_91\n  jumpi\n    /* \"#utility.yul\":3423:3424   */\n  0x00\n    /* \"#utility.yul\":3420:3421   */\n  dup1\n    /* \"#utility.yul\":3413:3425   */\n  revert\n    /* \"#utility.yul\":3364:3427   */\ntag_91:\n    /* \"#utility.yul\":3311:3433   */\n  pop\n  jump\t// out\n    /* \"#utility.yul\":3439:3582   */\ntag_28:\n    /* \"#utility.yul\":3496:3501   */\n  0x00\n    /* \"#utility.yul\":3527:3533   */\n  dup2\n    /* \"#utility.yul\":3521:3534   */\n  mload\n    /* \"#utility.yul\":3512:3534   */\n  swap1\n  pop\n    /* \"#utility.yul\":3543:3576   */\n  tag_93\n    /* \"#utility.yul\":3570:3575   */\n  dup2\n    /* \"#utility.yul\":3543:3576   */\n  tag_27\n  jump\t// in\ntag_93:\n    /* \"#utility.yul\":3439:3582   */\n  swap3\n  swap2\n  pop\n  pop\n  jump\t// out\n    /* \"#utility.yul\":3588:4770   */\ntag_2:\n    /* \"#utility.yul\":3713:3719   */\n  0x00\n    /* \"#utility.yul\":3721:3727   */\n  dup1\n    /* \"#utility.yul\":3729:3735   */\n  0x00\n    /* \"#utility.yul\":3737:3743   */\n  dup1\n    /* \"#utility.yul\":3786:3789   */\n  0x80\n    /* \"#utility.yul\":3774:3783   */\n  dup6\n    /* \"#utility.yul\":3765:3772   */\n  dup8\n    /* \"#utility.yul\":3761:3784   */\n  sub\n    /* \"#utility.yul\":3757:3790   */\n  slt\n    /* \"#utility.yul\":3754:3874   */\n  iszero\n  tag_95\n  jumpi\n    /* \"#utility.yul\":3793:3872   */\n  tag_96\n  tag_10\n  jump\t// in\ntag_96:\n    /* \"#utility.yul\":3754:3874   */\ntag_95:\n    /* \"#utility.yul\":3934:3935   */\n  0x00\n    /* \"#utility.yul\":3923:3932   */\n  dup6\n    /* \"#utility.yul\":3919:3936   */\n  add\n    /* \"#utility.yul\":3913:3937   */\n  mload\n    /* \"#utility.yul\":3964:3982   */\n  0xffffffffffffffff\n    /* \"#utility.yul\":3956:3962   */\n  dup2\n    /* \"#utility.yul\":3953:3983   */\n  gt\n    /* \"#utility.yul\":3950:4067   */\n  iszero\n  tag_97\n  jumpi\n    /* \"#utility.yul\":3986:4065   */\n  tag_98\n  tag_11\n  jump\t// in\ntag_98:\n    /* \"#utility.yul\":3950:4067   */\ntag_97:\n    /* \"#utility.yul\":4091:4165   */\n  tag_99\n    /* \"#utility.yul\":4157:4164   */\n  dup8\n    /* \"#utility.yul\":4148:4154   */\n  dup3\n    /* \"#utility.yul\":4137:4146   */\n  dup9\n    /* \"#utility.yul\":4133:4155   */\n  add\n    /* \"#utility.yul\":4091:4165   */\n  tag_21\n  jump\t// in\ntag_99:\n    /* \"#utility.yul\":4081:4165   */\n  swap5\n  pop\n    /* \"#utility.yul\":3884:4175   */\n  pop\n    /* \"#utility.yul\":4235:4237   */\n  0x20\n    /* \"#utility.yul\":4224:4233   */\n  dup6\n    /* \"#utility.yul\":4220:4238   */\n  add\n    /* \"#utility.yul\":4214:4239   */\n  mload\n    /* \"#utility.yul\":4266:4284   */\n  0xffffffffffffffff\n    /* \"#utility.yul\":4258:4264   */\n  dup2\n    /* \"#utility.yul\":4255:4285   */\n  gt\n    /* \"#utility.yul\":4252:4369   */\n  iszero\n  tag_100\n  jumpi\n    /* \"#utility.yul\":4288:4367   */\n  tag_101\n  tag_11\n  jump\t// in\ntag_101:\n    /* \"#utility.yul\":4252:4369   */\ntag_100:\n    /* \"#utility.yul\":4393:4467   */\n  tag_102\n    /* \"#utility.yul\":4459:4466   */\n  dup8\n    /* \"#utility.yul\":4450:4456   */\n  dup3\n    /* \"#utility.yul\":4439:4448   */\n  dup9\n    /* \"#utility.yul\":4435:4457   */\n  add\n    /* \"#utility.yul\":4393:4467   */\n  tag_21\n  jump\t// in\ntag_102:\n    /* \"#utility.yul\":4383:4467   */\n  swap4\n  pop\n    /* \"#utility.yul\":4185:4477   */\n  pop\n    /* \"#utility.yul\":4516:4518   */\n  0x40\n    /* \"#utility.yul\":4542:4614   */\n  tag_103\n    /* \"#utility.yul\":4606:4613   */\n  dup8\n    /* \"#utility.yul\":4597:4603   */\n  dup3\n    /* \"#utility.yul\":4586:4595   */\n  dup9\n    /* \"#utility.yul\":4582:4604   */\n  add\n    /* \"#utility.yul\":4542:4614   */\n  tag_25\n  jump\t// in\ntag_103:\n    /* \"#utility.yul\":4532:4614   */\n  swap3\n  pop\n    /* \"#utility.yul\":4487:4624   */\n  pop\n    /* \"#utility.yul\":4663:4665   */\n  0x60\n    /* \"#utility.yul\":4689:4753   */\n  tag_104\n    /* \"#utility.yul\":4745:4752   */\n  dup8\n    /* \"#utility.yul\":4736:4742   */\n  dup3\n    /* \"#utility.yul\":4725:4734   */\n  dup9\n    /* \"#utility.yul\":4721:4743   */\n  add\n    /* \"#utility.yul\":4689:4753   */\n  tag_28\n  jump\t// in\ntag_104:\n    /* \"#utility.yul\":4679:4753   */\n  swap2\n  pop\n    /* \"#utility.yul\":4634:4763   */\n  pop\n    /* \"#utility.yul\":3588:4770   */\n  swap3\n  swap6\n  swap2\n  swap5\n  pop\n  swap3\n  pop\n  jump\t// out\n    /* \"#utility.yul\":4776:4875   */\ntag_29:\n    /* \"#utility.yul\":4828:4834   */\n  0x00\n    /* \"#utility.yul\":4862:4867   */\n  dup2\n    /* \"#utility.yul\":4856:4868   */\n  mload\n    /* \"#utility.yul\":4846:4868   */\n  swap1\n  pop\n    /* \"#utility.yul\":4776:4875   */\n  swap2\n  swap1\n  pop\n  jump\t// out\n    /* \"#utility.yul\":4881:5061   */\ntag_30:\n    /* \"#utility.yul\":4929:5006   */\n  0x4e487b7100000000000000000000000000000000000000000000000000000000\n    /* \"#utility.yul\":4926:4927   */\n  0x00\n    /* \"#utility.yul\":4919:5007   */\n  mstore\n    /* \"#utility.yul\":5026:5030   */\n  0x22\n    /* \"#utility.yul\":5023:5024   */\n  0x04\n    /* \"#utility.yul\":5016:5031   */\n  mstore\n    /* \"#utility.yul\":5050:5054   */\n  0x24\n    /* \"#utility.yul\":5047:5048   */\n  0x00\n    /* \"#utility.yul\":5040:5055   */\n  revert\n    /* \"#utility.yul\":5067:5387   */\ntag_31:\n    /* \"#utility.yul\":5111:5117   */\n  0x00\n    /* \"#utility.yul\":5148:5149   */\n  0x02\n    /* \"#utility.yul\":5142:5146   */\n  dup3\n    /* \"#utility.yul\":5138:5150   */\n  div\n    /* \"#utility.yul\":5128:5150   */\n  swap1\n  pop\n    /* \"#utility.yul\":5195:5196   */\n  0x01\n    /* \"#utility.yul\":5189:5193   */\n  dup3\n    /* \"#utility.yul\":5185:5197   */\n  and\n    /* \"#utility.yul\":5216:5234   */\n  dup1\n    /* \"#utility.yul\":5206:5287   */\n  tag_108\n  jumpi\n    /* \"#utility.yul\":5272:5276   */\n  0x7f\n    /* \"#utility.yul\":5264:5270   */\n  dup3\n    /* \"#utility.yul\":5260:5277   */\n  and\n    /* \"#utility.yul\":5250:5277   */\n  swap2\n  pop\n    /* \"#utility.yul\":5206:5287   */\ntag_108:\n    /* \"#utility.yul\":5334:5336   */\n  0x20\n    /* \"#utility.yul\":5326:5332   */\n  dup3\n    /* \"#utility.yul\":5323:5337   */\n  lt\n    /* \"#utility.yul\":5303:5321   */\n  dup2\n    /* \"#utility.yul\":5300:5338   */\n  sub\n    /* \"#utility.yul\":5297:5381   */\n  tag_109\n  jumpi\n    /* \"#utility.yul\":5353:5371   */\n  tag_110\n  tag_30\n  jump\t// in\ntag_110:\n    /* \"#utility.yul\":5297:5381   */\ntag_109:\n    /* \"#utility.yul\":5118:5387   */\n  pop\n    /* \"#utility.yul\":5067:5387   */\n  swap2\n  swap1\n  pop\n  jump\t// out\n    /* \"#utility.yul\":5393:5534   */\ntag_32:\n    /* \"#utility.yul\":5442:5446   */\n  0x00\n    /* \"#utility.yul\":5465:5468   */\n  dup2\n    /* \"#utility.yul\":5457:5468   */\n  swap1\n  pop\n    /* \"#utility.yul\":5488:5491   */\n  dup2\n    /* \"#utility.yul\":5485:5486   */\n  0x00\n    /* \"#utility.yul\":5478:5492   */\n  mstore\n    /* \"#utility.yul\":5522:5526   */\n  0x20\n    /* \"#utility.yul\":5519:5520   */\n  0x00\n    /* \"#utility.yul\":5509:5527   */\n  keccak256\n    /* \"#utility.yul\":5501:5527   */\n  swap1\n  pop\n    /* \"#utility.yul\":5393:5534   */\n  swap2\n  swap1\n  pop\n  jump\t// out\n    /* \"#utility.yul\":5540:5633   */\ntag_33:\n    /* \"#utility.yul\":5577:5583   */\n  0x00\n    /* \"#utility.yul\":5624:5626   */\n  0x20\n    /* \"#utility.yul\":5619:5621   */\n  0x1f\n    /* \"#utility.yul\":5612:5617   */\n  dup4\n    /* \"#utility.yul\":5608:5622   */\n  add\n    /* \"#utility.yul\":5604:5627   */\n  div\n    /* \"#utility.yul\":5594:5627   */\n  swap1\n  pop\n    /* \"#utility.yul\":5540:5633   */\n  swap2\n  swap1\n  pop\n  jump\t// out\n    /* \"#utility.yul\":5639:5746   */\ntag_34:\n    /* \"#utility.yul\":5683:5691   */\n  0x00\n    /* \"#utility.yul\":5733:5738   */\n  dup3\n    /* \"#utility.yul\":5727:5731   */\n  dup3\n    /* \"#utility.yul\":5723:5739   */\n  shl\n    /* \"#utility.yul\":5702:5739   */\n  swap1\n  pop\n    /* \"#utility.yul\":5639:5746   */\n  swap3\n  swap2\n  pop\n  pop\n  jump\t// out\n    /* \"#utility.yul\":5752:6145   */\ntag_35:\n    /* \"#utility.yul\":5821:5827   */\n  0x00\n    /* \"#utility.yul\":5871:5872   */\n  0x08\n    /* \"#utility.yul\":5859:5869   */\n  dup4\n    /* \"#utility.yul\":5855:5873   */\n  mul\n    /* \"#utility.yul\":5894:5991   */\n  tag_115\n    /* \"#utility.yul\":5924:5990   */\n  0xffffffffffffffffffffffffffffffffffffffffffffffffffffffffffffffff\n    /* \"#utility.yul\":5913:5922   */\n  dup3\n    /* \"#utility.yul\":5894:5991   */\n  tag_34\n  jump\t// in\ntag_115:\n    /* \"#utility.yul\":6012:6051   */\n  tag_116\n    /* \"#utility.yul\":6042:6050   */\n  dup7\n    /* \"#utility.yul\":6031:6040   */\n  dup4\n    /* \"#utility.yul\":6012:6051   */\n  tag_34\n  jump\t// in\ntag_116:\n    /* \"#utility.yul\":6000:6051   */\n  swap6\n  pop\n    /* \"#utility.yul\":6084:6088   */\n  dup1\n    /* \"#utility.yul\":6080:6089   */\n  not\n    /* \"#utility.yul\":6073:6078   */\n  dup5\n    /* \"#utility.yul\":6069:6090   */\n  and\n    /* \"#utility.yul\":6060:6090   */\n  swap4\n  pop\n    /* \"#utility.yul\":6133:6137   */\n  dup1\n    /* \"#utility.yul\":6123:6131   */\n  dup7\n    /* \"#utility.yul\":6119:6138   */\n  and\n    /* \"#utility.yul\":6112:6117   */\n  dup5\n    /* \"#utility.yul\":6109:6139   */\n  or\n    /* \"#utility.yul\":6099:6139   */\n  swap3\n  pop\n    /* \"#utility.yul\":5828:6145   */\n  pop\n  pop\n    /* \"#utility.yul\":5752:6145   */\n  swap4\n  swap3\n  pop\n  pop\n  pop\n  jump\t// out\n    /* \"#utility.yul\":6151:6211   */\ntag_36:\n    /* \"#utility.yul\":6179:6182   */\n  0x00\n    /* \"#utility.yul\":6200:6205   */\n  dup2\n    /* \"#utility.yul\":6193:6205   */\n  swap1\n  pop\n    /* \"#utility.yul\":6151:6211   */\n  swap2\n  swap1\n  pop\n  jump\t// out\n    /* \"#utility.yul\":6217:6359   */\ntag_37:\n    /* \"#utility.yul\":6267:6276   */\n  0x00\n    /* \"#utility.yul\":6300:6353   */\n  tag_119\n    /* \"#utility.yul\":6318:6352   */\n  tag_120\n    /* \"#utility.yul\":6327:6351   */\n  tag_121\n    /* \"#utility.yul\":6345:6350   */\n  dup5\n    /* \"#utility.yul\":6327:6351   */\n  tag_26\n  jump\t// in\ntag_121:\n    /* \"#utility.yul\":6318:6352   */\n  tag_36\n  jump\t// in\ntag_120:\n    /* \"#utility.yul\":6300:6353   */\n  tag_26\n  jump\t// in\ntag_119:\n    /* \"#utility.yul\":6287:6353   */\n  swap1\n  pop\n    /* \"#utility.yul\":6217:6359   */\n  swap2\n  swap1\n  pop\n  jump\t// out\n    /* \"#utility.yul\":6365:6440   */\ntag_38:\n    /* \"#utility.yul\":6408:6411   */\n  0x00\n    /* \"#utility.yul\":6429:6434   */\n  dup2\n    /* \"#utility.yul\":6422:6434   */\n  swap1\n  pop\n    /* \"#utility.yul\":6365:6440   */\n  swap2\n  swap1\n  pop\n  jump\t// out\n    /* \"#utility.yul\":6446:6715   */\ntag_39:\n    /* \"#utility.yul\":6556:6595   */\n  tag_124\n    /* \"#utility.yul\":6587:6594   */\n  dup4\n    /* \"#utility.yul\":6556:6595   */\n  tag_37\n  jump\t// in\ntag_124:\n    /* \"#utility.yul\":6617:6708   */\n  tag_125\n    /* \"#utility.yul\":6666:6707   */\n  tag_126\n    /* \"#utility.yul\":6690:6706   */\n  dup3\n    /* \"#utility.yul\":6666:6707   */\n  tag_38\n  jump\t// in\ntag_126:\n    /* \"#utility.yul\":6658:6664   */\n  dup5\n    /* \"#utility.yul\":6651:6655   */\n  dup5\n    /* \"#utility.yul\":6645:6656   */\n  sload\n    /* \"#utility.yul\":6617:6708   */\n  tag_35\n  jump\t// in\ntag_125:\n    /* \"#utility.yul\":6611:6615   */\n  dup3\n    /* \"#utility.yul\":6604:6709   */\n  sstore\n    /* \"#utility.yul\":6522:6715   */\n  pop\n    /* \"#utility.yul\":6446:6715   */\n  pop\n  pop\n  pop\n  jump\t// out\n    /* \"#utility.yul\":6721:6794   */\ntag_40:\n    /* \"#utility.yul\":6766:6769   */\n  0x00\n    /* \"#utility.yul\":6721:6794   */\n  swap1\n  jump\t// out\n    /* \"#utility.yul\":6800:6989   */\ntag_41:\n    /* \"#utility.yul\":6877:6909   */\n  tag_129\n  tag_40\n  jump\t// in\ntag_129:\n    /* \"#utility.yul\":6918:6983   */\n  tag_130\n    /* \"#utility.yul\":6976:6982   */\n  dup2\n    /* \"#utility.yul\":6968:6974   */\n  dup5\n    /* \"#utility.yul\":6962:6966   */\n  dup5\n    /* \"#utility.yul\":6918:6983   */\n  tag_39\n  jump\t// in\ntag_130:\n    /* \"#utility.yul\":6853:6989   */\n  pop\n    /* \"#utility.yul\":6800:6989   */\n  pop\n  pop\n  jump\t// out\n    /* \"#utility.yul\":6995:7181   */\ntag_42:\n    /* \"#utility.yul\":7055:7175   */\ntag_132:\n    /* \"#utility.yul\":7072:7075   */\n  dup2\n    /* \"#utility.yul\":7065:7070   */\n  dup2\n    /* \"#utility.yul\":7062:7076   */\n  lt\n    /* \"#utility.yul\":7055:7175   */\n  iszero\n  tag_134\n  jumpi\n    /* \"#utility.yul\":7126:7165   */\n  tag_135\n    /* \"#utility.yul\":7163:7164   */\n  0x00\n    /* \"#utility.yul\":7156:7161   */\n  dup3\n    /* \"#utility.yul\":7126:7165   */\n  tag_41\n  jump\t// in\ntag_135:\n    /* \"#utility.yul\":7099:7100   */\n  0x01\n    /* \"#utility.yul\":7092:7097   */\n  dup2\n    /* \"#utility.yul\":7088:7101   */\n  add\n    /* \"#utility.yul\":7079:7101   */\n  swap1\n  pop\n    /* \"#utility.yul\":7055:7175   */\n  jump(tag_132)\ntag_134:\n    /* \"#utility.yul\":6995:7181   */\n  pop\n  pop\n  jump\t// out\n    /* \"#utility.yul\":7187:7730   */\ntag_43:\n    /* \"#utility.yul\":7288:7290   */\n  0x1f\n    /* \"#utility.yul\":7283:7286   */\n  dup3\n    /* \"#utility.yul\":7280:7291   */\n  gt\n    /* \"#utility.yul\":7277:7723   */\n  iszero\n  tag_137\n  jumpi\n    /* \"#utility.yul\":7322:7360   */\n  tag_138\n    /* \"#utility.yul\":7354:7359   */\n  dup2\n    /* \"#utility.yul\":7322:7360   */\n  tag_32\n  jump\t// in\ntag_138:\n    /* \"#utility.yul\":7406:7435   */\n  tag_139\n    /* \"#utility.yul\":7424:7434   */\n  dup5\n    /* \"#utility.yul\":7406:7435   */\n  tag_33\n  jump\t// in\ntag_139:\n    /* \"#utility.yul\":7396:7404   */\n  dup2\n    /* \"#utility.yul\":7392:7436   */\n  add\n    /* \"#utility.yul\":7589:7591   */\n  0x20\n    /* \"#utility.yul\":7577:7587   */\n  dup6\n    /* \"#utility.yul\":7574:7592   */\n  lt\n    /* \"#utility.yul\":7571:7620   */\n  iszero\n  tag_140\n  jumpi\n    /* \"#utility.yul\":7610:7618   */\n  dup2\n    /* \"#utility.yul\":7595:7618   */\n  swap1\n  pop\n    /* \"#utility.yul\":7571:7620   */\ntag_140:\n    /* \"#utility.yul\":7633:7713   */\n  tag_141\n    /* \"#utility.yul\":7689:7711   */\n  tag_142\n    /* \"#utility.yul\":7707:7710   */\n  dup6\n    /* \"#utility.yul\":7689:7711   */\n  tag_33\n  jump\t// in\ntag_142:\n    /* \"#utility.yul\":7679:7687   */\n  dup4\n    /* \"#utility.yul\":7675:7712   */\n  add\n    /* \"#utility.yul\":7662:7673   */\n  dup3\n    /* \"#utility.yul\":7633:7713   */\n  tag_42\n  jump\t// in\ntag_141:\n    /* \"#utility.yul\":7292:7723   */\n  pop\n  pop\n    /* \"#utility.yul\":7277:7723   */\ntag_137:\n    /* \"#utility.yul\":7187:7730   */\n  pop\n  pop\n  pop\n  jump\t// out\n    /* \"#utility.yul\":7736:7853   */\ntag_44:\n    /* \"#utility.yul\":7790:7798   */\n  0x00\n    /* \"#utility.yul\":7840:7845   */\n  dup3\n    /* \"#utility.yul\":7834:7838   */\n  dup3\n    /* \"#utility.yul\":7830:7846   */\n  shr\n    /* \"#utility.yul\":7809:7846   */\n  swap1\n  pop\n    /* \"#utility.yul\":7736:7853   */\n  swap3\n  swap2\n  pop\n  pop\n  jump\t// out\n    /* \"#utility.yul\":7859:8028   */\ntag_45:\n    /* \"#utility.yul\":7903:7909   */\n  0x00\n    /* \"#utility.yul\":7936:7987   */\n  tag_145\n    /* \"#utility.yul\":7984:7985   */\n  0x00\n    /* \"#utility.yul\":7980:7986   */\n  not\n    /* \"#utility.yul\":7972:7977   */\n  dup5\n    /* \"#utility.yul\":7969:7970   */\n  0x08\n    /* \"#utility.yul\":7965:7978   */\n  mul\n    /* \"#utility.yul\":7936:7987   */\n  tag_44\n  jump\t// in\ntag_145:\n    /* \"#utility.yul\":7932:7988   */\n  not\n    /* \"#utility.yul\":8017:8021   */\n  dup1\n    /* \"#utility.yul\":8011:8015   */\n  dup4\n    /* \"#utility.yul\":8007:8022   */\n  and\n    /* \"#utility.yul\":7997:8022   */\n  swap2\n  pop\n    /* \"#utility.yul\":7910:8028   */\n  pop\n    /* \"#utility.yul\":7859:8028   */\n  swap3\n  swap2\n  pop\n  pop\n  jump\t// out\n    /* \"#utility.yul\":8033:8328   */\ntag_46:\n    /* \"#utility.yul\":8109:8113   */\n  0x00\n    /* \"#utility.yul\":8255:8284   */\n  tag_147\n    /* \"#utility.yul\":8280:8283   */\n  dup4\n    /* \"#utility.yul\":8274:8278   */\n  dup4\n    /* \"#utility.yul\":8255:8284   */\n  tag_45\n  jump\t// in\ntag_147:\n    /* \"#utility.yul\":8247:8284   */\n  swap2\n  pop\n    /* \"#utility.yul\":8317:8320   */\n  dup3\n    /* \"#utility.yul\":8314:8315   */\n  0x02\n    /* \"#utility.yul\":8310:8321   */\n  mul\n    /* \"#utility.yul\":8304:8308   */\n  dup3\n    /* \"#utility.yul\":8301:8322   */\n  or\n    /* \"#utility.yul\":8293:8322   */\n  swap1\n  pop\n    /* \"#utility.yul\":8033:8328   */\n  swap3\n  swap2\n  pop\n  pop\n  jump\t// out\n    /* \"#utility.yul\":8333:9728   */\ntag_6:\n    /* \"#utility.yul\":8450:8487   */\n  tag_149\n    /* \"#utility.yul\":8483:8486   */\n  dup3\n    /* \"#utility.yul\":8450:8487   */\n  tag_29\n  jump\t// in\ntag_149:\n    /* \"#utility.yul\":8552:8570   */\n  0xffffffffffffffff\n    /* \"#utility.yul\":8544:8550   */\n  dup2\n    /* \"#utility.yul\":8541:8571   */\n  gt\n    /* \"#utility.yul\":8538:8594   */\n  iszero\n  tag_150\n  jumpi\n    /* \"#utility.yul\":8574:8592   */\n  tag_151\n  tag_15\n  jump\t// in\ntag_151:\n    /* \"#utility.yul\":8538:8594   */\ntag_150:\n    /* \"#utility.yul\":8618:8656   */\n  tag_152\n    /* \"#utility.yul\":8650:8654   */\n  dup3\n    /* \"#utility.yul\":8644:8655   */\n  sload\n    /* \"#utility.yul\":8618:8656   */\n  tag_31\n  jump\t// in\ntag_152:\n    /* \"#utility.yul\":8703:8770   */\n  tag_153\n    /* \"#utility.yul\":8763:8769   */\n  dup3\n    /* \"#utility.yul\":8755:8761   */\n  dup3\n    /* \"#utility.yul\":8749:8753   */\n  dup6\n    /* \"#utility.yul\":8703:8770   */\n  tag_43\n  jump\t// in\ntag_153:\n    /* \"#utility.yul\":8797:8798   */\n  0x00\n    /* \"#utility.yul\":8821:8825   */\n  0x20\n    /* \"#utility.yul\":8808:8825   */\n  swap1\n  pop\n    /* \"#utility.yul\":8853:8855   */\n  0x1f\n    /* \"#utility.yul\":8845:8851   */\n  dup4\n    /* \"#utility.yul\":8842:8856   */\n  gt\n    /* \"#utility.yul\":8870:8871   */\n  0x01\n    /* \"#utility.yul\":8865:9483   */\n  dup2\n  eq\n  tag_155\n  jumpi\n    /* \"#utility.yul\":9527:9528   */\n  0x00\n    /* \"#utility.yul\":9544:9550   */\n  dup5\n    /* \"#utility.yul\":9541:9618   */\n  iszero\n  tag_156\n  jumpi\n    /* \"#utility.yul\":9593:9602   */\n  dup3\n    /* \"#utility.yul\":9588:9591   */\n  dup8\n    /* \"#utility.yul\":9584:9603   */\n  add\n    /* \"#utility.yul\":9578:9604   */\n  mload\n    /* \"#utility.yul\":9569:9604   */\n  swap1\n  pop\n    /* \"#utility.yul\":9541:9618   */\ntag_156:\n    /* \"#utility.yul\":9644:9711   */\n  tag_157\n    /* \"#utility.yul\":9704:9710   */\n  dup6\n    /* \"#utility.yul\":9697:9702   */\n  dup3\n    /* \"#utility.yul\":9644:9711   */\n  tag_46\n  jump\t// in\ntag_157:\n    /* \"#utility.yul\":9638:9642   */\n  dup7\n    /* \"#utility.yul\":9631:9712   */\n  sstore\n    /* \"#utility.yul\":9500:9722   */\n  pop\n    /* \"#utility.yul\":8835:9722   */\n  jump(tag_154)\n    /* \"#utility.yul\":8865:9483   */\ntag_155:\n    /* \"#utility.yul\":8917:8921   */\n  0x1f\n    /* \"#utility.yul\":8913:8922   */\n  not\n    /* \"#utility.yul\":8905:8911   */\n  dup5\n    /* \"#utility.yul\":8901:8923   */\n  and\n    /* \"#utility.yul\":8951:8988   */\n  tag_158\n    /* \"#utility.yul\":8983:8987   */\n  dup7\n    /* \"#utility.yul\":8951:8988   */\n  tag_32\n  jump\t// in\ntag_158:\n    /* \"#utility.yul\":9010:9011   */\n  0x00\n    /* \"#utility.yul\":9024:9232   */\ntag_159:\n    /* \"#utility.yul\":9038:9045   */\n  dup3\n    /* \"#utility.yul\":9035:9036   */\n  dup2\n    /* \"#utility.yul\":9032:9046   */\n  lt\n    /* \"#utility.yul\":9024:9232   */\n  iszero\n  tag_161\n  jumpi\n    /* \"#utility.yul\":9117:9126   */\n  dup5\n    /* \"#utility.yul\":9112:9115   */\n  dup10\n    /* \"#utility.yul\":9108:9127   */\n  add\n    /* \"#utility.yul\":9102:9128   */\n  mload\n    /* \"#utility.yul\":9094:9100   */\n  dup3\n    /* \"#utility.yul\":9087:9129   */\n  sstore\n    /* \"#utility.yul\":9168:9169   */\n  0x01\n    /* \"#utility.yul\":9160:9166   */\n  dup3\n    /* \"#utility.yul\":9156:9170   */\n  add\n    /* \"#utility.yul\":9146:9170   */\n  swap2\n  pop\n    /* \"#utility.yul\":9215:9217   */\n  0x20\n    /* \"#utility.yul\":9204:9213   */\n  dup6\n    /* \"#utility.yul\":9200:9218   */\n  add\n    /* \"#utility.yul\":9187:9218   */\n  swap5\n  pop\n    /* \"#utility.yul\":9061:9065   */\n  0x20\n    /* \"#utility.yul\":9058:9059   */\n  dup2\n    /* \"#utility.yul\":9054:9066   */\n  add\n    /* \"#utility.yul\":9049:9066   */\n  swap1\n  pop\n    /* \"#utility.yul\":9024:9232   */\n  jump(tag_159)\ntag_161:\n    /* \"#utility.yul\":9260:9266   */\n  dup7\n    /* \"#utility.yul\":9251:9258   */\n  dup4\n    /* \"#utility.yul\":9248:9267   */\n  lt\n    /* \"#utility.yul\":9245:9424   */\n  iszero\n  tag_162\n  jumpi\n    /* \"#utility.yul\":9318:9327   */\n  dup5\n    /* \"#utility.yul\":9313:9316   */\n  dup10\n    /* \"#utility.yul\":9309:9328   */\n  add\n    /* \"#utility.yul\":9303:9329   */\n  mload\n    /* \"#utility.yul\":9361:9409   */\n  tag_163\n    /* \"#utility.yul\":9403:9407   */\n  0x1f\n    /* \"#utility.yul\":9395:9401   */\n  dup10\n    /* \"#utility.yul\":9391:9408   */\n  and\n    /* \"#utility.yul\":9380:9389   */\n  dup3\n    /* \"#utility.yul\":9361:9409   */\n  tag_45\n  jump\t// in\ntag_163:\n    /* \"#utility.yul\":9353:9359   */\n  dup4\n    /* \"#utility.yul\":9346:9410   */\n  sstore\n    /* \"#utility.yul\":9268:9424   */\n  pop\n    /* \"#utility.yul\":9245:9424   */\ntag_162:\n    /* \"#utility.yul\":9470:9471   */\n  0x01\n    /* \"#utility.yul\":9466:9467   */\n  0x02\n    /* \"#utility.yul\":9458:9464   */\n  dup9\n    /* \"#utility.yul\":9454:9468   */\n  mul\n    /* \"#utility.yul\":9450:9472   */\n  add\n    /* \"#utility.yul\":9444:9448   */\n  dup9\n    /* \"#utility.yul\":9437:9473   */\n  sstore\n    /* \"#utility.yul\":8872:9483   */\n  pop\n  pop\n  pop\n    /* \"#utility.yul\":8835:9722   */\ntag_154:\n  pop\n    /* \"#utility.yul\":8425:9728   */\n  pop\n  pop\n  pop\n    /* \"#utility.yul\":8333:9728   */\n  pop\n  pop\n  jump\t// out\n    /* \"contracts/4_Aluguel.sol\":186:3005  contract Aluguel {... */\ntag_8:\n  dataSize(sub_0)\n  dup1\n  dataOffset(sub_0)\n  0x00\n  codecopy\n  0x00\n  return\nstop\n\nsub_0: assembly {\n        /* \"contracts/4_Aluguel.sol\":186:3005  contract Aluguel {... */\n      mstore(0x40, 0x80)\n      jumpi(tag_1, lt(calldatasize, 0x04))\n      shr(0xe0, calldataload(0x00))\n      dup1\n      0x8d2802d9\n      gt\n      tag_17\n      jumpi\n      dup1\n      0xb235612a\n      gt\n      tag_18\n      jumpi\n      dup1\n      0xb235612a\n      eq\n      tag_13\n      jumpi\n      dup1\n      0xb3fbc324\n      eq\n      tag_14\n      jumpi\n      dup1\n      0xcb44b1ea\n      eq\n      tag_15\n      jumpi\n      dup1\n      0xe862b9e1\n      eq\n      tag_16\n      jumpi\n      jump(tag_1)\n    tag_18:\n      dup1\n      0x8d2802d9\n      eq\n      tag_9\n      jumpi\n      dup1\n      0x8da5cb5b\n      eq\n      tag_10\n      jumpi\n      dup1\n      0x960daf46\n      eq\n      tag_11\n      jumpi\n      dup1\n      0xaf74c59a\n      eq\n      tag_12\n      jumpi\n      jump(tag_1)\n    tag_17:\n      dup1\n      0x409bb8ab\n      gt\n      tag_19\n      jumpi\n      dup1\n      0x409bb8ab\n      eq\n      tag_5\n      jumpi\n      dup1\n      0x5098e165\n      eq\n      tag_6\n      jumpi\n      dup1\n      0x5a661872\n      eq\n      tag_7\n      jumpi\n      dup1\n      0x68f01ee9\n      eq\n      tag_8\n      jumpi\n      jump(tag_1)\n    tag_19:\n      dup1\n      0x03deed58\n      eq\n      tag_2\n      jumpi\n      dup1\n      0x2d058150\n      eq\n      tag_3\n      jumpi\n      dup1\n      0x35f580f0\n      eq\n      tag_4\n      jumpi\n    tag_1:\n      0x00\n      dup1\n      revert\n        /* \"contracts/4_Aluguel.sol\":1075:1404  function simulaMulta( uint256 mesesRestantes, uint256 totalMesesContrato) public view returns(uint256 valorMulta) ... */\n    tag_2:\n      callvalue\n      dup1\n      iszero\n      tag_20\n      jumpi\n      0x00\n      dup1\n      revert\n    tag_20:\n      pop\n      tag_21\n      0x04\n      dup1\n      calldatasize\n      sub\n      dup2\n      add\n      swap1\n      tag_22\n      swap2\n      swap1\n      tag_23\n      jump\t// in\n    tag_22:\n      tag_24\n      jump\t// in\n    tag_21:\n      mload(0x40)\n      tag_25\n      swap2\n      swap1\n      tag_26\n      jump\t// in\n    tag_25:\n      mload(0x40)\n      dup1\n      swap2\n      sub\n      swap1\n      return\n        /* \"contracts/4_Aluguel.sol\":978:1068  function valorAtualDoAluguel() public view returns (uint256) {... */\n    tag_3:\n      callvalue\n      dup1\n      iszero\n      tag_27\n      jumpi\n      0x00\n      dup1\n      revert\n    tag_27:\n      pop\n      tag_28\n      tag_29\n      jump\t// in\n    tag_28:\n      mload(0x40)\n      tag_30\n      swap2\n      swap1\n      tag_26\n      jump\t// in\n    tag_30:\n      mload(0x40)\n      dup1\n      swap2\n      sub\n      swap1\n      return\n        /* \"contracts/4_Aluguel.sol\":1830:2147  function aplicaMulta(uint256 mesesRestantes, uint256 percentual) public     {... */\n    tag_4:\n      callvalue\n      dup1\n      iszero\n      tag_31\n      jumpi\n      0x00\n      dup1\n      revert\n    tag_31:\n      pop\n      tag_32\n      0x04\n      dup1\n      calldatasize\n      sub\n      dup2\n      add\n      swap1\n      tag_33\n      swap2\n      swap1\n      tag_23\n      jump\t// in\n    tag_33:\n      tag_34\n      jump\t// in\n    tag_32:\n      stop\n        /* \"contracts/4_Aluguel.sol\":209:232  string public locatario */\n    tag_5:\n      callvalue\n      dup1\n      iszero\n      tag_35\n      jumpi\n      0x00\n      dup1\n      revert\n    tag_35:\n      pop\n      tag_36\n      tag_37\n      jump\t// in\n    tag_36:\n      mload(0x40)\n      tag_38\n      swap2\n      swap1\n      tag_39\n      jump\t// in\n    tag_38:\n      mload(0x40)\n      dup1\n      swap2\n      sub\n      swap1\n      return\n        /* \"contracts/4_Aluguel.sol\":238:259  string public locador */\n    tag_6:\n      callvalue\n      dup1\n      iszero\n      tag_40\n      jumpi\n      0x00\n      dup1\n      revert\n    tag_40:\n      pop\n      tag_41\n      tag_42\n      jump\t// in\n    tag_41:\n      mload(0x40)\n      tag_43\n      swap2\n      swap1\n      tag_39\n      jump\t// in\n    tag_43:\n      mload(0x40)\n      dup1\n      swap2\n      sub\n      swap1\n      return\n        /* \"contracts/4_Aluguel.sol\":362:391  bool[] public statusPagamento */\n    tag_7:\n      callvalue\n      dup1\n      iszero\n      tag_44\n      jumpi\n      0x00\n      dup1\n      revert\n    tag_44:\n      pop\n      tag_45\n      0x04\n      dup1\n      calldatasize\n      sub\n      dup2\n      add\n      swap1\n      tag_46\n      swap2\n      swap1\n      tag_47\n      jump\t// in\n    tag_46:\n      tag_48\n      jump\t// in\n    tag_45:\n      mload(0x40)\n      tag_49\n      swap2\n      swap1\n      tag_50\n      jump\t// in\n    tag_49:\n      mload(0x40)\n      dup1\n      swap2\n      sub\n      swap1\n      return\n        /* \"contracts/4_Aluguel.sol\":292:356  uint256 constant public numeroMaximoLegalDeAlugueisParaMulta = 3 */\n    tag_8:\n      callvalue\n      dup1\n      iszero\n      tag_51\n      jumpi\n      0x00\n      dup1\n      revert\n    tag_51:\n      pop\n      tag_52\n      tag_53\n      jump\t// in\n    tag_52:\n      mload(0x40)\n      tag_54\n      swap2\n      swap1\n      tag_26\n      jump\t// in\n    tag_54:\n      mload(0x40)\n      dup1\n      swap2\n      sub\n      swap1\n      return\n        /* \"contracts/4_Aluguel.sol\":2162:2347  function receberPagamento() public payable {... */\n    tag_9:\n      tag_55\n      tag_56\n      jump\t// in\n    tag_55:\n      stop\n        /* \"contracts/4_Aluguel.sol\":568:588  address public owner */\n    tag_10:\n      callvalue\n      dup1\n      iszero\n      tag_57\n      jumpi\n      0x00\n      dup1\n      revert\n    tag_57:\n      pop\n      tag_58\n      tag_59\n      jump\t// in\n    tag_58:\n      mload(0x40)\n      tag_60\n      swap2\n      swap1\n      tag_61\n      jump\t// in\n    tag_60:\n      mload(0x40)\n      dup1\n      swap2\n      sub\n      swap1\n      return\n        /* \"contracts/4_Aluguel.sol\":1419:1718  function reajustaAluguel(uint256 percentualReajuste) public ... */\n    tag_11:\n      callvalue\n      dup1\n      iszero\n      tag_62\n      jumpi\n      0x00\n      dup1\n      revert\n    tag_62:\n      pop\n      tag_63\n      0x04\n      dup1\n      calldatasize\n      sub\n      dup2\n      add\n      swap1\n      tag_64\n      swap2\n      swap1\n      tag_47\n      jump\t// in\n    tag_64:\n      tag_65\n      jump\t// in\n    tag_63:\n      stop\n        /* \"contracts/4_Aluguel.sol\":527:562  address payable public contaLocador */\n    tag_12:\n      callvalue\n      dup1\n      iszero\n      tag_66\n      jumpi\n      0x00\n      dup1\n      revert\n    tag_66:\n      pop\n      tag_67\n      tag_68\n      jump\t// in\n    tag_67:\n      mload(0x40)\n      tag_69\n      swap2\n      swap1\n      tag_70\n      jump\t// in\n    tag_69:\n      mload(0x40)\n      dup1\n      swap2\n      sub\n      swap1\n      return\n        /* \"contracts/4_Aluguel.sol\":1728:1824  function aditamentoValorAluguel(uint256 valorCerto) public   {... */\n    tag_13:\n      callvalue\n      dup1\n      iszero\n      tag_71\n      jumpi\n      0x00\n      dup1\n      revert\n    tag_71:\n      pop\n      tag_72\n      0x04\n      dup1\n      calldatasize\n      sub\n      dup2\n      add\n      swap1\n      tag_73\n      swap2\n      swap1\n      tag_47\n      jump\t// in\n    tag_73:\n      tag_74\n      jump\t// in\n    tag_72:\n      stop\n        /* \"contracts/4_Aluguel.sol\":2413:2638  function retornaTexto(uint256 _parametro) public view returns (string memory) {... */\n    tag_14:\n      callvalue\n      dup1\n      iszero\n      tag_75\n      jumpi\n      0x00\n      dup1\n      revert\n    tag_75:\n      pop\n      tag_76\n      0x04\n      dup1\n      calldatasize\n      sub\n      dup2\n      add\n      swap1\n      tag_77\n      swap2\n      swap1\n      tag_47\n      jump\t// in\n    tag_77:\n      tag_78\n      jump\t// in\n    tag_76:\n      mload(0x40)\n      tag_79\n      swap2\n      swap1\n      tag_39\n      jump\t// in\n    tag_79:\n      mload(0x40)\n      dup1\n      swap2\n      sub\n      swap1\n      return\n        /* \"contracts/4_Aluguel.sol\":2772:3003  function testeCalculo(uint256 valor1, uint256 valor2) public pure returns (uint256 resultado) {... */\n    tag_15:\n      callvalue\n      dup1\n      iszero\n      tag_80\n      jumpi\n      0x00\n      dup1\n      revert\n    tag_80:\n      pop\n      tag_81\n      0x04\n      dup1\n      calldatasize\n      sub\n      dup2\n      add\n      swap1\n      tag_82\n      swap2\n      swap1\n      tag_23\n      jump\t// in\n    tag_82:\n      tag_83\n      jump\t// in\n    tag_81:\n      mload(0x40)\n      tag_84\n      swap2\n      swap1\n      tag_26\n      jump\t// in\n    tag_84:\n      mload(0x40)\n      dup1\n      swap2\n      sub\n      swap1\n      return\n        /* \"contracts/4_Aluguel.sol\":2648:2766  function quantosPagamentosJaForamFeitos() public view returns (uint256) {... */\n    tag_16:\n      callvalue\n      dup1\n      iszero\n      tag_85\n      jumpi\n      0x00\n      dup1\n      revert\n    tag_85:\n      pop\n      tag_86\n      tag_87\n      jump\t// in\n    tag_86:\n      mload(0x40)\n      tag_88\n      swap2\n      swap1\n      tag_26\n      jump\t// in\n    tag_88:\n      mload(0x40)\n      dup1\n      swap2\n      sub\n      swap1\n      return\n        /* \"contracts/4_Aluguel.sol\":1075:1404  function simulaMulta( uint256 mesesRestantes, uint256 totalMesesContrato) public view returns(uint256 valorMulta) ... */\n    tag_24:\n        /* \"contracts/4_Aluguel.sol\":1169:1187  uint256 valorMulta */\n      0x00\n        /* \"contracts/4_Aluguel.sol\":355:356  3 */\n      0x03\n        /* \"contracts/4_Aluguel.sol\":1228:1233  valor */\n      sload(0x02)\n        /* \"contracts/4_Aluguel.sol\":1228:1270  valor*numeroMaximoLegalDeAlugueisParaMulta */\n      tag_90\n      swap2\n      swap1\n      tag_91\n      jump\t// in\n    tag_90:\n        /* \"contracts/4_Aluguel.sol\":1215:1270  valorMulta = valor*numeroMaximoLegalDeAlugueisParaMulta */\n      swap1\n      pop\n        /* \"contracts/4_Aluguel.sol\":1304:1322  totalMesesContrato */\n      dup2\n        /* \"contracts/4_Aluguel.sol\":1293:1303  valorMulta */\n      dup2\n        /* \"contracts/4_Aluguel.sol\":1293:1322  valorMulta/totalMesesContrato */\n      tag_92\n      swap2\n      swap1\n      tag_93\n      jump\t// in\n    tag_92:\n        /* \"contracts/4_Aluguel.sol\":1280:1322  valorMulta = valorMulta/totalMesesContrato */\n      swap1\n      pop\n        /* \"contracts/4_Aluguel.sol\":1356:1370  mesesRestantes */\n      dup3\n        /* \"contracts/4_Aluguel.sol\":1345:1355  valorMulta */\n      dup2\n        /* \"contracts/4_Aluguel.sol\":1345:1370  valorMulta*mesesRestantes */\n      tag_94\n      swap2\n      swap1\n      tag_91\n      jump\t// in\n    tag_94:\n        /* \"contracts/4_Aluguel.sol\":1332:1370  valorMulta = valorMulta*mesesRestantes */\n      swap1\n      pop\n        /* \"contracts/4_Aluguel.sol\":1075:1404  function simulaMulta( uint256 mesesRestantes, uint256 totalMesesContrato) public view returns(uint256 valorMulta) ... */\n      swap3\n      swap2\n      pop\n      pop\n      jump\t// out\n        /* \"contracts/4_Aluguel.sol\":978:1068  function valorAtualDoAluguel() public view returns (uint256) {... */\n    tag_29:\n        /* \"contracts/4_Aluguel.sol\":1030:1037  uint256 */\n      0x00\n        /* \"contracts/4_Aluguel.sol\":1056:1061  valor */\n      sload(0x02)\n        /* \"contracts/4_Aluguel.sol\":1049:1061  return valor */\n      swap1\n      pop\n        /* \"contracts/4_Aluguel.sol\":978:1068  function valorAtualDoAluguel() public view returns (uint256) {... */\n      swap1\n      jump\t// out\n        /* \"contracts/4_Aluguel.sol\":1830:2147  function aplicaMulta(uint256 mesesRestantes, uint256 percentual) public     {... */\n    tag_34:\n        /* \"contracts/4_Aluguel.sol\":1939:1941  30 */\n      0x1e\n        /* \"contracts/4_Aluguel.sol\":1924:1938  mesesRestantes */\n      dup3\n        /* \"contracts/4_Aluguel.sol\":1924:1941  mesesRestantes<30 */\n      lt\n        /* \"contracts/4_Aluguel.sol\":1916:1974  require(mesesRestantes<30, \"Periodo de contrato invalido\") */\n      tag_97\n      jumpi\n      mload(0x40)\n      0x08c379a000000000000000000000000000000000000000000000000000000000\n      dup2\n      mstore\n      0x04\n      add\n      tag_98\n      swap1\n      tag_99\n      jump\t// in\n    tag_98:\n      mload(0x40)\n      dup1\n      swap2\n      sub\n      swap1\n      revert\n    tag_97:\n        /* \"contracts/4_Aluguel.sol\":1989:2008  uint numeroDeVoltas */\n      0x00\n        /* \"contracts/4_Aluguel.sol\":1984:2141  for (uint numeroDeVoltas=0; numeroDeVoltas < mesesRestantes; numeroDeVoltas=numeroDeVoltas+2) {... */\n    tag_100:\n        /* \"contracts/4_Aluguel.sol\":2029:2043  mesesRestantes */\n      dup3\n        /* \"contracts/4_Aluguel.sol\":2012:2026  numeroDeVoltas */\n      dup2\n        /* \"contracts/4_Aluguel.sol\":2012:2043  numeroDeVoltas < mesesRestantes */\n      lt\n        /* \"contracts/4_Aluguel.sol\":1984:2141  for (uint numeroDeVoltas=0; numeroDeVoltas < mesesRestantes; numeroDeVoltas=numeroDeVoltas+2) {... */\n      iszero\n      tag_101\n      jumpi\n        /* \"contracts/4_Aluguel.sol\":2126:2129  100 */\n      0x64\n        /* \"contracts/4_Aluguel.sol\":2114:2124  percentual */\n      dup3\n        /* \"contracts/4_Aluguel.sol\":2108:2113  valor */\n      sload(0x02)\n        /* \"contracts/4_Aluguel.sol\":2108:2124  valor*percentual */\n      tag_103\n      swap2\n      swap1\n      tag_91\n      jump\t// in\n    tag_103:\n        /* \"contracts/4_Aluguel.sol\":2107:2129  (valor*percentual)/100 */\n      tag_104\n      swap2\n      swap1\n      tag_93\n      jump\t// in\n    tag_104:\n        /* \"contracts/4_Aluguel.sol\":2100:2105  valor */\n      sload(0x02)\n        /* \"contracts/4_Aluguel.sol\":2100:2130  valor+((valor*percentual)/100) */\n      tag_105\n      swap2\n      swap1\n      tag_106\n      jump\t// in\n    tag_105:\n        /* \"contracts/4_Aluguel.sol\":2092:2097  valor */\n      0x02\n        /* \"contracts/4_Aluguel.sol\":2092:2130  valor = valor+((valor*percentual)/100) */\n      dup2\n      swap1\n      sstore\n      pop\n        /* \"contracts/4_Aluguel.sol\":2075:2076  2 */\n      0x02\n        /* \"contracts/4_Aluguel.sol\":2060:2074  numeroDeVoltas */\n      dup2\n        /* \"contracts/4_Aluguel.sol\":2060:2076  numeroDeVoltas+2 */\n      tag_107\n      swap2\n      swap1\n      tag_106\n      jump\t// in\n    tag_107:\n        /* \"contracts/4_Aluguel.sol\":2045:2076  numeroDeVoltas=numeroDeVoltas+2 */\n      swap1\n      pop\n        /* \"contracts/4_Aluguel.sol\":1984:2141  for (uint numeroDeVoltas=0; numeroDeVoltas < mesesRestantes; numeroDeVoltas=numeroDeVoltas+2) {... */\n      jump(tag_100)\n    tag_101:\n      pop\n        /* \"contracts/4_Aluguel.sol\":1830:2147  function aplicaMulta(uint256 mesesRestantes, uint256 percentual) public     {... */\n      pop\n      pop\n      jump\t// out\n        /* \"contracts/4_Aluguel.sol\":209:232  string public locatario */\n    tag_37:\n      0x00\n      dup1\n      sload\n      tag_108\n      swap1\n      tag_109\n      jump\t// in\n    tag_108:\n      dup1\n      0x1f\n      add\n      0x20\n      dup1\n      swap2\n      div\n      mul\n      0x20\n      add\n      mload(0x40)\n      swap1\n      dup2\n      add\n      0x40\n      mstore\n      dup1\n      swap3\n      swap2\n      swap1\n      dup2\n      dup2\n      mstore\n      0x20\n      add\n      dup3\n      dup1\n      sload\n      tag_110\n      swap1\n      tag_109\n      jump\t// in\n    tag_110:\n      dup1\n      iszero\n      tag_111\n      jumpi\n      dup1\n      0x1f\n      lt\n      tag_112\n      jumpi\n      0x0100\n      dup1\n      dup4\n      sload\n      div\n      mul\n      dup4\n      mstore\n      swap2\n      0x20\n      add\n      swap2\n      jump(tag_111)\n    tag_112:\n      dup3\n      add\n      swap2\n      swap1\n      0x00\n      mstore\n      keccak256(0x00, 0x20)\n      swap1\n    tag_113:\n      dup2\n      sload\n      dup2\n      mstore\n      swap1\n      0x01\n      add\n      swap1\n      0x20\n      add\n      dup1\n      dup4\n      gt\n      tag_113\n      jumpi\n      dup3\n      swap1\n      sub\n      0x1f\n      and\n      dup3\n      add\n      swap2\n    tag_111:\n      pop\n      pop\n      pop\n      pop\n      pop\n      dup2\n      jump\t// out\n        /* \"contracts/4_Aluguel.sol\":238:259  string public locador */\n    tag_42:\n      0x01\n      dup1\n      sload\n      tag_114\n      swap1\n      tag_109\n      jump\t// in\n    tag_114:\n      dup1\n      0x1f\n      add\n      0x20\n      dup1\n      swap2\n      div\n      mul\n      0x20\n      add\n      mload(0x40)\n      swap1\n      dup2\n      add\n      0x40\n      mstore\n      dup1\n      swap3\n      swap2\n      swap1\n      dup2\n      dup2\n      mstore\n      0x20\n      add\n      dup3\n      dup1\n      sload\n      tag_115\n      swap1\n      tag_109\n      jump\t// in\n    tag_115:\n      dup1\n      iszero\n      tag_116\n      jumpi\n      dup1\n      0x1f\n      lt\n      tag_117\n      jumpi\n      0x0100\n      dup1\n      dup4\n      sload\n      div\n      mul\n      dup4\n      mstore\n      swap2\n      0x20\n      add\n      swap2\n      jump(tag_116)\n    tag_117:\n      dup3\n      add\n      swap2\n      swap1\n      0x00\n      mstore\n      keccak256(0x00, 0x20)\n      swap1\n    tag_118:\n      dup2\n      sload\n      dup2\n      mstore\n      swap1\n      0x01\n      add\n      swap1\n      0x20\n      add\n      dup1\n      dup4\n      gt\n      tag_118\n      jumpi\n      dup3\n      swap1\n      sub\n      0x1f\n      and\n      dup3\n      add\n      swap2\n    tag_116:\n      pop\n      pop\n      pop\n      pop\n      pop\n      dup2\n      jump\t// out\n        /* \"contracts/4_Aluguel.sol\":362:391  bool[] public statusPagamento */\n    tag_48:\n      0x03\n      dup2\n      dup2\n      sload\n      dup2\n      lt\n      tag_119\n      jumpi\n      0x00\n      dup1\n      revert\n    tag_119:\n      swap1\n      0x00\n      mstore\n      keccak256(0x00, 0x20)\n      swap1\n      0x20\n      swap2\n      dup3\n      dup3\n      div\n      add\n      swap2\n      swap1\n      mod\n      swap2\n      pop\n      sload\n      swap1\n      0x0100\n      exp\n      swap1\n      div\n      0xff\n      and\n      dup2\n      jump\t// out\n        /* \"contracts/4_Aluguel.sol\":292:356  uint256 constant public numeroMaximoLegalDeAlugueisParaMulta = 3 */\n    tag_53:\n        /* \"contracts/4_Aluguel.sol\":355:356  3 */\n      0x03\n        /* \"contracts/4_Aluguel.sol\":292:356  uint256 constant public numeroMaximoLegalDeAlugueisParaMulta = 3 */\n      dup2\n      jump\t// out\n        /* \"contracts/4_Aluguel.sol\":2162:2347  function receberPagamento() public payable {... */\n    tag_56:\n        /* \"contracts/4_Aluguel.sol\":2234:2239  valor */\n      sload(0x02)\n        /* \"contracts/4_Aluguel.sol\":2223:2232  msg.value */\n      callvalue\n        /* \"contracts/4_Aluguel.sol\":2223:2239  msg.value>=valor */\n      lt\n      iszero\n        /* \"contracts/4_Aluguel.sol\":2215:2262  require(msg.value>=valor, \"Valor insuficiente\") */\n      tag_122\n      jumpi\n      mload(0x40)\n      0x08c379a000000000000000000000000000000000000000000000000000000000\n      dup2\n      mstore\n      0x04\n      add\n      tag_123\n      swap1\n      tag_124\n      jump\t// in\n    tag_123:\n      mload(0x40)\n      dup1\n      swap2\n      sub\n      swap1\n      revert\n    tag_122:\n        /* \"contracts/4_Aluguel.sol\":2272:2284  contaLocador */\n      0x04\n      0x00\n      swap1\n      sload\n      swap1\n      0x0100\n      exp\n      swap1\n      div\n      0xffffffffffffffffffffffffffffffffffffffff\n      and\n        /* \"contracts/4_Aluguel.sol\":2272:2293  contaLocador.transfer */\n      0xffffffffffffffffffffffffffffffffffffffff\n      and\n        /* \"contracts/4_Aluguel.sol\":2272:2304  contaLocador.transfer(msg.value) */\n      0x08fc\n        /* \"contracts/4_Aluguel.sol\":2294:2303  msg.value */\n      callvalue\n        /* \"contracts/4_Aluguel.sol\":2272:2304  contaLocador.transfer(msg.value) */\n      swap1\n      dup2\n      iszero\n      mul\n      swap1\n      mload(0x40)\n      0x00\n      mload(0x40)\n      dup1\n      dup4\n      sub\n      dup2\n      dup6\n      dup9\n      dup9\n      call\n      swap4\n      pop\n      pop\n      pop\n      pop\n      iszero\n      dup1\n      iszero\n      tag_126\n      jumpi\n      returndatasize\n      0x00\n      dup1\n      returndatacopy\n      revert(0x00, returndatasize)\n    tag_126:\n      pop\n        /* \"contracts/4_Aluguel.sol\":2314:2329  statusPagamento */\n      0x03\n        /* \"contracts/4_Aluguel.sol\":2335:2339  true */\n      0x01\n        /* \"contracts/4_Aluguel.sol\":2314:2340  statusPagamento.push(true) */\n      swap1\n      dup1\n      0x01\n      dup2\n      sload\n      add\n      dup1\n      dup3\n      sstore\n      dup1\n      swap2\n      pop\n      pop\n      0x01\n      swap1\n      sub\n      swap1\n      0x00\n      mstore\n      keccak256(0x00, 0x20)\n      swap1\n      0x20\n      swap2\n      dup3\n      dup3\n      div\n      add\n      swap2\n      swap1\n      mod\n      swap1\n      swap2\n      swap1\n      swap2\n      swap1\n      swap2\n      0x0100\n      exp\n      dup2\n      sload\n      dup2\n      0xff\n      mul\n      not\n      and\n      swap1\n      dup4\n      iszero\n      iszero\n      mul\n      or\n      swap1\n      sstore\n      pop\n        /* \"contracts/4_Aluguel.sol\":2162:2347  function receberPagamento() public payable {... */\n      jump\t// out\n        /* \"contracts/4_Aluguel.sol\":568:588  address public owner */\n    tag_59:\n      0x05\n      0x00\n      swap1\n      sload\n      swap1\n      0x0100\n      exp\n      swap1\n      div\n      0xffffffffffffffffffffffffffffffffffffffff\n      and\n      dup2\n      jump\t// out\n        /* \"contracts/4_Aluguel.sol\":1419:1718  function reajustaAluguel(uint256 percentualReajuste) public ... */\n    tag_65:\n        /* \"contracts/4_Aluguel.sol\":1519:1521  20 */\n      0x14\n        /* \"contracts/4_Aluguel.sol\":1498:1516  percentualReajuste */\n      dup2\n        /* \"contracts/4_Aluguel.sol\":1498:1521  percentualReajuste > 20 */\n      gt\n        /* \"contracts/4_Aluguel.sol\":1494:1571  if (percentualReajuste > 20) {... */\n      iszero\n      tag_129\n      jumpi\n        /* \"contracts/4_Aluguel.sol\":1558:1560  20 */\n      0x14\n        /* \"contracts/4_Aluguel.sol\":1537:1560  percentualReajuste = 20 */\n      swap1\n      pop\n        /* \"contracts/4_Aluguel.sol\":1494:1571  if (percentualReajuste > 20) {... */\n    tag_129:\n        /* \"contracts/4_Aluguel.sol\":1580:1604  uint256 valorDoAcrescimo */\n      0x00\n        /* \"contracts/4_Aluguel.sol\":1665:1668  100 */\n      0x64\n        /* \"contracts/4_Aluguel.sol\":1645:1663  percentualReajuste */\n      dup3\n        /* \"contracts/4_Aluguel.sol\":1639:1644  valor */\n      sload(0x02)\n        /* \"contracts/4_Aluguel.sol\":1639:1663  valor*percentualReajuste */\n      tag_130\n      swap2\n      swap1\n      tag_91\n      jump\t// in\n    tag_130:\n        /* \"contracts/4_Aluguel.sol\":1638:1668  (valor*percentualReajuste)/100 */\n      tag_131\n      swap2\n      swap1\n      tag_93\n      jump\t// in\n    tag_131:\n        /* \"contracts/4_Aluguel.sol\":1618:1669  valorDoAcrescimo = ((valor*percentualReajuste)/100) */\n      swap1\n      pop\n        /* \"contracts/4_Aluguel.sol\":1695:1711  valorDoAcrescimo */\n      dup1\n        /* \"contracts/4_Aluguel.sol\":1687:1692  valor */\n      sload(0x02)\n        /* \"contracts/4_Aluguel.sol\":1687:1711  valor + valorDoAcrescimo */\n      tag_132\n      swap2\n      swap1\n      tag_106\n      jump\t// in\n    tag_132:\n        /* \"contracts/4_Aluguel.sol\":1679:1684  valor */\n      0x02\n        /* \"contracts/4_Aluguel.sol\":1679:1711  valor = valor + valorDoAcrescimo */\n      dup2\n      swap1\n      sstore\n      pop\n        /* \"contracts/4_Aluguel.sol\":1484:1718  {... */\n      pop\n        /* \"contracts/4_Aluguel.sol\":1419:1718  function reajustaAluguel(uint256 percentualReajuste) public ... */\n      pop\n      jump\t// out\n        /* \"contracts/4_Aluguel.sol\":527:562  address payable public contaLocador */\n    tag_68:\n      0x04\n      0x00\n      swap1\n      sload\n      swap1\n      0x0100\n      exp\n      swap1\n      div\n      0xffffffffffffffffffffffffffffffffffffffff\n      and\n      dup2\n      jump\t// out\n        /* \"contracts/4_Aluguel.sol\":1728:1824  function aditamentoValorAluguel(uint256 valorCerto) public   {... */\n    tag_74:\n        /* \"contracts/4_Aluguel.sol\":1807:1817  valorCerto */\n      dup1\n        /* \"contracts/4_Aluguel.sol\":1799:1804  valor */\n      0x02\n        /* \"contracts/4_Aluguel.sol\":1799:1817  valor = valorCerto */\n      dup2\n      swap1\n      sstore\n      pop\n        /* \"contracts/4_Aluguel.sol\":1728:1824  function aditamentoValorAluguel(uint256 valorCerto) public   {... */\n      pop\n      jump\t// out\n        /* \"contracts/4_Aluguel.sol\":2413:2638  function retornaTexto(uint256 _parametro) public view returns (string memory) {... */\n    tag_78:\n        /* \"contracts/4_Aluguel.sol\":2476:2489  string memory */\n      0x60\n        /* \"contracts/4_Aluguel.sol\":2528:2532  5000 */\n      0x1388\n        /* \"contracts/4_Aluguel.sol\":2514:2524  _parametro */\n      dup3\n        /* \"contracts/4_Aluguel.sol\":2506:2511  valor */\n      sload(0x02)\n        /* \"contracts/4_Aluguel.sol\":2506:2524  valor * _parametro */\n      tag_135\n      swap2\n      swap1\n      tag_91\n      jump\t// in\n    tag_135:\n        /* \"contracts/4_Aluguel.sol\":2505:2532  (valor * _parametro) > 5000 */\n      gt\n        /* \"contracts/4_Aluguel.sol\":2501:2632  if ((valor * _parametro) > 5000) {... */\n      iszero\n      tag_136\n      jumpi\n        /* \"contracts/4_Aluguel.sol\":2548:2567  return \"Muito caro\" */\n      mload(0x40)\n      dup1\n      0x40\n      add\n      0x40\n      mstore\n      dup1\n      0x0a\n      dup2\n      mstore\n      0x20\n      add\n      0x4d7569746f206361726f00000000000000000000000000000000000000000000\n      dup2\n      mstore\n      pop\n      swap1\n      pop\n      jump(tag_134)\n        /* \"contracts/4_Aluguel.sol\":2501:2632  if ((valor * _parametro) > 5000) {... */\n    tag_136:\n        /* \"contracts/4_Aluguel.sol\":2598:2621  return \"Preco razoavel\" */\n      mload(0x40)\n      dup1\n      0x40\n      add\n      0x40\n      mstore\n      dup1\n      0x0e\n      dup2\n      mstore\n      0x20\n      add\n      0x507265636f2072617a6f6176656c000000000000000000000000000000000000\n      dup2\n      mstore\n      pop\n      swap1\n      pop\n        /* \"contracts/4_Aluguel.sol\":2413:2638  function retornaTexto(uint256 _parametro) public view returns (string memory) {... */\n    tag_134:\n      swap2\n      swap1\n      pop\n      jump\t// out\n        /* \"contracts/4_Aluguel.sol\":2772:3003  function testeCalculo(uint256 valor1, uint256 valor2) public pure returns (uint256 resultado) {... */\n    tag_83:\n        /* \"contracts/4_Aluguel.sol\":2847:2864  uint256 resultado */\n      0x00\n        /* \"contracts/4_Aluguel.sol\":2881:2890  uint104 i */\n      dup1\n        /* \"contracts/4_Aluguel.sol\":2876:2971  for (uint104 i; i < 100000; i++) ... */\n    tag_139:\n        /* \"contracts/4_Aluguel.sol\":2896:2902  100000 */\n      0x0186a0\n        /* \"contracts/4_Aluguel.sol\":2892:2893  i */\n      dup2\n        /* \"contracts/4_Aluguel.sol\":2892:2902  i < 100000 */\n      0xffffffffffffffffffffffffff\n      and\n      lt\n        /* \"contracts/4_Aluguel.sol\":2876:2971  for (uint104 i; i < 100000; i++) ... */\n      iszero\n      tag_140\n      jumpi\n        /* \"contracts/4_Aluguel.sol\":2954:2960  valor2 */\n      dup3\n        /* \"contracts/4_Aluguel.sol\":2945:2951  valor1 */\n      dup5\n        /* \"contracts/4_Aluguel.sol\":2945:2960  valor1 / valor2 */\n      tag_142\n      swap2\n      swap1\n      tag_93\n      jump\t// in\n    tag_142:\n        /* \"contracts/4_Aluguel.sol\":2932:2960  resultado += valor1 / valor2 */\n      dup3\n      tag_143\n      swap2\n      swap1\n      tag_106\n      jump\t// in\n    tag_143:\n      swap2\n      pop\n        /* \"contracts/4_Aluguel.sol\":2904:2907  i++ */\n      dup1\n      dup1\n      tag_144\n      swap1\n      tag_145\n      jump\t// in\n    tag_144:\n      swap2\n      pop\n      pop\n        /* \"contracts/4_Aluguel.sol\":2876:2971  for (uint104 i; i < 100000; i++) ... */\n      jump(tag_139)\n    tag_140:\n      pop\n        /* \"contracts/4_Aluguel.sol\":2772:3003  function testeCalculo(uint256 valor1, uint256 valor2) public pure returns (uint256 resultado) {... */\n      swap3\n      swap2\n      pop\n      pop\n      jump\t// out\n        /* \"contracts/4_Aluguel.sol\":2648:2766  function quantosPagamentosJaForamFeitos() public view returns (uint256) {... */\n    tag_87:\n        /* \"contracts/4_Aluguel.sol\":2711:2718  uint256 */\n      0x00\n        /* \"contracts/4_Aluguel.sol\":2737:2752  statusPagamento */\n      0x03\n        /* \"contracts/4_Aluguel.sol\":2737:2759  statusPagamento.length */\n      dup1\n      sload\n      swap1\n      pop\n        /* \"contracts/4_Aluguel.sol\":2730:2759  return statusPagamento.length */\n      swap1\n      pop\n        /* \"contracts/4_Aluguel.sol\":2648:2766  function quantosPagamentosJaForamFeitos() public view returns (uint256) {... */\n      swap1\n      jump\t// out\n        /* \"#utility.yul\":88:205   */\n    tag_148:\n        /* \"#utility.yul\":197:198   */\n      0x00\n        /* \"#utility.yul\":194:195   */\n      dup1\n        /* \"#utility.yul\":187:199   */\n      revert\n        /* \"#utility.yul\":334:411   */\n    tag_150:\n        /* \"#utility.yul\":371:378   */\n      0x00\n        /* \"#utility.yul\":400:405   */\n      dup2\n        /* \"#utility.yul\":389:405   */\n      swap1\n      pop\n        /* \"#utility.yul\":334:411   */\n      swap2\n      swap1\n      pop\n      jump\t// out\n        /* \"#utility.yul\":417:539   */\n    tag_151:\n        /* \"#utility.yul\":490:514   */\n      tag_180\n        /* \"#utility.yul\":508:513   */\n      dup2\n        /* \"#utility.yul\":490:514   */\n      tag_150\n      jump\t// in\n    tag_180:\n        /* \"#utility.yul\":483:488   */\n      dup2\n        /* \"#utility.yul\":480:515   */\n      eq\n        /* \"#utility.yul\":470:533   */\n      tag_181\n      jumpi\n        /* \"#utility.yul\":529:530   */\n      0x00\n        /* \"#utility.yul\":526:527   */\n      dup1\n        /* \"#utility.yul\":519:531   */\n      revert\n        /* \"#utility.yul\":470:533   */\n    tag_181:\n        /* \"#utility.yul\":417:539   */\n      pop\n      jump\t// out\n        /* \"#utility.yul\":545:684   */\n    tag_152:\n        /* \"#utility.yul\":591:596   */\n      0x00\n        /* \"#utility.yul\":629:635   */\n      dup2\n        /* \"#utility.yul\":616:636   */\n      calldataload\n        /* \"#utility.yul\":607:636   */\n      swap1\n      pop\n        /* \"#utility.yul\":645:678   */\n      tag_183\n        /* \"#utility.yul\":672:677   */\n      dup2\n        /* \"#utility.yul\":645:678   */\n      tag_151\n      jump\t// in\n    tag_183:\n        /* \"#utility.yul\":545:684   */\n      swap3\n      swap2\n      pop\n      pop\n      jump\t// out\n        /* \"#utility.yul\":690:1164   */\n    tag_23:\n        /* \"#utility.yul\":758:764   */\n      0x00\n        /* \"#utility.yul\":766:772   */\n      dup1\n        /* \"#utility.yul\":815:817   */\n      0x40\n        /* \"#utility.yul\":803:812   */\n      dup4\n        /* \"#utility.yul\":794:801   */\n      dup6\n        /* \"#utility.yul\":790:813   */\n      sub\n        /* \"#utility.yul\":786:818   */\n      slt\n        /* \"#utility.yul\":783:902   */\n      iszero\n      tag_185\n      jumpi\n        /* \"#utility.yul\":821:900   */\n      tag_186\n      tag_148\n      jump\t// in\n    tag_186:\n        /* \"#utility.yul\":783:902   */\n    tag_185:\n        /* \"#utility.yul\":941:942   */\n      0x00\n        /* \"#utility.yul\":966:1019   */\n      tag_187\n        /* \"#utility.yul\":1011:1018   */\n      dup6\n        /* \"#utility.yul\":1002:1008   */\n      dup3\n        /* \"#utility.yul\":991:1000   */\n      dup7\n        /* \"#utility.yul\":987:1009   */\n      add\n        /* \"#utility.yul\":966:1019   */\n      tag_152\n      jump\t// in\n    tag_187:\n        /* \"#utility.yul\":956:1019   */\n      swap3\n      pop\n        /* \"#utility.yul\":912:1029   */\n      pop\n        /* \"#utility.yul\":1068:1070   */\n      0x20\n        /* \"#utility.yul\":1094:1147   */\n      tag_188\n        /* \"#utility.yul\":1139:1146   */\n      dup6\n        /* \"#utility.yul\":1130:1136   */\n      dup3\n        /* \"#utility.yul\":1119:1128   */\n      dup7\n        /* \"#utility.yul\":1115:1137   */\n      add\n        /* \"#utility.yul\":1094:1147   */\n      tag_152\n      jump\t// in\n    tag_188:\n        /* \"#utility.yul\":1084:1147   */\n      swap2\n      pop\n        /* \"#utility.yul\":1039:1157   */\n      pop\n        /* \"#utility.yul\":690:1164   */\n      swap3\n      pop\n      swap3\n      swap1\n      pop\n      jump\t// out\n        /* \"#utility.yul\":1170:1288   */\n    tag_153:\n        /* \"#utility.yul\":1257:1281   */\n      tag_190\n        /* \"#utility.yul\":1275:1280   */\n      dup2\n        /* \"#utility.yul\":1257:1281   */\n      tag_150\n      jump\t// in\n    tag_190:\n        /* \"#utility.yul\":1252:1255   */\n      dup3\n        /* \"#utility.yul\":1245:1282   */\n      mstore\n        /* \"#utility.yul\":1170:1288   */\n      pop\n      pop\n      jump\t// out\n        /* \"#utility.yul\":1294:1516   */\n    tag_26:\n        /* \"#utility.yul\":1387:1391   */\n      0x00\n        /* \"#utility.yul\":1425:1427   */\n      0x20\n        /* \"#utility.yul\":1414:1423   */\n      dup3\n        /* \"#utility.yul\":1410:1428   */\n      add\n        /* \"#utility.yul\":1402:1428   */\n      swap1\n      pop\n        /* \"#utility.yul\":1438:1509   */\n      tag_192\n        /* \"#utility.yul\":1506:1507   */\n      0x00\n        /* \"#utility.yul\":1495:1504   */\n      dup4\n        /* \"#utility.yul\":1491:1508   */\n      add\n        /* \"#utility.yul\":1482:1488   */\n      dup5\n        /* \"#utility.yul\":1438:1509   */\n      tag_153\n      jump\t// in\n    tag_192:\n        /* \"#utility.yul\":1294:1516   */\n      swap3\n      swap2\n      pop\n      pop\n      jump\t// out\n        /* \"#utility.yul\":1522:1621   */\n    tag_154:\n        /* \"#utility.yul\":1574:1580   */\n      0x00\n        /* \"#utility.yul\":1608:1613   */\n      dup2\n        /* \"#utility.yul\":1602:1614   */\n      mload\n        /* \"#utility.yul\":1592:1614   */\n      swap1\n      pop\n        /* \"#utility.yul\":1522:1621   */\n      swap2\n      swap1\n      pop\n      jump\t// out\n        /* \"#utility.yul\":1627:1796   */\n    tag_155:\n        /* \"#utility.yul\":1711:1722   */\n      0x00\n        /* \"#utility.yul\":1745:1751   */\n      dup3\n        /* \"#utility.yul\":1740:1743   */\n      dup3\n        /* \"#utility.yul\":1733:1752   */\n      mstore\n        /* \"#utility.yul\":1785:1789   */\n      0x20\n        /* \"#utility.yul\":1780:1783   */\n      dup3\n        /* \"#utility.yul\":1776:1790   */\n      add\n        /* \"#utility.yul\":1761:1790   */\n      swap1\n      pop\n        /* \"#utility.yul\":1627:1796   */\n      swap3\n      swap2\n      pop\n      pop\n      jump\t// out\n        /* \"#utility.yul\":1802:2048   */\n    tag_156:\n        /* \"#utility.yul\":1883:1884   */\n      0x00\n        /* \"#utility.yul\":1893:2006   */\n    tag_196:\n        /* \"#utility.yul\":1907:1913   */\n      dup4\n        /* \"#utility.yul\":1904:1905   */\n      dup2\n        /* \"#utility.yul\":1901:1914   */\n      lt\n        /* \"#utility.yul\":1893:2006   */\n      iszero\n      tag_198\n      jumpi\n        /* \"#utility.yul\":1992:1993   */\n      dup1\n        /* \"#utility.yul\":1987:1990   */\n      dup3\n        /* \"#utility.yul\":1983:1994   */\n      add\n        /* \"#utility.yul\":1977:1995   */\n      mload\n        /* \"#utility.yul\":1973:1974   */\n      dup2\n        /* \"#utility.yul\":1968:1971   */\n      dup5\n        /* \"#utility.yul\":1964:1975   */\n      add\n        /* \"#utility.yul\":1957:1996   */\n      mstore\n        /* \"#utility.yul\":1929:1931   */\n      0x20\n        /* \"#utility.yul\":1926:1927   */\n      dup2\n        /* \"#utility.yul\":1922:1932   */\n      add\n        /* \"#utility.yul\":1917:1932   */\n      swap1\n      pop\n        /* \"#utility.yul\":1893:2006   */\n      jump(tag_196)\n    tag_198:\n        /* \"#utility.yul\":2040:2041   */\n      0x00\n        /* \"#utility.yul\":2031:2037   */\n      dup5\n        /* \"#utility.yul\":2026:2029   */\n      dup5\n        /* \"#utility.yul\":2022:2038   */\n      add\n        /* \"#utility.yul\":2015:2042   */\n      mstore\n        /* \"#utility.yul\":1864:2048   */\n      pop\n        /* \"#utility.yul\":1802:2048   */\n      pop\n      pop\n      pop\n      jump\t// out\n        /* \"#utility.yul\":2054:2156   */\n    tag_157:\n        /* \"#utility.yul\":2095:2101   */\n      0x00\n        /* \"#utility.yul\":2146:2148   */\n      0x1f\n        /* \"#utility.yul\":2142:2149   */\n      not\n        /* \"#utility.yul\":2137:2139   */\n      0x1f\n        /* \"#utility.yul\":2130:2135   */\n      dup4\n        /* \"#utility.yul\":2126:2140   */\n      add\n        /* \"#utility.yul\":2122:2150   */\n      and\n        /* \"#utility.yul\":2112:2150   */\n      swap1\n      pop\n        /* \"#utility.yul\":2054:2156   */\n      swap2\n      swap1\n      pop\n      jump\t// out\n        /* \"#utility.yul\":2162:2539   */\n    tag_158:\n        /* \"#utility.yul\":2250:2253   */\n      0x00\n        /* \"#utility.yul\":2278:2317   */\n      tag_201\n        /* \"#utility.yul\":2311:2316   */\n      dup3\n        /* \"#utility.yul\":2278:2317   */\n      tag_154\n      jump\t// in\n    tag_201:\n        /* \"#utility.yul\":2333:2404   */\n      tag_202\n        /* \"#utility.yul\":2397:2403   */\n      dup2\n        /* \"#utility.yul\":2392:2395   */\n      dup6\n        /* \"#utility.yul\":2333:2404   */\n      tag_155\n      jump\t// in\n    tag_202:\n        /* \"#utility.yul\":2326:2404   */\n      swap4\n      pop\n        /* \"#utility.yul\":2413:2478   */\n      tag_203\n        /* \"#utility.yul\":2471:2477   */\n      dup2\n        /* \"#utility.yul\":2466:2469   */\n      dup6\n        /* \"#utility.yul\":2459:2463   */\n      0x20\n        /* \"#utility.yul\":2452:2457   */\n      dup7\n        /* \"#utility.yul\":2448:2464   */\n      add\n        /* \"#utility.yul\":2413:2478   */\n      tag_156\n      jump\t// in\n    tag_203:\n        /* \"#utility.yul\":2503:2532   */\n      tag_204\n        /* \"#utility.yul\":2525:2531   */\n      dup2\n        /* \"#utility.yul\":2503:2532   */\n      tag_157\n      jump\t// in\n    tag_204:\n        /* \"#utility.yul\":2498:2501   */\n      dup5\n        /* \"#utility.yul\":2494:2533   */\n      add\n        /* \"#utility.yul\":2487:2533   */\n      swap2\n      pop\n        /* \"#utility.yul\":2254:2539   */\n      pop\n        /* \"#utility.yul\":2162:2539   */\n      swap3\n      swap2\n      pop\n      pop\n      jump\t// out\n        /* \"#utility.yul\":2545:2858   */\n    tag_39:\n        /* \"#utility.yul\":2658:2662   */\n      0x00\n        /* \"#utility.yul\":2696:2698   */\n      0x20\n        /* \"#utility.yul\":2685:2694   */\n      dup3\n        /* \"#utility.yul\":2681:2699   */\n      add\n        /* \"#utility.yul\":2673:2699   */\n      swap1\n      pop\n        /* \"#utility.yul\":2745:2754   */\n      dup2\n        /* \"#utility.yul\":2739:2743   */\n      dup2\n        /* \"#utility.yul\":2735:2755   */\n      sub\n        /* \"#utility.yul\":2731:2732   */\n      0x00\n        /* \"#utility.yul\":2720:2729   */\n      dup4\n        /* \"#utility.yul\":2716:2733   */\n      add\n        /* \"#utility.yul\":2709:2756   */\n      mstore\n        /* \"#utility.yul\":2773:2851   */\n      tag_206\n        /* \"#utility.yul\":2846:2850   */\n      dup2\n        /* \"#utility.yul\":2837:2843   */\n      dup5\n        /* \"#utility.yul\":2773:2851   */\n      tag_158\n      jump\t// in\n    tag_206:\n        /* \"#utility.yul\":2765:2851   */\n      swap1\n      pop\n        /* \"#utility.yul\":2545:2858   */\n      swap3\n      swap2\n      pop\n      pop\n      jump\t// out\n        /* \"#utility.yul\":2864:3193   */\n    tag_47:\n        /* \"#utility.yul\":2923:2929   */\n      0x00\n        /* \"#utility.yul\":2972:2974   */\n      0x20\n        /* \"#utility.yul\":2960:2969   */\n      dup3\n        /* \"#utility.yul\":2951:2958   */\n      dup5\n        /* \"#utility.yul\":2947:2970   */\n      sub\n        /* \"#utility.yul\":2943:2975   */\n      slt\n        /* \"#utility.yul\":2940:3059   */\n      iszero\n      tag_208\n      jumpi\n        /* \"#utility.yul\":2978:3057   */\n      tag_209\n      tag_148\n      jump\t// in\n    tag_209:\n        /* \"#utility.yul\":2940:3059   */\n    tag_208:\n        /* \"#utility.yul\":3098:3099   */\n      0x00\n        /* \"#utility.yul\":3123:3176   */\n      tag_210\n        /* \"#utility.yul\":3168:3175   */\n      dup5\n        /* \"#utility.yul\":3159:3165   */\n      dup3\n        /* \"#utility.yul\":3148:3157   */\n      dup6\n        /* \"#utility.yul\":3144:3166   */\n      add\n        /* \"#utility.yul\":3123:3176   */\n      tag_152\n      jump\t// in\n    tag_210:\n        /* \"#utility.yul\":3113:3176   */\n      swap2\n      pop\n        /* \"#utility.yul\":3069:3186   */\n      pop\n        /* \"#utility.yul\":2864:3193   */\n      swap3\n      swap2\n      pop\n      pop\n      jump\t// out\n        /* \"#utility.yul\":3199:3289   */\n    tag_159:\n        /* \"#utility.yul\":3233:3240   */\n      0x00\n        /* \"#utility.yul\":3276:3281   */\n      dup2\n        /* \"#utility.yul\":3269:3282   */\n      iszero\n        /* \"#utility.yul\":3262:3283   */\n      iszero\n        /* \"#utility.yul\":3251:3283   */\n      swap1\n      pop\n        /* \"#utility.yul\":3199:3289   */\n      swap2\n      swap1\n      pop\n      jump\t// out\n        /* \"#utility.yul\":3295:3404   */\n    tag_160:\n        /* \"#utility.yul\":3376:3397   */\n      tag_213\n        /* \"#utility.yul\":3391:3396   */\n      dup2\n        /* \"#utility.yul\":3376:3397   */\n      tag_159\n      jump\t// in\n    tag_213:\n        /* \"#utility.yul\":3371:3374   */\n      dup3\n        /* \"#utility.yul\":3364:3398   */\n      mstore\n        /* \"#utility.yul\":3295:3404   */\n      pop\n      pop\n      jump\t// out\n        /* \"#utility.yul\":3410:3620   */\n    tag_50:\n        /* \"#utility.yul\":3497:3501   */\n      0x00\n        /* \"#utility.yul\":3535:3537   */\n      0x20\n        /* \"#utility.yul\":3524:3533   */\n      dup3\n        /* \"#utility.yul\":3520:3538   */\n      add\n        /* \"#utility.yul\":3512:3538   */\n      swap1\n      pop\n        /* \"#utility.yul\":3548:3613   */\n      tag_215\n        /* \"#utility.yul\":3610:3611   */\n      0x00\n        /* \"#utility.yul\":3599:3608   */\n      dup4\n        /* \"#utility.yul\":3595:3612   */\n      add\n        /* \"#utility.yul\":3586:3592   */\n      dup5\n        /* \"#utility.yul\":3548:3613   */\n      tag_160\n      jump\t// in\n    tag_215:\n        /* \"#utility.yul\":3410:3620   */\n      swap3\n      swap2\n      pop\n      pop\n      jump\t// out\n        /* \"#utility.yul\":3626:3752   */\n    tag_161:\n        /* \"#utility.yul\":3663:3670   */\n      0x00\n        /* \"#utility.yul\":3703:3745   */\n      0xffffffffffffffffffffffffffffffffffffffff\n        /* \"#utility.yul\":3696:3701   */\n      dup3\n        /* \"#utility.yul\":3692:3746   */\n      and\n        /* \"#utility.yul\":3681:3746   */\n      swap1\n      pop\n        /* \"#utility.yul\":3626:3752   */\n      swap2\n      swap1\n      pop\n      jump\t// out\n        /* \"#utility.yul\":3758:3854   */\n    tag_162:\n        /* \"#utility.yul\":3795:3802   */\n      0x00\n        /* \"#utility.yul\":3824:3848   */\n      tag_218\n        /* \"#utility.yul\":3842:3847   */\n      dup3\n        /* \"#utility.yul\":3824:3848   */\n      tag_161\n      jump\t// in\n    tag_218:\n        /* \"#utility.yul\":3813:3848   */\n      swap1\n      pop\n        /* \"#utility.yul\":3758:3854   */\n      swap2\n      swap1\n      pop\n      jump\t// out\n        /* \"#utility.yul\":3860:3978   */\n    tag_163:\n        /* \"#utility.yul\":3947:3971   */\n      tag_220\n        /* \"#utility.yul\":3965:3970   */\n      dup2\n        /* \"#utility.yul\":3947:3971   */\n      tag_162\n      jump\t// in\n    tag_220:\n        /* \"#utility.yul\":3942:3945   */\n      dup3\n        /* \"#utility.yul\":3935:3972   */\n      mstore\n        /* \"#utility.yul\":3860:3978   */\n      pop\n      pop\n      jump\t// out\n        /* \"#utility.yul\":3984:4206   */\n    tag_61:\n        /* \"#utility.yul\":4077:4081   */\n      0x00\n        /* \"#utility.yul\":4115:4117   */\n      0x20\n        /* \"#utility.yul\":4104:4113   */\n      dup3\n        /* \"#utility.yul\":4100:4118   */\n      add\n        /* \"#utility.yul\":4092:4118   */\n      swap1\n      pop\n        /* \"#utility.yul\":4128:4199   */\n      tag_222\n        /* \"#utility.yul\":4196:4197   */\n      0x00\n        /* \"#utility.yul\":4185:4194   */\n      dup4\n        /* \"#utility.yul\":4181:4198   */\n      add\n        /* \"#utility.yul\":4172:4178   */\n      dup5\n        /* \"#utility.yul\":4128:4199   */\n      tag_163\n      jump\t// in\n    tag_222:\n        /* \"#utility.yul\":3984:4206   */\n      swap3\n      swap2\n      pop\n      pop\n      jump\t// out\n        /* \"#utility.yul\":4212:4316   */\n    tag_164:\n        /* \"#utility.yul\":4257:4264   */\n      0x00\n        /* \"#utility.yul\":4286:4310   */\n      tag_224\n        /* \"#utility.yul\":4304:4309   */\n      dup3\n        /* \"#utility.yul\":4286:4310   */\n      tag_161\n      jump\t// in\n    tag_224:\n        /* \"#utility.yul\":4275:4310   */\n      swap1\n      pop\n        /* \"#utility.yul\":4212:4316   */\n      swap2\n      swap1\n      pop\n      jump\t// out\n        /* \"#utility.yul\":4322:4464   */\n    tag_165:\n        /* \"#utility.yul\":4425:4457   */\n      tag_226\n        /* \"#utility.yul\":4451:4456   */\n      dup2\n        /* \"#utility.yul\":4425:4457   */\n      tag_164\n      jump\t// in\n    tag_226:\n        /* \"#utility.yul\":4420:4423   */\n      dup3\n        /* \"#utility.yul\":4413:4458   */\n      mstore\n        /* \"#utility.yul\":4322:4464   */\n      pop\n      pop\n      jump\t// out\n        /* \"#utility.yul\":4470:4724   */\n    tag_70:\n        /* \"#utility.yul\":4579:4583   */\n      0x00\n        /* \"#utility.yul\":4617:4619   */\n      0x20\n        /* \"#utility.yul\":4606:4615   */\n      dup3\n        /* \"#utility.yul\":4602:4620   */\n      add\n        /* \"#utility.yul\":4594:4620   */\n      swap1\n      pop\n        /* \"#utility.yul\":4630:4717   */\n      tag_228\n        /* \"#utility.yul\":4714:4715   */\n      0x00\n        /* \"#utility.yul\":4703:4712   */\n      dup4\n        /* \"#utility.yul\":4699:4716   */\n      add\n        /* \"#utility.yul\":4690:4696   */\n      dup5\n        /* \"#utility.yul\":4630:4717   */\n      tag_165\n      jump\t// in\n    tag_228:\n        /* \"#utility.yul\":4470:4724   */\n      swap3\n      swap2\n      pop\n      pop\n      jump\t// out\n        /* \"#utility.yul\":4730:4910   */\n    tag_166:\n        /* \"#utility.yul\":4778:4855   */\n      0x4e487b7100000000000000000000000000000000000000000000000000000000\n        /* \"#utility.yul\":4775:4776   */\n      0x00\n        /* \"#utility.yul\":4768:4856   */\n      mstore\n        /* \"#utility.yul\":4875:4879   */\n      0x11\n        /* \"#utility.yul\":4872:4873   */\n      0x04\n        /* \"#utility.yul\":4865:4880   */\n      mstore\n        /* \"#utility.yul\":4899:4903   */\n      0x24\n        /* \"#utility.yul\":4896:4897   */\n      0x00\n        /* \"#utility.yul\":4889:4904   */\n      revert\n        /* \"#utility.yul\":4916:5326   */\n    tag_91:\n        /* \"#utility.yul\":4956:4963   */\n      0x00\n        /* \"#utility.yul\":4979:4999   */\n      tag_231\n        /* \"#utility.yul\":4997:4998   */\n      dup3\n        /* \"#utility.yul\":4979:4999   */\n      tag_150\n      jump\t// in\n    tag_231:\n        /* \"#utility.yul\":4974:4999   */\n      swap2\n      pop\n        /* \"#utility.yul\":5013:5033   */\n      tag_232\n        /* \"#utility.yul\":5031:5032   */\n      dup4\n        /* \"#utility.yul\":5013:5033   */\n      tag_150\n      jump\t// in\n    tag_232:\n        /* \"#utility.yul\":5008:5033   */\n      swap3\n      pop\n        /* \"#utility.yul\":5068:5069   */\n      dup3\n        /* \"#utility.yul\":5065:5066   */\n      dup3\n        /* \"#utility.yul\":5061:5070   */\n      mul\n        /* \"#utility.yul\":5090:5120   */\n      tag_233\n        /* \"#utility.yul\":5108:5119   */\n      dup2\n        /* \"#utility.yul\":5090:5120   */\n      tag_150\n      jump\t// in\n    tag_233:\n        /* \"#utility.yul\":5079:5120   */\n      swap2\n      pop\n        /* \"#utility.yul\":5269:5270   */\n      dup3\n        /* \"#utility.yul\":5260:5267   */\n      dup3\n        /* \"#utility.yul\":5256:5271   */\n      div\n        /* \"#utility.yul\":5253:5254   */\n      dup5\n        /* \"#utility.yul\":5250:5272   */\n      eq\n        /* \"#utility.yul\":5230:5231   */\n      dup4\n        /* \"#utility.yul\":5223:5232   */\n      iszero\n        /* \"#utility.yul\":5203:5286   */\n      or\n        /* \"#utility.yul\":5180:5319   */\n      tag_234\n      jumpi\n        /* \"#utility.yul\":5299:5317   */\n      tag_235\n      tag_166\n      jump\t// in\n    tag_235:\n        /* \"#utility.yul\":5180:5319   */\n    tag_234:\n        /* \"#utility.yul\":4964:5326   */\n      pop\n        /* \"#utility.yul\":4916:5326   */\n      swap3\n      swap2\n      pop\n      pop\n      jump\t// out\n        /* \"#utility.yul\":5332:5512   */\n    tag_167:\n        /* \"#utility.yul\":5380:5457   */\n      0x4e487b7100000000000000000000000000000000000000000000000000000000\n        /* \"#utility.yul\":5377:5378   */\n      0x00\n        /* \"#utility.yul\":5370:5458   */\n      mstore\n        /* \"#utility.yul\":5477:5481   */\n      0x12\n        /* \"#utility.yul\":5474:5475   */\n      0x04\n        /* \"#utility.yul\":5467:5482   */\n      mstore\n        /* \"#utility.yul\":5501:5505   */\n      0x24\n        /* \"#utility.yul\":5498:5499   */\n      0x00\n        /* \"#utility.yul\":5491:5506   */\n      revert\n        /* \"#utility.yul\":5518:5703   */\n    tag_93:\n        /* \"#utility.yul\":5558:5559   */\n      0x00\n        /* \"#utility.yul\":5575:5595   */\n      tag_238\n        /* \"#utility.yul\":5593:5594   */\n      dup3\n        /* \"#utility.yul\":5575:5595   */\n      tag_150\n      jump\t// in\n    tag_238:\n        /* \"#utility.yul\":5570:5595   */\n      swap2\n      pop\n        /* \"#utility.yul\":5609:5629   */\n      tag_239\n        /* \"#utility.yul\":5627:5628   */\n      dup4\n        /* \"#utility.yul\":5609:5629   */\n      tag_150\n      jump\t// in\n    tag_239:\n        /* \"#utility.yul\":5604:5629   */\n      swap3\n      pop\n        /* \"#utility.yul\":5648:5649   */\n      dup3\n        /* \"#utility.yul\":5638:5673   */\n      tag_240\n      jumpi\n        /* \"#utility.yul\":5653:5671   */\n      tag_241\n      tag_167\n      jump\t// in\n    tag_241:\n        /* \"#utility.yul\":5638:5673   */\n    tag_240:\n        /* \"#utility.yul\":5695:5696   */\n      dup3\n        /* \"#utility.yul\":5692:5693   */\n      dup3\n        /* \"#utility.yul\":5688:5697   */\n      div\n        /* \"#utility.yul\":5683:5697   */\n      swap1\n      pop\n        /* \"#utility.yul\":5518:5703   */\n      swap3\n      swap2\n      pop\n      pop\n      jump\t// out\n        /* \"#utility.yul\":5709:5887   */\n    tag_168:\n        /* \"#utility.yul\":5849:5879   */\n      0x506572696f646f20646520636f6e747261746f20696e76616c69646f00000000\n        /* \"#utility.yul\":5845:5846   */\n      0x00\n        /* \"#utility.yul\":5837:5843   */\n      dup3\n        /* \"#utility.yul\":5833:5847   */\n      add\n        /* \"#utility.yul\":5826:5880   */\n      mstore\n        /* \"#utility.yul\":5709:5887   */\n      pop\n      jump\t// out\n        /* \"#utility.yul\":5893:6259   */\n    tag_169:\n        /* \"#utility.yul\":6035:6038   */\n      0x00\n        /* \"#utility.yul\":6056:6123   */\n      tag_244\n        /* \"#utility.yul\":6120:6122   */\n      0x1c\n        /* \"#utility.yul\":6115:6118   */\n      dup4\n        /* \"#utility.yul\":6056:6123   */\n      tag_155\n      jump\t// in\n    tag_244:\n        /* \"#utility.yul\":6049:6123   */\n      swap2\n      pop\n        /* \"#utility.yul\":6132:6225   */\n      tag_245\n        /* \"#utility.yul\":6221:6224   */\n      dup3\n        /* \"#utility.yul\":6132:6225   */\n      tag_168\n      jump\t// in\n    tag_245:\n        /* \"#utility.yul\":6250:6252   */\n      0x20\n        /* \"#utility.yul\":6245:6248   */\n      dup3\n        /* \"#utility.yul\":6241:6253   */\n      add\n        /* \"#utility.yul\":6234:6253   */\n      swap1\n      pop\n        /* \"#utility.yul\":5893:6259   */\n      swap2\n      swap1\n      pop\n      jump\t// out\n        /* \"#utility.yul\":6265:6684   */\n    tag_99:\n        /* \"#utility.yul\":6431:6435   */\n      0x00\n        /* \"#utility.yul\":6469:6471   */\n      0x20\n        /* \"#utility.yul\":6458:6467   */\n      dup3\n        /* \"#utility.yul\":6454:6472   */\n      add\n        /* \"#utility.yul\":6446:6472   */\n      swap1\n      pop\n        /* \"#utility.yul\":6518:6527   */\n      dup2\n        /* \"#utility.yul\":6512:6516   */\n      dup2\n        /* \"#utility.yul\":6508:6528   */\n      sub\n        /* \"#utility.yul\":6504:6505   */\n      0x00\n        /* \"#utility.yul\":6493:6502   */\n      dup4\n        /* \"#utility.yul\":6489:6506   */\n      add\n        /* \"#utility.yul\":6482:6529   */\n      mstore\n        /* \"#utility.yul\":6546:6677   */\n      tag_247\n        /* \"#utility.yul\":6672:6676   */\n      dup2\n        /* \"#utility.yul\":6546:6677   */\n      tag_169\n      jump\t// in\n    tag_247:\n        /* \"#utility.yul\":6538:6677   */\n      swap1\n      pop\n        /* \"#utility.yul\":6265:6684   */\n      swap2\n      swap1\n      pop\n      jump\t// out\n        /* \"#utility.yul\":6690:6881   */\n    tag_106:\n        /* \"#utility.yul\":6730:6733   */\n      0x00\n        /* \"#utility.yul\":6749:6769   */\n      tag_249\n        /* \"#utility.yul\":6767:6768   */\n      dup3\n        /* \"#utility.yul\":6749:6769   */\n      tag_150\n      jump\t// in\n    tag_249:\n        /* \"#utility.yul\":6744:6769   */\n      swap2\n      pop\n        /* \"#utility.yul\":6783:6803   */\n      tag_250\n        /* \"#utility.yul\":6801:6802   */\n      dup4\n        /* \"#utility.yul\":6783:6803   */\n      tag_150\n      jump\t// in\n    tag_250:\n        /* \"#utility.yul\":6778:6803   */\n      swap3\n      pop\n        /* \"#utility.yul\":6826:6827   */\n      dup3\n        /* \"#utility.yul\":6823:6824   */\n      dup3\n        /* \"#utility.yul\":6819:6828   */\n      add\n        /* \"#utility.yul\":6812:6828   */\n      swap1\n      pop\n        /* \"#utility.yul\":6847:6850   */\n      dup1\n        /* \"#utility.yul\":6844:6845   */\n      dup3\n        /* \"#utility.yul\":6841:6851   */\n      gt\n        /* \"#utility.yul\":6838:6874   */\n      iszero\n      tag_251\n      jumpi\n        /* \"#utility.yul\":6854:6872   */\n      tag_252\n      tag_166\n      jump\t// in\n    tag_252:\n        /* \"#utility.yul\":6838:6874   */\n    tag_251:\n        /* \"#utility.yul\":6690:6881   */\n      swap3\n      swap2\n      pop\n      pop\n      jump\t// out\n        /* \"#utility.yul\":6887:7067   */\n    tag_170:\n        /* \"#utility.yul\":6935:7012   */\n      0x4e487b7100000000000000000000000000000000000000000000000000000000\n        /* \"#utility.yul\":6932:6933   */\n      0x00\n        /* \"#utility.yul\":6925:7013   */\n      mstore\n        /* \"#utility.yul\":7032:7036   */\n      0x22\n        /* \"#utility.yul\":7029:7030   */\n      0x04\n        /* \"#utility.yul\":7022:7037   */\n      mstore\n        /* \"#utility.yul\":7056:7060   */\n      0x24\n        /* \"#utility.yul\":7053:7054   */\n      0x00\n        /* \"#utility.yul\":7046:7061   */\n      revert\n        /* \"#utility.yul\":7073:7393   */\n    tag_109:\n        /* \"#utility.yul\":7117:7123   */\n      0x00\n        /* \"#utility.yul\":7154:7155   */\n      0x02\n        /* \"#utility.yul\":7148:7152   */\n      dup3\n        /* \"#utility.yul\":7144:7156   */\n      div\n        /* \"#utility.yul\":7134:7156   */\n      swap1\n      pop\n        /* \"#utility.yul\":7201:7202   */\n      0x01\n        /* \"#utility.yul\":7195:7199   */\n      dup3\n        /* \"#utility.yul\":7191:7203   */\n      and\n        /* \"#utility.yul\":7222:7240   */\n      dup1\n        /* \"#utility.yul\":7212:7293   */\n      tag_255\n      jumpi\n        /* \"#utility.yul\":7278:7282   */\n      0x7f\n        /* \"#utility.yul\":7270:7276   */\n      dup3\n        /* \"#utility.yul\":7266:7283   */\n      and\n        /* \"#utility.yul\":7256:7283   */\n      swap2\n      pop\n        /* \"#utility.yul\":7212:7293   */\n    tag_255:\n        /* \"#utility.yul\":7340:7342   */\n      0x20\n        /* \"#utility.yul\":7332:7338   */\n      dup3\n        /* \"#utility.yul\":7329:7343   */\n      lt\n        /* \"#utility.yul\":7309:7327   */\n      dup2\n        /* \"#utility.yul\":7306:7344   */\n      sub\n        /* \"#utility.yul\":7303:7387   */\n      tag_256\n      jumpi\n        /* \"#utility.yul\":7359:7377   */\n      tag_257\n      tag_170\n      jump\t// in\n    tag_257:\n        /* \"#utility.yul\":7303:7387   */\n    tag_256:\n        /* \"#utility.yul\":7124:7393   */\n      pop\n        /* \"#utility.yul\":7073:7393   */\n      swap2\n      swap1\n      pop\n      jump\t// out\n        /* \"#utility.yul\":7399:7567   */\n    tag_171:\n        /* \"#utility.yul\":7539:7559   */\n      0x56616c6f7220696e737566696369656e74650000000000000000000000000000\n        /* \"#utility.yul\":7535:7536   */\n      0x00\n        /* \"#utility.yul\":7527:7533   */\n      dup3\n        /* \"#utility.yul\":7523:7537   */\n      add\n        /* \"#utility.yul\":7516:7560   */\n      mstore\n        /* \"#utility.yul\":7399:7567   */\n      pop\n      jump\t// out\n        /* \"#utility.yul\":7573:7939   */\n    tag_172:\n        /* \"#utility.yul\":7715:7718   */\n      0x00\n        /* \"#utility.yul\":7736:7803   */\n      tag_260\n        /* \"#utility.yul\":7800:7802   */\n      0x12\n        /* \"#utility.yul\":7795:7798   */\n      dup4\n        /* \"#utility.yul\":7736:7803   */\n      tag_155\n      jump\t// in\n    tag_260:\n        /* \"#utility.yul\":7729:7803   */\n      swap2\n      pop\n        /* \"#utility.yul\":7812:7905   */\n      tag_261\n        /* \"#utility.yul\":7901:7904   */\n      dup3\n        /* \"#utility.yul\":7812:7905   */\n      tag_171\n      jump\t// in\n    tag_261:\n        /* \"#utility.yul\":7930:7932   */\n      0x20\n        /* \"#utility.yul\":7925:7928   */\n      dup3\n        /* \"#utility.yul\":7921:7933   */\n      add\n        /* \"#utility.yul\":7914:7933   */\n      swap1\n      pop\n        /* \"#utility.yul\":7573:7939   */\n      swap2\n      swap1\n      pop\n      jump\t// out\n        /* \"#utility.yul\":7945:8364   */\n    tag_124:\n        /* \"#utility.yul\":8111:8115   */\n      0x00\n        /* \"#utility.yul\":8149:8151   */\n      0x20\n        /* \"#utility.yul\":8138:8147   */\n      dup3\n        /* \"#utility.yul\":8134:8152   */\n      add\n        /* \"#utility.yul\":8126:8152   */\n      swap1\n      pop\n        /* \"#utility.yul\":8198:8207   */\n      dup2\n        /* \"#utility.yul\":8192:8196   */\n      dup2\n        /* \"#utility.yul\":8188:8208   */\n      sub\n        /* \"#utility.yul\":8184:8185   */\n      0x00\n        /* \"#utility.yul\":8173:8182   */\n      dup4\n        /* \"#utility.yul\":8169:8186   */\n      add\n        /* \"#utility.yul\":8162:8209   */\n      mstore\n        /* \"#utility.yul\":8226:8357   */\n      tag_263\n        /* \"#utility.yul\":8352:8356   */\n      dup2\n        /* \"#utility.yul\":8226:8357   */\n      tag_172\n      jump\t// in\n    tag_263:\n        /* \"#utility.yul\":8218:8357   */\n      swap1\n      pop\n        /* \"#utility.yul\":7945:8364   */\n      swap2\n      swap1\n      pop\n      jump\t// out\n        /* \"#utility.yul\":8370:8482   */\n    tag_173:\n        /* \"#utility.yul\":8407:8414   */\n      0x00\n        /* \"#utility.yul\":8447:8475   */\n      0xffffffffffffffffffffffffff\n        /* \"#utility.yul\":8440:8445   */\n      dup3\n        /* \"#utility.yul\":8436:8476   */\n      and\n        /* \"#utility.yul\":8425:8476   */\n      swap1\n      pop\n        /* \"#utility.yul\":8370:8482   */\n      swap2\n      swap1\n      pop\n      jump\t// out\n        /* \"#utility.yul\":8488:8683   */\n    tag_145:\n        /* \"#utility.yul\":8527:8530   */\n      0x00\n        /* \"#utility.yul\":8550:8574   */\n      tag_266\n        /* \"#utility.yul\":8568:8573   */\n      dup3\n        /* \"#utility.yul\":8550:8574   */\n      tag_173\n      jump\t// in\n    tag_266:\n        /* \"#utility.yul\":8541:8574   */\n      swap2\n      pop\n        /* \"#utility.yul\":8596:8624   */\n      0xffffffffffffffffffffffffff\n        /* \"#utility.yul\":8589:8594   */\n      dup3\n        /* \"#utility.yul\":8586:8625   */\n      sub\n        /* \"#utility.yul\":8583:8648   */\n      tag_267\n      jumpi\n        /* \"#utility.yul\":8628:8646   */\n      tag_268\n      tag_166\n      jump\t// in\n    tag_268:\n        /* \"#utility.yul\":8583:8648   */\n    tag_267:\n        /* \"#utility.yul\":8675:8676   */\n      0x01\n        /* \"#utility.yul\":8668:8673   */\n      dup3\n        /* \"#utility.yul\":8664:8677   */\n      add\n        /* \"#utility.yul\":8657:8677   */\n      swap1\n      pop\n        /* \"#utility.yul\":8488:8683   */\n      swap2\n      swap1\n      pop\n      jump\t// out\n\n    auxdata: 0xa26469706673582212204d61fb08d8ad4e5f27f0003903304cf84ea81744b80df319540ad56089bb50a964736f6c63430008130033\n}\n",
				"bytecode": {
					"linkReferences": {},
					"object": "60806040526040516200144a3803806200144a833981810160405281019062000029919062000313565b83600190816200003a919062000604565b5082600090816200004c919062000604565b508060028190555081600460006101000a81548173ffffffffffffffffffffffffffffffffffffffff021916908373ffffffffffffffffffffffffffffffffffffffff16021790555033600560006101000a81548173ffffffffffffffffffffffffffffffffffffffff021916908373ffffffffffffffffffffffffffffffffffffffff16021790555050505050620006eb565b6000604051905090565b600080fd5b600080fd5b600080fd5b600080fd5b6000601f19601f8301169050919050565b7f4e487b7100000000000000000000000000000000000000000000000000000000600052604160045260246000fd5b6200014982620000fe565b810181811067ffffffffffffffff821117156200016b576200016a6200010f565b5b80604052505050565b600062000180620000e0565b90506200018e82826200013e565b919050565b600067ffffffffffffffff821115620001b157620001b06200010f565b5b620001bc82620000fe565b9050602081019050919050565b60005b83811015620001e9578082015181840152602081019050620001cc565b60008484015250505050565b60006200020c620002068462000193565b62000174565b9050828152602081018484840111156200022b576200022a620000f9565b5b62000238848285620001c9565b509392505050565b600082601f830112620002585762000257620000f4565b5b81516200026a848260208601620001f5565b91505092915050565b600073ffffffffffffffffffffffffffffffffffffffff82169050919050565b6000620002a08262000273565b9050919050565b620002b28162000293565b8114620002be57600080fd5b50565b600081519050620002d281620002a7565b92915050565b6000819050919050565b620002ed81620002d8565b8114620002f957600080fd5b50565b6000815190506200030d81620002e2565b92915050565b6000806000806080858703121562000330576200032f620000ea565b5b600085015167ffffffffffffffff811115620003515762000350620000ef565b5b6200035f8782880162000240565b945050602085015167ffffffffffffffff811115620003835762000382620000ef565b5b620003918782880162000240565b9350506040620003a487828801620002c1565b9250506060620003b787828801620002fc565b91505092959194509250565b600081519050919050565b7f4e487b7100000000000000000000000000000000000000000000000000000000600052602260045260246000fd5b600060028204905060018216806200041657607f821691505b6020821081036200042c576200042b620003ce565b5b50919050565b60008190508160005260206000209050919050565b60006020601f8301049050919050565b600082821b905092915050565b600060088302620004967fffffffffffffffffffffffffffffffffffffffffffffffffffffffffffffffff8262000457565b620004a2868362000457565b95508019841693508086168417925050509392505050565b6000819050919050565b6000620004e5620004df620004d984620002d8565b620004ba565b620002d8565b9050919050565b6000819050919050565b6200050183620004c4565b620005196200051082620004ec565b84845462000464565b825550505050565b600090565b6200053062000521565b6200053d818484620004f6565b505050565b5b8181101562000565576200055960008262000526565b60018101905062000543565b5050565b601f821115620005b4576200057e8162000432565b620005898462000447565b8101602085101562000599578190505b620005b1620005a88562000447565b83018262000542565b50505b505050565b600082821c905092915050565b6000620005d960001984600802620005b9565b1980831691505092915050565b6000620005f48383620005c6565b9150826002028217905092915050565b6200060f82620003c3565b67ffffffffffffffff8111156200062b576200062a6200010f565b5b620006378254620003fd565b6200064482828562000569565b600060209050601f8311600181146200067c576000841562000667578287015190505b620006738582620005e6565b865550620006e3565b601f1984166200068c8662000432565b60005b82811015620006b6578489015182556001820191506020850194506020810190506200068f565b86831015620006d65784890151620006d2601f891682620005c6565b8355505b6001600288020188555050505b505050505050565b610d4f80620006fb6000396000f3fe6080604052600436106100e85760003560e01c80638d2802d91161008a578063b235612a11610059578063b235612a146102c5578063b3fbc324146102ee578063cb44b1ea1461032b578063e862b9e114610368576100e8565b80638d2802d91461023c5780638da5cb5b14610246578063960daf4614610271578063af74c59a1461029a576100e8565b8063409bb8ab116100c6578063409bb8ab1461017e5780635098e165146101a95780635a661872146101d457806368f01ee914610211576100e8565b806303deed58146100ed5780632d0581501461012a57806335f580f014610155575b600080fd5b3480156100f957600080fd5b50610114600480360381019061010f9190610877565b610393565b60405161012191906108c6565b60405180910390f35b34801561013657600080fd5b5061013f6103c8565b60405161014c91906108c6565b60405180910390f35b34801561016157600080fd5b5061017c60048036038101906101779190610877565b6103d2565b005b34801561018a57600080fd5b50610193610466565b6040516101a09190610971565b60405180910390f35b3480156101b557600080fd5b506101be6104f4565b6040516101cb9190610971565b60405180910390f35b3480156101e057600080fd5b506101fb60048036038101906101f69190610993565b610582565b60405161020891906109db565b60405180910390f35b34801561021d57600080fd5b506102266105b6565b60405161023391906108c6565b60405180910390f35b6102446105bb565b005b34801561025257600080fd5b5061025b6106b0565b6040516102689190610a37565b60405180910390f35b34801561027d57600080fd5b5061029860048036038101906102939190610993565b6106d6565b005b3480156102a657600080fd5b506102af61071a565b6040516102bc9190610a73565b60405180910390f35b3480156102d157600080fd5b506102ec60048036038101906102e79190610993565b610740565b005b3480156102fa57600080fd5b5061031560048036038101906103109190610993565b61074a565b6040516103229190610971565b60405180910390f35b34801561033757600080fd5b50610352600480360381019061034d9190610877565b6107de565b60405161035f91906108c6565b60405180910390f35b34801561037457600080fd5b5061037d61082f565b60405161038a91906108c6565b60405180910390f35b600060036002546103a49190610abd565b905081816103b29190610b2e565b905082816103c09190610abd565b905092915050565b6000600254905090565b601e8210610415576040517f08c379a000000000000000000000000000000000000000000000000000000000815260040161040c90610bab565b60405180910390fd5b60005b82811015610461576064826002546104309190610abd565b61043a9190610b2e565b6002546104479190610bcb565b60028190555060028161045a9190610bcb565b9050610418565b505050565b6000805461047390610c2e565b80601f016020809104026020016040519081016040528092919081815260200182805461049f90610c2e565b80156104ec5780601f106104c1576101008083540402835291602001916104ec565b820191906000526020600020905b8154815290600101906020018083116104cf57829003601f168201915b505050505081565b6001805461050190610c2e565b80601f016020809104026020016040519081016040528092919081815260200182805461052d90610c2e565b801561057a5780601f1061054f5761010080835404028352916020019161057a565b820191906000526020600020905b81548152906001019060200180831161055d57829003601f168201915b505050505081565b6003818154811061059257600080fd5b9060005260206000209060209182820401919006915054906101000a900460ff1681565b600381565b600254341015610600576040517f08c379a00000000000000000000000000000000000000000000000000000000081526004016105f790610cab565b60405180910390fd5b600460009054906101000a900473ffffffffffffffffffffffffffffffffffffffff1673ffffffffffffffffffffffffffffffffffffffff166108fc349081150290604051600060405180830381858888f19350505050158015610668573d6000803e3d6000fd5b506003600190806001815401808255809150506001900390600052602060002090602091828204019190069091909190916101000a81548160ff021916908315150217905550565b600560009054906101000a900473ffffffffffffffffffffffffffffffffffffffff1681565b60148111156106e457601490505b60006064826002546106f69190610abd565b6107009190610b2e565b9050806002546107109190610bcb565b6002819055505050565b600460009054906101000a900473ffffffffffffffffffffffffffffffffffffffff1681565b8060028190555050565b60606113888260025461075d9190610abd565b11156107a0576040518060400160405280600a81526020017f4d7569746f206361726f0000000000000000000000000000000000000000000081525090506107d9565b6040518060400160405280600e81526020017f507265636f2072617a6f6176656c00000000000000000000000000000000000081525090505b919050565b6000805b620186a0816cffffffffffffffffffffffffff1610156108285782846108089190610b2e565b826108139190610bcb565b9150808061082090610ce4565b9150506107e2565b5092915050565b6000600380549050905090565b600080fd5b6000819050919050565b61085481610841565b811461085f57600080fd5b50565b6000813590506108718161084b565b92915050565b6000806040838503121561088e5761088d61083c565b5b600061089c85828601610862565b92505060206108ad85828601610862565b9150509250929050565b6108c081610841565b82525050565b60006020820190506108db60008301846108b7565b92915050565b600081519050919050565b600082825260208201905092915050565b60005b8381101561091b578082015181840152602081019050610900565b60008484015250505050565b6000601f19601f8301169050919050565b6000610943826108e1565b61094d81856108ec565b935061095d8185602086016108fd565b61096681610927565b840191505092915050565b6000602082019050818103600083015261098b8184610938565b905092915050565b6000602082840312156109a9576109a861083c565b5b60006109b784828501610862565b91505092915050565b60008115159050919050565b6109d5816109c0565b82525050565b60006020820190506109f060008301846109cc565b92915050565b600073ffffffffffffffffffffffffffffffffffffffff82169050919050565b6000610a21826109f6565b9050919050565b610a3181610a16565b82525050565b6000602082019050610a4c6000830184610a28565b92915050565b6000610a5d826109f6565b9050919050565b610a6d81610a52565b82525050565b6000602082019050610a886000830184610a64565b92915050565b7f4e487b7100000000000000000000000000000000000000000000000000000000600052601160045260246000fd5b6000610ac882610841565b9150610ad383610841565b9250828202610ae181610841565b91508282048414831517610af857610af7610a8e565b5b5092915050565b7f4e487b7100000000000000000000000000000000000000000000000000000000600052601260045260246000fd5b6000610b3982610841565b9150610b4483610841565b925082610b5457610b53610aff565b5b828204905092915050565b7f506572696f646f20646520636f6e747261746f20696e76616c69646f00000000600082015250565b6000610b95601c836108ec565b9150610ba082610b5f565b602082019050919050565b60006020820190508181036000830152610bc481610b88565b9050919050565b6000610bd682610841565b9150610be183610841565b9250828201905080821115610bf957610bf8610a8e565b5b92915050565b7f4e487b7100000000000000000000000000000000000000000000000000000000600052602260045260246000fd5b60006002820490506001821680610c4657607f821691505b602082108103610c5957610c58610bff565b5b50919050565b7f56616c6f7220696e737566696369656e74650000000000000000000000000000600082015250565b6000610c956012836108ec565b9150610ca082610c5f565b602082019050919050565b60006020820190508181036000830152610cc481610c88565b9050919050565b60006cffffffffffffffffffffffffff82169050919050565b6000610cef82610ccb565b91506cffffffffffffffffffffffffff8203610d0e57610d0d610a8e565b5b60018201905091905056fea26469706673582212204d61fb08d8ad4e5f27f0003903304cf84ea81744b80df319540ad56089bb50a964736f6c63430008130033",
					"opcodes": "PUSH1 0x80 PUSH1 0x40 MSTORE PUSH1 0x40 MLOAD PUSH3 0x144A CODESIZE SUB DUP1 PUSH3 0x144A DUP4 CODECOPY DUP2 DUP2 ADD PUSH1 0x40 MSTORE DUP2 ADD SWAP1 PUSH3 0x29 SWAP2 SWAP1 PUSH3 0x313 JUMP JUMPDEST DUP4 PUSH1 0x1 SWAP1 DUP2 PUSH3 0x3A SWAP2 SWAP1 PUSH3 0x604 JUMP JUMPDEST POP DUP3 PUSH1 0x0 SWAP1 DUP2 PUSH3 0x4C SWAP2 SWAP1 PUSH3 0x604 JUMP JUMPDEST POP DUP1 PUSH1 0x2 DUP2 SWAP1 SSTORE POP DUP2 PUSH1 0x4 PUSH1 0x0 PUSH2 0x100 EXP DUP2 SLOAD DUP2 PUSH20 0xFFFFFFFFFFFFFFFFFFFFFFFFFFFFFFFFFFFFFFFF MUL NOT AND SWAP1 DUP4 PUSH20 0xFFFFFFFFFFFFFFFFFFFFFFFFFFFFFFFFFFFFFFFF AND MUL OR SWAP1 SSTORE POP CALLER PUSH1 0x5 PUSH1 0x0 PUSH2 0x100 EXP DUP2 SLOAD DUP2 PUSH20 0xFFFFFFFFFFFFFFFFFFFFFFFFFFFFFFFFFFFFFFFF MUL NOT AND SWAP1 DUP4 PUSH20 0xFFFFFFFFFFFFFFFFFFFFFFFFFFFFFFFFFFFFFFFF AND MUL OR SWAP1 SSTORE POP POP POP POP POP PUSH3 0x6EB JUMP JUMPDEST PUSH1 0x0 PUSH1 0x40 MLOAD SWAP1 POP SWAP1 JUMP JUMPDEST PUSH1 0x0 DUP1 REVERT JUMPDEST PUSH1 0x0 DUP1 REVERT JUMPDEST PUSH1 0x0 DUP1 REVERT JUMPDEST PUSH1 0x0 DUP1 REVERT JUMPDEST PUSH1 0x0 PUSH1 0x1F NOT PUSH1 0x1F DUP4 ADD AND SWAP1 POP SWAP2 SWAP1 POP JUMP JUMPDEST PUSH32 0x4E487B7100000000000000000000000000000000000000000000000000000000 PUSH1 0x0 MSTORE PUSH1 0x41 PUSH1 0x4 MSTORE PUSH1 0x24 PUSH1 0x0 REVERT JUMPDEST PUSH3 0x149 DUP3 PUSH3 0xFE JUMP JUMPDEST DUP2 ADD DUP2 DUP2 LT PUSH8 0xFFFFFFFFFFFFFFFF DUP3 GT OR ISZERO PUSH3 0x16B JUMPI PUSH3 0x16A PUSH3 0x10F JUMP JUMPDEST JUMPDEST DUP1 PUSH1 0x40 MSTORE POP POP POP JUMP JUMPDEST PUSH1 0x0 PUSH3 0x180 PUSH3 0xE0 JUMP JUMPDEST SWAP1 POP PUSH3 0x18E DUP3 DUP3 PUSH3 0x13E JUMP JUMPDEST SWAP2 SWAP1 POP JUMP JUMPDEST PUSH1 0x0 PUSH8 0xFFFFFFFFFFFFFFFF DUP3 GT ISZERO PUSH3 0x1B1 JUMPI PUSH3 0x1B0 PUSH3 0x10F JUMP JUMPDEST JUMPDEST PUSH3 0x1BC DUP3 PUSH3 0xFE JUMP JUMPDEST SWAP1 POP PUSH1 0x20 DUP2 ADD SWAP1 POP SWAP2 SWAP1 POP JUMP JUMPDEST PUSH1 0x0 JUMPDEST DUP4 DUP2 LT ISZERO PUSH3 0x1E9 JUMPI DUP1 DUP3 ADD MLOAD DUP2 DUP5 ADD MSTORE PUSH1 0x20 DUP2 ADD SWAP1 POP PUSH3 0x1CC JUMP JUMPDEST PUSH1 0x0 DUP5 DUP5 ADD MSTORE POP POP POP POP JUMP JUMPDEST PUSH1 0x0 PUSH3 0x20C PUSH3 0x206 DUP5 PUSH3 0x193 JUMP JUMPDEST PUSH3 0x174 JUMP JUMPDEST SWAP1 POP DUP3 DUP2 MSTORE PUSH1 0x20 DUP2 ADD DUP5 DUP5 DUP5 ADD GT ISZERO PUSH3 0x22B JUMPI PUSH3 0x22A PUSH3 0xF9 JUMP JUMPDEST JUMPDEST PUSH3 0x238 DUP5 DUP3 DUP6 PUSH3 0x1C9 JUMP JUMPDEST POP SWAP4 SWAP3 POP POP POP JUMP JUMPDEST PUSH1 0x0 DUP3 PUSH1 0x1F DUP4 ADD SLT PUSH3 0x258 JUMPI PUSH3 0x257 PUSH3 0xF4 JUMP JUMPDEST JUMPDEST DUP2 MLOAD PUSH3 0x26A DUP5 DUP3 PUSH1 0x20 DUP7 ADD PUSH3 0x1F5 JUMP JUMPDEST SWAP2 POP POP SWAP3 SWAP2 POP POP JUMP JUMPDEST PUSH1 0x0 PUSH20 0xFFFFFFFFFFFFFFFFFFFFFFFFFFFFFFFFFFFFFFFF DUP3 AND SWAP1 POP SWAP2 SWAP1 POP JUMP JUMPDEST PUSH1 0x0 PUSH3 0x2A0 DUP3 PUSH3 0x273 JUMP JUMPDEST SWAP1 POP SWAP2 SWAP1 POP JUMP JUMPDEST PUSH3 0x2B2 DUP2 PUSH3 0x293 JUMP JUMPDEST DUP2 EQ PUSH3 0x2BE JUMPI PUSH1 0x0 DUP1 REVERT JUMPDEST POP JUMP JUMPDEST PUSH1 0x0 DUP2 MLOAD SWAP1 POP PUSH3 0x2D2 DUP2 PUSH3 0x2A7 JUMP JUMPDEST SWAP3 SWAP2 POP POP JUMP JUMPDEST PUSH1 0x0 DUP2 SWAP1 POP SWAP2 SWAP1 POP JUMP JUMPDEST PUSH3 0x2ED DUP2 PUSH3 0x2D8 JUMP JUMPDEST DUP2 EQ PUSH3 0x2F9 JUMPI PUSH1 0x0 DUP1 REVERT JUMPDEST POP JUMP JUMPDEST PUSH1 0x0 DUP2 MLOAD SWAP1 POP PUSH3 0x30D DUP2 PUSH3 0x2E2 JUMP JUMPDEST SWAP3 SWAP2 POP POP JUMP JUMPDEST PUSH1 0x0 DUP1 PUSH1 0x0 DUP1 PUSH1 0x80 DUP6 DUP8 SUB SLT ISZERO PUSH3 0x330 JUMPI PUSH3 0x32F PUSH3 0xEA JUMP JUMPDEST JUMPDEST PUSH1 0x0 DUP6 ADD MLOAD PUSH8 0xFFFFFFFFFFFFFFFF DUP2 GT ISZERO PUSH3 0x351 JUMPI PUSH3 0x350 PUSH3 0xEF JUMP JUMPDEST JUMPDEST PUSH3 0x35F DUP8 DUP3 DUP9 ADD PUSH3 0x240 JUMP JUMPDEST SWAP5 POP POP PUSH1 0x20 DUP6 ADD MLOAD PUSH8 0xFFFFFFFFFFFFFFFF DUP2 GT ISZERO PUSH3 0x383 JUMPI PUSH3 0x382 PUSH3 0xEF JUMP JUMPDEST JUMPDEST PUSH3 0x391 DUP8 DUP3 DUP9 ADD PUSH3 0x240 JUMP JUMPDEST SWAP4 POP POP PUSH1 0x40 PUSH3 0x3A4 DUP8 DUP3 DUP9 ADD PUSH3 0x2C1 JUMP JUMPDEST SWAP3 POP POP PUSH1 0x60 PUSH3 0x3B7 DUP8 DUP3 DUP9 ADD PUSH3 0x2FC JUMP JUMPDEST SWAP2 POP POP SWAP3 SWAP6 SWAP2 SWAP5 POP SWAP3 POP JUMP JUMPDEST PUSH1 0x0 DUP2 MLOAD SWAP1 POP SWAP2 SWAP1 POP JUMP JUMPDEST PUSH32 0x4E487B7100000000000000000000000000000000000000000000000000000000 PUSH1 0x0 MSTORE PUSH1 0x22 PUSH1 0x4 MSTORE PUSH1 0x24 PUSH1 0x0 REVERT JUMPDEST PUSH1 0x0 PUSH1 0x2 DUP3 DIV SWAP1 POP PUSH1 0x1 DUP3 AND DUP1 PUSH3 0x416 JUMPI PUSH1 0x7F DUP3 AND SWAP2 POP JUMPDEST PUSH1 0x20 DUP3 LT DUP2 SUB PUSH3 0x42C JUMPI PUSH3 0x42B PUSH3 0x3CE JUMP JUMPDEST JUMPDEST POP SWAP2 SWAP1 POP JUMP JUMPDEST PUSH1 0x0 DUP2 SWAP1 POP DUP2 PUSH1 0x0 MSTORE PUSH1 0x20 PUSH1 0x0 KECCAK256 SWAP1 POP SWAP2 SWAP1 POP JUMP JUMPDEST PUSH1 0x0 PUSH1 0x20 PUSH1 0x1F DUP4 ADD DIV SWAP1 POP SWAP2 SWAP1 POP JUMP JUMPDEST PUSH1 0x0 DUP3 DUP3 SHL SWAP1 POP SWAP3 SWAP2 POP POP JUMP JUMPDEST PUSH1 0x0 PUSH1 0x8 DUP4 MUL PUSH3 0x496 PUSH32 0xFFFFFFFFFFFFFFFFFFFFFFFFFFFFFFFFFFFFFFFFFFFFFFFFFFFFFFFFFFFFFFFF DUP3 PUSH3 0x457 JUMP JUMPDEST PUSH3 0x4A2 DUP7 DUP4 PUSH3 0x457 JUMP JUMPDEST SWAP6 POP DUP1 NOT DUP5 AND SWAP4 POP DUP1 DUP7 AND DUP5 OR SWAP3 POP POP POP SWAP4 SWAP3 POP POP POP JUMP JUMPDEST PUSH1 0x0 DUP2 SWAP1 POP SWAP2 SWAP1 POP JUMP JUMPDEST PUSH1 0x0 PUSH3 0x4E5 PUSH3 0x4DF PUSH3 0x4D9 DUP5 PUSH3 0x2D8 JUMP JUMPDEST PUSH3 0x4BA JUMP JUMPDEST PUSH3 0x2D8 JUMP JUMPDEST SWAP1 POP SWAP2 SWAP1 POP JUMP JUMPDEST PUSH1 0x0 DUP2 SWAP1 POP SWAP2 SWAP1 POP JUMP JUMPDEST PUSH3 0x501 DUP4 PUSH3 0x4C4 JUMP JUMPDEST PUSH3 0x519 PUSH3 0x510 DUP3 PUSH3 0x4EC JUMP JUMPDEST DUP5 DUP5 SLOAD PUSH3 0x464 JUMP JUMPDEST DUP3 SSTORE POP POP POP POP JUMP JUMPDEST PUSH1 0x0 SWAP1 JUMP JUMPDEST PUSH3 0x530 PUSH3 0x521 JUMP JUMPDEST PUSH3 0x53D DUP2 DUP5 DUP5 PUSH3 0x4F6 JUMP JUMPDEST POP POP POP JUMP JUMPDEST JUMPDEST DUP2 DUP2 LT ISZERO PUSH3 0x565 JUMPI PUSH3 0x559 PUSH1 0x0 DUP3 PUSH3 0x526 JUMP JUMPDEST PUSH1 0x1 DUP2 ADD SWAP1 POP PUSH3 0x543 JUMP JUMPDEST POP POP JUMP JUMPDEST PUSH1 0x1F DUP3 GT ISZERO PUSH3 0x5B4 JUMPI PUSH3 0x57E DUP2 PUSH3 0x432 JUMP JUMPDEST PUSH3 0x589 DUP5 PUSH3 0x447 JUMP JUMPDEST DUP2 ADD PUSH1 0x20 DUP6 LT ISZERO PUSH3 0x599 JUMPI DUP2 SWAP1 POP JUMPDEST PUSH3 0x5B1 PUSH3 0x5A8 DUP6 PUSH3 0x447 JUMP JUMPDEST DUP4 ADD DUP3 PUSH3 0x542 JUMP JUMPDEST POP POP JUMPDEST POP POP POP JUMP JUMPDEST PUSH1 0x0 DUP3 DUP3 SHR SWAP1 POP SWAP3 SWAP2 POP POP JUMP JUMPDEST PUSH1 0x0 PUSH3 0x5D9 PUSH1 0x0 NOT DUP5 PUSH1 0x8 MUL PUSH3 0x5B9 JUMP JUMPDEST NOT DUP1 DUP4 AND SWAP2 POP POP SWAP3 SWAP2 POP POP JUMP JUMPDEST PUSH1 0x0 PUSH3 0x5F4 DUP4 DUP4 PUSH3 0x5C6 JUMP JUMPDEST SWAP2 POP DUP3 PUSH1 0x2 MUL DUP3 OR SWAP1 POP SWAP3 SWAP2 POP POP JUMP JUMPDEST PUSH3 0x60F DUP3 PUSH3 0x3C3 JUMP JUMPDEST PUSH8 0xFFFFFFFFFFFFFFFF DUP2 GT ISZERO PUSH3 0x62B JUMPI PUSH3 0x62A PUSH3 0x10F JUMP JUMPDEST JUMPDEST PUSH3 0x637 DUP3 SLOAD PUSH3 0x3FD JUMP JUMPDEST PUSH3 0x644 DUP3 DUP3 DUP6 PUSH3 0x569 JUMP JUMPDEST PUSH1 0x0 PUSH1 0x20 SWAP1 POP PUSH1 0x1F DUP4 GT PUSH1 0x1 DUP2 EQ PUSH3 0x67C JUMPI PUSH1 0x0 DUP5 ISZERO PUSH3 0x667 JUMPI DUP3 DUP8 ADD MLOAD SWAP1 POP JUMPDEST PUSH3 0x673 DUP6 DUP3 PUSH3 0x5E6 JUMP JUMPDEST DUP7 SSTORE POP PUSH3 0x6E3 JUMP JUMPDEST PUSH1 0x1F NOT DUP5 AND PUSH3 0x68C DUP7 PUSH3 0x432 JUMP JUMPDEST PUSH1 0x0 JUMPDEST DUP3 DUP2 LT ISZERO PUSH3 0x6B6 JUMPI DUP5 DUP10 ADD MLOAD DUP3 SSTORE PUSH1 0x1 DUP3 ADD SWAP2 POP PUSH1 0x20 DUP6 ADD SWAP5 POP PUSH1 0x20 DUP2 ADD SWAP1 POP PUSH3 0x68F JUMP JUMPDEST DUP7 DUP4 LT ISZERO PUSH3 0x6D6 JUMPI DUP5 DUP10 ADD MLOAD PUSH3 0x6D2 PUSH1 0x1F DUP10 AND DUP3 PUSH3 0x5C6 JUMP JUMPDEST DUP4 SSTORE POP JUMPDEST PUSH1 0x1 PUSH1 0x2 DUP9 MUL ADD DUP9 SSTORE POP POP POP JUMPDEST POP POP POP POP POP POP JUMP JUMPDEST PUSH2 0xD4F DUP1 PUSH3 0x6FB PUSH1 0x0 CODECOPY PUSH1 0x0 RETURN INVALID PUSH1 0x80 PUSH1 0x40 MSTORE PUSH1 0x4 CALLDATASIZE LT PUSH2 0xE8 JUMPI PUSH1 0x0 CALLDATALOAD PUSH1 0xE0 SHR DUP1 PUSH4 0x8D2802D9 GT PUSH2 0x8A JUMPI DUP1 PUSH4 0xB235612A GT PUSH2 0x59 JUMPI DUP1 PUSH4 0xB235612A EQ PUSH2 0x2C5 JUMPI DUP1 PUSH4 0xB3FBC324 EQ PUSH2 0x2EE JUMPI DUP1 PUSH4 0xCB44B1EA EQ PUSH2 0x32B JUMPI DUP1 PUSH4 0xE862B9E1 EQ PUSH2 0x368 JUMPI PUSH2 0xE8 JUMP JUMPDEST DUP1 PUSH4 0x8D2802D9 EQ PUSH2 0x23C JUMPI DUP1 PUSH4 0x8DA5CB5B EQ PUSH2 0x246 JUMPI DUP1 PUSH4 0x960DAF46 EQ PUSH2 0x271 JUMPI DUP1 PUSH4 0xAF74C59A EQ PUSH2 0x29A JUMPI PUSH2 0xE8 JUMP JUMPDEST DUP1 PUSH4 0x409BB8AB GT PUSH2 0xC6 JUMPI DUP1 PUSH4 0x409BB8AB EQ PUSH2 0x17E JUMPI DUP1 PUSH4 0x5098E165 EQ PUSH2 0x1A9 JUMPI DUP1 PUSH4 0x5A661872 EQ PUSH2 0x1D4 JUMPI DUP1 PUSH4 0x68F01EE9 EQ PUSH2 0x211 JUMPI PUSH2 0xE8 JUMP JUMPDEST DUP1 PUSH4 0x3DEED58 EQ PUSH2 0xED JUMPI DUP1 PUSH4 0x2D058150 EQ PUSH2 0x12A JUMPI DUP1 PUSH4 0x35F580F0 EQ PUSH2 0x155 JUMPI JUMPDEST PUSH1 0x0 DUP1 REVERT JUMPDEST CALLVALUE DUP1 ISZERO PUSH2 0xF9 JUMPI PUSH1 0x0 DUP1 REVERT JUMPDEST POP PUSH2 0x114 PUSH1 0x4 DUP1 CALLDATASIZE SUB DUP2 ADD SWAP1 PUSH2 0x10F SWAP2 SWAP1 PUSH2 0x877 JUMP JUMPDEST PUSH2 0x393 JUMP JUMPDEST PUSH1 0x40 MLOAD PUSH2 0x121 SWAP2 SWAP1 PUSH2 0x8C6 JUMP JUMPDEST PUSH1 0x40 MLOAD DUP1 SWAP2 SUB SWAP1 RETURN JUMPDEST CALLVALUE DUP1 ISZERO PUSH2 0x136 JUMPI PUSH1 0x0 DUP1 REVERT JUMPDEST POP PUSH2 0x13F PUSH2 0x3C8 JUMP JUMPDEST PUSH1 0x40 MLOAD PUSH2 0x14C SWAP2 SWAP1 PUSH2 0x8C6 JUMP JUMPDEST PUSH1 0x40 MLOAD DUP1 SWAP2 SUB SWAP1 RETURN JUMPDEST CALLVALUE DUP1 ISZERO PUSH2 0x161 JUMPI PUSH1 0x0 DUP1 REVERT JUMPDEST POP PUSH2 0x17C PUSH1 0x4 DUP1 CALLDATASIZE SUB DUP2 ADD SWAP1 PUSH2 0x177 SWAP2 SWAP1 PUSH2 0x877 JUMP JUMPDEST PUSH2 0x3D2 JUMP JUMPDEST STOP JUMPDEST CALLVALUE DUP1 ISZERO PUSH2 0x18A JUMPI PUSH1 0x0 DUP1 REVERT JUMPDEST POP PUSH2 0x193 PUSH2 0x466 JUMP JUMPDEST PUSH1 0x40 MLOAD PUSH2 0x1A0 SWAP2 SWAP1 PUSH2 0x971 JUMP JUMPDEST PUSH1 0x40 MLOAD DUP1 SWAP2 SUB SWAP1 RETURN JUMPDEST CALLVALUE DUP1 ISZERO PUSH2 0x1B5 JUMPI PUSH1 0x0 DUP1 REVERT JUMPDEST POP PUSH2 0x1BE PUSH2 0x4F4 JUMP JUMPDEST PUSH1 0x40 MLOAD PUSH2 0x1CB SWAP2 SWAP1 PUSH2 0x971 JUMP JUMPDEST PUSH1 0x40 MLOAD DUP1 SWAP2 SUB SWAP1 RETURN JUMPDEST CALLVALUE DUP1 ISZERO PUSH2 0x1E0 JUMPI PUSH1 0x0 DUP1 REVERT JUMPDEST POP PUSH2 0x1FB PUSH1 0x4 DUP1 CALLDATASIZE SUB DUP2 ADD SWAP1 PUSH2 0x1F6 SWAP2 SWAP1 PUSH2 0x993 JUMP JUMPDEST PUSH2 0x582 JUMP JUMPDEST PUSH1 0x40 MLOAD PUSH2 0x208 SWAP2 SWAP1 PUSH2 0x9DB JUMP JUMPDEST PUSH1 0x40 MLOAD DUP1 SWAP2 SUB SWAP1 RETURN JUMPDEST CALLVALUE DUP1 ISZERO PUSH2 0x21D JUMPI PUSH1 0x0 DUP1 REVERT JUMPDEST POP PUSH2 0x226 PUSH2 0x5B6 JUMP JUMPDEST PUSH1 0x40 MLOAD PUSH2 0x233 SWAP2 SWAP1 PUSH2 0x8C6 JUMP JUMPDEST PUSH1 0x40 MLOAD DUP1 SWAP2 SUB SWAP1 RETURN JUMPDEST PUSH2 0x244 PUSH2 0x5BB JUMP JUMPDEST STOP JUMPDEST CALLVALUE DUP1 ISZERO PUSH2 0x252 JUMPI PUSH1 0x0 DUP1 REVERT JUMPDEST POP PUSH2 0x25B PUSH2 0x6B0 JUMP JUMPDEST PUSH1 0x40 MLOAD PUSH2 0x268 SWAP2 SWAP1 PUSH2 0xA37 JUMP JUMPDEST PUSH1 0x40 MLOAD DUP1 SWAP2 SUB SWAP1 RETURN JUMPDEST CALLVALUE DUP1 ISZERO PUSH2 0x27D JUMPI PUSH1 0x0 DUP1 REVERT JUMPDEST POP PUSH2 0x298 PUSH1 0x4 DUP1 CALLDATASIZE SUB DUP2 ADD SWAP1 PUSH2 0x293 SWAP2 SWAP1 PUSH2 0x993 JUMP JUMPDEST PUSH2 0x6D6 JUMP JUMPDEST STOP JUMPDEST CALLVALUE DUP1 ISZERO PUSH2 0x2A6 JUMPI PUSH1 0x0 DUP1 REVERT JUMPDEST POP PUSH2 0x2AF PUSH2 0x71A JUMP JUMPDEST PUSH1 0x40 MLOAD PUSH2 0x2BC SWAP2 SWAP1 PUSH2 0xA73 JUMP JUMPDEST PUSH1 0x40 MLOAD DUP1 SWAP2 SUB SWAP1 RETURN JUMPDEST CALLVALUE DUP1 ISZERO PUSH2 0x2D1 JUMPI PUSH1 0x0 DUP1 REVERT JUMPDEST POP PUSH2 0x2EC PUSH1 0x4 DUP1 CALLDATASIZE SUB DUP2 ADD SWAP1 PUSH2 0x2E7 SWAP2 SWAP1 PUSH2 0x993 JUMP JUMPDEST PUSH2 0x740 JUMP JUMPDEST STOP JUMPDEST CALLVALUE DUP1 ISZERO PUSH2 0x2FA JUMPI PUSH1 0x0 DUP1 REVERT JUMPDEST POP PUSH2 0x315 PUSH1 0x4 DUP1 CALLDATASIZE SUB DUP2 ADD SWAP1 PUSH2 0x310 SWAP2 SWAP1 PUSH2 0x993 JUMP JUMPDEST PUSH2 0x74A JUMP JUMPDEST PUSH1 0x40 MLOAD PUSH2 0x322 SWAP2 SWAP1 PUSH2 0x971 JUMP JUMPDEST PUSH1 0x40 MLOAD DUP1 SWAP2 SUB SWAP1 RETURN JUMPDEST CALLVALUE DUP1 ISZERO PUSH2 0x337 JUMPI PUSH1 0x0 DUP1 REVERT JUMPDEST POP PUSH2 0x352 PUSH1 0x4 DUP1 CALLDATASIZE SUB DUP2 ADD SWAP1 PUSH2 0x34D SWAP2 SWAP1 PUSH2 0x877 JUMP JUMPDEST PUSH2 0x7DE JUMP JUMPDEST PUSH1 0x40 MLOAD PUSH2 0x35F SWAP2 SWAP1 PUSH2 0x8C6 JUMP JUMPDEST PUSH1 0x40 MLOAD DUP1 SWAP2 SUB SWAP1 RETURN JUMPDEST CALLVALUE DUP1 ISZERO PUSH2 0x374 JUMPI PUSH1 0x0 DUP1 REVERT JUMPDEST POP PUSH2 0x37D PUSH2 0x82F JUMP JUMPDEST PUSH1 0x40 MLOAD PUSH2 0x38A SWAP2 SWAP1 PUSH2 0x8C6 JUMP JUMPDEST PUSH1 0x40 MLOAD DUP1 SWAP2 SUB SWAP1 RETURN JUMPDEST PUSH1 0x0 PUSH1 0x3 PUSH1 0x2 SLOAD PUSH2 0x3A4 SWAP2 SWAP1 PUSH2 0xABD JUMP JUMPDEST SWAP1 POP DUP2 DUP2 PUSH2 0x3B2 SWAP2 SWAP1 PUSH2 0xB2E JUMP JUMPDEST SWAP1 POP DUP3 DUP2 PUSH2 0x3C0 SWAP2 SWAP1 PUSH2 0xABD JUMP JUMPDEST SWAP1 POP SWAP3 SWAP2 POP POP JUMP JUMPDEST PUSH1 0x0 PUSH1 0x2 SLOAD SWAP1 POP SWAP1 JUMP JUMPDEST PUSH1 0x1E DUP3 LT PUSH2 0x415 JUMPI PUSH1 0x40 MLOAD PUSH32 0x8C379A000000000000000000000000000000000000000000000000000000000 DUP2 MSTORE PUSH1 0x4 ADD PUSH2 0x40C SWAP1 PUSH2 0xBAB JUMP JUMPDEST PUSH1 0x40 MLOAD DUP1 SWAP2 SUB SWAP1 REVERT JUMPDEST PUSH1 0x0 JUMPDEST DUP3 DUP2 LT ISZERO PUSH2 0x461 JUMPI PUSH1 0x64 DUP3 PUSH1 0x2 SLOAD PUSH2 0x430 SWAP2 SWAP1 PUSH2 0xABD JUMP JUMPDEST PUSH2 0x43A SWAP2 SWAP1 PUSH2 0xB2E JUMP JUMPDEST PUSH1 0x2 SLOAD PUSH2 0x447 SWAP2 SWAP1 PUSH2 0xBCB JUMP JUMPDEST PUSH1 0x2 DUP2 SWAP1 SSTORE POP PUSH1 0x2 DUP2 PUSH2 0x45A SWAP2 SWAP1 PUSH2 0xBCB JUMP JUMPDEST SWAP1 POP PUSH2 0x418 JUMP JUMPDEST POP POP POP JUMP JUMPDEST PUSH1 0x0 DUP1 SLOAD PUSH2 0x473 SWAP1 PUSH2 0xC2E JUMP JUMPDEST DUP1 PUSH1 0x1F ADD PUSH1 0x20 DUP1 SWAP2 DIV MUL PUSH1 0x20 ADD PUSH1 0x40 MLOAD SWAP1 DUP2 ADD PUSH1 0x40 MSTORE DUP1 SWAP3 SWAP2 SWAP1 DUP2 DUP2 MSTORE PUSH1 0x20 ADD DUP3 DUP1 SLOAD PUSH2 0x49F SWAP1 PUSH2 0xC2E JUMP JUMPDEST DUP1 ISZERO PUSH2 0x4EC JUMPI DUP1 PUSH1 0x1F LT PUSH2 0x4C1 JUMPI PUSH2 0x100 DUP1 DUP4 SLOAD DIV MUL DUP4 MSTORE SWAP2 PUSH1 0x20 ADD SWAP2 PUSH2 0x4EC JUMP JUMPDEST DUP3 ADD SWAP2 SWAP1 PUSH1 0x0 MSTORE PUSH1 0x20 PUSH1 0x0 KECCAK256 SWAP1 JUMPDEST DUP2 SLOAD DUP2 MSTORE SWAP1 PUSH1 0x1 ADD SWAP1 PUSH1 0x20 ADD DUP1 DUP4 GT PUSH2 0x4CF JUMPI DUP3 SWAP1 SUB PUSH1 0x1F AND DUP3 ADD SWAP2 JUMPDEST POP POP POP POP POP DUP2 JUMP JUMPDEST PUSH1 0x1 DUP1 SLOAD PUSH2 0x501 SWAP1 PUSH2 0xC2E JUMP JUMPDEST DUP1 PUSH1 0x1F ADD PUSH1 0x20 DUP1 SWAP2 DIV MUL PUSH1 0x20 ADD PUSH1 0x40 MLOAD SWAP1 DUP2 ADD PUSH1 0x40 MSTORE DUP1 SWAP3 SWAP2 SWAP1 DUP2 DUP2 MSTORE PUSH1 0x20 ADD DUP3 DUP1 SLOAD PUSH2 0x52D SWAP1 PUSH2 0xC2E JUMP JUMPDEST DUP1 ISZERO PUSH2 0x57A JUMPI DUP1 PUSH1 0x1F LT PUSH2 0x54F JUMPI PUSH2 0x100 DUP1 DUP4 SLOAD DIV MUL DUP4 MSTORE SWAP2 PUSH1 0x20 ADD SWAP2 PUSH2 0x57A JUMP JUMPDEST DUP3 ADD SWAP2 SWAP1 PUSH1 0x0 MSTORE PUSH1 0x20 PUSH1 0x0 KECCAK256 SWAP1 JUMPDEST DUP2 SLOAD DUP2 MSTORE SWAP1 PUSH1 0x1 ADD SWAP1 PUSH1 0x20 ADD DUP1 DUP4 GT PUSH2 0x55D JUMPI DUP3 SWAP1 SUB PUSH1 0x1F AND DUP3 ADD SWAP2 JUMPDEST POP POP POP POP POP DUP2 JUMP JUMPDEST PUSH1 0x3 DUP2 DUP2 SLOAD DUP2 LT PUSH2 0x592 JUMPI PUSH1 0x0 DUP1 REVERT JUMPDEST SWAP1 PUSH1 0x0 MSTORE PUSH1 0x20 PUSH1 0x0 KECCAK256 SWAP1 PUSH1 0x20 SWAP2 DUP3 DUP3 DIV ADD SWAP2 SWAP1 MOD SWAP2 POP SLOAD SWAP1 PUSH2 0x100 EXP SWAP1 DIV PUSH1 0xFF AND DUP2 JUMP JUMPDEST PUSH1 0x3 DUP2 JUMP JUMPDEST PUSH1 0x2 SLOAD CALLVALUE LT ISZERO PUSH2 0x600 JUMPI PUSH1 0x40 MLOAD PUSH32 0x8C379A000000000000000000000000000000000000000000000000000000000 DUP2 MSTORE PUSH1 0x4 ADD PUSH2 0x5F7 SWAP1 PUSH2 0xCAB JUMP JUMPDEST PUSH1 0x40 MLOAD DUP1 SWAP2 SUB SWAP1 REVERT JUMPDEST PUSH1 0x4 PUSH1 0x0 SWAP1 SLOAD SWAP1 PUSH2 0x100 EXP SWAP1 DIV PUSH20 0xFFFFFFFFFFFFFFFFFFFFFFFFFFFFFFFFFFFFFFFF AND PUSH20 0xFFFFFFFFFFFFFFFFFFFFFFFFFFFFFFFFFFFFFFFF AND PUSH2 0x8FC CALLVALUE SWAP1 DUP2 ISZERO MUL SWAP1 PUSH1 0x40 MLOAD PUSH1 0x0 PUSH1 0x40 MLOAD DUP1 DUP4 SUB DUP2 DUP6 DUP9 DUP9 CALL SWAP4 POP POP POP POP ISZERO DUP1 ISZERO PUSH2 0x668 JUMPI RETURNDATASIZE PUSH1 0x0 DUP1 RETURNDATACOPY RETURNDATASIZE PUSH1 0x0 REVERT JUMPDEST POP PUSH1 0x3 PUSH1 0x1 SWAP1 DUP1 PUSH1 0x1 DUP2 SLOAD ADD DUP1 DUP3 SSTORE DUP1 SWAP2 POP POP PUSH1 0x1 SWAP1 SUB SWAP1 PUSH1 0x0 MSTORE PUSH1 0x20 PUSH1 0x0 KECCAK256 SWAP1 PUSH1 0x20 SWAP2 DUP3 DUP3 DIV ADD SWAP2 SWAP1 MOD SWAP1 SWAP2 SWAP1 SWAP2 SWAP1 SWAP2 PUSH2 0x100 EXP DUP2 SLOAD DUP2 PUSH1 0xFF MUL NOT AND SWAP1 DUP4 ISZERO ISZERO MUL OR SWAP1 SSTORE POP JUMP JUMPDEST PUSH1 0x5 PUSH1 0x0 SWAP1 SLOAD SWAP1 PUSH2 0x100 EXP SWAP1 DIV PUSH20 0xFFFFFFFFFFFFFFFFFFFFFFFFFFFFFFFFFFFFFFFF AND DUP2 JUMP JUMPDEST PUSH1 0x14 DUP2 GT ISZERO PUSH2 0x6E4 JUMPI PUSH1 0x14 SWAP1 POP JUMPDEST PUSH1 0x0 PUSH1 0x64 DUP3 PUSH1 0x2 SLOAD PUSH2 0x6F6 SWAP2 SWAP1 PUSH2 0xABD JUMP JUMPDEST PUSH2 0x700 SWAP2 SWAP1 PUSH2 0xB2E JUMP JUMPDEST SWAP1 POP DUP1 PUSH1 0x2 SLOAD PUSH2 0x710 SWAP2 SWAP1 PUSH2 0xBCB JUMP JUMPDEST PUSH1 0x2 DUP2 SWAP1 SSTORE POP POP POP JUMP JUMPDEST PUSH1 0x4 PUSH1 0x0 SWAP1 SLOAD SWAP1 PUSH2 0x100 EXP SWAP1 DIV PUSH20 0xFFFFFFFFFFFFFFFFFFFFFFFFFFFFFFFFFFFFFFFF AND DUP2 JUMP JUMPDEST DUP1 PUSH1 0x2 DUP2 SWAP1 SSTORE POP POP JUMP JUMPDEST PUSH1 0x60 PUSH2 0x1388 DUP3 PUSH1 0x2 SLOAD PUSH2 0x75D SWAP2 SWAP1 PUSH2 0xABD JUMP JUMPDEST GT ISZERO PUSH2 0x7A0 JUMPI PUSH1 0x40 MLOAD DUP1 PUSH1 0x40 ADD PUSH1 0x40 MSTORE DUP1 PUSH1 0xA DUP2 MSTORE PUSH1 0x20 ADD PUSH32 0x4D7569746F206361726F00000000000000000000000000000000000000000000 DUP2 MSTORE POP SWAP1 POP PUSH2 0x7D9 JUMP JUMPDEST PUSH1 0x40 MLOAD DUP1 PUSH1 0x40 ADD PUSH1 0x40 MSTORE DUP1 PUSH1 0xE DUP2 MSTORE PUSH1 0x20 ADD PUSH32 0x507265636F2072617A6F6176656C000000000000000000000000000000000000 DUP2 MSTORE POP SWAP1 POP JUMPDEST SWAP2 SWAP1 POP JUMP JUMPDEST PUSH1 0x0 DUP1 JUMPDEST PUSH3 0x186A0 DUP2 PUSH13 0xFFFFFFFFFFFFFFFFFFFFFFFFFF AND LT ISZERO PUSH2 0x828 JUMPI DUP3 DUP5 PUSH2 0x808 SWAP2 SWAP1 PUSH2 0xB2E JUMP JUMPDEST DUP3 PUSH2 0x813 SWAP2 SWAP1 PUSH2 0xBCB JUMP JUMPDEST SWAP2 POP DUP1 DUP1 PUSH2 0x820 SWAP1 PUSH2 0xCE4 JUMP JUMPDEST SWAP2 POP POP PUSH2 0x7E2 JUMP JUMPDEST POP SWAP3 SWAP2 POP POP JUMP JUMPDEST PUSH1 0x0 PUSH1 0x3 DUP1 SLOAD SWAP1 POP SWAP1 POP SWAP1 JUMP JUMPDEST PUSH1 0x0 DUP1 REVERT JUMPDEST PUSH1 0x0 DUP2 SWAP1 POP SWAP2 SWAP1 POP JUMP JUMPDEST PUSH2 0x854 DUP2 PUSH2 0x841 JUMP JUMPDEST DUP2 EQ PUSH2 0x85F JUMPI PUSH1 0x0 DUP1 REVERT JUMPDEST POP JUMP JUMPDEST PUSH1 0x0 DUP2 CALLDATALOAD SWAP1 POP PUSH2 0x871 DUP2 PUSH2 0x84B JUMP JUMPDEST SWAP3 SWAP2 POP POP JUMP JUMPDEST PUSH1 0x0 DUP1 PUSH1 0x40 DUP4 DUP6 SUB SLT ISZERO PUSH2 0x88E JUMPI PUSH2 0x88D PUSH2 0x83C JUMP JUMPDEST JUMPDEST PUSH1 0x0 PUSH2 0x89C DUP6 DUP3 DUP7 ADD PUSH2 0x862 JUMP JUMPDEST SWAP3 POP POP PUSH1 0x20 PUSH2 0x8AD DUP6 DUP3 DUP7 ADD PUSH2 0x862 JUMP JUMPDEST SWAP2 POP POP SWAP3 POP SWAP3 SWAP1 POP JUMP JUMPDEST PUSH2 0x8C0 DUP2 PUSH2 0x841 JUMP JUMPDEST DUP3 MSTORE POP POP JUMP JUMPDEST PUSH1 0x0 PUSH1 0x20 DUP3 ADD SWAP1 POP PUSH2 0x8DB PUSH1 0x0 DUP4 ADD DUP5 PUSH2 0x8B7 JUMP JUMPDEST SWAP3 SWAP2 POP POP JUMP JUMPDEST PUSH1 0x0 DUP2 MLOAD SWAP1 POP SWAP2 SWAP1 POP JUMP JUMPDEST PUSH1 0x0 DUP3 DUP3 MSTORE PUSH1 0x20 DUP3 ADD SWAP1 POP SWAP3 SWAP2 POP POP JUMP JUMPDEST PUSH1 0x0 JUMPDEST DUP4 DUP2 LT ISZERO PUSH2 0x91B JUMPI DUP1 DUP3 ADD MLOAD DUP2 DUP5 ADD MSTORE PUSH1 0x20 DUP2 ADD SWAP1 POP PUSH2 0x900 JUMP JUMPDEST PUSH1 0x0 DUP5 DUP5 ADD MSTORE POP POP POP POP JUMP JUMPDEST PUSH1 0x0 PUSH1 0x1F NOT PUSH1 0x1F DUP4 ADD AND SWAP1 POP SWAP2 SWAP1 POP JUMP JUMPDEST PUSH1 0x0 PUSH2 0x943 DUP3 PUSH2 0x8E1 JUMP JUMPDEST PUSH2 0x94D DUP2 DUP6 PUSH2 0x8EC JUMP JUMPDEST SWAP4 POP PUSH2 0x95D DUP2 DUP6 PUSH1 0x20 DUP7 ADD PUSH2 0x8FD JUMP JUMPDEST PUSH2 0x966 DUP2 PUSH2 0x927 JUMP JUMPDEST DUP5 ADD SWAP2 POP POP SWAP3 SWAP2 POP POP JUMP JUMPDEST PUSH1 0x0 PUSH1 0x20 DUP3 ADD SWAP1 POP DUP2 DUP2 SUB PUSH1 0x0 DUP4 ADD MSTORE PUSH2 0x98B DUP2 DUP5 PUSH2 0x938 JUMP JUMPDEST SWAP1 POP SWAP3 SWAP2 POP POP JUMP JUMPDEST PUSH1 0x0 PUSH1 0x20 DUP3 DUP5 SUB SLT ISZERO PUSH2 0x9A9 JUMPI PUSH2 0x9A8 PUSH2 0x83C JUMP JUMPDEST JUMPDEST PUSH1 0x0 PUSH2 0x9B7 DUP5 DUP3 DUP6 ADD PUSH2 0x862 JUMP JUMPDEST SWAP2 POP POP SWAP3 SWAP2 POP POP JUMP JUMPDEST PUSH1 0x0 DUP2 ISZERO ISZERO SWAP1 POP SWAP2 SWAP1 POP JUMP JUMPDEST PUSH2 0x9D5 DUP2 PUSH2 0x9C0 JUMP JUMPDEST DUP3 MSTORE POP POP JUMP JUMPDEST PUSH1 0x0 PUSH1 0x20 DUP3 ADD SWAP1 POP PUSH2 0x9F0 PUSH1 0x0 DUP4 ADD DUP5 PUSH2 0x9CC JUMP JUMPDEST SWAP3 SWAP2 POP POP JUMP JUMPDEST PUSH1 0x0 PUSH20 0xFFFFFFFFFFFFFFFFFFFFFFFFFFFFFFFFFFFFFFFF DUP3 AND SWAP1 POP SWAP2 SWAP1 POP JUMP JUMPDEST PUSH1 0x0 PUSH2 0xA21 DUP3 PUSH2 0x9F6 JUMP JUMPDEST SWAP1 POP SWAP2 SWAP1 POP JUMP JUMPDEST PUSH2 0xA31 DUP2 PUSH2 0xA16 JUMP JUMPDEST DUP3 MSTORE POP POP JUMP JUMPDEST PUSH1 0x0 PUSH1 0x20 DUP3 ADD SWAP1 POP PUSH2 0xA4C PUSH1 0x0 DUP4 ADD DUP5 PUSH2 0xA28 JUMP JUMPDEST SWAP3 SWAP2 POP POP JUMP JUMPDEST PUSH1 0x0 PUSH2 0xA5D DUP3 PUSH2 0x9F6 JUMP JUMPDEST SWAP1 POP SWAP2 SWAP1 POP JUMP JUMPDEST PUSH2 0xA6D DUP2 PUSH2 0xA52 JUMP JUMPDEST DUP3 MSTORE POP POP JUMP JUMPDEST PUSH1 0x0 PUSH1 0x20 DUP3 ADD SWAP1 POP PUSH2 0xA88 PUSH1 0x0 DUP4 ADD DUP5 PUSH2 0xA64 JUMP JUMPDEST SWAP3 SWAP2 POP POP JUMP JUMPDEST PUSH32 0x4E487B7100000000000000000000000000000000000000000000000000000000 PUSH1 0x0 MSTORE PUSH1 0x11 PUSH1 0x4 MSTORE PUSH1 0x24 PUSH1 0x0 REVERT JUMPDEST PUSH1 0x0 PUSH2 0xAC8 DUP3 PUSH2 0x841 JUMP JUMPDEST SWAP2 POP PUSH2 0xAD3 DUP4 PUSH2 0x841 JUMP JUMPDEST SWAP3 POP DUP3 DUP3 MUL PUSH2 0xAE1 DUP2 PUSH2 0x841 JUMP JUMPDEST SWAP2 POP DUP3 DUP3 DIV DUP5 EQ DUP4 ISZERO OR PUSH2 0xAF8 JUMPI PUSH2 0xAF7 PUSH2 0xA8E JUMP JUMPDEST JUMPDEST POP SWAP3 SWAP2 POP POP JUMP JUMPDEST PUSH32 0x4E487B7100000000000000000000000000000000000000000000000000000000 PUSH1 0x0 MSTORE PUSH1 0x12 PUSH1 0x4 MSTORE PUSH1 0x24 PUSH1 0x0 REVERT JUMPDEST PUSH1 0x0 PUSH2 0xB39 DUP3 PUSH2 0x841 JUMP JUMPDEST SWAP2 POP PUSH2 0xB44 DUP4 PUSH2 0x841 JUMP JUMPDEST SWAP3 POP DUP3 PUSH2 0xB54 JUMPI PUSH2 0xB53 PUSH2 0xAFF JUMP JUMPDEST JUMPDEST DUP3 DUP3 DIV SWAP1 POP SWAP3 SWAP2 POP POP JUMP JUMPDEST PUSH32 0x506572696F646F20646520636F6E747261746F20696E76616C69646F00000000 PUSH1 0x0 DUP3 ADD MSTORE POP JUMP JUMPDEST PUSH1 0x0 PUSH2 0xB95 PUSH1 0x1C DUP4 PUSH2 0x8EC JUMP JUMPDEST SWAP2 POP PUSH2 0xBA0 DUP3 PUSH2 0xB5F JUMP JUMPDEST PUSH1 0x20 DUP3 ADD SWAP1 POP SWAP2 SWAP1 POP JUMP JUMPDEST PUSH1 0x0 PUSH1 0x20 DUP3 ADD SWAP1 POP DUP2 DUP2 SUB PUSH1 0x0 DUP4 ADD MSTORE PUSH2 0xBC4 DUP2 PUSH2 0xB88 JUMP JUMPDEST SWAP1 POP SWAP2 SWAP1 POP JUMP JUMPDEST PUSH1 0x0 PUSH2 0xBD6 DUP3 PUSH2 0x841 JUMP JUMPDEST SWAP2 POP PUSH2 0xBE1 DUP4 PUSH2 0x841 JUMP JUMPDEST SWAP3 POP DUP3 DUP3 ADD SWAP1 POP DUP1 DUP3 GT ISZERO PUSH2 0xBF9 JUMPI PUSH2 0xBF8 PUSH2 0xA8E JUMP JUMPDEST JUMPDEST SWAP3 SWAP2 POP POP JUMP JUMPDEST PUSH32 0x4E487B7100000000000000000000000000000000000000000000000000000000 PUSH1 0x0 MSTORE PUSH1 0x22 PUSH1 0x4 MSTORE PUSH1 0x24 PUSH1 0x0 REVERT JUMPDEST PUSH1 0x0 PUSH1 0x2 DUP3 DIV SWAP1 POP PUSH1 0x1 DUP3 AND DUP1 PUSH2 0xC46 JUMPI PUSH1 0x7F DUP3 AND SWAP2 POP JUMPDEST PUSH1 0x20 DUP3 LT DUP2 SUB PUSH2 0xC59 JUMPI PUSH2 0xC58 PUSH2 0xBFF JUMP JUMPDEST JUMPDEST POP SWAP2 SWAP1 POP JUMP JUMPDEST PUSH32 0x56616C6F7220696E737566696369656E74650000000000000000000000000000 PUSH1 0x0 DUP3 ADD MSTORE POP JUMP JUMPDEST PUSH1 0x0 PUSH2 0xC95 PUSH1 0x12 DUP4 PUSH2 0x8EC JUMP JUMPDEST SWAP2 POP PUSH2 0xCA0 DUP3 PUSH2 0xC5F JUMP JUMPDEST PUSH1 0x20 DUP3 ADD SWAP1 POP SWAP2 SWAP1 POP JUMP JUMPDEST PUSH1 0x0 PUSH1 0x20 DUP3 ADD SWAP1 POP DUP2 DUP2 SUB PUSH1 0x0 DUP4 ADD MSTORE PUSH2 0xCC4 DUP2 PUSH2 0xC88 JUMP JUMPDEST SWAP1 POP SWAP2 SWAP1 POP JUMP JUMPDEST PUSH1 0x0 PUSH13 0xFFFFFFFFFFFFFFFFFFFFFFFFFF DUP3 AND SWAP1 POP SWAP2 SWAP1 POP JUMP JUMPDEST PUSH1 0x0 PUSH2 0xCEF DUP3 PUSH2 0xCCB JUMP JUMPDEST SWAP2 POP PUSH13 0xFFFFFFFFFFFFFFFFFFFFFFFFFF DUP3 SUB PUSH2 0xD0E JUMPI PUSH2 0xD0D PUSH2 0xA8E JUMP JUMPDEST JUMPDEST PUSH1 0x1 DUP3 ADD SWAP1 POP SWAP2 SWAP1 POP JUMP INVALID LOG2 PUSH5 0x6970667358 0x22 SLT KECCAK256 0x4D PUSH2 0xFB08 0xD8 0xAD 0x4E 0x5F 0x27 CREATE STOP CODECOPY SUB ADDRESS 0x4C 0xF8 0x4E 0xA8 OR PREVRANDAO 0xB8 0xD RETURN NOT SLOAD EXP 0xD5 PUSH1 0x89 0xBB POP 0xA9 PUSH5 0x736F6C6343 STOP ADDMOD SGT STOP CALLER "
				},
				"gasEstimates": {
					"creation": {
						"codeDepositCost": "681400",
						"executionCost": "infinite",
						"totalCost": "infinite"
					},
					"external": {
						"aditamentoValorAluguel(uint256)": "22542",
						"aplicaMulta(uint256,uint256)": "infinite",
						"contaLocador()": "2603",
						"locador()": "infinite",
						"locatario()": "infinite",
						"numeroMaximoLegalDeAlugueisParaMulta()": "418",
						"owner()": "2559",
						"quantosPagamentosJaForamFeitos()": "2533",
						"reajustaAluguel(uint256)": "infinite",
						"receberPagamento()": "infinite",
						"retornaTexto(uint256)": "infinite",
						"simulaMulta(uint256,uint256)": "infinite",
						"statusPagamento(uint256)": "6608",
						"testeCalculo(uint256,uint256)": "infinite",
						"valorAtualDoAluguel()": "2483"
					}
				},
				"methodIdentifiers": {
					"aditamentoValorAluguel(uint256)": "b235612a",
					"aplicaMulta(uint256,uint256)": "35f580f0",
					"contaLocador()": "af74c59a",
					"locador()": "5098e165",
					"locatario()": "409bb8ab",
					"numeroMaximoLegalDeAlugueisParaMulta()": "68f01ee9",
					"owner()": "8da5cb5b",
					"quantosPagamentosJaForamFeitos()": "e862b9e1",
					"reajustaAluguel(uint256)": "960daf46",
					"receberPagamento()": "8d2802d9",
					"retornaTexto(uint256)": "b3fbc324",
					"simulaMulta(uint256,uint256)": "03deed58",
					"statusPagamento(uint256)": "5a661872",
					"testeCalculo(uint256,uint256)": "cb44b1ea",
					"valorAtualDoAluguel()": "2d058150"
				}
			},
			"storageLayout": {
				"storage": [
					{
						"astId": 3,
						"contract": "contracts/4_Aluguel.sol:Aluguel",
						"label": "locatario",
						"offset": 0,
						"slot": "0",
						"type": "t_string_storage"
					},
					{
						"astId": 5,
						"contract": "contracts/4_Aluguel.sol:Aluguel",
						"label": "locador",
						"offset": 0,
						"slot": "1",
						"type": "t_string_storage"
					},
					{
						"astId": 7,
						"contract": "contracts/4_Aluguel.sol:Aluguel",
						"label": "valor",
						"offset": 0,
						"slot": "2",
						"type": "t_uint256"
					},
					{
						"astId": 13,
						"contract": "contracts/4_Aluguel.sol:Aluguel",
						"label": "statusPagamento",
						"offset": 0,
						"slot": "3",
						"type": "t_array(t_bool)dyn_storage"
					},
					{
						"astId": 15,
						"contract": "contracts/4_Aluguel.sol:Aluguel",
						"label": "contaLocador",
						"offset": 0,
						"slot": "4",
						"type": "t_address_payable"
					},
					{
						"astId": 17,
						"contract": "contracts/4_Aluguel.sol:Aluguel",
						"label": "owner",
						"offset": 0,
						"slot": "5",
						"type": "t_address"
					}
				],
				"types": {
					"t_address": {
						"encoding": "inplace",
						"label": "address",
						"numberOfBytes": "20"
					},
					"t_address_payable": {
						"encoding": "inplace",
						"label": "address payable",
						"numberOfBytes": "20"
					},
					"t_array(t_bool)dyn_storage": {
						"base": "t_bool",
						"encoding": "dynamic_array",
						"label": "bool[]",
						"numberOfBytes": "32"
					},
					"t_bool": {
						"encoding": "inplace",
						"label": "bool",
						"numberOfBytes": "1"
					},
					"t_string_storage": {
						"encoding": "bytes",
						"label": "string",
						"numberOfBytes": "32"
					},
					"t_uint256": {
						"encoding": "inplace",
						"label": "uint256",
						"numberOfBytes": "32"
					}
				}
			},
			"userdoc": {
				"kind": "user",
				"methods": {},
				"version": 1
			}
		}
	}
}