{
	"token/token_debenture.sol": {
		"DebentureQuaseNada": {
			"abi": [
				{
					"inputs": [],
					"stateMutability": "nonpayable",
					"type": "constructor"
				},
				{
					"anonymous": false,
					"inputs": [
						{
							"indexed": true,
							"internalType": "address",
							"name": "owner",
							"type": "address"
						},
						{
							"indexed": true,
							"internalType": "address",
							"name": "spender",
							"type": "address"
						},
						{
							"indexed": false,
							"internalType": "uint256",
							"name": "value",
							"type": "uint256"
						}
					],
					"name": "Approval",
					"type": "event"
				},
				{
					"anonymous": false,
					"inputs": [
						{
							"indexed": false,
							"internalType": "uint256",
							"name": "prazoAntigo",
							"type": "uint256"
						},
						{
							"indexed": false,
							"internalType": "uint256",
							"name": "prazoNovo",
							"type": "uint256"
						}
					],
					"name": "NovoPrazoPagamento",
					"type": "event"
				},
				{
					"anonymous": false,
					"inputs": [
						{
							"indexed": true,
							"internalType": "address",
							"name": "from",
							"type": "address"
						},
						{
							"indexed": true,
							"internalType": "address",
							"name": "to",
							"type": "address"
						},
						{
							"indexed": false,
							"internalType": "uint256",
							"name": "value",
							"type": "uint256"
						}
					],
					"name": "Transfer",
					"type": "event"
				},
				{
					"inputs": [
						{
							"internalType": "address",
							"name": "tokenOwner",
							"type": "address"
						},
						{
							"internalType": "address",
							"name": "spender",
							"type": "address"
						}
					],
					"name": "allowance",
					"outputs": [
						{
							"internalType": "uint256",
							"name": "",
							"type": "uint256"
						}
					],
					"stateMutability": "view",
					"type": "function"
				},
				{
					"inputs": [
						{
							"internalType": "uint16",
							"name": "fracoes_",
							"type": "uint16"
						}
					],
					"name": "alteraFracoes",
					"outputs": [
						{
							"internalType": "bool",
							"name": "",
							"type": "bool"
						}
					],
					"stateMutability": "nonpayable",
					"type": "function"
				},
				{
					"inputs": [
						{
							"internalType": "address",
							"name": "spender",
							"type": "address"
						},
						{
							"internalType": "uint256",
							"name": "limit",
							"type": "uint256"
						}
					],
					"name": "approve",
					"outputs": [
						{
							"internalType": "bool",
							"name": "",
							"type": "bool"
						}
					],
					"stateMutability": "nonpayable",
					"type": "function"
				},
				{
					"inputs": [
						{
							"internalType": "address",
							"name": "tokenOwner",
							"type": "address"
						}
					],
					"name": "balanceOf",
					"outputs": [
						{
							"internalType": "uint256",
							"name": "",
							"type": "uint256"
						}
					],
					"stateMutability": "view",
					"type": "function"
				},
				{
					"inputs": [
						{
							"internalType": "address",
							"name": "account",
							"type": "address"
						},
						{
							"internalType": "uint256",
							"name": "amount",
							"type": "uint256"
						}
					],
					"name": "burn",
					"outputs": [
						{
							"internalType": "bool",
							"name": "",
							"type": "bool"
						}
					],
					"stateMutability": "nonpayable",
					"type": "function"
				},
				{
					"inputs": [
						{
							"internalType": "address",
							"name": "_newOwner",
							"type": "address"
						}
					],
					"name": "changeOwner",
					"outputs": [
						{
							"internalType": "bool",
							"name": "",
							"type": "bool"
						}
					],
					"stateMutability": "nonpayable",
					"type": "function"
				},
				{
					"inputs": [],
					"name": "dataEmissao",
					"outputs": [
						{
							"internalType": "uint256",
							"name": "",
							"type": "uint256"
						}
					],
					"stateMutability": "view",
					"type": "function"
				},
				{
					"inputs": [],
					"name": "decimals",
					"outputs": [
						{
							"internalType": "uint256",
							"name": "",
							"type": "uint256"
						}
					],
					"stateMutability": "view",
					"type": "function"
				},
				{
					"inputs": [],
					"name": "detalhesDoTitulo",
					"outputs": [
						{
							"internalType": "contract Titulo",
							"name": "contrato",
							"type": "address"
						}
					],
					"stateMutability": "view",
					"type": "function"
				},
				{
					"inputs": [],
					"name": "fracoes",
					"outputs": [
						{
							"internalType": "uint256",
							"name": "",
							"type": "uint256"
						}
					],
					"stateMutability": "view",
					"type": "function"
				},
				{
					"inputs": [
						{
							"internalType": "address",
							"name": "account",
							"type": "address"
						},
						{
							"internalType": "uint256",
							"name": "amount",
							"type": "uint256"
						}
					],
					"name": "mint",
					"outputs": [
						{
							"internalType": "bool",
							"name": "",
							"type": "bool"
						}
					],
					"stateMutability": "nonpayable",
					"type": "function"
				},
				{
					"inputs": [
						{
							"internalType": "string",
							"name": "novoRating",
							"type": "string"
						}
					],
					"name": "mudaRating",
					"outputs": [
						{
							"internalType": "bool",
							"name": "",
							"type": "bool"
						}
					],
					"stateMutability": "nonpayable",
					"type": "function"
				},
				{
					"inputs": [],
					"name": "name",
					"outputs": [
						{
							"internalType": "string",
							"name": "",
							"type": "string"
						}
					],
					"stateMutability": "view",
					"type": "function"
				},
				{
					"inputs": [],
					"name": "nomeEmissor",
					"outputs": [
						{
							"internalType": "string",
							"name": "",
							"type": "string"
						}
					],
					"stateMutability": "view",
					"type": "function"
				},
				{
					"inputs": [],
					"name": "rating",
					"outputs": [
						{
							"internalType": "string",
							"name": "",
							"type": "string"
						}
					],
					"stateMutability": "view",
					"type": "function"
				},
				{
					"inputs": [],
					"name": "symbol",
					"outputs": [
						{
							"internalType": "string",
							"name": "",
							"type": "string"
						}
					],
					"stateMutability": "view",
					"type": "function"
				},
				{
					"inputs": [],
					"name": "totalSupply",
					"outputs": [
						{
							"internalType": "uint256",
							"name": "",
							"type": "uint256"
						}
					],
					"stateMutability": "view",
					"type": "function"
				},
				{
					"inputs": [
						{
							"internalType": "address",
							"name": "to",
							"type": "address"
						},
						{
							"internalType": "uint256",
							"name": "amount",
							"type": "uint256"
						}
					],
					"name": "transfer",
					"outputs": [
						{
							"internalType": "bool",
							"name": "",
							"type": "bool"
						}
					],
					"stateMutability": "nonpayable",
					"type": "function"
				},
				{
					"inputs": [
						{
							"internalType": "address",
							"name": "from",
							"type": "address"
						},
						{
							"internalType": "address",
							"name": "to",
							"type": "address"
						},
						{
							"internalType": "uint256",
							"name": "amount",
							"type": "uint256"
						}
					],
					"name": "transferFrom",
					"outputs": [
						{
							"internalType": "bool",
							"name": "",
							"type": "bool"
						}
					],
					"stateMutability": "nonpayable",
					"type": "function"
				},
				{
					"inputs": [],
					"name": "valorNominal",
					"outputs": [
						{
							"internalType": "uint256",
							"name": "",
							"type": "uint256"
						}
					],
					"stateMutability": "pure",
					"type": "function"
				},
				{
					"inputs": [],
					"name": "whoIsTheOwner",
					"outputs": [
						{
							"internalType": "address",
							"name": "",
							"type": "address"
						}
					],
					"stateMutability": "view",
					"type": "function"
				}
			],
			"devdoc": {
				"author": "Felipph Calado",
				"details": "Operacoes de uma debenture",
				"events": {
					"Approval(address,address,uint256)": {
						"details": "Emitted when the allowance of a `spender` for an `owner` is set by a call to {approve}. `value` is the new allowance."
					},
					"NovoPrazoPagamento(uint256,uint256)": {
						"details": "Emitido quando um novo prazo de pagamento é definido"
					},
					"Transfer(address,address,uint256)": {
						"details": "Emitted when `value` tokens are moved from one account (`from`) to another (`to`). Note that `value` may be zero."
					}
				},
				"kind": "dev",
				"methods": {
					"dataEmissao()": {
						"details": "Retorna a data da emissao."
					},
					"fracoes()": {
						"details": "retorna o valor da variavel fracoes"
					},
					"mudaRating(string)": {
						"details": "muda o rating",
						"params": {
							"novoRating": "novo rating da debenture"
						}
					},
					"nomeEmissor()": {
						"details": "Retorna o nome do Emissor."
					},
					"rating()": {
						"details": "Retorna o valor nominal."
					},
					"totalSupply()": {
						"details": "Returns the amount of tokens in existence."
					},
					"valorNominal()": {
						"details": "Retorna o valor nominal."
					}
				},
				"title": "Debenture",
				"version": 1
			},
			"evm": {
				"assembly": "    /* \"token/token_debenture.sol\":3986:9130  contract DebentureQuaseNada is Titulo, Ownable, IERC20 {... */\n  mstore(0x40, 0xe0)\n    /* \"token/token_debenture.sol\":4265:4268  100 */\n  0x64\n    /* \"token/token_debenture.sol\":4230:4268  uint256 immutable _valorUnitario = 100 */\n  0xc0\n  swap1\n  dup2\n  mstore\n  pop\n    /* \"token/token_debenture.sol\":5024:5416  constructor() {        ... */\n  callvalue\n  dup1\n  iszero\n  tag_1\n  jumpi\n  0x00\n  dup1\n  revert\ntag_1:\n  pop\n    /* \"token/token_debenture.sol\":3549:3559  msg.sender */\n  caller\n    /* \"token/token_debenture.sol\":3525:3538  contractOwner */\n  0x00\n  dup1\n    /* \"token/token_debenture.sol\":3525:3560  contractOwner = payable(msg.sender) */\n  0x0100\n  exp\n  dup2\n  sload\n  dup2\n  0xffffffffffffffffffffffffffffffffffffffff\n  mul\n  not\n  and\n  swap1\n  dup4\n  0xffffffffffffffffffffffffffffffffffffffff\n  and\n  mul\n  or\n  swap1\n  sstore\n  pop\n    /* \"token/token_debenture.sol\":5068:5069  2 */\n  0x02\n    /* \"token/token_debenture.sol\":5056:5069  _decimais = 2 */\n  0xff\n  and\n  0xa0\n  dup2\n  0xff\n  and\n  dup2\n  mstore\n  pop\n  pop\n    /* \"token/token_debenture.sol\":5094:5109  block.timestamp */\n  timestamp\n    /* \"token/token_debenture.sol\":5079:5109  _dataEmissao = block.timestamp */\n  0x80\n  dup2\n  dup2\n  mstore\n  pop\n  pop\n    /* \"token/token_debenture.sol\":5152:5159  90 days */\n  0x76a700\n    /* \"token/token_debenture.sol\":5137:5149  _dataEmissao */\n  mload(0x80)\n    /* \"token/token_debenture.sol\":5137:5159  _dataEmissao + 90 days */\n  tag_6\n  swap2\n  swap1\n  tag_7\n  jump\t// in\ntag_6:\n    /* \"token/token_debenture.sol\":5119:5134  _prazoPagamento */\n  0x01\n    /* \"token/token_debenture.sol\":5119:5159  _prazoPagamento = _dataEmissao + 90 days */\n  dup2\n  swap1\n  sstore\n  pop\n    /* \"token/token_debenture.sol\":5169:5185  _rating = \"AAA+\" */\n  mload(0x40)\n  dup1\n  0x40\n  add\n  0x40\n  mstore\n  dup1\n  0x04\n  dup2\n  mstore\n  0x20\n  add\n  0x4141412b00000000000000000000000000000000000000000000000000000000\n  dup2\n  mstore\n  pop\n    /* \"token/token_debenture.sol\":5169:5176  _rating */\n  0x07\n    /* \"token/token_debenture.sol\":5169:5185  _rating = \"AAA+\" */\n  swap1\n  dup2\n  tag_8\n  swap2\n  swap1\n  tag_9\n  jump\t// in\ntag_8:\n  pop\n    /* \"token/token_debenture.sol\":5195:5230  myName = \"Debenture Quase Nada S/A\" */\n  mload(0x40)\n  dup1\n  0x40\n  add\n  0x40\n  mstore\n  dup1\n  0x18\n  dup2\n  mstore\n  0x20\n  add\n  0x446562656e74757265205175617365204e61646120532f410000000000000000\n  dup2\n  mstore\n  pop\n    /* \"token/token_debenture.sol\":5195:5201  myName */\n  0x02\n    /* \"token/token_debenture.sol\":5195:5230  myName = \"Debenture Quase Nada S/A\" */\n  swap1\n  dup2\n  tag_10\n  swap2\n  swap1\n  tag_9\n  jump\t// in\ntag_10:\n  pop\n    /* \"token/token_debenture.sol\":5241:5264  mySymbol = \"DOMRAMON51\" */\n  mload(0x40)\n  dup1\n  0x40\n  add\n  0x40\n  mstore\n  dup1\n  0x0a\n  dup2\n  mstore\n  0x20\n  add\n  0x444f4d52414d4f4e353100000000000000000000000000000000000000000000\n  dup2\n  mstore\n  pop\n    /* \"token/token_debenture.sol\":5241:5249  mySymbol */\n  0x03\n    /* \"token/token_debenture.sol\":5241:5264  mySymbol = \"DOMRAMON51\" */\n  swap1\n  dup2\n  tag_11\n  swap2\n  swap1\n  tag_9\n  jump\t// in\ntag_11:\n  pop\n    /* \"token/token_debenture.sol\":5285:5286  2 */\n  0x02\n    /* \"token/token_debenture.sol\":5274:5282  decimals */\n  0x04\n    /* \"token/token_debenture.sol\":5274:5286  decimals = 2 */\n  dup2\n  swap1\n  sstore\n  pop\n    /* \"token/token_debenture.sol\":5296:5345  mint(msg.sender, (1000000000 * (10 ** decimals))) */\n  tag_12\n    /* \"token/token_debenture.sol\":5301:5311  msg.sender */\n  caller\n    /* \"token/token_debenture.sol\":5334:5342  decimals */\n  sload(0x04)\n    /* \"token/token_debenture.sol\":5328:5330  10 */\n  0x0a\n    /* \"token/token_debenture.sol\":5328:5342  10 ** decimals */\n  tag_13\n  swap2\n  swap1\n  tag_14\n  jump\t// in\ntag_13:\n    /* \"token/token_debenture.sol\":5314:5324  1000000000 */\n  0x3b9aca00\n    /* \"token/token_debenture.sol\":5314:5343  1000000000 * (10 ** decimals) */\n  tag_15\n  swap2\n  swap1\n  tag_16\n  jump\t// in\ntag_15:\n    /* \"token/token_debenture.sol\":5296:5300  mint */\n  shl(0x20, tag_17)\n    /* \"token/token_debenture.sol\":5296:5345  mint(msg.sender, (1000000000 * (10 ** decimals))) */\n  0x20\n  shr\n  jump\t// in\ntag_12:\n  pop\n    /* \"token/token_debenture.sol\":5360:5409  NovoPrazoPagamento(_dataEmissao, _prazoPagamento) */\n  0x17ca6475bfb6360f560590b7b98486285bf9dfa961b50d865ab171166e08f991\n    /* \"token/token_debenture.sol\":5379:5391  _dataEmissao */\n  mload(0x80)\n    /* \"token/token_debenture.sol\":5393:5408  _prazoPagamento */\n  sload(0x01)\n    /* \"token/token_debenture.sol\":5360:5409  NovoPrazoPagamento(_dataEmissao, _prazoPagamento) */\n  mload(0x40)\n  tag_18\n  swap3\n  swap2\n  swap1\n  tag_19\n  jump\t// in\ntag_18:\n  mload(0x40)\n  dup1\n  swap2\n  sub\n  swap1\n  log1\n    /* \"token/token_debenture.sol\":3986:9130  contract DebentureQuaseNada is Titulo, Ownable, IERC20 {... */\n  jump(tag_20)\n    /* \"token/token_debenture.sol\":8406:8767  function mint(address account, uint256 amount) public onlyOwner returns (bool) {... */\ntag_17:\n    /* \"token/token_debenture.sol\":8479:8483  bool */\n  0x00\n    /* \"token/token_debenture.sol\":3421:3434  contractOwner */\n  dup1\n  0x00\n  swap1\n  sload\n  swap1\n  0x0100\n  exp\n  swap1\n  div\n  0xffffffffffffffffffffffffffffffffffffffff\n  and\n    /* \"token/token_debenture.sol\":3407:3434  msg.sender == contractOwner */\n  0xffffffffffffffffffffffffffffffffffffffff\n  and\n    /* \"token/token_debenture.sol\":3407:3417  msg.sender */\n  caller\n    /* \"token/token_debenture.sol\":3407:3434  msg.sender == contractOwner */\n  0xffffffffffffffffffffffffffffffffffffffff\n  and\n  eq\n    /* \"token/token_debenture.sol\":3399:3476  require(msg.sender == contractOwner, \"only owner can perform this operation\") */\n  tag_22\n  jumpi\n  mload(0x40)\n  0x08c379a000000000000000000000000000000000000000000000000000000000\n  dup2\n  mstore\n  0x04\n  add\n  tag_23\n  swap1\n  tag_24\n  jump\t// in\ntag_23:\n  mload(0x40)\n  dup1\n  swap2\n  sub\n  swap1\n  revert\ntag_22:\n    /* \"token/token_debenture.sol\":8522:8523  0 */\n  0x00\n    /* \"token/token_debenture.sol\":8503:8524  account != address(0) */\n  0xffffffffffffffffffffffffffffffffffffffff\n  and\n    /* \"token/token_debenture.sol\":8503:8510  account */\n  dup4\n    /* \"token/token_debenture.sol\":8503:8524  account != address(0) */\n  0xffffffffffffffffffffffffffffffffffffffff\n  and\n  sub\n    /* \"token/token_debenture.sol\":8495:8560  require(account != address(0), \"ERC20: mint to the zero address\") */\n  tag_26\n  jumpi\n  mload(0x40)\n  0x08c379a000000000000000000000000000000000000000000000000000000000\n  dup2\n  mstore\n  0x04\n  add\n  tag_27\n  swap1\n  tag_28\n  jump\t// in\ntag_27:\n  mload(0x40)\n  dup1\n  swap2\n  sub\n  swap1\n  revert\ntag_26:\n    /* \"token/token_debenture.sol\":8591:8597  amount */\n  dup2\n    /* \"token/token_debenture.sol\":8579:8587  _fracoes */\n  0x05\n  0x00\n    /* \"token/token_debenture.sol\":8579:8597  _fracoes += amount */\n  dup3\n  dup3\n  sload\n  tag_29\n  swap2\n  swap1\n  tag_7\n  jump\t// in\ntag_29:\n  swap3\n  pop\n  pop\n  dup2\n  swap1\n  sstore\n  pop\n    /* \"token/token_debenture.sol\":8636:8650  _valorUnitario */\n  mload(0xc0)\n    /* \"token/token_debenture.sol\":8627:8633  amount */\n  dup3\n    /* \"token/token_debenture.sol\":8627:8650  amount * _valorUnitario */\n  tag_30\n  swap2\n  swap1\n  tag_16\n  jump\t// in\ntag_30:\n    /* \"token/token_debenture.sol\":8607:8623  _vlrTotalEstoque */\n  0x06\n  0x00\n    /* \"token/token_debenture.sol\":8607:8650  _vlrTotalEstoque += amount * _valorUnitario */\n  dup3\n  dup3\n  sload\n  tag_31\n  swap2\n  swap1\n  tag_7\n  jump\t// in\ntag_31:\n  swap3\n  pop\n  pop\n  dup2\n  swap1\n  sstore\n  pop\n    /* \"token/token_debenture.sol\":8681:8687  amount */\n  dup2\n    /* \"token/token_debenture.sol\":8660:8668  balances */\n  0x08\n    /* \"token/token_debenture.sol\":8660:8677  balances[account] */\n  0x00\n    /* \"token/token_debenture.sol\":8669:8676  account */\n  dup6\n    /* \"token/token_debenture.sol\":8660:8677  balances[account] */\n  0xffffffffffffffffffffffffffffffffffffffff\n  and\n  0xffffffffffffffffffffffffffffffffffffffff\n  and\n  dup2\n  mstore\n  0x20\n  add\n  swap1\n  dup2\n  mstore\n  0x20\n  add\n  0x00\n  keccak256\n  0x00\n    /* \"token/token_debenture.sol\":8660:8687  balances[account] += amount */\n  dup3\n  dup3\n  sload\n  tag_32\n  swap2\n  swap1\n  tag_7\n  jump\t// in\ntag_32:\n  swap3\n  pop\n  pop\n  dup2\n  swap1\n  sstore\n  pop\n    /* \"token/token_debenture.sol\":8723:8730  account */\n  dup3\n    /* \"token/token_debenture.sol\":8702:8739  Transfer(address(0), account, amount) */\n  0xffffffffffffffffffffffffffffffffffffffff\n  and\n    /* \"token/token_debenture.sol\":8719:8720  0 */\n  0x00\n    /* \"token/token_debenture.sol\":8702:8739  Transfer(address(0), account, amount) */\n  0xffffffffffffffffffffffffffffffffffffffff\n  and\n  0xddf252ad1be2c89b69c2b068fc378daa952ba7f163c4a11628f55a4df523b3ef\n    /* \"token/token_debenture.sol\":8732:8738  amount */\n  dup5\n    /* \"token/token_debenture.sol\":8702:8739  Transfer(address(0), account, amount) */\n  mload(0x40)\n  tag_33\n  swap2\n  swap1\n  tag_34\n  jump\t// in\ntag_33:\n  mload(0x40)\n  dup1\n  swap2\n  sub\n  swap1\n  log3\n    /* \"token/token_debenture.sol\":8756:8760  true */\n  0x01\n    /* \"token/token_debenture.sol\":8749:8760  return true */\n  swap1\n  pop\n    /* \"token/token_debenture.sol\":8406:8767  function mint(address account, uint256 amount) public onlyOwner returns (bool) {... */\n  swap3\n  swap2\n  pop\n  pop\n  jump\t// out\n    /* \"#utility.yul\":7:84   */\ntag_35:\n    /* \"#utility.yul\":44:51   */\n  0x00\n    /* \"#utility.yul\":73:78   */\n  dup2\n    /* \"#utility.yul\":62:78   */\n  swap1\n  pop\n    /* \"#utility.yul\":7:84   */\n  swap2\n  swap1\n  pop\n  jump\t// out\n    /* \"#utility.yul\":90:270   */\ntag_36:\n    /* \"#utility.yul\":138:215   */\n  0x4e487b7100000000000000000000000000000000000000000000000000000000\n    /* \"#utility.yul\":135:136   */\n  0x00\n    /* \"#utility.yul\":128:216   */\n  mstore\n    /* \"#utility.yul\":235:239   */\n  0x11\n    /* \"#utility.yul\":232:233   */\n  0x04\n    /* \"#utility.yul\":225:240   */\n  mstore\n    /* \"#utility.yul\":259:263   */\n  0x24\n    /* \"#utility.yul\":256:257   */\n  0x00\n    /* \"#utility.yul\":249:264   */\n  revert\n    /* \"#utility.yul\":276:467   */\ntag_7:\n    /* \"#utility.yul\":316:319   */\n  0x00\n    /* \"#utility.yul\":335:355   */\n  tag_69\n    /* \"#utility.yul\":353:354   */\n  dup3\n    /* \"#utility.yul\":335:355   */\n  tag_35\n  jump\t// in\ntag_69:\n    /* \"#utility.yul\":330:355   */\n  swap2\n  pop\n    /* \"#utility.yul\":369:389   */\n  tag_70\n    /* \"#utility.yul\":387:388   */\n  dup4\n    /* \"#utility.yul\":369:389   */\n  tag_35\n  jump\t// in\ntag_70:\n    /* \"#utility.yul\":364:389   */\n  swap3\n  pop\n    /* \"#utility.yul\":412:413   */\n  dup3\n    /* \"#utility.yul\":409:410   */\n  dup3\n    /* \"#utility.yul\":405:414   */\n  add\n    /* \"#utility.yul\":398:414   */\n  swap1\n  pop\n    /* \"#utility.yul\":433:436   */\n  dup1\n    /* \"#utility.yul\":430:431   */\n  dup3\n    /* \"#utility.yul\":427:437   */\n  gt\n    /* \"#utility.yul\":424:460   */\n  iszero\n  tag_71\n  jumpi\n    /* \"#utility.yul\":440:458   */\n  tag_72\n  tag_36\n  jump\t// in\ntag_72:\n    /* \"#utility.yul\":424:460   */\ntag_71:\n    /* \"#utility.yul\":276:467   */\n  swap3\n  swap2\n  pop\n  pop\n  jump\t// out\n    /* \"#utility.yul\":473:572   */\ntag_37:\n    /* \"#utility.yul\":525:531   */\n  0x00\n    /* \"#utility.yul\":559:564   */\n  dup2\n    /* \"#utility.yul\":553:565   */\n  mload\n    /* \"#utility.yul\":543:565   */\n  swap1\n  pop\n    /* \"#utility.yul\":473:572   */\n  swap2\n  swap1\n  pop\n  jump\t// out\n    /* \"#utility.yul\":578:758   */\ntag_38:\n    /* \"#utility.yul\":626:703   */\n  0x4e487b7100000000000000000000000000000000000000000000000000000000\n    /* \"#utility.yul\":623:624   */\n  0x00\n    /* \"#utility.yul\":616:704   */\n  mstore\n    /* \"#utility.yul\":723:727   */\n  0x41\n    /* \"#utility.yul\":720:721   */\n  0x04\n    /* \"#utility.yul\":713:728   */\n  mstore\n    /* \"#utility.yul\":747:751   */\n  0x24\n    /* \"#utility.yul\":744:745   */\n  0x00\n    /* \"#utility.yul\":737:752   */\n  revert\n    /* \"#utility.yul\":764:944   */\ntag_39:\n    /* \"#utility.yul\":812:889   */\n  0x4e487b7100000000000000000000000000000000000000000000000000000000\n    /* \"#utility.yul\":809:810   */\n  0x00\n    /* \"#utility.yul\":802:890   */\n  mstore\n    /* \"#utility.yul\":909:913   */\n  0x22\n    /* \"#utility.yul\":906:907   */\n  0x04\n    /* \"#utility.yul\":899:914   */\n  mstore\n    /* \"#utility.yul\":933:937   */\n  0x24\n    /* \"#utility.yul\":930:931   */\n  0x00\n    /* \"#utility.yul\":923:938   */\n  revert\n    /* \"#utility.yul\":950:1270   */\ntag_40:\n    /* \"#utility.yul\":994:1000   */\n  0x00\n    /* \"#utility.yul\":1031:1032   */\n  0x02\n    /* \"#utility.yul\":1025:1029   */\n  dup3\n    /* \"#utility.yul\":1021:1033   */\n  div\n    /* \"#utility.yul\":1011:1033   */\n  swap1\n  pop\n    /* \"#utility.yul\":1078:1079   */\n  0x01\n    /* \"#utility.yul\":1072:1076   */\n  dup3\n    /* \"#utility.yul\":1068:1080   */\n  and\n    /* \"#utility.yul\":1099:1117   */\n  dup1\n    /* \"#utility.yul\":1089:1170   */\n  tag_77\n  jumpi\n    /* \"#utility.yul\":1155:1159   */\n  0x7f\n    /* \"#utility.yul\":1147:1153   */\n  dup3\n    /* \"#utility.yul\":1143:1160   */\n  and\n    /* \"#utility.yul\":1133:1160   */\n  swap2\n  pop\n    /* \"#utility.yul\":1089:1170   */\ntag_77:\n    /* \"#utility.yul\":1217:1219   */\n  0x20\n    /* \"#utility.yul\":1209:1215   */\n  dup3\n    /* \"#utility.yul\":1206:1220   */\n  lt\n    /* \"#utility.yul\":1186:1204   */\n  dup2\n    /* \"#utility.yul\":1183:1221   */\n  sub\n    /* \"#utility.yul\":1180:1264   */\n  tag_78\n  jumpi\n    /* \"#utility.yul\":1236:1254   */\n  tag_79\n  tag_39\n  jump\t// in\ntag_79:\n    /* \"#utility.yul\":1180:1264   */\ntag_78:\n    /* \"#utility.yul\":1001:1270   */\n  pop\n    /* \"#utility.yul\":950:1270   */\n  swap2\n  swap1\n  pop\n  jump\t// out\n    /* \"#utility.yul\":1276:1417   */\ntag_41:\n    /* \"#utility.yul\":1325:1329   */\n  0x00\n    /* \"#utility.yul\":1348:1351   */\n  dup2\n    /* \"#utility.yul\":1340:1351   */\n  swap1\n  pop\n    /* \"#utility.yul\":1371:1374   */\n  dup2\n    /* \"#utility.yul\":1368:1369   */\n  0x00\n    /* \"#utility.yul\":1361:1375   */\n  mstore\n    /* \"#utility.yul\":1405:1409   */\n  0x20\n    /* \"#utility.yul\":1402:1403   */\n  0x00\n    /* \"#utility.yul\":1392:1410   */\n  keccak256\n    /* \"#utility.yul\":1384:1410   */\n  swap1\n  pop\n    /* \"#utility.yul\":1276:1417   */\n  swap2\n  swap1\n  pop\n  jump\t// out\n    /* \"#utility.yul\":1423:1516   */\ntag_42:\n    /* \"#utility.yul\":1460:1466   */\n  0x00\n    /* \"#utility.yul\":1507:1509   */\n  0x20\n    /* \"#utility.yul\":1502:1504   */\n  0x1f\n    /* \"#utility.yul\":1495:1500   */\n  dup4\n    /* \"#utility.yul\":1491:1505   */\n  add\n    /* \"#utility.yul\":1487:1510   */\n  div\n    /* \"#utility.yul\":1477:1510   */\n  swap1\n  pop\n    /* \"#utility.yul\":1423:1516   */\n  swap2\n  swap1\n  pop\n  jump\t// out\n    /* \"#utility.yul\":1522:1629   */\ntag_43:\n    /* \"#utility.yul\":1566:1574   */\n  0x00\n    /* \"#utility.yul\":1616:1621   */\n  dup3\n    /* \"#utility.yul\":1610:1614   */\n  dup3\n    /* \"#utility.yul\":1606:1622   */\n  shl\n    /* \"#utility.yul\":1585:1622   */\n  swap1\n  pop\n    /* \"#utility.yul\":1522:1629   */\n  swap3\n  swap2\n  pop\n  pop\n  jump\t// out\n    /* \"#utility.yul\":1635:2028   */\ntag_44:\n    /* \"#utility.yul\":1704:1710   */\n  0x00\n    /* \"#utility.yul\":1754:1755   */\n  0x08\n    /* \"#utility.yul\":1742:1752   */\n  dup4\n    /* \"#utility.yul\":1738:1756   */\n  mul\n    /* \"#utility.yul\":1777:1874   */\n  tag_84\n    /* \"#utility.yul\":1807:1873   */\n  0xffffffffffffffffffffffffffffffffffffffffffffffffffffffffffffffff\n    /* \"#utility.yul\":1796:1805   */\n  dup3\n    /* \"#utility.yul\":1777:1874   */\n  tag_43\n  jump\t// in\ntag_84:\n    /* \"#utility.yul\":1895:1934   */\n  tag_85\n    /* \"#utility.yul\":1925:1933   */\n  dup7\n    /* \"#utility.yul\":1914:1923   */\n  dup4\n    /* \"#utility.yul\":1895:1934   */\n  tag_43\n  jump\t// in\ntag_85:\n    /* \"#utility.yul\":1883:1934   */\n  swap6\n  pop\n    /* \"#utility.yul\":1967:1971   */\n  dup1\n    /* \"#utility.yul\":1963:1972   */\n  not\n    /* \"#utility.yul\":1956:1961   */\n  dup5\n    /* \"#utility.yul\":1952:1973   */\n  and\n    /* \"#utility.yul\":1943:1973   */\n  swap4\n  pop\n    /* \"#utility.yul\":2016:2020   */\n  dup1\n    /* \"#utility.yul\":2006:2014   */\n  dup7\n    /* \"#utility.yul\":2002:2021   */\n  and\n    /* \"#utility.yul\":1995:2000   */\n  dup5\n    /* \"#utility.yul\":1992:2022   */\n  or\n    /* \"#utility.yul\":1982:2022   */\n  swap3\n  pop\n    /* \"#utility.yul\":1711:2028   */\n  pop\n  pop\n    /* \"#utility.yul\":1635:2028   */\n  swap4\n  swap3\n  pop\n  pop\n  pop\n  jump\t// out\n    /* \"#utility.yul\":2034:2094   */\ntag_45:\n    /* \"#utility.yul\":2062:2065   */\n  0x00\n    /* \"#utility.yul\":2083:2088   */\n  dup2\n    /* \"#utility.yul\":2076:2088   */\n  swap1\n  pop\n    /* \"#utility.yul\":2034:2094   */\n  swap2\n  swap1\n  pop\n  jump\t// out\n    /* \"#utility.yul\":2100:2242   */\ntag_46:\n    /* \"#utility.yul\":2150:2159   */\n  0x00\n    /* \"#utility.yul\":2183:2236   */\n  tag_88\n    /* \"#utility.yul\":2201:2235   */\n  tag_89\n    /* \"#utility.yul\":2210:2234   */\n  tag_90\n    /* \"#utility.yul\":2228:2233   */\n  dup5\n    /* \"#utility.yul\":2210:2234   */\n  tag_35\n  jump\t// in\ntag_90:\n    /* \"#utility.yul\":2201:2235   */\n  tag_45\n  jump\t// in\ntag_89:\n    /* \"#utility.yul\":2183:2236   */\n  tag_35\n  jump\t// in\ntag_88:\n    /* \"#utility.yul\":2170:2236   */\n  swap1\n  pop\n    /* \"#utility.yul\":2100:2242   */\n  swap2\n  swap1\n  pop\n  jump\t// out\n    /* \"#utility.yul\":2248:2323   */\ntag_47:\n    /* \"#utility.yul\":2291:2294   */\n  0x00\n    /* \"#utility.yul\":2312:2317   */\n  dup2\n    /* \"#utility.yul\":2305:2317   */\n  swap1\n  pop\n    /* \"#utility.yul\":2248:2323   */\n  swap2\n  swap1\n  pop\n  jump\t// out\n    /* \"#utility.yul\":2329:2598   */\ntag_48:\n    /* \"#utility.yul\":2439:2478   */\n  tag_93\n    /* \"#utility.yul\":2470:2477   */\n  dup4\n    /* \"#utility.yul\":2439:2478   */\n  tag_46\n  jump\t// in\ntag_93:\n    /* \"#utility.yul\":2500:2591   */\n  tag_94\n    /* \"#utility.yul\":2549:2590   */\n  tag_95\n    /* \"#utility.yul\":2573:2589   */\n  dup3\n    /* \"#utility.yul\":2549:2590   */\n  tag_47\n  jump\t// in\ntag_95:\n    /* \"#utility.yul\":2541:2547   */\n  dup5\n    /* \"#utility.yul\":2534:2538   */\n  dup5\n    /* \"#utility.yul\":2528:2539   */\n  sload\n    /* \"#utility.yul\":2500:2591   */\n  tag_44\n  jump\t// in\ntag_94:\n    /* \"#utility.yul\":2494:2498   */\n  dup3\n    /* \"#utility.yul\":2487:2592   */\n  sstore\n    /* \"#utility.yul\":2405:2598   */\n  pop\n    /* \"#utility.yul\":2329:2598   */\n  pop\n  pop\n  pop\n  jump\t// out\n    /* \"#utility.yul\":2604:2677   */\ntag_49:\n    /* \"#utility.yul\":2649:2652   */\n  0x00\n    /* \"#utility.yul\":2604:2677   */\n  swap1\n  jump\t// out\n    /* \"#utility.yul\":2683:2872   */\ntag_50:\n    /* \"#utility.yul\":2760:2792   */\n  tag_98\n  tag_49\n  jump\t// in\ntag_98:\n    /* \"#utility.yul\":2801:2866   */\n  tag_99\n    /* \"#utility.yul\":2859:2865   */\n  dup2\n    /* \"#utility.yul\":2851:2857   */\n  dup5\n    /* \"#utility.yul\":2845:2849   */\n  dup5\n    /* \"#utility.yul\":2801:2866   */\n  tag_48\n  jump\t// in\ntag_99:\n    /* \"#utility.yul\":2736:2872   */\n  pop\n    /* \"#utility.yul\":2683:2872   */\n  pop\n  pop\n  jump\t// out\n    /* \"#utility.yul\":2878:3064   */\ntag_51:\n    /* \"#utility.yul\":2938:3058   */\ntag_101:\n    /* \"#utility.yul\":2955:2958   */\n  dup2\n    /* \"#utility.yul\":2948:2953   */\n  dup2\n    /* \"#utility.yul\":2945:2959   */\n  lt\n    /* \"#utility.yul\":2938:3058   */\n  iszero\n  tag_103\n  jumpi\n    /* \"#utility.yul\":3009:3048   */\n  tag_104\n    /* \"#utility.yul\":3046:3047   */\n  0x00\n    /* \"#utility.yul\":3039:3044   */\n  dup3\n    /* \"#utility.yul\":3009:3048   */\n  tag_50\n  jump\t// in\ntag_104:\n    /* \"#utility.yul\":2982:2983   */\n  0x01\n    /* \"#utility.yul\":2975:2980   */\n  dup2\n    /* \"#utility.yul\":2971:2984   */\n  add\n    /* \"#utility.yul\":2962:2984   */\n  swap1\n  pop\n    /* \"#utility.yul\":2938:3058   */\n  jump(tag_101)\ntag_103:\n    /* \"#utility.yul\":2878:3064   */\n  pop\n  pop\n  jump\t// out\n    /* \"#utility.yul\":3070:3613   */\ntag_52:\n    /* \"#utility.yul\":3171:3173   */\n  0x1f\n    /* \"#utility.yul\":3166:3169   */\n  dup3\n    /* \"#utility.yul\":3163:3174   */\n  gt\n    /* \"#utility.yul\":3160:3606   */\n  iszero\n  tag_106\n  jumpi\n    /* \"#utility.yul\":3205:3243   */\n  tag_107\n    /* \"#utility.yul\":3237:3242   */\n  dup2\n    /* \"#utility.yul\":3205:3243   */\n  tag_41\n  jump\t// in\ntag_107:\n    /* \"#utility.yul\":3289:3318   */\n  tag_108\n    /* \"#utility.yul\":3307:3317   */\n  dup5\n    /* \"#utility.yul\":3289:3318   */\n  tag_42\n  jump\t// in\ntag_108:\n    /* \"#utility.yul\":3279:3287   */\n  dup2\n    /* \"#utility.yul\":3275:3319   */\n  add\n    /* \"#utility.yul\":3472:3474   */\n  0x20\n    /* \"#utility.yul\":3460:3470   */\n  dup6\n    /* \"#utility.yul\":3457:3475   */\n  lt\n    /* \"#utility.yul\":3454:3503   */\n  iszero\n  tag_109\n  jumpi\n    /* \"#utility.yul\":3493:3501   */\n  dup2\n    /* \"#utility.yul\":3478:3501   */\n  swap1\n  pop\n    /* \"#utility.yul\":3454:3503   */\ntag_109:\n    /* \"#utility.yul\":3516:3596   */\n  tag_110\n    /* \"#utility.yul\":3572:3594   */\n  tag_111\n    /* \"#utility.yul\":3590:3593   */\n  dup6\n    /* \"#utility.yul\":3572:3594   */\n  tag_42\n  jump\t// in\ntag_111:\n    /* \"#utility.yul\":3562:3570   */\n  dup4\n    /* \"#utility.yul\":3558:3595   */\n  add\n    /* \"#utility.yul\":3545:3556   */\n  dup3\n    /* \"#utility.yul\":3516:3596   */\n  tag_51\n  jump\t// in\ntag_110:\n    /* \"#utility.yul\":3175:3606   */\n  pop\n  pop\n    /* \"#utility.yul\":3160:3606   */\ntag_106:\n    /* \"#utility.yul\":3070:3613   */\n  pop\n  pop\n  pop\n  jump\t// out\n    /* \"#utility.yul\":3619:3736   */\ntag_53:\n    /* \"#utility.yul\":3673:3681   */\n  0x00\n    /* \"#utility.yul\":3723:3728   */\n  dup3\n    /* \"#utility.yul\":3717:3721   */\n  dup3\n    /* \"#utility.yul\":3713:3729   */\n  shr\n    /* \"#utility.yul\":3692:3729   */\n  swap1\n  pop\n    /* \"#utility.yul\":3619:3736   */\n  swap3\n  swap2\n  pop\n  pop\n  jump\t// out\n    /* \"#utility.yul\":3742:3911   */\ntag_54:\n    /* \"#utility.yul\":3786:3792   */\n  0x00\n    /* \"#utility.yul\":3819:3870   */\n  tag_114\n    /* \"#utility.yul\":3867:3868   */\n  0x00\n    /* \"#utility.yul\":3863:3869   */\n  not\n    /* \"#utility.yul\":3855:3860   */\n  dup5\n    /* \"#utility.yul\":3852:3853   */\n  0x08\n    /* \"#utility.yul\":3848:3861   */\n  mul\n    /* \"#utility.yul\":3819:3870   */\n  tag_53\n  jump\t// in\ntag_114:\n    /* \"#utility.yul\":3815:3871   */\n  not\n    /* \"#utility.yul\":3900:3904   */\n  dup1\n    /* \"#utility.yul\":3894:3898   */\n  dup4\n    /* \"#utility.yul\":3890:3905   */\n  and\n    /* \"#utility.yul\":3880:3905   */\n  swap2\n  pop\n    /* \"#utility.yul\":3793:3911   */\n  pop\n    /* \"#utility.yul\":3742:3911   */\n  swap3\n  swap2\n  pop\n  pop\n  jump\t// out\n    /* \"#utility.yul\":3916:4211   */\ntag_55:\n    /* \"#utility.yul\":3992:3996   */\n  0x00\n    /* \"#utility.yul\":4138:4167   */\n  tag_116\n    /* \"#utility.yul\":4163:4166   */\n  dup4\n    /* \"#utility.yul\":4157:4161   */\n  dup4\n    /* \"#utility.yul\":4138:4167   */\n  tag_54\n  jump\t// in\ntag_116:\n    /* \"#utility.yul\":4130:4167   */\n  swap2\n  pop\n    /* \"#utility.yul\":4200:4203   */\n  dup3\n    /* \"#utility.yul\":4197:4198   */\n  0x02\n    /* \"#utility.yul\":4193:4204   */\n  mul\n    /* \"#utility.yul\":4187:4191   */\n  dup3\n    /* \"#utility.yul\":4184:4205   */\n  or\n    /* \"#utility.yul\":4176:4205   */\n  swap1\n  pop\n    /* \"#utility.yul\":3916:4211   */\n  swap3\n  swap2\n  pop\n  pop\n  jump\t// out\n    /* \"#utility.yul\":4216:5611   */\ntag_9:\n    /* \"#utility.yul\":4333:4370   */\n  tag_118\n    /* \"#utility.yul\":4366:4369   */\n  dup3\n    /* \"#utility.yul\":4333:4370   */\n  tag_37\n  jump\t// in\ntag_118:\n    /* \"#utility.yul\":4435:4453   */\n  0xffffffffffffffff\n    /* \"#utility.yul\":4427:4433   */\n  dup2\n    /* \"#utility.yul\":4424:4454   */\n  gt\n    /* \"#utility.yul\":4421:4477   */\n  iszero\n  tag_119\n  jumpi\n    /* \"#utility.yul\":4457:4475   */\n  tag_120\n  tag_38\n  jump\t// in\ntag_120:\n    /* \"#utility.yul\":4421:4477   */\ntag_119:\n    /* \"#utility.yul\":4501:4539   */\n  tag_121\n    /* \"#utility.yul\":4533:4537   */\n  dup3\n    /* \"#utility.yul\":4527:4538   */\n  sload\n    /* \"#utility.yul\":4501:4539   */\n  tag_40\n  jump\t// in\ntag_121:\n    /* \"#utility.yul\":4586:4653   */\n  tag_122\n    /* \"#utility.yul\":4646:4652   */\n  dup3\n    /* \"#utility.yul\":4638:4644   */\n  dup3\n    /* \"#utility.yul\":4632:4636   */\n  dup6\n    /* \"#utility.yul\":4586:4653   */\n  tag_52\n  jump\t// in\ntag_122:\n    /* \"#utility.yul\":4680:4681   */\n  0x00\n    /* \"#utility.yul\":4704:4708   */\n  0x20\n    /* \"#utility.yul\":4691:4708   */\n  swap1\n  pop\n    /* \"#utility.yul\":4736:4738   */\n  0x1f\n    /* \"#utility.yul\":4728:4734   */\n  dup4\n    /* \"#utility.yul\":4725:4739   */\n  gt\n    /* \"#utility.yul\":4753:4754   */\n  0x01\n    /* \"#utility.yul\":4748:5366   */\n  dup2\n  eq\n  tag_124\n  jumpi\n    /* \"#utility.yul\":5410:5411   */\n  0x00\n    /* \"#utility.yul\":5427:5433   */\n  dup5\n    /* \"#utility.yul\":5424:5501   */\n  iszero\n  tag_125\n  jumpi\n    /* \"#utility.yul\":5476:5485   */\n  dup3\n    /* \"#utility.yul\":5471:5474   */\n  dup8\n    /* \"#utility.yul\":5467:5486   */\n  add\n    /* \"#utility.yul\":5461:5487   */\n  mload\n    /* \"#utility.yul\":5452:5487   */\n  swap1\n  pop\n    /* \"#utility.yul\":5424:5501   */\ntag_125:\n    /* \"#utility.yul\":5527:5594   */\n  tag_126\n    /* \"#utility.yul\":5587:5593   */\n  dup6\n    /* \"#utility.yul\":5580:5585   */\n  dup3\n    /* \"#utility.yul\":5527:5594   */\n  tag_55\n  jump\t// in\ntag_126:\n    /* \"#utility.yul\":5521:5525   */\n  dup7\n    /* \"#utility.yul\":5514:5595   */\n  sstore\n    /* \"#utility.yul\":5383:5605   */\n  pop\n    /* \"#utility.yul\":4718:5605   */\n  jump(tag_123)\n    /* \"#utility.yul\":4748:5366   */\ntag_124:\n    /* \"#utility.yul\":4800:4804   */\n  0x1f\n    /* \"#utility.yul\":4796:4805   */\n  not\n    /* \"#utility.yul\":4788:4794   */\n  dup5\n    /* \"#utility.yul\":4784:4806   */\n  and\n    /* \"#utility.yul\":4834:4871   */\n  tag_127\n    /* \"#utility.yul\":4866:4870   */\n  dup7\n    /* \"#utility.yul\":4834:4871   */\n  tag_41\n  jump\t// in\ntag_127:\n    /* \"#utility.yul\":4893:4894   */\n  0x00\n    /* \"#utility.yul\":4907:5115   */\ntag_128:\n    /* \"#utility.yul\":4921:4928   */\n  dup3\n    /* \"#utility.yul\":4918:4919   */\n  dup2\n    /* \"#utility.yul\":4915:4929   */\n  lt\n    /* \"#utility.yul\":4907:5115   */\n  iszero\n  tag_130\n  jumpi\n    /* \"#utility.yul\":5000:5009   */\n  dup5\n    /* \"#utility.yul\":4995:4998   */\n  dup10\n    /* \"#utility.yul\":4991:5010   */\n  add\n    /* \"#utility.yul\":4985:5011   */\n  mload\n    /* \"#utility.yul\":4977:4983   */\n  dup3\n    /* \"#utility.yul\":4970:5012   */\n  sstore\n    /* \"#utility.yul\":5051:5052   */\n  0x01\n    /* \"#utility.yul\":5043:5049   */\n  dup3\n    /* \"#utility.yul\":5039:5053   */\n  add\n    /* \"#utility.yul\":5029:5053   */\n  swap2\n  pop\n    /* \"#utility.yul\":5098:5100   */\n  0x20\n    /* \"#utility.yul\":5087:5096   */\n  dup6\n    /* \"#utility.yul\":5083:5101   */\n  add\n    /* \"#utility.yul\":5070:5101   */\n  swap5\n  pop\n    /* \"#utility.yul\":4944:4948   */\n  0x20\n    /* \"#utility.yul\":4941:4942   */\n  dup2\n    /* \"#utility.yul\":4937:4949   */\n  add\n    /* \"#utility.yul\":4932:4949   */\n  swap1\n  pop\n    /* \"#utility.yul\":4907:5115   */\n  jump(tag_128)\ntag_130:\n    /* \"#utility.yul\":5143:5149   */\n  dup7\n    /* \"#utility.yul\":5134:5141   */\n  dup4\n    /* \"#utility.yul\":5131:5150   */\n  lt\n    /* \"#utility.yul\":5128:5307   */\n  iszero\n  tag_131\n  jumpi\n    /* \"#utility.yul\":5201:5210   */\n  dup5\n    /* \"#utility.yul\":5196:5199   */\n  dup10\n    /* \"#utility.yul\":5192:5211   */\n  add\n    /* \"#utility.yul\":5186:5212   */\n  mload\n    /* \"#utility.yul\":5244:5292   */\n  tag_132\n    /* \"#utility.yul\":5286:5290   */\n  0x1f\n    /* \"#utility.yul\":5278:5284   */\n  dup10\n    /* \"#utility.yul\":5274:5291   */\n  and\n    /* \"#utility.yul\":5263:5272   */\n  dup3\n    /* \"#utility.yul\":5244:5292   */\n  tag_54\n  jump\t// in\ntag_132:\n    /* \"#utility.yul\":5236:5242   */\n  dup4\n    /* \"#utility.yul\":5229:5293   */\n  sstore\n    /* \"#utility.yul\":5151:5307   */\n  pop\n    /* \"#utility.yul\":5128:5307   */\ntag_131:\n    /* \"#utility.yul\":5353:5354   */\n  0x01\n    /* \"#utility.yul\":5349:5350   */\n  0x02\n    /* \"#utility.yul\":5341:5347   */\n  dup9\n    /* \"#utility.yul\":5337:5351   */\n  mul\n    /* \"#utility.yul\":5333:5355   */\n  add\n    /* \"#utility.yul\":5327:5331   */\n  dup9\n    /* \"#utility.yul\":5320:5356   */\n  sstore\n    /* \"#utility.yul\":4755:5366   */\n  pop\n  pop\n  pop\n    /* \"#utility.yul\":4718:5605   */\ntag_123:\n  pop\n    /* \"#utility.yul\":4308:5611   */\n  pop\n  pop\n  pop\n    /* \"#utility.yul\":4216:5611   */\n  pop\n  pop\n  jump\t// out\n    /* \"#utility.yul\":5617:5719   */\ntag_56:\n    /* \"#utility.yul\":5659:5667   */\n  0x00\n    /* \"#utility.yul\":5706:5711   */\n  dup2\n    /* \"#utility.yul\":5703:5704   */\n  0x01\n    /* \"#utility.yul\":5699:5712   */\n  shr\n    /* \"#utility.yul\":5678:5712   */\n  swap1\n  pop\n    /* \"#utility.yul\":5617:5719   */\n  swap2\n  swap1\n  pop\n  jump\t// out\n    /* \"#utility.yul\":5725:6573   */\ntag_57:\n    /* \"#utility.yul\":5786:5791   */\n  0x00\n    /* \"#utility.yul\":5793:5797   */\n  dup1\n    /* \"#utility.yul\":5817:5823   */\n  dup3\n    /* \"#utility.yul\":5808:5823   */\n  swap2\n  pop\n    /* \"#utility.yul\":5841:5846   */\n  dup4\n    /* \"#utility.yul\":5832:5846   */\n  swap1\n  pop\n    /* \"#utility.yul\":5855:6567   */\ntag_135:\n    /* \"#utility.yul\":5876:5877   */\n  0x01\n    /* \"#utility.yul\":5866:5874   */\n  dup6\n    /* \"#utility.yul\":5863:5878   */\n  gt\n    /* \"#utility.yul\":5855:6567   */\n  iszero\n  tag_137\n  jumpi\n    /* \"#utility.yul\":5971:5975   */\n  dup1\n    /* \"#utility.yul\":5966:5969   */\n  dup7\n    /* \"#utility.yul\":5962:5976   */\n  div\n    /* \"#utility.yul\":5956:5960   */\n  dup2\n    /* \"#utility.yul\":5953:5977   */\n  gt\n    /* \"#utility.yul\":5950:6000   */\n  iszero\n  tag_138\n  jumpi\n    /* \"#utility.yul\":5980:5998   */\n  tag_139\n  tag_36\n  jump\t// in\ntag_139:\n    /* \"#utility.yul\":5950:6000   */\ntag_138:\n    /* \"#utility.yul\":6030:6031   */\n  0x01\n    /* \"#utility.yul\":6020:6028   */\n  dup6\n    /* \"#utility.yul\":6016:6032   */\n  and\n    /* \"#utility.yul\":6013:6464   */\n  iszero\n  tag_140\n  jumpi\n    /* \"#utility.yul\":6445:6449   */\n  dup1\n    /* \"#utility.yul\":6438:6443   */\n  dup3\n    /* \"#utility.yul\":6434:6450   */\n  mul\n    /* \"#utility.yul\":6425:6450   */\n  swap2\n  pop\n    /* \"#utility.yul\":6013:6464   */\ntag_140:\n    /* \"#utility.yul\":6495:6499   */\n  dup1\n    /* \"#utility.yul\":6489:6493   */\n  dup2\n    /* \"#utility.yul\":6485:6500   */\n  mul\n    /* \"#utility.yul\":6477:6500   */\n  swap1\n  pop\n    /* \"#utility.yul\":6525:6557   */\n  tag_141\n    /* \"#utility.yul\":6548:6556   */\n  dup6\n    /* \"#utility.yul\":6525:6557   */\n  tag_56\n  jump\t// in\ntag_141:\n    /* \"#utility.yul\":6513:6557   */\n  swap5\n  pop\n    /* \"#utility.yul\":5855:6567   */\n  jump(tag_135)\ntag_137:\n    /* \"#utility.yul\":5725:6573   */\n  swap5\n  pop\n  swap5\n  swap3\n  pop\n  pop\n  pop\n  jump\t// out\n    /* \"#utility.yul\":6579:7652   */\ntag_58:\n    /* \"#utility.yul\":6633:6638   */\n  0x00\n    /* \"#utility.yul\":6824:6832   */\n  dup3\n    /* \"#utility.yul\":6814:6854   */\n  tag_143\n  jumpi\n    /* \"#utility.yul\":6845:6846   */\n  0x01\n    /* \"#utility.yul\":6836:6846   */\n  swap1\n  pop\n    /* \"#utility.yul\":6847:6852   */\n  jump(tag_142)\n    /* \"#utility.yul\":6814:6854   */\ntag_143:\n    /* \"#utility.yul\":6873:6877   */\n  dup2\n    /* \"#utility.yul\":6863:6899   */\n  tag_144\n  jumpi\n    /* \"#utility.yul\":6890:6891   */\n  0x00\n    /* \"#utility.yul\":6881:6891   */\n  swap1\n  pop\n    /* \"#utility.yul\":6892:6897   */\n  jump(tag_142)\n    /* \"#utility.yul\":6863:6899   */\ntag_144:\n    /* \"#utility.yul\":6959:6963   */\n  dup2\n    /* \"#utility.yul\":7007:7008   */\n  0x01\n    /* \"#utility.yul\":7002:7029   */\n  dup2\n  eq\n  tag_146\n  jumpi\n    /* \"#utility.yul\":7043:7044   */\n  0x02\n    /* \"#utility.yul\":7038:7229   */\n  dup2\n  eq\n  tag_147\n  jumpi\n    /* \"#utility.yul\":6952:7229   */\n  jump(tag_145)\n    /* \"#utility.yul\":7002:7029   */\ntag_146:\n    /* \"#utility.yul\":7020:7021   */\n  0x01\n    /* \"#utility.yul\":7011:7021   */\n  swap2\n  pop\n    /* \"#utility.yul\":7022:7027   */\n  pop\n  jump(tag_142)\n    /* \"#utility.yul\":7038:7229   */\ntag_147:\n    /* \"#utility.yul\":7083:7086   */\n  0xff\n    /* \"#utility.yul\":7073:7081   */\n  dup5\n    /* \"#utility.yul\":7070:7087   */\n  gt\n    /* \"#utility.yul\":7067:7110   */\n  iszero\n  tag_148\n  jumpi\n    /* \"#utility.yul\":7090:7108   */\n  tag_149\n  tag_36\n  jump\t// in\ntag_149:\n    /* \"#utility.yul\":7067:7110   */\ntag_148:\n    /* \"#utility.yul\":7139:7147   */\n  dup4\n    /* \"#utility.yul\":7136:7137   */\n  0x02\n    /* \"#utility.yul\":7132:7148   */\n  exp\n    /* \"#utility.yul\":7123:7148   */\n  swap2\n  pop\n    /* \"#utility.yul\":7174:7177   */\n  dup5\n    /* \"#utility.yul\":7167:7172   */\n  dup3\n    /* \"#utility.yul\":7164:7178   */\n  gt\n    /* \"#utility.yul\":7161:7201   */\n  iszero\n  tag_150\n  jumpi\n    /* \"#utility.yul\":7181:7199   */\n  tag_151\n  tag_36\n  jump\t// in\ntag_151:\n    /* \"#utility.yul\":7161:7201   */\ntag_150:\n    /* \"#utility.yul\":7214:7219   */\n  pop\n  jump(tag_142)\n    /* \"#utility.yul\":6952:7229   */\ntag_145:\n  pop\n    /* \"#utility.yul\":7338:7340   */\n  0x20\n    /* \"#utility.yul\":7328:7336   */\n  dup4\n    /* \"#utility.yul\":7325:7341   */\n  lt\n    /* \"#utility.yul\":7319:7322   */\n  0x0133\n    /* \"#utility.yul\":7313:7317   */\n  dup4\n    /* \"#utility.yul\":7310:7323   */\n  lt\n    /* \"#utility.yul\":7306:7342   */\n  and\n    /* \"#utility.yul\":7288:7290   */\n  0x4e\n    /* \"#utility.yul\":7278:7286   */\n  dup5\n    /* \"#utility.yul\":7275:7291   */\n  lt\n    /* \"#utility.yul\":7270:7272   */\n  0x0b\n    /* \"#utility.yul\":7264:7268   */\n  dup5\n    /* \"#utility.yul\":7261:7273   */\n  lt\n    /* \"#utility.yul\":7257:7292   */\n  and\n    /* \"#utility.yul\":7241:7352   */\n  or\n    /* \"#utility.yul\":7238:7484   */\n  iszero\n  tag_152\n  jumpi\n    /* \"#utility.yul\":7394:7402   */\n  dup3\n    /* \"#utility.yul\":7388:7392   */\n  dup3\n    /* \"#utility.yul\":7384:7403   */\n  exp\n    /* \"#utility.yul\":7375:7403   */\n  swap1\n  pop\n    /* \"#utility.yul\":7429:7432   */\n  dup4\n    /* \"#utility.yul\":7422:7427   */\n  dup2\n    /* \"#utility.yul\":7419:7433   */\n  gt\n    /* \"#utility.yul\":7416:7456   */\n  iszero\n  tag_153\n  jumpi\n    /* \"#utility.yul\":7436:7454   */\n  tag_154\n  tag_36\n  jump\t// in\ntag_154:\n    /* \"#utility.yul\":7416:7456   */\ntag_153:\n    /* \"#utility.yul\":7469:7474   */\n  jump(tag_142)\n    /* \"#utility.yul\":7238:7484   */\ntag_152:\n    /* \"#utility.yul\":7509:7551   */\n  tag_155\n    /* \"#utility.yul\":7547:7550   */\n  dup5\n    /* \"#utility.yul\":7537:7545   */\n  dup5\n    /* \"#utility.yul\":7531:7535   */\n  dup5\n    /* \"#utility.yul\":7528:7529   */\n  0x01\n    /* \"#utility.yul\":7509:7551   */\n  tag_57\n  jump\t// in\ntag_155:\n    /* \"#utility.yul\":7494:7551   */\n  swap3\n  pop\n  swap1\n  pop\n    /* \"#utility.yul\":7583:7587   */\n  dup2\n    /* \"#utility.yul\":7578:7581   */\n  dup5\n    /* \"#utility.yul\":7574:7588   */\n  div\n    /* \"#utility.yul\":7567:7572   */\n  dup2\n    /* \"#utility.yul\":7564:7589   */\n  gt\n    /* \"#utility.yul\":7561:7612   */\n  iszero\n  tag_156\n  jumpi\n    /* \"#utility.yul\":7592:7610   */\n  tag_157\n  tag_36\n  jump\t// in\ntag_157:\n    /* \"#utility.yul\":7561:7612   */\ntag_156:\n    /* \"#utility.yul\":7641:7645   */\n  dup2\n    /* \"#utility.yul\":7634:7639   */\n  dup2\n    /* \"#utility.yul\":7630:7646   */\n  mul\n    /* \"#utility.yul\":7621:7646   */\n  swap1\n  pop\n    /* \"#utility.yul\":6579:7652   */\ntag_142:\n  swap4\n  swap3\n  pop\n  pop\n  pop\n  jump\t// out\n    /* \"#utility.yul\":7658:7943   */\ntag_14:\n    /* \"#utility.yul\":7718:7723   */\n  0x00\n    /* \"#utility.yul\":7742:7765   */\n  tag_159\n    /* \"#utility.yul\":7760:7764   */\n  dup3\n    /* \"#utility.yul\":7742:7765   */\n  tag_35\n  jump\t// in\ntag_159:\n    /* \"#utility.yul\":7734:7765   */\n  swap2\n  pop\n    /* \"#utility.yul\":7786:7813   */\n  tag_160\n    /* \"#utility.yul\":7804:7812   */\n  dup4\n    /* \"#utility.yul\":7786:7813   */\n  tag_35\n  jump\t// in\ntag_160:\n    /* \"#utility.yul\":7774:7813   */\n  swap3\n  pop\n    /* \"#utility.yul\":7832:7936   */\n  tag_161\n    /* \"#utility.yul\":7869:7935   */\n  0xffffffffffffffffffffffffffffffffffffffffffffffffffffffffffffffff\n    /* \"#utility.yul\":7859:7867   */\n  dup5\n    /* \"#utility.yul\":7853:7857   */\n  dup5\n    /* \"#utility.yul\":7832:7936   */\n  tag_58\n  jump\t// in\ntag_161:\n    /* \"#utility.yul\":7823:7936   */\n  swap1\n  pop\n    /* \"#utility.yul\":7658:7943   */\n  swap3\n  swap2\n  pop\n  pop\n  jump\t// out\n    /* \"#utility.yul\":7949:8359   */\ntag_16:\n    /* \"#utility.yul\":7989:7996   */\n  0x00\n    /* \"#utility.yul\":8012:8032   */\n  tag_163\n    /* \"#utility.yul\":8030:8031   */\n  dup3\n    /* \"#utility.yul\":8012:8032   */\n  tag_35\n  jump\t// in\ntag_163:\n    /* \"#utility.yul\":8007:8032   */\n  swap2\n  pop\n    /* \"#utility.yul\":8046:8066   */\n  tag_164\n    /* \"#utility.yul\":8064:8065   */\n  dup4\n    /* \"#utility.yul\":8046:8066   */\n  tag_35\n  jump\t// in\ntag_164:\n    /* \"#utility.yul\":8041:8066   */\n  swap3\n  pop\n    /* \"#utility.yul\":8101:8102   */\n  dup3\n    /* \"#utility.yul\":8098:8099   */\n  dup3\n    /* \"#utility.yul\":8094:8103   */\n  mul\n    /* \"#utility.yul\":8123:8153   */\n  tag_165\n    /* \"#utility.yul\":8141:8152   */\n  dup2\n    /* \"#utility.yul\":8123:8153   */\n  tag_35\n  jump\t// in\ntag_165:\n    /* \"#utility.yul\":8112:8153   */\n  swap2\n  pop\n    /* \"#utility.yul\":8302:8303   */\n  dup3\n    /* \"#utility.yul\":8293:8300   */\n  dup3\n    /* \"#utility.yul\":8289:8304   */\n  div\n    /* \"#utility.yul\":8286:8287   */\n  dup5\n    /* \"#utility.yul\":8283:8305   */\n  eq\n    /* \"#utility.yul\":8263:8264   */\n  dup4\n    /* \"#utility.yul\":8256:8265   */\n  iszero\n    /* \"#utility.yul\":8236:8319   */\n  or\n    /* \"#utility.yul\":8213:8352   */\n  tag_166\n  jumpi\n    /* \"#utility.yul\":8332:8350   */\n  tag_167\n  tag_36\n  jump\t// in\ntag_167:\n    /* \"#utility.yul\":8213:8352   */\ntag_166:\n    /* \"#utility.yul\":7997:8359   */\n  pop\n    /* \"#utility.yul\":7949:8359   */\n  swap3\n  swap2\n  pop\n  pop\n  jump\t// out\n    /* \"#utility.yul\":8365:8483   */\ntag_59:\n    /* \"#utility.yul\":8452:8476   */\n  tag_169\n    /* \"#utility.yul\":8470:8475   */\n  dup2\n    /* \"#utility.yul\":8452:8476   */\n  tag_35\n  jump\t// in\ntag_169:\n    /* \"#utility.yul\":8447:8450   */\n  dup3\n    /* \"#utility.yul\":8440:8477   */\n  mstore\n    /* \"#utility.yul\":8365:8483   */\n  pop\n  pop\n  jump\t// out\n    /* \"#utility.yul\":8489:8821   */\ntag_19:\n    /* \"#utility.yul\":8610:8614   */\n  0x00\n    /* \"#utility.yul\":8648:8650   */\n  0x40\n    /* \"#utility.yul\":8637:8646   */\n  dup3\n    /* \"#utility.yul\":8633:8651   */\n  add\n    /* \"#utility.yul\":8625:8651   */\n  swap1\n  pop\n    /* \"#utility.yul\":8661:8732   */\n  tag_171\n    /* \"#utility.yul\":8729:8730   */\n  0x00\n    /* \"#utility.yul\":8718:8727   */\n  dup4\n    /* \"#utility.yul\":8714:8731   */\n  add\n    /* \"#utility.yul\":8705:8711   */\n  dup6\n    /* \"#utility.yul\":8661:8732   */\n  tag_59\n  jump\t// in\ntag_171:\n    /* \"#utility.yul\":8742:8814   */\n  tag_172\n    /* \"#utility.yul\":8810:8812   */\n  0x20\n    /* \"#utility.yul\":8799:8808   */\n  dup4\n    /* \"#utility.yul\":8795:8813   */\n  add\n    /* \"#utility.yul\":8786:8792   */\n  dup5\n    /* \"#utility.yul\":8742:8814   */\n  tag_59\n  jump\t// in\ntag_172:\n    /* \"#utility.yul\":8489:8821   */\n  swap4\n  swap3\n  pop\n  pop\n  pop\n  jump\t// out\n    /* \"#utility.yul\":8827:8996   */\ntag_60:\n    /* \"#utility.yul\":8911:8922   */\n  0x00\n    /* \"#utility.yul\":8945:8951   */\n  dup3\n    /* \"#utility.yul\":8940:8943   */\n  dup3\n    /* \"#utility.yul\":8933:8952   */\n  mstore\n    /* \"#utility.yul\":8985:8989   */\n  0x20\n    /* \"#utility.yul\":8980:8983   */\n  dup3\n    /* \"#utility.yul\":8976:8990   */\n  add\n    /* \"#utility.yul\":8961:8990   */\n  swap1\n  pop\n    /* \"#utility.yul\":8827:8996   */\n  swap3\n  swap2\n  pop\n  pop\n  jump\t// out\n    /* \"#utility.yul\":9002:9226   */\ntag_61:\n    /* \"#utility.yul\":9142:9176   */\n  0x6f6e6c79206f776e65722063616e20706572666f726d2074686973206f706572\n    /* \"#utility.yul\":9138:9139   */\n  0x00\n    /* \"#utility.yul\":9130:9136   */\n  dup3\n    /* \"#utility.yul\":9126:9140   */\n  add\n    /* \"#utility.yul\":9119:9177   */\n  mstore\n    /* \"#utility.yul\":9211:9218   */\n  0x6174696f6e000000000000000000000000000000000000000000000000000000\n    /* \"#utility.yul\":9206:9208   */\n  0x20\n    /* \"#utility.yul\":9198:9204   */\n  dup3\n    /* \"#utility.yul\":9194:9209   */\n  add\n    /* \"#utility.yul\":9187:9219   */\n  mstore\n    /* \"#utility.yul\":9002:9226   */\n  pop\n  jump\t// out\n    /* \"#utility.yul\":9232:9598   */\ntag_62:\n    /* \"#utility.yul\":9374:9377   */\n  0x00\n    /* \"#utility.yul\":9395:9462   */\n  tag_176\n    /* \"#utility.yul\":9459:9461   */\n  0x25\n    /* \"#utility.yul\":9454:9457   */\n  dup4\n    /* \"#utility.yul\":9395:9462   */\n  tag_60\n  jump\t// in\ntag_176:\n    /* \"#utility.yul\":9388:9462   */\n  swap2\n  pop\n    /* \"#utility.yul\":9471:9564   */\n  tag_177\n    /* \"#utility.yul\":9560:9563   */\n  dup3\n    /* \"#utility.yul\":9471:9564   */\n  tag_61\n  jump\t// in\ntag_177:\n    /* \"#utility.yul\":9589:9591   */\n  0x40\n    /* \"#utility.yul\":9584:9587   */\n  dup3\n    /* \"#utility.yul\":9580:9592   */\n  add\n    /* \"#utility.yul\":9573:9592   */\n  swap1\n  pop\n    /* \"#utility.yul\":9232:9598   */\n  swap2\n  swap1\n  pop\n  jump\t// out\n    /* \"#utility.yul\":9604:10023   */\ntag_24:\n    /* \"#utility.yul\":9770:9774   */\n  0x00\n    /* \"#utility.yul\":9808:9810   */\n  0x20\n    /* \"#utility.yul\":9797:9806   */\n  dup3\n    /* \"#utility.yul\":9793:9811   */\n  add\n    /* \"#utility.yul\":9785:9811   */\n  swap1\n  pop\n    /* \"#utility.yul\":9857:9866   */\n  dup2\n    /* \"#utility.yul\":9851:9855   */\n  dup2\n    /* \"#utility.yul\":9847:9867   */\n  sub\n    /* \"#utility.yul\":9843:9844   */\n  0x00\n    /* \"#utility.yul\":9832:9841   */\n  dup4\n    /* \"#utility.yul\":9828:9845   */\n  add\n    /* \"#utility.yul\":9821:9868   */\n  mstore\n    /* \"#utility.yul\":9885:10016   */\n  tag_179\n    /* \"#utility.yul\":10011:10015   */\n  dup2\n    /* \"#utility.yul\":9885:10016   */\n  tag_62\n  jump\t// in\ntag_179:\n    /* \"#utility.yul\":9877:10016   */\n  swap1\n  pop\n    /* \"#utility.yul\":9604:10023   */\n  swap2\n  swap1\n  pop\n  jump\t// out\n    /* \"#utility.yul\":10029:10210   */\ntag_63:\n    /* \"#utility.yul\":10169:10202   */\n  0x45524332303a206d696e7420746f20746865207a65726f206164647265737300\n    /* \"#utility.yul\":10165:10166   */\n  0x00\n    /* \"#utility.yul\":10157:10163   */\n  dup3\n    /* \"#utility.yul\":10153:10167   */\n  add\n    /* \"#utility.yul\":10146:10203   */\n  mstore\n    /* \"#utility.yul\":10029:10210   */\n  pop\n  jump\t// out\n    /* \"#utility.yul\":10216:10582   */\ntag_64:\n    /* \"#utility.yul\":10358:10361   */\n  0x00\n    /* \"#utility.yul\":10379:10446   */\n  tag_182\n    /* \"#utility.yul\":10443:10445   */\n  0x1f\n    /* \"#utility.yul\":10438:10441   */\n  dup4\n    /* \"#utility.yul\":10379:10446   */\n  tag_60\n  jump\t// in\ntag_182:\n    /* \"#utility.yul\":10372:10446   */\n  swap2\n  pop\n    /* \"#utility.yul\":10455:10548   */\n  tag_183\n    /* \"#utility.yul\":10544:10547   */\n  dup3\n    /* \"#utility.yul\":10455:10548   */\n  tag_63\n  jump\t// in\ntag_183:\n    /* \"#utility.yul\":10573:10575   */\n  0x20\n    /* \"#utility.yul\":10568:10571   */\n  dup3\n    /* \"#utility.yul\":10564:10576   */\n  add\n    /* \"#utility.yul\":10557:10576   */\n  swap1\n  pop\n    /* \"#utility.yul\":10216:10582   */\n  swap2\n  swap1\n  pop\n  jump\t// out\n    /* \"#utility.yul\":10588:11007   */\ntag_28:\n    /* \"#utility.yul\":10754:10758   */\n  0x00\n    /* \"#utility.yul\":10792:10794   */\n  0x20\n    /* \"#utility.yul\":10781:10790   */\n  dup3\n    /* \"#utility.yul\":10777:10795   */\n  add\n    /* \"#utility.yul\":10769:10795   */\n  swap1\n  pop\n    /* \"#utility.yul\":10841:10850   */\n  dup2\n    /* \"#utility.yul\":10835:10839   */\n  dup2\n    /* \"#utility.yul\":10831:10851   */\n  sub\n    /* \"#utility.yul\":10827:10828   */\n  0x00\n    /* \"#utility.yul\":10816:10825   */\n  dup4\n    /* \"#utility.yul\":10812:10829   */\n  add\n    /* \"#utility.yul\":10805:10852   */\n  mstore\n    /* \"#utility.yul\":10869:11000   */\n  tag_185\n    /* \"#utility.yul\":10995:10999   */\n  dup2\n    /* \"#utility.yul\":10869:11000   */\n  tag_64\n  jump\t// in\ntag_185:\n    /* \"#utility.yul\":10861:11000   */\n  swap1\n  pop\n    /* \"#utility.yul\":10588:11007   */\n  swap2\n  swap1\n  pop\n  jump\t// out\n    /* \"#utility.yul\":11013:11235   */\ntag_34:\n    /* \"#utility.yul\":11106:11110   */\n  0x00\n    /* \"#utility.yul\":11144:11146   */\n  0x20\n    /* \"#utility.yul\":11133:11142   */\n  dup3\n    /* \"#utility.yul\":11129:11147   */\n  add\n    /* \"#utility.yul\":11121:11147   */\n  swap1\n  pop\n    /* \"#utility.yul\":11157:11228   */\n  tag_187\n    /* \"#utility.yul\":11225:11226   */\n  0x00\n    /* \"#utility.yul\":11214:11223   */\n  dup4\n    /* \"#utility.yul\":11210:11227   */\n  add\n    /* \"#utility.yul\":11201:11207   */\n  dup5\n    /* \"#utility.yul\":11157:11228   */\n  tag_59\n  jump\t// in\ntag_187:\n    /* \"#utility.yul\":11013:11235   */\n  swap3\n  swap2\n  pop\n  pop\n  jump\t// out\n    /* \"token/token_debenture.sol\":3986:9130  contract DebentureQuaseNada is Titulo, Ownable, IERC20 {... */\ntag_20:\n  mload(0x80)\n  mload(0xa0)\n  mload(0xc0)\n  codecopy(0x00, dataOffset(sub_0), dataSize(sub_0))\n  0x00\n  assignImmutable(\"0x4d9fac5dc90d70d79ceac3589bb998755cf60ab2ff110225b2bffe4b0c0e4742\")\n  0x00\n  assignImmutable(\"0x26fde711c36747908dcce028baf2d3e8303b2122f2368e04f010a3f01eaa4df4\")\n  0x00\n  assignImmutable(\"0x7250aaa7e48e376ad351a6e6358b82b301c238eb6d491d8aad7b3212de4449d6\")\n  return(0x00, dataSize(sub_0))\nstop\n\nsub_0: assembly {\n        /* \"token/token_debenture.sol\":3986:9130  contract DebentureQuaseNada is Titulo, Ownable, IERC20 {... */\n      mstore(0x40, 0x80)\n      callvalue\n      dup1\n      iszero\n      tag_1\n      jumpi\n      0x00\n      dup1\n      revert\n    tag_1:\n      pop\n      jumpi(tag_2, lt(calldatasize, 0x04))\n      shr(0xe0, calldataload(0x00))\n      dup1\n      0x649d9bb4\n      gt\n      tag_24\n      jumpi\n      dup1\n      0xa6f9dae1\n      gt\n      tag_25\n      jumpi\n      dup1\n      0xa6f9dae1\n      eq\n      tag_18\n      jumpi\n      dup1\n      0xa9059cbb\n      eq\n      tag_19\n      jumpi\n      dup1\n      0xae1457c2\n      eq\n      tag_20\n      jumpi\n      dup1\n      0xdd62ed3e\n      eq\n      tag_21\n      jumpi\n      dup1\n      0xfa36ed8c\n      eq\n      tag_22\n      jumpi\n      dup1\n      0xfe10215c\n      eq\n      tag_23\n      jumpi\n      jump(tag_2)\n    tag_25:\n      dup1\n      0x649d9bb4\n      eq\n      tag_13\n      jumpi\n      dup1\n      0x70a08231\n      eq\n      tag_14\n      jumpi\n      dup1\n      0x80f474f6\n      eq\n      tag_15\n      jumpi\n      dup1\n      0x95d89b41\n      eq\n      tag_16\n      jumpi\n      dup1\n      0x9dc29fac\n      eq\n      tag_17\n      jumpi\n      jump(tag_2)\n    tag_24:\n      dup1\n      0x313ce567\n      gt\n      tag_26\n      jumpi\n      dup1\n      0x313ce567\n      eq\n      tag_8\n      jumpi\n      dup1\n      0x36e69b22\n      eq\n      tag_9\n      jumpi\n      dup1\n      0x40c10f19\n      eq\n      tag_10\n      jumpi\n      dup1\n      0x4efeabbf\n      eq\n      tag_11\n      jumpi\n      dup1\n      0x51f48cbb\n      eq\n      tag_12\n      jumpi\n      jump(tag_2)\n    tag_26:\n      dup1\n      0x06fdde03\n      eq\n      tag_3\n      jumpi\n      dup1\n      0x095ea7b3\n      eq\n      tag_4\n      jumpi\n      dup1\n      0x18160ddd\n      eq\n      tag_5\n      jumpi\n      dup1\n      0x220f52c5\n      eq\n      tag_6\n      jumpi\n      dup1\n      0x23b872dd\n      eq\n      tag_7\n      jumpi\n    tag_2:\n      0x00\n      dup1\n      revert\n        /* \"token/token_debenture.sol\":6854:6935  function name() public view returns(string memory) {... */\n    tag_3:\n      tag_27\n      tag_28\n      jump\t// in\n    tag_27:\n      mload(0x40)\n      tag_29\n      swap2\n      swap1\n      tag_30\n      jump\t// in\n    tag_29:\n      mload(0x40)\n      dup1\n      swap2\n      sub\n      swap1\n      return\n        /* \"token/token_debenture.sol\":7747:7956  function approve(address spender, uint limit) public override returns(bool) {... */\n    tag_4:\n      tag_31\n      0x04\n      dup1\n      calldatasize\n      sub\n      dup2\n      add\n      swap1\n      tag_32\n      swap2\n      swap1\n      tag_33\n      jump\t// in\n    tag_32:\n      tag_34\n      jump\t// in\n    tag_31:\n      mload(0x40)\n      tag_35\n      swap2\n      swap1\n      tag_36\n      jump\t// in\n    tag_35:\n      mload(0x40)\n      dup1\n      swap2\n      sub\n      swap1\n      return\n        /* \"token/token_debenture.sol\":7032:7125  function totalSupply() public override view returns(uint256) {... */\n    tag_5:\n      tag_37\n      tag_38\n      jump\t// in\n    tag_37:\n      mload(0x40)\n      tag_39\n      swap2\n      swap1\n      tag_40\n      jump\t// in\n    tag_39:\n      mload(0x40)\n      dup1\n      swap2\n      sub\n      swap1\n      return\n        /* \"token/token_debenture.sol\":3578:3669  function whoIsTheOwner() public view returns(address) {... */\n    tag_6:\n      tag_41\n      tag_42\n      jump\t// in\n    tag_41:\n      mload(0x40)\n      tag_43\n      swap2\n      swap1\n      tag_44\n      jump\t// in\n    tag_43:\n      mload(0x40)\n      dup1\n      swap2\n      sub\n      swap1\n      return\n        /* \"token/token_debenture.sol\":7962:8396  function transferFrom(address from, address to, uint256 amount) public override ... */\n    tag_7:\n      tag_45\n      0x04\n      dup1\n      calldatasize\n      sub\n      dup2\n      add\n      swap1\n      tag_46\n      swap2\n      swap1\n      tag_47\n      jump\t// in\n    tag_46:\n      tag_48\n      jump\t// in\n    tag_45:\n      mload(0x40)\n      tag_49\n      swap2\n      swap1\n      tag_36\n      jump\t// in\n    tag_49:\n      mload(0x40)\n      dup1\n      swap2\n      sub\n      swap1\n      return\n        /* \"token/token_debenture.sol\":4200:4223  uint256 public decimals */\n    tag_8:\n      tag_50\n      tag_51\n      jump\t// in\n    tag_50:\n      mload(0x40)\n      tag_52\n      swap2\n      swap1\n      tag_40\n      jump\t// in\n    tag_52:\n      mload(0x40)\n      dup1\n      swap2\n      sub\n      swap1\n      return\n        /* \"token/token_debenture.sol\":5475:5569  function valorNominal() external pure returns (uint256) {... */\n    tag_9:\n      tag_53\n      tag_54\n      jump\t// in\n    tag_53:\n      mload(0x40)\n      tag_55\n      swap2\n      swap1\n      tag_40\n      jump\t// in\n    tag_55:\n      mload(0x40)\n      dup1\n      swap2\n      sub\n      swap1\n      return\n        /* \"token/token_debenture.sol\":8406:8767  function mint(address account, uint256 amount) public onlyOwner returns (bool) {... */\n    tag_10:\n      tag_56\n      0x04\n      dup1\n      calldatasize\n      sub\n      dup2\n      add\n      swap1\n      tag_57\n      swap2\n      swap1\n      tag_33\n      jump\t// in\n    tag_57:\n      tag_58\n      jump\t// in\n    tag_56:\n      mload(0x40)\n      tag_59\n      swap2\n      swap1\n      tag_36\n      jump\t// in\n    tag_59:\n      mload(0x40)\n      dup1\n      swap2\n      sub\n      swap1\n      return\n        /* \"token/token_debenture.sol\":6749:6847  function detalhesDoTitulo() external view returns ( Titulo contrato ) {... */\n    tag_11:\n      tag_60\n      tag_61\n      jump\t// in\n    tag_60:\n      mload(0x40)\n      tag_62\n      swap2\n      swap1\n      tag_63\n      jump\t// in\n    tag_62:\n      mload(0x40)\n      dup1\n      swap2\n      sub\n      swap1\n      return\n        /* \"token/token_debenture.sol\":5928:6019  function dataEmissao() external view returns (uint256) {... */\n    tag_12:\n      tag_64\n      tag_65\n      jump\t// in\n    tag_64:\n      mload(0x40)\n      tag_66\n      swap2\n      swap1\n      tag_40\n      jump\t// in\n    tag_66:\n      mload(0x40)\n      dup1\n      swap2\n      sub\n      swap1\n      return\n        /* \"token/token_debenture.sol\":6346:6537  function alteraFracoes(uint16 fracoes_) external onlyOwner returns (bool) {... */\n    tag_13:\n      tag_67\n      0x04\n      dup1\n      calldatasize\n      sub\n      dup2\n      add\n      swap1\n      tag_68\n      swap2\n      swap1\n      tag_69\n      jump\t// in\n    tag_68:\n      tag_70\n      jump\t// in\n    tag_67:\n      mload(0x40)\n      tag_71\n      swap2\n      swap1\n      tag_36\n      jump\t// in\n    tag_71:\n      mload(0x40)\n      dup1\n      swap2\n      sub\n      swap1\n      return\n        /* \"token/token_debenture.sol\":7131:7252  function balanceOf(address tokenOwner) public override view returns(uint256) {... */\n    tag_14:\n      tag_72\n      0x04\n      dup1\n      calldatasize\n      sub\n      dup2\n      add\n      swap1\n      tag_73\n      swap2\n      swap1\n      tag_74\n      jump\t// in\n    tag_73:\n      tag_75\n      jump\t// in\n    tag_72:\n      mload(0x40)\n      tag_76\n      swap2\n      swap1\n      tag_40\n      jump\t// in\n    tag_76:\n      mload(0x40)\n      dup1\n      swap2\n      sub\n      swap1\n      return\n        /* \"token/token_debenture.sol\":5628:5715  function rating() external view returns (string memory) {... */\n    tag_15:\n      tag_77\n      tag_78\n      jump\t// in\n    tag_77:\n      mload(0x40)\n      tag_79\n      swap2\n      swap1\n      tag_30\n      jump\t// in\n    tag_79:\n      mload(0x40)\n      dup1\n      swap2\n      sub\n      swap1\n      return\n        /* \"token/token_debenture.sol\":6941:7026  function symbol() public view returns(string memory) {... */\n    tag_16:\n      tag_80\n      tag_81\n      jump\t// in\n    tag_80:\n      mload(0x40)\n      tag_82\n      swap2\n      swap1\n      tag_30\n      jump\t// in\n    tag_82:\n      mload(0x40)\n      dup1\n      swap2\n      sub\n      swap1\n      return\n        /* \"token/token_debenture.sol\":8773:9126  function burn(address account, uint256 amount) public onlyOwner returns (bool) {... */\n    tag_17:\n      tag_83\n      0x04\n      dup1\n      calldatasize\n      sub\n      dup2\n      add\n      swap1\n      tag_84\n      swap2\n      swap1\n      tag_33\n      jump\t// in\n    tag_84:\n      tag_85\n      jump\t// in\n    tag_83:\n      mload(0x40)\n      tag_86\n      swap2\n      swap1\n      tag_36\n      jump\t// in\n    tag_86:\n      mload(0x40)\n      dup1\n      swap2\n      sub\n      swap1\n      return\n        /* \"token/token_debenture.sol\":3675:3885  function changeOwner(address _newOwner) onlyOwner public returns (bool) {... */\n    tag_18:\n      tag_87\n      0x04\n      dup1\n      calldatasize\n      sub\n      dup2\n      add\n      swap1\n      tag_88\n      swap2\n      swap1\n      tag_74\n      jump\t// in\n    tag_88:\n      tag_89\n      jump\t// in\n    tag_87:\n      mload(0x40)\n      tag_90\n      swap2\n      swap1\n      tag_36\n      jump\t// in\n    tag_90:\n      mload(0x40)\n      dup1\n      swap2\n      sub\n      swap1\n      return\n        /* \"token/token_debenture.sol\":7418:7740  function transfer(address to, uint256 amount) public override  hasEnoughBalance(msg.sender, amount) tokenAmountValid(amount) returns(bool) {... */\n    tag_19:\n      tag_91\n      0x04\n      dup1\n      calldatasize\n      sub\n      dup2\n      add\n      swap1\n      tag_92\n      swap2\n      swap1\n      tag_33\n      jump\t// in\n    tag_92:\n      tag_93\n      jump\t// in\n    tag_91:\n      mload(0x40)\n      tag_94\n      swap2\n      swap1\n      tag_36\n      jump\t// in\n    tag_94:\n      mload(0x40)\n      dup1\n      swap2\n      sub\n      swap1\n      return\n        /* \"token/token_debenture.sol\":6660:6743  function fracoes() external view returns (uint256) {... */\n    tag_20:\n      tag_95\n      tag_96\n      jump\t// in\n    tag_95:\n      mload(0x40)\n      tag_97\n      swap2\n      swap1\n      tag_40\n      jump\t// in\n    tag_97:\n      mload(0x40)\n      dup1\n      swap2\n      sub\n      swap1\n      return\n        /* \"token/token_debenture.sol\":7258:7412  function allowance(address tokenOwner, address spender) public override view returns(uint256) {... */\n    tag_21:\n      tag_98\n      0x04\n      dup1\n      calldatasize\n      sub\n      dup2\n      add\n      swap1\n      tag_99\n      swap2\n      swap1\n      tag_100\n      jump\t// in\n    tag_99:\n      tag_101\n      jump\t// in\n    tag_98:\n      mload(0x40)\n      tag_102\n      swap2\n      swap1\n      tag_40\n      jump\t// in\n    tag_102:\n      mload(0x40)\n      dup1\n      swap2\n      sub\n      swap1\n      return\n        /* \"token/token_debenture.sol\":5776:5867  function nomeEmissor() external view returns (string memory) {... */\n    tag_22:\n      tag_103\n      tag_104\n      jump\t// in\n    tag_103:\n      mload(0x40)\n      tag_105\n      swap2\n      swap1\n      tag_30\n      jump\t// in\n    tag_105:\n      mload(0x40)\n      dup1\n      swap2\n      sub\n      swap1\n      return\n        /* \"token/token_debenture.sol\":6202:6340  function mudaRating(string memory novoRating) external onlyOwner returns (bool) {... */\n    tag_23:\n      tag_106\n      0x04\n      dup1\n      calldatasize\n      sub\n      dup2\n      add\n      swap1\n      tag_107\n      swap2\n      swap1\n      tag_108\n      jump\t// in\n    tag_107:\n      tag_109\n      jump\t// in\n    tag_106:\n      mload(0x40)\n      tag_110\n      swap2\n      swap1\n      tag_36\n      jump\t// in\n    tag_110:\n      mload(0x40)\n      dup1\n      swap2\n      sub\n      swap1\n      return\n        /* \"token/token_debenture.sol\":6854:6935  function name() public view returns(string memory) {... */\n    tag_28:\n        /* \"token/token_debenture.sol\":6890:6903  string memory */\n      0x60\n        /* \"token/token_debenture.sol\":6922:6928  myName */\n      0x02\n        /* \"token/token_debenture.sol\":6915:6928  return myName */\n      dup1\n      sload\n      tag_112\n      swap1\n      tag_113\n      jump\t// in\n    tag_112:\n      dup1\n      0x1f\n      add\n      0x20\n      dup1\n      swap2\n      div\n      mul\n      0x20\n      add\n      mload(0x40)\n      swap1\n      dup2\n      add\n      0x40\n      mstore\n      dup1\n      swap3\n      swap2\n      swap1\n      dup2\n      dup2\n      mstore\n      0x20\n      add\n      dup3\n      dup1\n      sload\n      tag_114\n      swap1\n      tag_113\n      jump\t// in\n    tag_114:\n      dup1\n      iszero\n      tag_115\n      jumpi\n      dup1\n      0x1f\n      lt\n      tag_116\n      jumpi\n      0x0100\n      dup1\n      dup4\n      sload\n      div\n      mul\n      dup4\n      mstore\n      swap2\n      0x20\n      add\n      swap2\n      jump(tag_115)\n    tag_116:\n      dup3\n      add\n      swap2\n      swap1\n      0x00\n      mstore\n      keccak256(0x00, 0x20)\n      swap1\n    tag_117:\n      dup2\n      sload\n      dup2\n      mstore\n      swap1\n      0x01\n      add\n      swap1\n      0x20\n      add\n      dup1\n      dup4\n      gt\n      tag_117\n      jumpi\n      dup3\n      swap1\n      sub\n      0x1f\n      and\n      dup3\n      add\n      swap2\n    tag_115:\n      pop\n      pop\n      pop\n      pop\n      pop\n      swap1\n      pop\n        /* \"token/token_debenture.sol\":6854:6935  function name() public view returns(string memory) {... */\n      swap1\n      jump\t// out\n        /* \"token/token_debenture.sol\":7747:7956  function approve(address spender, uint limit) public override returns(bool) {... */\n    tag_34:\n        /* \"token/token_debenture.sol\":7817:7821  bool */\n      0x00\n        /* \"token/token_debenture.sol\":7872:7877  limit */\n      dup2\n        /* \"token/token_debenture.sol\":7833:7848  ownerAllowances */\n      0x09\n        /* \"token/token_debenture.sol\":7833:7860  ownerAllowances[msg.sender] */\n      0x00\n        /* \"token/token_debenture.sol\":7849:7859  msg.sender */\n      caller\n        /* \"token/token_debenture.sol\":7833:7860  ownerAllowances[msg.sender] */\n      0xffffffffffffffffffffffffffffffffffffffff\n      and\n      0xffffffffffffffffffffffffffffffffffffffff\n      and\n      dup2\n      mstore\n      0x20\n      add\n      swap1\n      dup2\n      mstore\n      0x20\n      add\n      0x00\n      keccak256\n        /* \"token/token_debenture.sol\":7833:7869  ownerAllowances[msg.sender][spender] */\n      0x00\n        /* \"token/token_debenture.sol\":7861:7868  spender */\n      dup6\n        /* \"token/token_debenture.sol\":7833:7869  ownerAllowances[msg.sender][spender] */\n      0xffffffffffffffffffffffffffffffffffffffff\n      and\n      0xffffffffffffffffffffffffffffffffffffffff\n      and\n      dup2\n      mstore\n      0x20\n      add\n      swap1\n      dup2\n      mstore\n      0x20\n      add\n      0x00\n      keccak256\n        /* \"token/token_debenture.sol\":7833:7877  ownerAllowances[msg.sender][spender] = limit */\n      dup2\n      swap1\n      sstore\n      pop\n        /* \"token/token_debenture.sol\":7913:7920  spender */\n      dup3\n        /* \"token/token_debenture.sol\":7892:7928  Approval(msg.sender, spender, limit) */\n      0xffffffffffffffffffffffffffffffffffffffff\n      and\n        /* \"token/token_debenture.sol\":7901:7911  msg.sender */\n      caller\n        /* \"token/token_debenture.sol\":7892:7928  Approval(msg.sender, spender, limit) */\n      0xffffffffffffffffffffffffffffffffffffffff\n      and\n      0x8c5be1e5ebec7d5bd14f71427d1e84f3dd0314c0f7b2291e5b200ac8c7c3b925\n        /* \"token/token_debenture.sol\":7922:7927  limit */\n      dup5\n        /* \"token/token_debenture.sol\":7892:7928  Approval(msg.sender, spender, limit) */\n      mload(0x40)\n      tag_119\n      swap2\n      swap1\n      tag_40\n      jump\t// in\n    tag_119:\n      mload(0x40)\n      dup1\n      swap2\n      sub\n      swap1\n      log3\n        /* \"token/token_debenture.sol\":7945:7949  true */\n      0x01\n        /* \"token/token_debenture.sol\":7938:7949  return true */\n      swap1\n      pop\n        /* \"token/token_debenture.sol\":7747:7956  function approve(address spender, uint limit) public override returns(bool) {... */\n      swap3\n      swap2\n      pop\n      pop\n      jump\t// out\n        /* \"token/token_debenture.sol\":7032:7125  function totalSupply() public override view returns(uint256) {... */\n    tag_38:\n        /* \"token/token_debenture.sol\":7084:7091  uint256 */\n      0x00\n        /* \"token/token_debenture.sol\":7110:7118  _fracoes */\n      sload(0x05)\n        /* \"token/token_debenture.sol\":7103:7118  return _fracoes */\n      swap1\n      pop\n        /* \"token/token_debenture.sol\":7032:7125  function totalSupply() public override view returns(uint256) {... */\n      swap1\n      jump\t// out\n        /* \"token/token_debenture.sol\":3578:3669  function whoIsTheOwner() public view returns(address) {... */\n    tag_42:\n        /* \"token/token_debenture.sol\":3623:3630  address */\n      0x00\n        /* \"token/token_debenture.sol\":3649:3662  contractOwner */\n      dup1\n      0x00\n      swap1\n      sload\n      swap1\n      0x0100\n      exp\n      swap1\n      div\n      0xffffffffffffffffffffffffffffffffffffffff\n      and\n        /* \"token/token_debenture.sol\":3642:3662  return contractOwner */\n      swap1\n      pop\n        /* \"token/token_debenture.sol\":3578:3669  function whoIsTheOwner() public view returns(address) {... */\n      swap1\n      jump\t// out\n        /* \"token/token_debenture.sol\":7962:8396  function transferFrom(address from, address to, uint256 amount) public override ... */\n    tag_48:\n        /* \"token/token_debenture.sol\":8151:8155  bool */\n      0x00\n        /* \"token/token_debenture.sol\":8064:8068  from */\n      dup4\n        /* \"token/token_debenture.sol\":8070:8076  amount */\n      dup3\n        /* \"token/token_debenture.sol\":4623:4635  uint balance */\n      0x00\n        /* \"token/token_debenture.sol\":4655:4663  balances */\n      0x08\n        /* \"token/token_debenture.sol\":4655:4670  balances[owner] */\n      0x00\n        /* \"token/token_debenture.sol\":4664:4669  owner */\n      dup5\n        /* \"token/token_debenture.sol\":4655:4670  balances[owner] */\n      0xffffffffffffffffffffffffffffffffffffffff\n      and\n      0xffffffffffffffffffffffffffffffffffffffff\n      and\n      dup2\n      mstore\n      0x20\n      add\n      swap1\n      dup2\n      mstore\n      0x20\n      add\n      0x00\n      keccak256\n      sload\n        /* \"token/token_debenture.sol\":4645:4670  balance = balances[owner] */\n      swap1\n      pop\n        /* \"token/token_debenture.sol\":4700:4706  amount */\n      dup2\n        /* \"token/token_debenture.sol\":4689:4696  balance */\n      dup2\n        /* \"token/token_debenture.sol\":4689:4706  balance >= amount */\n      lt\n      iszero\n        /* \"token/token_debenture.sol\":4680:4707  require (balance >= amount) */\n      tag_123\n      jumpi\n      0x00\n      dup1\n      revert\n    tag_123:\n        /* \"token/token_debenture.sol\":8088:8098  msg.sender */\n      caller\n        /* \"token/token_debenture.sol\":8100:8104  from */\n      dup8\n        /* \"token/token_debenture.sol\":8106:8112  amount */\n      dup7\n        /* \"token/token_debenture.sol\":4830:4845  ownerAllowances */\n      0x09\n        /* \"token/token_debenture.sol\":4830:4857  ownerAllowances[tokenOwner] */\n      0x00\n        /* \"token/token_debenture.sol\":4846:4856  tokenOwner */\n      dup4\n        /* \"token/token_debenture.sol\":4830:4857  ownerAllowances[tokenOwner] */\n      0xffffffffffffffffffffffffffffffffffffffff\n      and\n      0xffffffffffffffffffffffffffffffffffffffff\n      and\n      dup2\n      mstore\n      0x20\n      add\n      swap1\n      dup2\n      mstore\n      0x20\n      add\n      0x00\n      keccak256\n        /* \"token/token_debenture.sol\":4830:4866  ownerAllowances[tokenOwner][spender] */\n      0x00\n        /* \"token/token_debenture.sol\":4858:4865  spender */\n      dup5\n        /* \"token/token_debenture.sol\":4830:4866  ownerAllowances[tokenOwner][spender] */\n      0xffffffffffffffffffffffffffffffffffffffff\n      and\n      0xffffffffffffffffffffffffffffffffffffffff\n      and\n      dup2\n      mstore\n      0x20\n      add\n      swap1\n      dup2\n      mstore\n      0x20\n      add\n      0x00\n      keccak256\n      sload\n        /* \"token/token_debenture.sol\":4820:4826  amount */\n      dup2\n        /* \"token/token_debenture.sol\":4820:4866  amount <= ownerAllowances[tokenOwner][spender] */\n      gt\n      iszero\n        /* \"token/token_debenture.sol\":4811:4867  require (amount <= ownerAllowances[tokenOwner][spender]) */\n      tag_125\n      jumpi\n      0x00\n      dup1\n      revert\n    tag_125:\n        /* \"token/token_debenture.sol\":8131:8137  amount */\n      dup8\n        /* \"token/token_debenture.sol\":4960:4961  0 */\n      0x00\n        /* \"token/token_debenture.sol\":4951:4957  amount */\n      dup2\n        /* \"token/token_debenture.sol\":4951:4961  amount > 0 */\n      gt\n        /* \"token/token_debenture.sol\":4943:4962  require(amount > 0) */\n      tag_127\n      jumpi\n      0x00\n      dup1\n      revert\n    tag_127:\n        /* \"token/token_debenture.sol\":4990:4998  _fracoes */\n      sload(0x05)\n        /* \"token/token_debenture.sol\":4980:4986  amount */\n      dup2\n        /* \"token/token_debenture.sol\":4980:4998  amount <= _fracoes */\n      gt\n      iszero\n        /* \"token/token_debenture.sol\":4972:4999  require(amount <= _fracoes) */\n      tag_128\n      jumpi\n      0x00\n      dup1\n      revert\n    tag_128:\n        /* \"token/token_debenture.sol\":8201:8207  amount */\n      dup9\n        /* \"token/token_debenture.sol\":8184:8192  balances */\n      0x08\n        /* \"token/token_debenture.sol\":8184:8198  balances[from] */\n      0x00\n        /* \"token/token_debenture.sol\":8193:8197  from */\n      dup14\n        /* \"token/token_debenture.sol\":8184:8198  balances[from] */\n      0xffffffffffffffffffffffffffffffffffffffff\n      and\n      0xffffffffffffffffffffffffffffffffffffffff\n      and\n      dup2\n      mstore\n      0x20\n      add\n      swap1\n      dup2\n      mstore\n      0x20\n      add\n      0x00\n      keccak256\n      sload\n        /* \"token/token_debenture.sol\":8184:8207  balances[from] - amount */\n      tag_130\n      swap2\n      swap1\n      tag_131\n      jump\t// in\n    tag_130:\n        /* \"token/token_debenture.sol\":8167:8175  balances */\n      0x08\n        /* \"token/token_debenture.sol\":8167:8181  balances[from] */\n      0x00\n        /* \"token/token_debenture.sol\":8176:8180  from */\n      dup14\n        /* \"token/token_debenture.sol\":8167:8181  balances[from] */\n      0xffffffffffffffffffffffffffffffffffffffff\n      and\n      0xffffffffffffffffffffffffffffffffffffffff\n      and\n      dup2\n      mstore\n      0x20\n      add\n      swap1\n      dup2\n      mstore\n      0x20\n      add\n      0x00\n      keccak256\n        /* \"token/token_debenture.sol\":8167:8207  balances[from] = balances[from] - amount */\n      dup2\n      swap1\n      sstore\n      pop\n        /* \"token/token_debenture.sol\":8233:8239  amount */\n      dup9\n        /* \"token/token_debenture.sol\":8217:8225  balances */\n      0x08\n        /* \"token/token_debenture.sol\":8217:8229  balances[to] */\n      0x00\n        /* \"token/token_debenture.sol\":8226:8228  to */\n      dup13\n        /* \"token/token_debenture.sol\":8217:8229  balances[to] */\n      0xffffffffffffffffffffffffffffffffffffffff\n      and\n      0xffffffffffffffffffffffffffffffffffffffff\n      and\n      dup2\n      mstore\n      0x20\n      add\n      swap1\n      dup2\n      mstore\n      0x20\n      add\n      0x00\n      keccak256\n      0x00\n        /* \"token/token_debenture.sol\":8217:8239  balances[to] += amount */\n      dup3\n      dup3\n      sload\n      tag_132\n      swap2\n      swap1\n      tag_133\n      jump\t// in\n    tag_132:\n      swap3\n      pop\n      pop\n      dup2\n      swap1\n      sstore\n      pop\n        /* \"token/token_debenture.sol\":8321:8327  amount */\n      dup9\n        /* \"token/token_debenture.sol\":8285:8300  ownerAllowances */\n      0x09\n        /* \"token/token_debenture.sol\":8285:8306  ownerAllowances[from] */\n      0x00\n        /* \"token/token_debenture.sol\":8301:8305  from */\n      dup14\n        /* \"token/token_debenture.sol\":8285:8306  ownerAllowances[from] */\n      0xffffffffffffffffffffffffffffffffffffffff\n      and\n      0xffffffffffffffffffffffffffffffffffffffff\n      and\n      dup2\n      mstore\n      0x20\n      add\n      swap1\n      dup2\n      mstore\n      0x20\n      add\n      0x00\n      keccak256\n        /* \"token/token_debenture.sol\":8285:8318  ownerAllowances[from][msg.sender] */\n      0x00\n        /* \"token/token_debenture.sol\":8307:8317  msg.sender */\n      caller\n        /* \"token/token_debenture.sol\":8285:8318  ownerAllowances[from][msg.sender] */\n      0xffffffffffffffffffffffffffffffffffffffff\n      and\n      0xffffffffffffffffffffffffffffffffffffffff\n      and\n      dup2\n      mstore\n      0x20\n      add\n      swap1\n      dup2\n      mstore\n      0x20\n      add\n      0x00\n      keccak256\n      sload\n        /* \"token/token_debenture.sol\":8285:8327  ownerAllowances[from][msg.sender] - amount */\n      tag_134\n      swap2\n      swap1\n      tag_131\n      jump\t// in\n    tag_134:\n        /* \"token/token_debenture.sol\":8249:8264  ownerAllowances */\n      0x09\n        /* \"token/token_debenture.sol\":8249:8270  ownerAllowances[from] */\n      0x00\n        /* \"token/token_debenture.sol\":8265:8269  from */\n      dup14\n        /* \"token/token_debenture.sol\":8249:8270  ownerAllowances[from] */\n      0xffffffffffffffffffffffffffffffffffffffff\n      and\n      0xffffffffffffffffffffffffffffffffffffffff\n      and\n      dup2\n      mstore\n      0x20\n      add\n      swap1\n      dup2\n      mstore\n      0x20\n      add\n      0x00\n      keccak256\n        /* \"token/token_debenture.sol\":8249:8282  ownerAllowances[from][msg.sender] */\n      0x00\n        /* \"token/token_debenture.sol\":8271:8281  msg.sender */\n      caller\n        /* \"token/token_debenture.sol\":8249:8282  ownerAllowances[from][msg.sender] */\n      0xffffffffffffffffffffffffffffffffffffffff\n      and\n      0xffffffffffffffffffffffffffffffffffffffff\n      and\n      dup2\n      mstore\n      0x20\n      add\n      swap1\n      dup2\n      mstore\n      0x20\n      add\n      0x00\n      keccak256\n        /* \"token/token_debenture.sol\":8249:8327  ownerAllowances[from][msg.sender] = ownerAllowances[from][msg.sender] - amount */\n      dup2\n      swap1\n      sstore\n      pop\n        /* \"token/token_debenture.sol\":8357:8359  to */\n      dup10\n        /* \"token/token_debenture.sol\":8342:8368  Transfer(from, to, amount) */\n      0xffffffffffffffffffffffffffffffffffffffff\n      and\n        /* \"token/token_debenture.sol\":8351:8355  from */\n      dup12\n        /* \"token/token_debenture.sol\":8342:8368  Transfer(from, to, amount) */\n      0xffffffffffffffffffffffffffffffffffffffff\n      and\n      0xddf252ad1be2c89b69c2b068fc378daa952ba7f163c4a11628f55a4df523b3ef\n        /* \"token/token_debenture.sol\":8361:8367  amount */\n      dup12\n        /* \"token/token_debenture.sol\":8342:8368  Transfer(from, to, amount) */\n      mload(0x40)\n      tag_135\n      swap2\n      swap1\n      tag_40\n      jump\t// in\n    tag_135:\n      mload(0x40)\n      dup1\n      swap2\n      sub\n      swap1\n      log3\n        /* \"token/token_debenture.sol\":8385:8389  true */\n      0x01\n        /* \"token/token_debenture.sol\":8378:8389  return true */\n      swap8\n      pop\n        /* \"token/token_debenture.sol\":4877:4878  _ */\n      pop\n        /* \"token/token_debenture.sol\":4718:4719  _ */\n      pop\n      pop\n      pop\n        /* \"token/token_debenture.sol\":4613:4726  {... */\n      pop\n        /* \"token/token_debenture.sol\":7962:8396  function transferFrom(address from, address to, uint256 amount) public override ... */\n      pop\n      pop\n      swap4\n      swap3\n      pop\n      pop\n      pop\n      jump\t// out\n        /* \"token/token_debenture.sol\":4200:4223  uint256 public decimals */\n    tag_51:\n      sload(0x04)\n      dup2\n      jump\t// out\n        /* \"token/token_debenture.sol\":5475:5569  function valorNominal() external pure returns (uint256) {... */\n    tag_54:\n        /* \"token/token_debenture.sol\":5522:5529  uint256 */\n      0x00\n        /* \"token/token_debenture.sol\":5548:5562  _valorUnitario */\n      immutable(\"0x4d9fac5dc90d70d79ceac3589bb998755cf60ab2ff110225b2bffe4b0c0e4742\")\n        /* \"token/token_debenture.sol\":5541:5562  return _valorUnitario */\n      swap1\n      pop\n        /* \"token/token_debenture.sol\":5475:5569  function valorNominal() external pure returns (uint256) {... */\n      swap1\n      jump\t// out\n        /* \"token/token_debenture.sol\":8406:8767  function mint(address account, uint256 amount) public onlyOwner returns (bool) {... */\n    tag_58:\n        /* \"token/token_debenture.sol\":8479:8483  bool */\n      0x00\n        /* \"token/token_debenture.sol\":3421:3434  contractOwner */\n      dup1\n      0x00\n      swap1\n      sload\n      swap1\n      0x0100\n      exp\n      swap1\n      div\n      0xffffffffffffffffffffffffffffffffffffffff\n      and\n        /* \"token/token_debenture.sol\":3407:3434  msg.sender == contractOwner */\n      0xffffffffffffffffffffffffffffffffffffffff\n      and\n        /* \"token/token_debenture.sol\":3407:3417  msg.sender */\n      caller\n        /* \"token/token_debenture.sol\":3407:3434  msg.sender == contractOwner */\n      0xffffffffffffffffffffffffffffffffffffffff\n      and\n      eq\n        /* \"token/token_debenture.sol\":3399:3476  require(msg.sender == contractOwner, \"only owner can perform this operation\") */\n      tag_138\n      jumpi\n      mload(0x40)\n      0x08c379a000000000000000000000000000000000000000000000000000000000\n      dup2\n      mstore\n      0x04\n      add\n      tag_139\n      swap1\n      tag_140\n      jump\t// in\n    tag_139:\n      mload(0x40)\n      dup1\n      swap2\n      sub\n      swap1\n      revert\n    tag_138:\n        /* \"token/token_debenture.sol\":8522:8523  0 */\n      0x00\n        /* \"token/token_debenture.sol\":8503:8524  account != address(0) */\n      0xffffffffffffffffffffffffffffffffffffffff\n      and\n        /* \"token/token_debenture.sol\":8503:8510  account */\n      dup4\n        /* \"token/token_debenture.sol\":8503:8524  account != address(0) */\n      0xffffffffffffffffffffffffffffffffffffffff\n      and\n      sub\n        /* \"token/token_debenture.sol\":8495:8560  require(account != address(0), \"ERC20: mint to the zero address\") */\n      tag_142\n      jumpi\n      mload(0x40)\n      0x08c379a000000000000000000000000000000000000000000000000000000000\n      dup2\n      mstore\n      0x04\n      add\n      tag_143\n      swap1\n      tag_144\n      jump\t// in\n    tag_143:\n      mload(0x40)\n      dup1\n      swap2\n      sub\n      swap1\n      revert\n    tag_142:\n        /* \"token/token_debenture.sol\":8591:8597  amount */\n      dup2\n        /* \"token/token_debenture.sol\":8579:8587  _fracoes */\n      0x05\n      0x00\n        /* \"token/token_debenture.sol\":8579:8597  _fracoes += amount */\n      dup3\n      dup3\n      sload\n      tag_145\n      swap2\n      swap1\n      tag_133\n      jump\t// in\n    tag_145:\n      swap3\n      pop\n      pop\n      dup2\n      swap1\n      sstore\n      pop\n        /* \"token/token_debenture.sol\":8636:8650  _valorUnitario */\n      immutable(\"0x4d9fac5dc90d70d79ceac3589bb998755cf60ab2ff110225b2bffe4b0c0e4742\")\n        /* \"token/token_debenture.sol\":8627:8633  amount */\n      dup3\n        /* \"token/token_debenture.sol\":8627:8650  amount * _valorUnitario */\n      tag_146\n      swap2\n      swap1\n      tag_147\n      jump\t// in\n    tag_146:\n        /* \"token/token_debenture.sol\":8607:8623  _vlrTotalEstoque */\n      0x06\n      0x00\n        /* \"token/token_debenture.sol\":8607:8650  _vlrTotalEstoque += amount * _valorUnitario */\n      dup3\n      dup3\n      sload\n      tag_148\n      swap2\n      swap1\n      tag_133\n      jump\t// in\n    tag_148:\n      swap3\n      pop\n      pop\n      dup2\n      swap1\n      sstore\n      pop\n        /* \"token/token_debenture.sol\":8681:8687  amount */\n      dup2\n        /* \"token/token_debenture.sol\":8660:8668  balances */\n      0x08\n        /* \"token/token_debenture.sol\":8660:8677  balances[account] */\n      0x00\n        /* \"token/token_debenture.sol\":8669:8676  account */\n      dup6\n        /* \"token/token_debenture.sol\":8660:8677  balances[account] */\n      0xffffffffffffffffffffffffffffffffffffffff\n      and\n      0xffffffffffffffffffffffffffffffffffffffff\n      and\n      dup2\n      mstore\n      0x20\n      add\n      swap1\n      dup2\n      mstore\n      0x20\n      add\n      0x00\n      keccak256\n      0x00\n        /* \"token/token_debenture.sol\":8660:8687  balances[account] += amount */\n      dup3\n      dup3\n      sload\n      tag_149\n      swap2\n      swap1\n      tag_133\n      jump\t// in\n    tag_149:\n      swap3\n      pop\n      pop\n      dup2\n      swap1\n      sstore\n      pop\n        /* \"token/token_debenture.sol\":8723:8730  account */\n      dup3\n        /* \"token/token_debenture.sol\":8702:8739  Transfer(address(0), account, amount) */\n      0xffffffffffffffffffffffffffffffffffffffff\n      and\n        /* \"token/token_debenture.sol\":8719:8720  0 */\n      0x00\n        /* \"token/token_debenture.sol\":8702:8739  Transfer(address(0), account, amount) */\n      0xffffffffffffffffffffffffffffffffffffffff\n      and\n      0xddf252ad1be2c89b69c2b068fc378daa952ba7f163c4a11628f55a4df523b3ef\n        /* \"token/token_debenture.sol\":8732:8738  amount */\n      dup5\n        /* \"token/token_debenture.sol\":8702:8739  Transfer(address(0), account, amount) */\n      mload(0x40)\n      tag_150\n      swap2\n      swap1\n      tag_40\n      jump\t// in\n    tag_150:\n      mload(0x40)\n      dup1\n      swap2\n      sub\n      swap1\n      log3\n        /* \"token/token_debenture.sol\":8756:8760  true */\n      0x01\n        /* \"token/token_debenture.sol\":8749:8760  return true */\n      swap1\n      pop\n        /* \"token/token_debenture.sol\":8406:8767  function mint(address account, uint256 amount) public onlyOwner returns (bool) {... */\n      swap3\n      swap2\n      pop\n      pop\n      jump\t// out\n        /* \"token/token_debenture.sol\":6749:6847  function detalhesDoTitulo() external view returns ( Titulo contrato ) {... */\n    tag_61:\n        /* \"token/token_debenture.sol\":6801:6816  Titulo contrato */\n      0x00\n        /* \"token/token_debenture.sol\":6836:6840  this */\n      address\n        /* \"token/token_debenture.sol\":6829:6840  return this */\n      swap1\n      pop\n        /* \"token/token_debenture.sol\":6749:6847  function detalhesDoTitulo() external view returns ( Titulo contrato ) {... */\n      swap1\n      jump\t// out\n        /* \"token/token_debenture.sol\":5928:6019  function dataEmissao() external view returns (uint256) {... */\n    tag_65:\n        /* \"token/token_debenture.sol\":5974:5981  uint256 */\n      0x00\n        /* \"token/token_debenture.sol\":6000:6012  _dataEmissao */\n      immutable(\"0x7250aaa7e48e376ad351a6e6358b82b301c238eb6d491d8aad7b3212de4449d6\")\n        /* \"token/token_debenture.sol\":5993:6012  return _dataEmissao */\n      swap1\n      pop\n        /* \"token/token_debenture.sol\":5928:6019  function dataEmissao() external view returns (uint256) {... */\n      swap1\n      jump\t// out\n        /* \"token/token_debenture.sol\":6346:6537  function alteraFracoes(uint16 fracoes_) external onlyOwner returns (bool) {... */\n    tag_70:\n        /* \"token/token_debenture.sol\":6414:6418  bool */\n      0x00\n        /* \"token/token_debenture.sol\":3421:3434  contractOwner */\n      dup1\n      0x00\n      swap1\n      sload\n      swap1\n      0x0100\n      exp\n      swap1\n      div\n      0xffffffffffffffffffffffffffffffffffffffff\n      and\n        /* \"token/token_debenture.sol\":3407:3434  msg.sender == contractOwner */\n      0xffffffffffffffffffffffffffffffffffffffff\n      and\n        /* \"token/token_debenture.sol\":3407:3417  msg.sender */\n      caller\n        /* \"token/token_debenture.sol\":3407:3434  msg.sender == contractOwner */\n      0xffffffffffffffffffffffffffffffffffffffff\n      and\n      eq\n        /* \"token/token_debenture.sol\":3399:3476  require(msg.sender == contractOwner, \"only owner can perform this operation\") */\n      tag_154\n      jumpi\n      mload(0x40)\n      0x08c379a000000000000000000000000000000000000000000000000000000000\n      dup2\n      mstore\n      0x04\n      add\n      tag_155\n      swap1\n      tag_140\n      jump\t// in\n    tag_155:\n      mload(0x40)\n      dup1\n      swap2\n      sub\n      swap1\n      revert\n    tag_154:\n        /* \"token/token_debenture.sol\":6449:6452  100 */\n      0x64\n        /* \"token/token_debenture.sol\":6438:6446  fracoes_ */\n      dup3\n        /* \"token/token_debenture.sol\":6438:6452  fracoes_ >=100 */\n      0xffff\n      and\n      lt\n      iszero\n        /* \"token/token_debenture.sol\":6430:6480  require(fracoes_ >=100, \"numero de fracoes baixo\") */\n      tag_157\n      jumpi\n      mload(0x40)\n      0x08c379a000000000000000000000000000000000000000000000000000000000\n      dup2\n      mstore\n      0x04\n      add\n      tag_158\n      swap1\n      tag_159\n      jump\t// in\n    tag_158:\n      mload(0x40)\n      dup1\n      swap2\n      sub\n      swap1\n      revert\n    tag_157:\n        /* \"token/token_debenture.sol\":6501:6509  fracoes_ */\n      dup2\n        /* \"token/token_debenture.sol\":6490:6509  _fracoes = fracoes_ */\n      0xffff\n      and\n        /* \"token/token_debenture.sol\":6490:6498  _fracoes */\n      0x05\n        /* \"token/token_debenture.sol\":6490:6509  _fracoes = fracoes_ */\n      dup2\n      swap1\n      sstore\n      pop\n        /* \"token/token_debenture.sol\":6526:6530  true */\n      0x01\n        /* \"token/token_debenture.sol\":6519:6530  return true */\n      swap1\n      pop\n        /* \"token/token_debenture.sol\":6346:6537  function alteraFracoes(uint16 fracoes_) external onlyOwner returns (bool) {... */\n      swap2\n      swap1\n      pop\n      jump\t// out\n        /* \"token/token_debenture.sol\":7131:7252  function balanceOf(address tokenOwner) public override view returns(uint256) {... */\n    tag_75:\n        /* \"token/token_debenture.sol\":7199:7206  uint256 */\n      0x00\n        /* \"token/token_debenture.sol\":7225:7233  balances */\n      0x08\n        /* \"token/token_debenture.sol\":7225:7245  balances[tokenOwner] */\n      0x00\n        /* \"token/token_debenture.sol\":7234:7244  tokenOwner */\n      dup4\n        /* \"token/token_debenture.sol\":7225:7245  balances[tokenOwner] */\n      0xffffffffffffffffffffffffffffffffffffffff\n      and\n      0xffffffffffffffffffffffffffffffffffffffff\n      and\n      dup2\n      mstore\n      0x20\n      add\n      swap1\n      dup2\n      mstore\n      0x20\n      add\n      0x00\n      keccak256\n      sload\n        /* \"token/token_debenture.sol\":7218:7245  return balances[tokenOwner] */\n      swap1\n      pop\n        /* \"token/token_debenture.sol\":7131:7252  function balanceOf(address tokenOwner) public override view returns(uint256) {... */\n      swap2\n      swap1\n      pop\n      jump\t// out\n        /* \"token/token_debenture.sol\":5628:5715  function rating() external view returns (string memory) {... */\n    tag_78:\n        /* \"token/token_debenture.sol\":5669:5682  string memory */\n      0x60\n        /* \"token/token_debenture.sol\":5701:5708  _rating */\n      0x07\n        /* \"token/token_debenture.sol\":5694:5708  return _rating */\n      dup1\n      sload\n      tag_162\n      swap1\n      tag_113\n      jump\t// in\n    tag_162:\n      dup1\n      0x1f\n      add\n      0x20\n      dup1\n      swap2\n      div\n      mul\n      0x20\n      add\n      mload(0x40)\n      swap1\n      dup2\n      add\n      0x40\n      mstore\n      dup1\n      swap3\n      swap2\n      swap1\n      dup2\n      dup2\n      mstore\n      0x20\n      add\n      dup3\n      dup1\n      sload\n      tag_163\n      swap1\n      tag_113\n      jump\t// in\n    tag_163:\n      dup1\n      iszero\n      tag_164\n      jumpi\n      dup1\n      0x1f\n      lt\n      tag_165\n      jumpi\n      0x0100\n      dup1\n      dup4\n      sload\n      div\n      mul\n      dup4\n      mstore\n      swap2\n      0x20\n      add\n      swap2\n      jump(tag_164)\n    tag_165:\n      dup3\n      add\n      swap2\n      swap1\n      0x00\n      mstore\n      keccak256(0x00, 0x20)\n      swap1\n    tag_166:\n      dup2\n      sload\n      dup2\n      mstore\n      swap1\n      0x01\n      add\n      swap1\n      0x20\n      add\n      dup1\n      dup4\n      gt\n      tag_166\n      jumpi\n      dup3\n      swap1\n      sub\n      0x1f\n      and\n      dup3\n      add\n      swap2\n    tag_164:\n      pop\n      pop\n      pop\n      pop\n      pop\n      swap1\n      pop\n        /* \"token/token_debenture.sol\":5628:5715  function rating() external view returns (string memory) {... */\n      swap1\n      jump\t// out\n        /* \"token/token_debenture.sol\":6941:7026  function symbol() public view returns(string memory) {... */\n    tag_81:\n        /* \"token/token_debenture.sol\":6979:6992  string memory */\n      0x60\n        /* \"token/token_debenture.sol\":7011:7019  mySymbol */\n      0x03\n        /* \"token/token_debenture.sol\":7004:7019  return mySymbol */\n      dup1\n      sload\n      tag_168\n      swap1\n      tag_113\n      jump\t// in\n    tag_168:\n      dup1\n      0x1f\n      add\n      0x20\n      dup1\n      swap2\n      div\n      mul\n      0x20\n      add\n      mload(0x40)\n      swap1\n      dup2\n      add\n      0x40\n      mstore\n      dup1\n      swap3\n      swap2\n      swap1\n      dup2\n      dup2\n      mstore\n      0x20\n      add\n      dup3\n      dup1\n      sload\n      tag_169\n      swap1\n      tag_113\n      jump\t// in\n    tag_169:\n      dup1\n      iszero\n      tag_170\n      jumpi\n      dup1\n      0x1f\n      lt\n      tag_171\n      jumpi\n      0x0100\n      dup1\n      dup4\n      sload\n      div\n      mul\n      dup4\n      mstore\n      swap2\n      0x20\n      add\n      swap2\n      jump(tag_170)\n    tag_171:\n      dup3\n      add\n      swap2\n      swap1\n      0x00\n      mstore\n      keccak256(0x00, 0x20)\n      swap1\n    tag_172:\n      dup2\n      sload\n      dup2\n      mstore\n      swap1\n      0x01\n      add\n      swap1\n      0x20\n      add\n      dup1\n      dup4\n      gt\n      tag_172\n      jumpi\n      dup3\n      swap1\n      sub\n      0x1f\n      and\n      dup3\n      add\n      swap2\n    tag_170:\n      pop\n      pop\n      pop\n      pop\n      pop\n      swap1\n      pop\n        /* \"token/token_debenture.sol\":6941:7026  function symbol() public view returns(string memory) {... */\n      swap1\n      jump\t// out\n        /* \"token/token_debenture.sol\":8773:9126  function burn(address account, uint256 amount) public onlyOwner returns (bool) {... */\n    tag_85:\n        /* \"token/token_debenture.sol\":8846:8850  bool */\n      0x00\n        /* \"token/token_debenture.sol\":3421:3434  contractOwner */\n      dup1\n      0x00\n      swap1\n      sload\n      swap1\n      0x0100\n      exp\n      swap1\n      div\n      0xffffffffffffffffffffffffffffffffffffffff\n      and\n        /* \"token/token_debenture.sol\":3407:3434  msg.sender == contractOwner */\n      0xffffffffffffffffffffffffffffffffffffffff\n      and\n        /* \"token/token_debenture.sol\":3407:3417  msg.sender */\n      caller\n        /* \"token/token_debenture.sol\":3407:3434  msg.sender == contractOwner */\n      0xffffffffffffffffffffffffffffffffffffffff\n      and\n      eq\n        /* \"token/token_debenture.sol\":3399:3476  require(msg.sender == contractOwner, \"only owner can perform this operation\") */\n      tag_174\n      jumpi\n      mload(0x40)\n      0x08c379a000000000000000000000000000000000000000000000000000000000\n      dup2\n      mstore\n      0x04\n      add\n      tag_175\n      swap1\n      tag_140\n      jump\t// in\n    tag_175:\n      mload(0x40)\n      dup1\n      swap2\n      sub\n      swap1\n      revert\n    tag_174:\n        /* \"token/token_debenture.sol\":8889:8890  0 */\n      0x00\n        /* \"token/token_debenture.sol\":8870:8891  account != address(0) */\n      0xffffffffffffffffffffffffffffffffffffffff\n      and\n        /* \"token/token_debenture.sol\":8870:8877  account */\n      dup4\n        /* \"token/token_debenture.sol\":8870:8891  account != address(0) */\n      0xffffffffffffffffffffffffffffffffffffffff\n      and\n      sub\n        /* \"token/token_debenture.sol\":8862:8920  require(account != address(0), \"ERC20: burn from address\") */\n      tag_177\n      jumpi\n      mload(0x40)\n      0x08c379a000000000000000000000000000000000000000000000000000000000\n      dup2\n      mstore\n      0x04\n      add\n      tag_178\n      swap1\n      tag_179\n      jump\t// in\n    tag_178:\n      mload(0x40)\n      dup1\n      swap2\n      sub\n      swap1\n      revert\n    tag_177:\n        /* \"token/token_debenture.sol\":8959:8965  amount */\n      dup2\n        /* \"token/token_debenture.sol\":8938:8946  balances */\n      0x08\n        /* \"token/token_debenture.sol\":8938:8955  balances[account] */\n      0x00\n        /* \"token/token_debenture.sol\":8947:8954  account */\n      dup6\n        /* \"token/token_debenture.sol\":8938:8955  balances[account] */\n      0xffffffffffffffffffffffffffffffffffffffff\n      and\n      0xffffffffffffffffffffffffffffffffffffffff\n      and\n      dup2\n      mstore\n      0x20\n      add\n      swap1\n      dup2\n      mstore\n      0x20\n      add\n      0x00\n      keccak256\n      0x00\n        /* \"token/token_debenture.sol\":8938:8965  balances[account] -= amount */\n      dup3\n      dup3\n      sload\n      tag_180\n      swap2\n      swap1\n      tag_131\n      jump\t// in\n    tag_180:\n      swap3\n      pop\n      pop\n      dup2\n      swap1\n      sstore\n      pop\n        /* \"token/token_debenture.sol\":8987:8993  amount */\n      dup2\n        /* \"token/token_debenture.sol\":8975:8983  _fracoes */\n      0x05\n      0x00\n        /* \"token/token_debenture.sol\":8975:8993  _fracoes -= amount */\n      dup3\n      dup3\n      sload\n      tag_181\n      swap2\n      swap1\n      tag_131\n      jump\t// in\n    tag_181:\n      swap3\n      pop\n      pop\n      dup2\n      swap1\n      sstore\n      pop\n        /* \"token/token_debenture.sol\":9032:9046  _valorUnitario */\n      immutable(\"0x4d9fac5dc90d70d79ceac3589bb998755cf60ab2ff110225b2bffe4b0c0e4742\")\n        /* \"token/token_debenture.sol\":9023:9029  amount */\n      dup3\n        /* \"token/token_debenture.sol\":9023:9046  amount * _valorUnitario */\n      tag_182\n      swap2\n      swap1\n      tag_147\n      jump\t// in\n    tag_182:\n        /* \"token/token_debenture.sol\":9003:9019  _vlrTotalEstoque */\n      0x06\n      0x00\n        /* \"token/token_debenture.sol\":9003:9046  _vlrTotalEstoque -= amount * _valorUnitario */\n      dup3\n      dup3\n      sload\n      tag_183\n      swap2\n      swap1\n      tag_131\n      jump\t// in\n    tag_183:\n      swap3\n      pop\n      pop\n      dup2\n      swap1\n      sstore\n      pop\n        /* \"token/token_debenture.sol\":9087:9088  0 */\n      0x00\n        /* \"token/token_debenture.sol\":9061:9098  Transfer(account, address(0), amount) */\n      0xffffffffffffffffffffffffffffffffffffffff\n      and\n        /* \"token/token_debenture.sol\":9070:9077  account */\n      dup4\n        /* \"token/token_debenture.sol\":9061:9098  Transfer(account, address(0), amount) */\n      0xffffffffffffffffffffffffffffffffffffffff\n      and\n      0xddf252ad1be2c89b69c2b068fc378daa952ba7f163c4a11628f55a4df523b3ef\n        /* \"token/token_debenture.sol\":9091:9097  amount */\n      dup5\n        /* \"token/token_debenture.sol\":9061:9098  Transfer(account, address(0), amount) */\n      mload(0x40)\n      tag_184\n      swap2\n      swap1\n      tag_40\n      jump\t// in\n    tag_184:\n      mload(0x40)\n      dup1\n      swap2\n      sub\n      swap1\n      log3\n        /* \"token/token_debenture.sol\":9115:9119  true */\n      0x01\n        /* \"token/token_debenture.sol\":9108:9119  return true */\n      swap1\n      pop\n        /* \"token/token_debenture.sol\":8773:9126  function burn(address account, uint256 amount) public onlyOwner returns (bool) {... */\n      swap3\n      swap2\n      pop\n      pop\n      jump\t// out\n        /* \"token/token_debenture.sol\":3675:3885  function changeOwner(address _newOwner) onlyOwner public returns (bool) {... */\n    tag_89:\n        /* \"token/token_debenture.sol\":3741:3745  bool */\n      0x00\n        /* \"token/token_debenture.sol\":3421:3434  contractOwner */\n      dup1\n      0x00\n      swap1\n      sload\n      swap1\n      0x0100\n      exp\n      swap1\n      div\n      0xffffffffffffffffffffffffffffffffffffffff\n      and\n        /* \"token/token_debenture.sol\":3407:3434  msg.sender == contractOwner */\n      0xffffffffffffffffffffffffffffffffffffffff\n      and\n        /* \"token/token_debenture.sol\":3407:3417  msg.sender */\n      caller\n        /* \"token/token_debenture.sol\":3407:3434  msg.sender == contractOwner */\n      0xffffffffffffffffffffffffffffffffffffffff\n      and\n      eq\n        /* \"token/token_debenture.sol\":3399:3476  require(msg.sender == contractOwner, \"only owner can perform this operation\") */\n      tag_186\n      jumpi\n      mload(0x40)\n      0x08c379a000000000000000000000000000000000000000000000000000000000\n      dup2\n      mstore\n      0x04\n      add\n      tag_187\n      swap1\n      tag_140\n      jump\t// in\n    tag_187:\n      mload(0x40)\n      dup1\n      swap2\n      sub\n      swap1\n      revert\n    tag_186:\n        /* \"token/token_debenture.sol\":3786:3789  0x0 */\n      0x00\n        /* \"token/token_debenture.sol\":3765:3790  _newOwner != address(0x0) */\n      0xffffffffffffffffffffffffffffffffffffffff\n      and\n        /* \"token/token_debenture.sol\":3765:3774  _newOwner */\n      dup3\n        /* \"token/token_debenture.sol\":3765:3790  _newOwner != address(0x0) */\n      0xffffffffffffffffffffffffffffffffffffffff\n      and\n      sub\n        /* \"token/token_debenture.sol\":3757:3813  require(_newOwner != address(0x0), \"only valid address\") */\n      tag_189\n      jumpi\n      mload(0x40)\n      0x08c379a000000000000000000000000000000000000000000000000000000000\n      dup2\n      mstore\n      0x04\n      add\n      tag_190\n      swap1\n      tag_191\n      jump\t// in\n    tag_190:\n      mload(0x40)\n      dup1\n      swap2\n      sub\n      swap1\n      revert\n    tag_189:\n        /* \"token/token_debenture.sol\":3847:3856  _newOwner */\n      dup2\n        /* \"token/token_debenture.sol\":3823:3836  contractOwner */\n      0x00\n      dup1\n        /* \"token/token_debenture.sol\":3823:3857  contractOwner = payable(_newOwner) */\n      0x0100\n      exp\n      dup2\n      sload\n      dup2\n      0xffffffffffffffffffffffffffffffffffffffff\n      mul\n      not\n      and\n      swap1\n      dup4\n      0xffffffffffffffffffffffffffffffffffffffff\n      and\n      mul\n      or\n      swap1\n      sstore\n      pop\n        /* \"token/token_debenture.sol\":3874:3878  true */\n      0x01\n        /* \"token/token_debenture.sol\":3867:3878  return true */\n      swap1\n      pop\n        /* \"token/token_debenture.sol\":3675:3885  function changeOwner(address _newOwner) onlyOwner public returns (bool) {... */\n      swap2\n      swap1\n      pop\n      jump\t// out\n        /* \"token/token_debenture.sol\":7418:7740  function transfer(address to, uint256 amount) public override  hasEnoughBalance(msg.sender, amount) tokenAmountValid(amount) returns(bool) {... */\n    tag_93:\n        /* \"token/token_debenture.sol\":7551:7555  bool */\n      0x00\n        /* \"token/token_debenture.sol\":7498:7508  msg.sender */\n      caller\n        /* \"token/token_debenture.sol\":7510:7516  amount */\n      dup3\n        /* \"token/token_debenture.sol\":4623:4635  uint balance */\n      0x00\n        /* \"token/token_debenture.sol\":4655:4663  balances */\n      0x08\n        /* \"token/token_debenture.sol\":4655:4670  balances[owner] */\n      0x00\n        /* \"token/token_debenture.sol\":4664:4669  owner */\n      dup5\n        /* \"token/token_debenture.sol\":4655:4670  balances[owner] */\n      0xffffffffffffffffffffffffffffffffffffffff\n      and\n      0xffffffffffffffffffffffffffffffffffffffff\n      and\n      dup2\n      mstore\n      0x20\n      add\n      swap1\n      dup2\n      mstore\n      0x20\n      add\n      0x00\n      keccak256\n      sload\n        /* \"token/token_debenture.sol\":4645:4670  balance = balances[owner] */\n      swap1\n      pop\n        /* \"token/token_debenture.sol\":4700:4706  amount */\n      dup2\n        /* \"token/token_debenture.sol\":4689:4696  balance */\n      dup2\n        /* \"token/token_debenture.sol\":4689:4706  balance >= amount */\n      lt\n      iszero\n        /* \"token/token_debenture.sol\":4680:4707  require (balance >= amount) */\n      tag_193\n      jumpi\n      0x00\n      dup1\n      revert\n    tag_193:\n        /* \"token/token_debenture.sol\":7535:7541  amount */\n      dup5\n        /* \"token/token_debenture.sol\":4960:4961  0 */\n      0x00\n        /* \"token/token_debenture.sol\":4951:4957  amount */\n      dup2\n        /* \"token/token_debenture.sol\":4951:4961  amount > 0 */\n      gt\n        /* \"token/token_debenture.sol\":4943:4962  require(amount > 0) */\n      tag_195\n      jumpi\n      0x00\n      dup1\n      revert\n    tag_195:\n        /* \"token/token_debenture.sol\":4990:4998  _fracoes */\n      sload(0x05)\n        /* \"token/token_debenture.sol\":4980:4986  amount */\n      dup2\n        /* \"token/token_debenture.sol\":4980:4998  amount <= _fracoes */\n      gt\n      iszero\n        /* \"token/token_debenture.sol\":4972:4999  require(amount <= _fracoes) */\n      tag_196\n      jumpi\n      0x00\n      dup1\n      revert\n    tag_196:\n        /* \"token/token_debenture.sol\":7613:7619  amount */\n      dup6\n        /* \"token/token_debenture.sol\":7590:7598  balances */\n      0x08\n        /* \"token/token_debenture.sol\":7590:7610  balances[msg.sender] */\n      0x00\n        /* \"token/token_debenture.sol\":7599:7609  msg.sender */\n      caller\n        /* \"token/token_debenture.sol\":7590:7610  balances[msg.sender] */\n      0xffffffffffffffffffffffffffffffffffffffff\n      and\n      0xffffffffffffffffffffffffffffffffffffffff\n      and\n      dup2\n      mstore\n      0x20\n      add\n      swap1\n      dup2\n      mstore\n      0x20\n      add\n      0x00\n      keccak256\n      sload\n        /* \"token/token_debenture.sol\":7590:7619  balances[msg.sender] - amount */\n      tag_198\n      swap2\n      swap1\n      tag_131\n      jump\t// in\n    tag_198:\n        /* \"token/token_debenture.sol\":7567:7575  balances */\n      0x08\n        /* \"token/token_debenture.sol\":7567:7587  balances[msg.sender] */\n      0x00\n        /* \"token/token_debenture.sol\":7576:7586  msg.sender */\n      caller\n        /* \"token/token_debenture.sol\":7567:7587  balances[msg.sender] */\n      0xffffffffffffffffffffffffffffffffffffffff\n      and\n      0xffffffffffffffffffffffffffffffffffffffff\n      and\n      dup2\n      mstore\n      0x20\n      add\n      swap1\n      dup2\n      mstore\n      0x20\n      add\n      0x00\n      keccak256\n        /* \"token/token_debenture.sol\":7567:7619  balances[msg.sender] = balances[msg.sender] - amount */\n      dup2\n      swap1\n      sstore\n      pop\n        /* \"token/token_debenture.sol\":7659:7665  amount */\n      dup6\n        /* \"token/token_debenture.sol\":7644:7652  balances */\n      0x08\n        /* \"token/token_debenture.sol\":7644:7656  balances[to] */\n      0x00\n        /* \"token/token_debenture.sol\":7653:7655  to */\n      dup10\n        /* \"token/token_debenture.sol\":7644:7656  balances[to] */\n      0xffffffffffffffffffffffffffffffffffffffff\n      and\n      0xffffffffffffffffffffffffffffffffffffffff\n      and\n      dup2\n      mstore\n      0x20\n      add\n      swap1\n      dup2\n      mstore\n      0x20\n      add\n      0x00\n      keccak256\n      sload\n        /* \"token/token_debenture.sol\":7644:7665  balances[to] + amount */\n      tag_199\n      swap2\n      swap1\n      tag_133\n      jump\t// in\n    tag_199:\n        /* \"token/token_debenture.sol\":7629:7637  balances */\n      0x08\n        /* \"token/token_debenture.sol\":7629:7641  balances[to] */\n      0x00\n        /* \"token/token_debenture.sol\":7638:7640  to */\n      dup10\n        /* \"token/token_debenture.sol\":7629:7641  balances[to] */\n      0xffffffffffffffffffffffffffffffffffffffff\n      and\n      0xffffffffffffffffffffffffffffffffffffffff\n      and\n      dup2\n      mstore\n      0x20\n      add\n      swap1\n      dup2\n      mstore\n      0x20\n      add\n      0x00\n      keccak256\n        /* \"token/token_debenture.sol\":7629:7665  balances[to] = balances[to] + amount */\n      dup2\n      swap1\n      sstore\n      pop\n        /* \"token/token_debenture.sol\":7701:7703  to */\n      dup7\n        /* \"token/token_debenture.sol\":7680:7712  Transfer(msg.sender, to, amount) */\n      0xffffffffffffffffffffffffffffffffffffffff\n      and\n        /* \"token/token_debenture.sol\":7689:7699  msg.sender */\n      caller\n        /* \"token/token_debenture.sol\":7680:7712  Transfer(msg.sender, to, amount) */\n      0xffffffffffffffffffffffffffffffffffffffff\n      and\n      0xddf252ad1be2c89b69c2b068fc378daa952ba7f163c4a11628f55a4df523b3ef\n        /* \"token/token_debenture.sol\":7705:7711  amount */\n      dup9\n        /* \"token/token_debenture.sol\":7680:7712  Transfer(msg.sender, to, amount) */\n      mload(0x40)\n      tag_200\n      swap2\n      swap1\n      tag_40\n      jump\t// in\n    tag_200:\n      mload(0x40)\n      dup1\n      swap2\n      sub\n      swap1\n      log3\n        /* \"token/token_debenture.sol\":7729:7733  true */\n      0x01\n        /* \"token/token_debenture.sol\":7722:7733  return true */\n      swap5\n      pop\n        /* \"token/token_debenture.sol\":4718:4719  _ */\n      pop\n        /* \"token/token_debenture.sol\":4613:4726  {... */\n      pop\n        /* \"token/token_debenture.sol\":7418:7740  function transfer(address to, uint256 amount) public override  hasEnoughBalance(msg.sender, amount) tokenAmountValid(amount) returns(bool) {... */\n      pop\n      pop\n      swap3\n      swap2\n      pop\n      pop\n      jump\t// out\n        /* \"token/token_debenture.sol\":6660:6743  function fracoes() external view returns (uint256) {... */\n    tag_96:\n        /* \"token/token_debenture.sol\":6702:6709  uint256 */\n      0x00\n        /* \"token/token_debenture.sol\":6728:6736  _fracoes */\n      sload(0x05)\n        /* \"token/token_debenture.sol\":6721:6736  return _fracoes */\n      swap1\n      pop\n        /* \"token/token_debenture.sol\":6660:6743  function fracoes() external view returns (uint256) {... */\n      swap1\n      jump\t// out\n        /* \"token/token_debenture.sol\":7258:7412  function allowance(address tokenOwner, address spender) public override view returns(uint256) {... */\n    tag_101:\n        /* \"token/token_debenture.sol\":7343:7350  uint256 */\n      0x00\n        /* \"token/token_debenture.sol\":7369:7384  ownerAllowances */\n      0x09\n        /* \"token/token_debenture.sol\":7369:7396  ownerAllowances[tokenOwner] */\n      0x00\n        /* \"token/token_debenture.sol\":7385:7395  tokenOwner */\n      dup5\n        /* \"token/token_debenture.sol\":7369:7396  ownerAllowances[tokenOwner] */\n      0xffffffffffffffffffffffffffffffffffffffff\n      and\n      0xffffffffffffffffffffffffffffffffffffffff\n      and\n      dup2\n      mstore\n      0x20\n      add\n      swap1\n      dup2\n      mstore\n      0x20\n      add\n      0x00\n      keccak256\n        /* \"token/token_debenture.sol\":7369:7405  ownerAllowances[tokenOwner][spender] */\n      0x00\n        /* \"token/token_debenture.sol\":7397:7404  spender */\n      dup4\n        /* \"token/token_debenture.sol\":7369:7405  ownerAllowances[tokenOwner][spender] */\n      0xffffffffffffffffffffffffffffffffffffffff\n      and\n      0xffffffffffffffffffffffffffffffffffffffff\n      and\n      dup2\n      mstore\n      0x20\n      add\n      swap1\n      dup2\n      mstore\n      0x20\n      add\n      0x00\n      keccak256\n      sload\n        /* \"token/token_debenture.sol\":7362:7405  return ownerAllowances[tokenOwner][spender] */\n      swap1\n      pop\n        /* \"token/token_debenture.sol\":7258:7412  function allowance(address tokenOwner, address spender) public override view returns(uint256) {... */\n      swap3\n      swap2\n      pop\n      pop\n      jump\t// out\n        /* \"token/token_debenture.sol\":5776:5867  function nomeEmissor() external view returns (string memory) {... */\n    tag_104:\n        /* \"token/token_debenture.sol\":5822:5835  string memory */\n      0x60\n        /* \"token/token_debenture.sol\":5854:5860  myName */\n      0x02\n        /* \"token/token_debenture.sol\":5847:5860  return myName */\n      dup1\n      sload\n      tag_204\n      swap1\n      tag_113\n      jump\t// in\n    tag_204:\n      dup1\n      0x1f\n      add\n      0x20\n      dup1\n      swap2\n      div\n      mul\n      0x20\n      add\n      mload(0x40)\n      swap1\n      dup2\n      add\n      0x40\n      mstore\n      dup1\n      swap3\n      swap2\n      swap1\n      dup2\n      dup2\n      mstore\n      0x20\n      add\n      dup3\n      dup1\n      sload\n      tag_205\n      swap1\n      tag_113\n      jump\t// in\n    tag_205:\n      dup1\n      iszero\n      tag_206\n      jumpi\n      dup1\n      0x1f\n      lt\n      tag_207\n      jumpi\n      0x0100\n      dup1\n      dup4\n      sload\n      div\n      mul\n      dup4\n      mstore\n      swap2\n      0x20\n      add\n      swap2\n      jump(tag_206)\n    tag_207:\n      dup3\n      add\n      swap2\n      swap1\n      0x00\n      mstore\n      keccak256(0x00, 0x20)\n      swap1\n    tag_208:\n      dup2\n      sload\n      dup2\n      mstore\n      swap1\n      0x01\n      add\n      swap1\n      0x20\n      add\n      dup1\n      dup4\n      gt\n      tag_208\n      jumpi\n      dup3\n      swap1\n      sub\n      0x1f\n      and\n      dup3\n      add\n      swap2\n    tag_206:\n      pop\n      pop\n      pop\n      pop\n      pop\n      swap1\n      pop\n        /* \"token/token_debenture.sol\":5776:5867  function nomeEmissor() external view returns (string memory) {... */\n      swap1\n      jump\t// out\n        /* \"token/token_debenture.sol\":6202:6340  function mudaRating(string memory novoRating) external onlyOwner returns (bool) {... */\n    tag_109:\n        /* \"token/token_debenture.sol\":6276:6280  bool */\n      0x00\n        /* \"token/token_debenture.sol\":3421:3434  contractOwner */\n      dup1\n      0x00\n      swap1\n      sload\n      swap1\n      0x0100\n      exp\n      swap1\n      div\n      0xffffffffffffffffffffffffffffffffffffffff\n      and\n        /* \"token/token_debenture.sol\":3407:3434  msg.sender == contractOwner */\n      0xffffffffffffffffffffffffffffffffffffffff\n      and\n        /* \"token/token_debenture.sol\":3407:3417  msg.sender */\n      caller\n        /* \"token/token_debenture.sol\":3407:3434  msg.sender == contractOwner */\n      0xffffffffffffffffffffffffffffffffffffffff\n      and\n      eq\n        /* \"token/token_debenture.sol\":3399:3476  require(msg.sender == contractOwner, \"only owner can perform this operation\") */\n      tag_210\n      jumpi\n      mload(0x40)\n      0x08c379a000000000000000000000000000000000000000000000000000000000\n      dup2\n      mstore\n      0x04\n      add\n      tag_211\n      swap1\n      tag_140\n      jump\t// in\n    tag_211:\n      mload(0x40)\n      dup1\n      swap2\n      sub\n      swap1\n      revert\n    tag_210:\n        /* \"token/token_debenture.sol\":6302:6312  novoRating */\n      dup2\n        /* \"token/token_debenture.sol\":6292:6299  _rating */\n      0x07\n        /* \"token/token_debenture.sol\":6292:6312  _rating = novoRating */\n      swap1\n      dup2\n      tag_213\n      swap2\n      swap1\n      tag_214\n      jump\t// in\n    tag_213:\n      pop\n        /* \"token/token_debenture.sol\":6329:6333  true */\n      0x01\n        /* \"token/token_debenture.sol\":6322:6333  return true */\n      swap1\n      pop\n        /* \"token/token_debenture.sol\":6202:6340  function mudaRating(string memory novoRating) external onlyOwner returns (bool) {... */\n      swap2\n      swap1\n      pop\n      jump\t// out\n        /* \"#utility.yul\":7:106   */\n    tag_215:\n        /* \"#utility.yul\":59:65   */\n      0x00\n        /* \"#utility.yul\":93:98   */\n      dup2\n        /* \"#utility.yul\":87:99   */\n      mload\n        /* \"#utility.yul\":77:99   */\n      swap1\n      pop\n        /* \"#utility.yul\":7:106   */\n      swap2\n      swap1\n      pop\n      jump\t// out\n        /* \"#utility.yul\":112:281   */\n    tag_216:\n        /* \"#utility.yul\":196:207   */\n      0x00\n        /* \"#utility.yul\":230:236   */\n      dup3\n        /* \"#utility.yul\":225:228   */\n      dup3\n        /* \"#utility.yul\":218:237   */\n      mstore\n        /* \"#utility.yul\":270:274   */\n      0x20\n        /* \"#utility.yul\":265:268   */\n      dup3\n        /* \"#utility.yul\":261:275   */\n      add\n        /* \"#utility.yul\":246:275   */\n      swap1\n      pop\n        /* \"#utility.yul\":112:281   */\n      swap3\n      swap2\n      pop\n      pop\n      jump\t// out\n        /* \"#utility.yul\":287:533   */\n    tag_217:\n        /* \"#utility.yul\":368:369   */\n      0x00\n        /* \"#utility.yul\":378:491   */\n    tag_281:\n        /* \"#utility.yul\":392:398   */\n      dup4\n        /* \"#utility.yul\":389:390   */\n      dup2\n        /* \"#utility.yul\":386:399   */\n      lt\n        /* \"#utility.yul\":378:491   */\n      iszero\n      tag_283\n      jumpi\n        /* \"#utility.yul\":477:478   */\n      dup1\n        /* \"#utility.yul\":472:475   */\n      dup3\n        /* \"#utility.yul\":468:479   */\n      add\n        /* \"#utility.yul\":462:480   */\n      mload\n        /* \"#utility.yul\":458:459   */\n      dup2\n        /* \"#utility.yul\":453:456   */\n      dup5\n        /* \"#utility.yul\":449:460   */\n      add\n        /* \"#utility.yul\":442:481   */\n      mstore\n        /* \"#utility.yul\":414:416   */\n      0x20\n        /* \"#utility.yul\":411:412   */\n      dup2\n        /* \"#utility.yul\":407:417   */\n      add\n        /* \"#utility.yul\":402:417   */\n      swap1\n      pop\n        /* \"#utility.yul\":378:491   */\n      jump(tag_281)\n    tag_283:\n        /* \"#utility.yul\":525:526   */\n      0x00\n        /* \"#utility.yul\":516:522   */\n      dup5\n        /* \"#utility.yul\":511:514   */\n      dup5\n        /* \"#utility.yul\":507:523   */\n      add\n        /* \"#utility.yul\":500:527   */\n      mstore\n        /* \"#utility.yul\":349:533   */\n      pop\n        /* \"#utility.yul\":287:533   */\n      pop\n      pop\n      pop\n      jump\t// out\n        /* \"#utility.yul\":539:641   */\n    tag_218:\n        /* \"#utility.yul\":580:586   */\n      0x00\n        /* \"#utility.yul\":631:633   */\n      0x1f\n        /* \"#utility.yul\":627:634   */\n      not\n        /* \"#utility.yul\":622:624   */\n      0x1f\n        /* \"#utility.yul\":615:620   */\n      dup4\n        /* \"#utility.yul\":611:625   */\n      add\n        /* \"#utility.yul\":607:635   */\n      and\n        /* \"#utility.yul\":597:635   */\n      swap1\n      pop\n        /* \"#utility.yul\":539:641   */\n      swap2\n      swap1\n      pop\n      jump\t// out\n        /* \"#utility.yul\":647:1024   */\n    tag_219:\n        /* \"#utility.yul\":735:738   */\n      0x00\n        /* \"#utility.yul\":763:802   */\n      tag_286\n        /* \"#utility.yul\":796:801   */\n      dup3\n        /* \"#utility.yul\":763:802   */\n      tag_215\n      jump\t// in\n    tag_286:\n        /* \"#utility.yul\":818:889   */\n      tag_287\n        /* \"#utility.yul\":882:888   */\n      dup2\n        /* \"#utility.yul\":877:880   */\n      dup6\n        /* \"#utility.yul\":818:889   */\n      tag_216\n      jump\t// in\n    tag_287:\n        /* \"#utility.yul\":811:889   */\n      swap4\n      pop\n        /* \"#utility.yul\":898:963   */\n      tag_288\n        /* \"#utility.yul\":956:962   */\n      dup2\n        /* \"#utility.yul\":951:954   */\n      dup6\n        /* \"#utility.yul\":944:948   */\n      0x20\n        /* \"#utility.yul\":937:942   */\n      dup7\n        /* \"#utility.yul\":933:949   */\n      add\n        /* \"#utility.yul\":898:963   */\n      tag_217\n      jump\t// in\n    tag_288:\n        /* \"#utility.yul\":988:1017   */\n      tag_289\n        /* \"#utility.yul\":1010:1016   */\n      dup2\n        /* \"#utility.yul\":988:1017   */\n      tag_218\n      jump\t// in\n    tag_289:\n        /* \"#utility.yul\":983:986   */\n      dup5\n        /* \"#utility.yul\":979:1018   */\n      add\n        /* \"#utility.yul\":972:1018   */\n      swap2\n      pop\n        /* \"#utility.yul\":739:1024   */\n      pop\n        /* \"#utility.yul\":647:1024   */\n      swap3\n      swap2\n      pop\n      pop\n      jump\t// out\n        /* \"#utility.yul\":1030:1343   */\n    tag_30:\n        /* \"#utility.yul\":1143:1147   */\n      0x00\n        /* \"#utility.yul\":1181:1183   */\n      0x20\n        /* \"#utility.yul\":1170:1179   */\n      dup3\n        /* \"#utility.yul\":1166:1184   */\n      add\n        /* \"#utility.yul\":1158:1184   */\n      swap1\n      pop\n        /* \"#utility.yul\":1230:1239   */\n      dup2\n        /* \"#utility.yul\":1224:1228   */\n      dup2\n        /* \"#utility.yul\":1220:1240   */\n      sub\n        /* \"#utility.yul\":1216:1217   */\n      0x00\n        /* \"#utility.yul\":1205:1214   */\n      dup4\n        /* \"#utility.yul\":1201:1218   */\n      add\n        /* \"#utility.yul\":1194:1241   */\n      mstore\n        /* \"#utility.yul\":1258:1336   */\n      tag_291\n        /* \"#utility.yul\":1331:1335   */\n      dup2\n        /* \"#utility.yul\":1322:1328   */\n      dup5\n        /* \"#utility.yul\":1258:1336   */\n      tag_219\n      jump\t// in\n    tag_291:\n        /* \"#utility.yul\":1250:1336   */\n      swap1\n      pop\n        /* \"#utility.yul\":1030:1343   */\n      swap3\n      swap2\n      pop\n      pop\n      jump\t// out\n        /* \"#utility.yul\":1349:1424   */\n    tag_220:\n        /* \"#utility.yul\":1382:1388   */\n      0x00\n        /* \"#utility.yul\":1415:1417   */\n      0x40\n        /* \"#utility.yul\":1409:1418   */\n      mload\n        /* \"#utility.yul\":1399:1418   */\n      swap1\n      pop\n        /* \"#utility.yul\":1349:1424   */\n      swap1\n      jump\t// out\n        /* \"#utility.yul\":1430:1547   */\n    tag_221:\n        /* \"#utility.yul\":1539:1540   */\n      0x00\n        /* \"#utility.yul\":1536:1537   */\n      dup1\n        /* \"#utility.yul\":1529:1541   */\n      revert\n        /* \"#utility.yul\":1553:1670   */\n    tag_222:\n        /* \"#utility.yul\":1662:1663   */\n      0x00\n        /* \"#utility.yul\":1659:1660   */\n      dup1\n        /* \"#utility.yul\":1652:1664   */\n      revert\n        /* \"#utility.yul\":1676:1802   */\n    tag_223:\n        /* \"#utility.yul\":1713:1720   */\n      0x00\n        /* \"#utility.yul\":1753:1795   */\n      0xffffffffffffffffffffffffffffffffffffffff\n        /* \"#utility.yul\":1746:1751   */\n      dup3\n        /* \"#utility.yul\":1742:1796   */\n      and\n        /* \"#utility.yul\":1731:1796   */\n      swap1\n      pop\n        /* \"#utility.yul\":1676:1802   */\n      swap2\n      swap1\n      pop\n      jump\t// out\n        /* \"#utility.yul\":1808:1904   */\n    tag_224:\n        /* \"#utility.yul\":1845:1852   */\n      0x00\n        /* \"#utility.yul\":1874:1898   */\n      tag_297\n        /* \"#utility.yul\":1892:1897   */\n      dup3\n        /* \"#utility.yul\":1874:1898   */\n      tag_223\n      jump\t// in\n    tag_297:\n        /* \"#utility.yul\":1863:1898   */\n      swap1\n      pop\n        /* \"#utility.yul\":1808:1904   */\n      swap2\n      swap1\n      pop\n      jump\t// out\n        /* \"#utility.yul\":1910:2032   */\n    tag_225:\n        /* \"#utility.yul\":1983:2007   */\n      tag_299\n        /* \"#utility.yul\":2001:2006   */\n      dup2\n        /* \"#utility.yul\":1983:2007   */\n      tag_224\n      jump\t// in\n    tag_299:\n        /* \"#utility.yul\":1976:1981   */\n      dup2\n        /* \"#utility.yul\":1973:2008   */\n      eq\n        /* \"#utility.yul\":1963:2026   */\n      tag_300\n      jumpi\n        /* \"#utility.yul\":2022:2023   */\n      0x00\n        /* \"#utility.yul\":2019:2020   */\n      dup1\n        /* \"#utility.yul\":2012:2024   */\n      revert\n        /* \"#utility.yul\":1963:2026   */\n    tag_300:\n        /* \"#utility.yul\":1910:2032   */\n      pop\n      jump\t// out\n        /* \"#utility.yul\":2038:2177   */\n    tag_226:\n        /* \"#utility.yul\":2084:2089   */\n      0x00\n        /* \"#utility.yul\":2122:2128   */\n      dup2\n        /* \"#utility.yul\":2109:2129   */\n      calldataload\n        /* \"#utility.yul\":2100:2129   */\n      swap1\n      pop\n        /* \"#utility.yul\":2138:2171   */\n      tag_302\n        /* \"#utility.yul\":2165:2170   */\n      dup2\n        /* \"#utility.yul\":2138:2171   */\n      tag_225\n      jump\t// in\n    tag_302:\n        /* \"#utility.yul\":2038:2177   */\n      swap3\n      swap2\n      pop\n      pop\n      jump\t// out\n        /* \"#utility.yul\":2183:2260   */\n    tag_227:\n        /* \"#utility.yul\":2220:2227   */\n      0x00\n        /* \"#utility.yul\":2249:2254   */\n      dup2\n        /* \"#utility.yul\":2238:2254   */\n      swap1\n      pop\n        /* \"#utility.yul\":2183:2260   */\n      swap2\n      swap1\n      pop\n      jump\t// out\n        /* \"#utility.yul\":2266:2388   */\n    tag_228:\n        /* \"#utility.yul\":2339:2363   */\n      tag_305\n        /* \"#utility.yul\":2357:2362   */\n      dup2\n        /* \"#utility.yul\":2339:2363   */\n      tag_227\n      jump\t// in\n    tag_305:\n        /* \"#utility.yul\":2332:2337   */\n      dup2\n        /* \"#utility.yul\":2329:2364   */\n      eq\n        /* \"#utility.yul\":2319:2382   */\n      tag_306\n      jumpi\n        /* \"#utility.yul\":2378:2379   */\n      0x00\n        /* \"#utility.yul\":2375:2376   */\n      dup1\n        /* \"#utility.yul\":2368:2380   */\n      revert\n        /* \"#utility.yul\":2319:2382   */\n    tag_306:\n        /* \"#utility.yul\":2266:2388   */\n      pop\n      jump\t// out\n        /* \"#utility.yul\":2394:2533   */\n    tag_229:\n        /* \"#utility.yul\":2440:2445   */\n      0x00\n        /* \"#utility.yul\":2478:2484   */\n      dup2\n        /* \"#utility.yul\":2465:2485   */\n      calldataload\n        /* \"#utility.yul\":2456:2485   */\n      swap1\n      pop\n        /* \"#utility.yul\":2494:2527   */\n      tag_308\n        /* \"#utility.yul\":2521:2526   */\n      dup2\n        /* \"#utility.yul\":2494:2527   */\n      tag_228\n      jump\t// in\n    tag_308:\n        /* \"#utility.yul\":2394:2533   */\n      swap3\n      swap2\n      pop\n      pop\n      jump\t// out\n        /* \"#utility.yul\":2539:3013   */\n    tag_33:\n        /* \"#utility.yul\":2607:2613   */\n      0x00\n        /* \"#utility.yul\":2615:2621   */\n      dup1\n        /* \"#utility.yul\":2664:2666   */\n      0x40\n        /* \"#utility.yul\":2652:2661   */\n      dup4\n        /* \"#utility.yul\":2643:2650   */\n      dup6\n        /* \"#utility.yul\":2639:2662   */\n      sub\n        /* \"#utility.yul\":2635:2667   */\n      slt\n        /* \"#utility.yul\":2632:2751   */\n      iszero\n      tag_310\n      jumpi\n        /* \"#utility.yul\":2670:2749   */\n      tag_311\n      tag_221\n      jump\t// in\n    tag_311:\n        /* \"#utility.yul\":2632:2751   */\n    tag_310:\n        /* \"#utility.yul\":2790:2791   */\n      0x00\n        /* \"#utility.yul\":2815:2868   */\n      tag_312\n        /* \"#utility.yul\":2860:2867   */\n      dup6\n        /* \"#utility.yul\":2851:2857   */\n      dup3\n        /* \"#utility.yul\":2840:2849   */\n      dup7\n        /* \"#utility.yul\":2836:2858   */\n      add\n        /* \"#utility.yul\":2815:2868   */\n      tag_226\n      jump\t// in\n    tag_312:\n        /* \"#utility.yul\":2805:2868   */\n      swap3\n      pop\n        /* \"#utility.yul\":2761:2878   */\n      pop\n        /* \"#utility.yul\":2917:2919   */\n      0x20\n        /* \"#utility.yul\":2943:2996   */\n      tag_313\n        /* \"#utility.yul\":2988:2995   */\n      dup6\n        /* \"#utility.yul\":2979:2985   */\n      dup3\n        /* \"#utility.yul\":2968:2977   */\n      dup7\n        /* \"#utility.yul\":2964:2986   */\n      add\n        /* \"#utility.yul\":2943:2996   */\n      tag_229\n      jump\t// in\n    tag_313:\n        /* \"#utility.yul\":2933:2996   */\n      swap2\n      pop\n        /* \"#utility.yul\":2888:3006   */\n      pop\n        /* \"#utility.yul\":2539:3013   */\n      swap3\n      pop\n      swap3\n      swap1\n      pop\n      jump\t// out\n        /* \"#utility.yul\":3019:3109   */\n    tag_230:\n        /* \"#utility.yul\":3053:3060   */\n      0x00\n        /* \"#utility.yul\":3096:3101   */\n      dup2\n        /* \"#utility.yul\":3089:3102   */\n      iszero\n        /* \"#utility.yul\":3082:3103   */\n      iszero\n        /* \"#utility.yul\":3071:3103   */\n      swap1\n      pop\n        /* \"#utility.yul\":3019:3109   */\n      swap2\n      swap1\n      pop\n      jump\t// out\n        /* \"#utility.yul\":3115:3224   */\n    tag_231:\n        /* \"#utility.yul\":3196:3217   */\n      tag_316\n        /* \"#utility.yul\":3211:3216   */\n      dup2\n        /* \"#utility.yul\":3196:3217   */\n      tag_230\n      jump\t// in\n    tag_316:\n        /* \"#utility.yul\":3191:3194   */\n      dup3\n        /* \"#utility.yul\":3184:3218   */\n      mstore\n        /* \"#utility.yul\":3115:3224   */\n      pop\n      pop\n      jump\t// out\n        /* \"#utility.yul\":3230:3440   */\n    tag_36:\n        /* \"#utility.yul\":3317:3321   */\n      0x00\n        /* \"#utility.yul\":3355:3357   */\n      0x20\n        /* \"#utility.yul\":3344:3353   */\n      dup3\n        /* \"#utility.yul\":3340:3358   */\n      add\n        /* \"#utility.yul\":3332:3358   */\n      swap1\n      pop\n        /* \"#utility.yul\":3368:3433   */\n      tag_318\n        /* \"#utility.yul\":3430:3431   */\n      0x00\n        /* \"#utility.yul\":3419:3428   */\n      dup4\n        /* \"#utility.yul\":3415:3432   */\n      add\n        /* \"#utility.yul\":3406:3412   */\n      dup5\n        /* \"#utility.yul\":3368:3433   */\n      tag_231\n      jump\t// in\n    tag_318:\n        /* \"#utility.yul\":3230:3440   */\n      swap3\n      swap2\n      pop\n      pop\n      jump\t// out\n        /* \"#utility.yul\":3446:3564   */\n    tag_232:\n        /* \"#utility.yul\":3533:3557   */\n      tag_320\n        /* \"#utility.yul\":3551:3556   */\n      dup2\n        /* \"#utility.yul\":3533:3557   */\n      tag_227\n      jump\t// in\n    tag_320:\n        /* \"#utility.yul\":3528:3531   */\n      dup3\n        /* \"#utility.yul\":3521:3558   */\n      mstore\n        /* \"#utility.yul\":3446:3564   */\n      pop\n      pop\n      jump\t// out\n        /* \"#utility.yul\":3570:3792   */\n    tag_40:\n        /* \"#utility.yul\":3663:3667   */\n      0x00\n        /* \"#utility.yul\":3701:3703   */\n      0x20\n        /* \"#utility.yul\":3690:3699   */\n      dup3\n        /* \"#utility.yul\":3686:3704   */\n      add\n        /* \"#utility.yul\":3678:3704   */\n      swap1\n      pop\n        /* \"#utility.yul\":3714:3785   */\n      tag_322\n        /* \"#utility.yul\":3782:3783   */\n      0x00\n        /* \"#utility.yul\":3771:3780   */\n      dup4\n        /* \"#utility.yul\":3767:3784   */\n      add\n        /* \"#utility.yul\":3758:3764   */\n      dup5\n        /* \"#utility.yul\":3714:3785   */\n      tag_232\n      jump\t// in\n    tag_322:\n        /* \"#utility.yul\":3570:3792   */\n      swap3\n      swap2\n      pop\n      pop\n      jump\t// out\n        /* \"#utility.yul\":3798:3916   */\n    tag_233:\n        /* \"#utility.yul\":3885:3909   */\n      tag_324\n        /* \"#utility.yul\":3903:3908   */\n      dup2\n        /* \"#utility.yul\":3885:3909   */\n      tag_224\n      jump\t// in\n    tag_324:\n        /* \"#utility.yul\":3880:3883   */\n      dup3\n        /* \"#utility.yul\":3873:3910   */\n      mstore\n        /* \"#utility.yul\":3798:3916   */\n      pop\n      pop\n      jump\t// out\n        /* \"#utility.yul\":3922:4144   */\n    tag_44:\n        /* \"#utility.yul\":4015:4019   */\n      0x00\n        /* \"#utility.yul\":4053:4055   */\n      0x20\n        /* \"#utility.yul\":4042:4051   */\n      dup3\n        /* \"#utility.yul\":4038:4056   */\n      add\n        /* \"#utility.yul\":4030:4056   */\n      swap1\n      pop\n        /* \"#utility.yul\":4066:4137   */\n      tag_326\n        /* \"#utility.yul\":4134:4135   */\n      0x00\n        /* \"#utility.yul\":4123:4132   */\n      dup4\n        /* \"#utility.yul\":4119:4136   */\n      add\n        /* \"#utility.yul\":4110:4116   */\n      dup5\n        /* \"#utility.yul\":4066:4137   */\n      tag_233\n      jump\t// in\n    tag_326:\n        /* \"#utility.yul\":3922:4144   */\n      swap3\n      swap2\n      pop\n      pop\n      jump\t// out\n        /* \"#utility.yul\":4150:4769   */\n    tag_47:\n        /* \"#utility.yul\":4227:4233   */\n      0x00\n        /* \"#utility.yul\":4235:4241   */\n      dup1\n        /* \"#utility.yul\":4243:4249   */\n      0x00\n        /* \"#utility.yul\":4292:4294   */\n      0x60\n        /* \"#utility.yul\":4280:4289   */\n      dup5\n        /* \"#utility.yul\":4271:4278   */\n      dup7\n        /* \"#utility.yul\":4267:4290   */\n      sub\n        /* \"#utility.yul\":4263:4295   */\n      slt\n        /* \"#utility.yul\":4260:4379   */\n      iszero\n      tag_328\n      jumpi\n        /* \"#utility.yul\":4298:4377   */\n      tag_329\n      tag_221\n      jump\t// in\n    tag_329:\n        /* \"#utility.yul\":4260:4379   */\n    tag_328:\n        /* \"#utility.yul\":4418:4419   */\n      0x00\n        /* \"#utility.yul\":4443:4496   */\n      tag_330\n        /* \"#utility.yul\":4488:4495   */\n      dup7\n        /* \"#utility.yul\":4479:4485   */\n      dup3\n        /* \"#utility.yul\":4468:4477   */\n      dup8\n        /* \"#utility.yul\":4464:4486   */\n      add\n        /* \"#utility.yul\":4443:4496   */\n      tag_226\n      jump\t// in\n    tag_330:\n        /* \"#utility.yul\":4433:4496   */\n      swap4\n      pop\n        /* \"#utility.yul\":4389:4506   */\n      pop\n        /* \"#utility.yul\":4545:4547   */\n      0x20\n        /* \"#utility.yul\":4571:4624   */\n      tag_331\n        /* \"#utility.yul\":4616:4623   */\n      dup7\n        /* \"#utility.yul\":4607:4613   */\n      dup3\n        /* \"#utility.yul\":4596:4605   */\n      dup8\n        /* \"#utility.yul\":4592:4614   */\n      add\n        /* \"#utility.yul\":4571:4624   */\n      tag_226\n      jump\t// in\n    tag_331:\n        /* \"#utility.yul\":4561:4624   */\n      swap3\n      pop\n        /* \"#utility.yul\":4516:4634   */\n      pop\n        /* \"#utility.yul\":4673:4675   */\n      0x40\n        /* \"#utility.yul\":4699:4752   */\n      tag_332\n        /* \"#utility.yul\":4744:4751   */\n      dup7\n        /* \"#utility.yul\":4735:4741   */\n      dup3\n        /* \"#utility.yul\":4724:4733   */\n      dup8\n        /* \"#utility.yul\":4720:4742   */\n      add\n        /* \"#utility.yul\":4699:4752   */\n      tag_229\n      jump\t// in\n    tag_332:\n        /* \"#utility.yul\":4689:4752   */\n      swap2\n      pop\n        /* \"#utility.yul\":4644:4762   */\n      pop\n        /* \"#utility.yul\":4150:4769   */\n      swap3\n      pop\n      swap3\n      pop\n      swap3\n      jump\t// out\n        /* \"#utility.yul\":4775:4835   */\n    tag_234:\n        /* \"#utility.yul\":4803:4806   */\n      0x00\n        /* \"#utility.yul\":4824:4829   */\n      dup2\n        /* \"#utility.yul\":4817:4829   */\n      swap1\n      pop\n        /* \"#utility.yul\":4775:4835   */\n      swap2\n      swap1\n      pop\n      jump\t// out\n        /* \"#utility.yul\":4841:4983   */\n    tag_235:\n        /* \"#utility.yul\":4891:4900   */\n      0x00\n        /* \"#utility.yul\":4924:4977   */\n      tag_335\n        /* \"#utility.yul\":4942:4976   */\n      tag_336\n        /* \"#utility.yul\":4951:4975   */\n      tag_337\n        /* \"#utility.yul\":4969:4974   */\n      dup5\n        /* \"#utility.yul\":4951:4975   */\n      tag_223\n      jump\t// in\n    tag_337:\n        /* \"#utility.yul\":4942:4976   */\n      tag_234\n      jump\t// in\n    tag_336:\n        /* \"#utility.yul\":4924:4977   */\n      tag_223\n      jump\t// in\n    tag_335:\n        /* \"#utility.yul\":4911:4977   */\n      swap1\n      pop\n        /* \"#utility.yul\":4841:4983   */\n      swap2\n      swap1\n      pop\n      jump\t// out\n        /* \"#utility.yul\":4989:5115   */\n    tag_236:\n        /* \"#utility.yul\":5039:5048   */\n      0x00\n        /* \"#utility.yul\":5072:5109   */\n      tag_339\n        /* \"#utility.yul\":5103:5108   */\n      dup3\n        /* \"#utility.yul\":5072:5109   */\n      tag_235\n      jump\t// in\n    tag_339:\n        /* \"#utility.yul\":5059:5109   */\n      swap1\n      pop\n        /* \"#utility.yul\":4989:5115   */\n      swap2\n      swap1\n      pop\n      jump\t// out\n        /* \"#utility.yul\":5121:5260   */\n    tag_237:\n        /* \"#utility.yul\":5184:5193   */\n      0x00\n        /* \"#utility.yul\":5217:5254   */\n      tag_341\n        /* \"#utility.yul\":5248:5253   */\n      dup3\n        /* \"#utility.yul\":5217:5254   */\n      tag_236\n      jump\t// in\n    tag_341:\n        /* \"#utility.yul\":5204:5254   */\n      swap1\n      pop\n        /* \"#utility.yul\":5121:5260   */\n      swap2\n      swap1\n      pop\n      jump\t// out\n        /* \"#utility.yul\":5266:5423   */\n    tag_238:\n        /* \"#utility.yul\":5366:5416   */\n      tag_343\n        /* \"#utility.yul\":5410:5415   */\n      dup2\n        /* \"#utility.yul\":5366:5416   */\n      tag_237\n      jump\t// in\n    tag_343:\n        /* \"#utility.yul\":5361:5364   */\n      dup3\n        /* \"#utility.yul\":5354:5417   */\n      mstore\n        /* \"#utility.yul\":5266:5423   */\n      pop\n      pop\n      jump\t// out\n        /* \"#utility.yul\":5429:5677   */\n    tag_63:\n        /* \"#utility.yul\":5535:5539   */\n      0x00\n        /* \"#utility.yul\":5573:5575   */\n      0x20\n        /* \"#utility.yul\":5562:5571   */\n      dup3\n        /* \"#utility.yul\":5558:5576   */\n      add\n        /* \"#utility.yul\":5550:5576   */\n      swap1\n      pop\n        /* \"#utility.yul\":5586:5670   */\n      tag_345\n        /* \"#utility.yul\":5667:5668   */\n      0x00\n        /* \"#utility.yul\":5656:5665   */\n      dup4\n        /* \"#utility.yul\":5652:5669   */\n      add\n        /* \"#utility.yul\":5643:5649   */\n      dup5\n        /* \"#utility.yul\":5586:5670   */\n      tag_238\n      jump\t// in\n    tag_345:\n        /* \"#utility.yul\":5429:5677   */\n      swap3\n      swap2\n      pop\n      pop\n      jump\t// out\n        /* \"#utility.yul\":5683:5772   */\n    tag_239:\n        /* \"#utility.yul\":5719:5726   */\n      0x00\n        /* \"#utility.yul\":5759:5765   */\n      0xffff\n        /* \"#utility.yul\":5752:5757   */\n      dup3\n        /* \"#utility.yul\":5748:5766   */\n      and\n        /* \"#utility.yul\":5737:5766   */\n      swap1\n      pop\n        /* \"#utility.yul\":5683:5772   */\n      swap2\n      swap1\n      pop\n      jump\t// out\n        /* \"#utility.yul\":5778:5898   */\n    tag_240:\n        /* \"#utility.yul\":5850:5873   */\n      tag_348\n        /* \"#utility.yul\":5867:5872   */\n      dup2\n        /* \"#utility.yul\":5850:5873   */\n      tag_239\n      jump\t// in\n    tag_348:\n        /* \"#utility.yul\":5843:5848   */\n      dup2\n        /* \"#utility.yul\":5840:5874   */\n      eq\n        /* \"#utility.yul\":5830:5892   */\n      tag_349\n      jumpi\n        /* \"#utility.yul\":5888:5889   */\n      0x00\n        /* \"#utility.yul\":5885:5886   */\n      dup1\n        /* \"#utility.yul\":5878:5890   */\n      revert\n        /* \"#utility.yul\":5830:5892   */\n    tag_349:\n        /* \"#utility.yul\":5778:5898   */\n      pop\n      jump\t// out\n        /* \"#utility.yul\":5904:6041   */\n    tag_241:\n        /* \"#utility.yul\":5949:5954   */\n      0x00\n        /* \"#utility.yul\":5987:5993   */\n      dup2\n        /* \"#utility.yul\":5974:5994   */\n      calldataload\n        /* \"#utility.yul\":5965:5994   */\n      swap1\n      pop\n        /* \"#utility.yul\":6003:6035   */\n      tag_351\n        /* \"#utility.yul\":6029:6034   */\n      dup2\n        /* \"#utility.yul\":6003:6035   */\n      tag_240\n      jump\t// in\n    tag_351:\n        /* \"#utility.yul\":5904:6041   */\n      swap3\n      swap2\n      pop\n      pop\n      jump\t// out\n        /* \"#utility.yul\":6047:6374   */\n    tag_69:\n        /* \"#utility.yul\":6105:6111   */\n      0x00\n        /* \"#utility.yul\":6154:6156   */\n      0x20\n        /* \"#utility.yul\":6142:6151   */\n      dup3\n        /* \"#utility.yul\":6133:6140   */\n      dup5\n        /* \"#utility.yul\":6129:6152   */\n      sub\n        /* \"#utility.yul\":6125:6157   */\n      slt\n        /* \"#utility.yul\":6122:6241   */\n      iszero\n      tag_353\n      jumpi\n        /* \"#utility.yul\":6160:6239   */\n      tag_354\n      tag_221\n      jump\t// in\n    tag_354:\n        /* \"#utility.yul\":6122:6241   */\n    tag_353:\n        /* \"#utility.yul\":6280:6281   */\n      0x00\n        /* \"#utility.yul\":6305:6357   */\n      tag_355\n        /* \"#utility.yul\":6349:6356   */\n      dup5\n        /* \"#utility.yul\":6340:6346   */\n      dup3\n        /* \"#utility.yul\":6329:6338   */\n      dup6\n        /* \"#utility.yul\":6325:6347   */\n      add\n        /* \"#utility.yul\":6305:6357   */\n      tag_241\n      jump\t// in\n    tag_355:\n        /* \"#utility.yul\":6295:6357   */\n      swap2\n      pop\n        /* \"#utility.yul\":6251:6367   */\n      pop\n        /* \"#utility.yul\":6047:6374   */\n      swap3\n      swap2\n      pop\n      pop\n      jump\t// out\n        /* \"#utility.yul\":6380:6709   */\n    tag_74:\n        /* \"#utility.yul\":6439:6445   */\n      0x00\n        /* \"#utility.yul\":6488:6490   */\n      0x20\n        /* \"#utility.yul\":6476:6485   */\n      dup3\n        /* \"#utility.yul\":6467:6474   */\n      dup5\n        /* \"#utility.yul\":6463:6486   */\n      sub\n        /* \"#utility.yul\":6459:6491   */\n      slt\n        /* \"#utility.yul\":6456:6575   */\n      iszero\n      tag_357\n      jumpi\n        /* \"#utility.yul\":6494:6573   */\n      tag_358\n      tag_221\n      jump\t// in\n    tag_358:\n        /* \"#utility.yul\":6456:6575   */\n    tag_357:\n        /* \"#utility.yul\":6614:6615   */\n      0x00\n        /* \"#utility.yul\":6639:6692   */\n      tag_359\n        /* \"#utility.yul\":6684:6691   */\n      dup5\n        /* \"#utility.yul\":6675:6681   */\n      dup3\n        /* \"#utility.yul\":6664:6673   */\n      dup6\n        /* \"#utility.yul\":6660:6682   */\n      add\n        /* \"#utility.yul\":6639:6692   */\n      tag_226\n      jump\t// in\n    tag_359:\n        /* \"#utility.yul\":6629:6692   */\n      swap2\n      pop\n        /* \"#utility.yul\":6585:6702   */\n      pop\n        /* \"#utility.yul\":6380:6709   */\n      swap3\n      swap2\n      pop\n      pop\n      jump\t// out\n        /* \"#utility.yul\":6715:7189   */\n    tag_100:\n        /* \"#utility.yul\":6783:6789   */\n      0x00\n        /* \"#utility.yul\":6791:6797   */\n      dup1\n        /* \"#utility.yul\":6840:6842   */\n      0x40\n        /* \"#utility.yul\":6828:6837   */\n      dup4\n        /* \"#utility.yul\":6819:6826   */\n      dup6\n        /* \"#utility.yul\":6815:6838   */\n      sub\n        /* \"#utility.yul\":6811:6843   */\n      slt\n        /* \"#utility.yul\":6808:6927   */\n      iszero\n      tag_361\n      jumpi\n        /* \"#utility.yul\":6846:6925   */\n      tag_362\n      tag_221\n      jump\t// in\n    tag_362:\n        /* \"#utility.yul\":6808:6927   */\n    tag_361:\n        /* \"#utility.yul\":6966:6967   */\n      0x00\n        /* \"#utility.yul\":6991:7044   */\n      tag_363\n        /* \"#utility.yul\":7036:7043   */\n      dup6\n        /* \"#utility.yul\":7027:7033   */\n      dup3\n        /* \"#utility.yul\":7016:7025   */\n      dup7\n        /* \"#utility.yul\":7012:7034   */\n      add\n        /* \"#utility.yul\":6991:7044   */\n      tag_226\n      jump\t// in\n    tag_363:\n        /* \"#utility.yul\":6981:7044   */\n      swap3\n      pop\n        /* \"#utility.yul\":6937:7054   */\n      pop\n        /* \"#utility.yul\":7093:7095   */\n      0x20\n        /* \"#utility.yul\":7119:7172   */\n      tag_364\n        /* \"#utility.yul\":7164:7171   */\n      dup6\n        /* \"#utility.yul\":7155:7161   */\n      dup3\n        /* \"#utility.yul\":7144:7153   */\n      dup7\n        /* \"#utility.yul\":7140:7162   */\n      add\n        /* \"#utility.yul\":7119:7172   */\n      tag_226\n      jump\t// in\n    tag_364:\n        /* \"#utility.yul\":7109:7172   */\n      swap2\n      pop\n        /* \"#utility.yul\":7064:7182   */\n      pop\n        /* \"#utility.yul\":6715:7189   */\n      swap3\n      pop\n      swap3\n      swap1\n      pop\n      jump\t// out\n        /* \"#utility.yul\":7195:7312   */\n    tag_242:\n        /* \"#utility.yul\":7304:7305   */\n      0x00\n        /* \"#utility.yul\":7301:7302   */\n      dup1\n        /* \"#utility.yul\":7294:7306   */\n      revert\n        /* \"#utility.yul\":7318:7435   */\n    tag_243:\n        /* \"#utility.yul\":7427:7428   */\n      0x00\n        /* \"#utility.yul\":7424:7425   */\n      dup1\n        /* \"#utility.yul\":7417:7429   */\n      revert\n        /* \"#utility.yul\":7441:7621   */\n    tag_244:\n        /* \"#utility.yul\":7489:7566   */\n      0x4e487b7100000000000000000000000000000000000000000000000000000000\n        /* \"#utility.yul\":7486:7487   */\n      0x00\n        /* \"#utility.yul\":7479:7567   */\n      mstore\n        /* \"#utility.yul\":7586:7590   */\n      0x41\n        /* \"#utility.yul\":7583:7584   */\n      0x04\n        /* \"#utility.yul\":7576:7591   */\n      mstore\n        /* \"#utility.yul\":7610:7614   */\n      0x24\n        /* \"#utility.yul\":7607:7608   */\n      0x00\n        /* \"#utility.yul\":7600:7615   */\n      revert\n        /* \"#utility.yul\":7627:7908   */\n    tag_245:\n        /* \"#utility.yul\":7710:7737   */\n      tag_369\n        /* \"#utility.yul\":7732:7736   */\n      dup3\n        /* \"#utility.yul\":7710:7737   */\n      tag_218\n      jump\t// in\n    tag_369:\n        /* \"#utility.yul\":7702:7708   */\n      dup2\n        /* \"#utility.yul\":7698:7738   */\n      add\n        /* \"#utility.yul\":7840:7846   */\n      dup2\n        /* \"#utility.yul\":7828:7838   */\n      dup2\n        /* \"#utility.yul\":7825:7847   */\n      lt\n        /* \"#utility.yul\":7804:7822   */\n      0xffffffffffffffff\n        /* \"#utility.yul\":7792:7802   */\n      dup3\n        /* \"#utility.yul\":7789:7823   */\n      gt\n        /* \"#utility.yul\":7786:7848   */\n      or\n        /* \"#utility.yul\":7783:7871   */\n      iszero\n      tag_370\n      jumpi\n        /* \"#utility.yul\":7851:7869   */\n      tag_371\n      tag_244\n      jump\t// in\n    tag_371:\n        /* \"#utility.yul\":7783:7871   */\n    tag_370:\n        /* \"#utility.yul\":7891:7901   */\n      dup1\n        /* \"#utility.yul\":7887:7889   */\n      0x40\n        /* \"#utility.yul\":7880:7902   */\n      mstore\n        /* \"#utility.yul\":7670:7908   */\n      pop\n        /* \"#utility.yul\":7627:7908   */\n      pop\n      pop\n      jump\t// out\n        /* \"#utility.yul\":7914:8043   */\n    tag_246:\n        /* \"#utility.yul\":7948:7954   */\n      0x00\n        /* \"#utility.yul\":7975:7995   */\n      tag_373\n      tag_220\n      jump\t// in\n    tag_373:\n        /* \"#utility.yul\":7965:7995   */\n      swap1\n      pop\n        /* \"#utility.yul\":8004:8037   */\n      tag_374\n        /* \"#utility.yul\":8032:8036   */\n      dup3\n        /* \"#utility.yul\":8024:8030   */\n      dup3\n        /* \"#utility.yul\":8004:8037   */\n      tag_245\n      jump\t// in\n    tag_374:\n        /* \"#utility.yul\":7914:8043   */\n      swap2\n      swap1\n      pop\n      jump\t// out\n        /* \"#utility.yul\":8049:8357   */\n    tag_247:\n        /* \"#utility.yul\":8111:8115   */\n      0x00\n        /* \"#utility.yul\":8201:8219   */\n      0xffffffffffffffff\n        /* \"#utility.yul\":8193:8199   */\n      dup3\n        /* \"#utility.yul\":8190:8220   */\n      gt\n        /* \"#utility.yul\":8187:8243   */\n      iszero\n      tag_376\n      jumpi\n        /* \"#utility.yul\":8223:8241   */\n      tag_377\n      tag_244\n      jump\t// in\n    tag_377:\n        /* \"#utility.yul\":8187:8243   */\n    tag_376:\n        /* \"#utility.yul\":8261:8290   */\n      tag_378\n        /* \"#utility.yul\":8283:8289   */\n      dup3\n        /* \"#utility.yul\":8261:8290   */\n      tag_218\n      jump\t// in\n    tag_378:\n        /* \"#utility.yul\":8253:8290   */\n      swap1\n      pop\n        /* \"#utility.yul\":8345:8349   */\n      0x20\n        /* \"#utility.yul\":8339:8343   */\n      dup2\n        /* \"#utility.yul\":8335:8350   */\n      add\n        /* \"#utility.yul\":8327:8350   */\n      swap1\n      pop\n        /* \"#utility.yul\":8049:8357   */\n      swap2\n      swap1\n      pop\n      jump\t// out\n        /* \"#utility.yul\":8363:8509   */\n    tag_248:\n        /* \"#utility.yul\":8460:8466   */\n      dup3\n        /* \"#utility.yul\":8455:8458   */\n      dup2\n        /* \"#utility.yul\":8450:8453   */\n      dup4\n        /* \"#utility.yul\":8437:8467   */\n      calldatacopy\n        /* \"#utility.yul\":8501:8502   */\n      0x00\n        /* \"#utility.yul\":8492:8498   */\n      dup4\n        /* \"#utility.yul\":8487:8490   */\n      dup4\n        /* \"#utility.yul\":8483:8499   */\n      add\n        /* \"#utility.yul\":8476:8503   */\n      mstore\n        /* \"#utility.yul\":8363:8509   */\n      pop\n      pop\n      pop\n      jump\t// out\n        /* \"#utility.yul\":8515:8940   */\n    tag_249:\n        /* \"#utility.yul\":8593:8598   */\n      0x00\n        /* \"#utility.yul\":8618:8684   */\n      tag_381\n        /* \"#utility.yul\":8634:8683   */\n      tag_382\n        /* \"#utility.yul\":8676:8682   */\n      dup5\n        /* \"#utility.yul\":8634:8683   */\n      tag_247\n      jump\t// in\n    tag_382:\n        /* \"#utility.yul\":8618:8684   */\n      tag_246\n      jump\t// in\n    tag_381:\n        /* \"#utility.yul\":8609:8684   */\n      swap1\n      pop\n        /* \"#utility.yul\":8707:8713   */\n      dup3\n        /* \"#utility.yul\":8700:8705   */\n      dup2\n        /* \"#utility.yul\":8693:8714   */\n      mstore\n        /* \"#utility.yul\":8745:8749   */\n      0x20\n        /* \"#utility.yul\":8738:8743   */\n      dup2\n        /* \"#utility.yul\":8734:8750   */\n      add\n        /* \"#utility.yul\":8783:8786   */\n      dup5\n        /* \"#utility.yul\":8774:8780   */\n      dup5\n        /* \"#utility.yul\":8769:8772   */\n      dup5\n        /* \"#utility.yul\":8765:8781   */\n      add\n        /* \"#utility.yul\":8762:8787   */\n      gt\n        /* \"#utility.yul\":8759:8871   */\n      iszero\n      tag_383\n      jumpi\n        /* \"#utility.yul\":8790:8869   */\n      tag_384\n      tag_243\n      jump\t// in\n    tag_384:\n        /* \"#utility.yul\":8759:8871   */\n    tag_383:\n        /* \"#utility.yul\":8880:8934   */\n      tag_385\n        /* \"#utility.yul\":8927:8933   */\n      dup5\n        /* \"#utility.yul\":8922:8925   */\n      dup3\n        /* \"#utility.yul\":8917:8920   */\n      dup6\n        /* \"#utility.yul\":8880:8934   */\n      tag_248\n      jump\t// in\n    tag_385:\n        /* \"#utility.yul\":8599:8940   */\n      pop\n        /* \"#utility.yul\":8515:8940   */\n      swap4\n      swap3\n      pop\n      pop\n      pop\n      jump\t// out\n        /* \"#utility.yul\":8960:9300   */\n    tag_250:\n        /* \"#utility.yul\":9016:9021   */\n      0x00\n        /* \"#utility.yul\":9065:9068   */\n      dup3\n        /* \"#utility.yul\":9058:9062   */\n      0x1f\n        /* \"#utility.yul\":9050:9056   */\n      dup4\n        /* \"#utility.yul\":9046:9063   */\n      add\n        /* \"#utility.yul\":9042:9069   */\n      slt\n        /* \"#utility.yul\":9032:9154   */\n      tag_387\n      jumpi\n        /* \"#utility.yul\":9073:9152   */\n      tag_388\n      tag_242\n      jump\t// in\n    tag_388:\n        /* \"#utility.yul\":9032:9154   */\n    tag_387:\n        /* \"#utility.yul\":9190:9196   */\n      dup2\n        /* \"#utility.yul\":9177:9197   */\n      calldataload\n        /* \"#utility.yul\":9215:9294   */\n      tag_389\n        /* \"#utility.yul\":9290:9293   */\n      dup5\n        /* \"#utility.yul\":9282:9288   */\n      dup3\n        /* \"#utility.yul\":9275:9279   */\n      0x20\n        /* \"#utility.yul\":9267:9273   */\n      dup7\n        /* \"#utility.yul\":9263:9280   */\n      add\n        /* \"#utility.yul\":9215:9294   */\n      tag_249\n      jump\t// in\n    tag_389:\n        /* \"#utility.yul\":9206:9294   */\n      swap2\n      pop\n        /* \"#utility.yul\":9022:9300   */\n      pop\n        /* \"#utility.yul\":8960:9300   */\n      swap3\n      swap2\n      pop\n      pop\n      jump\t// out\n        /* \"#utility.yul\":9306:9815   */\n    tag_108:\n        /* \"#utility.yul\":9375:9381   */\n      0x00\n        /* \"#utility.yul\":9424:9426   */\n      0x20\n        /* \"#utility.yul\":9412:9421   */\n      dup3\n        /* \"#utility.yul\":9403:9410   */\n      dup5\n        /* \"#utility.yul\":9399:9422   */\n      sub\n        /* \"#utility.yul\":9395:9427   */\n      slt\n        /* \"#utility.yul\":9392:9511   */\n      iszero\n      tag_391\n      jumpi\n        /* \"#utility.yul\":9430:9509   */\n      tag_392\n      tag_221\n      jump\t// in\n    tag_392:\n        /* \"#utility.yul\":9392:9511   */\n    tag_391:\n        /* \"#utility.yul\":9578:9579   */\n      0x00\n        /* \"#utility.yul\":9567:9576   */\n      dup3\n        /* \"#utility.yul\":9563:9580   */\n      add\n        /* \"#utility.yul\":9550:9581   */\n      calldataload\n        /* \"#utility.yul\":9608:9626   */\n      0xffffffffffffffff\n        /* \"#utility.yul\":9600:9606   */\n      dup2\n        /* \"#utility.yul\":9597:9627   */\n      gt\n        /* \"#utility.yul\":9594:9711   */\n      iszero\n      tag_393\n      jumpi\n        /* \"#utility.yul\":9630:9709   */\n      tag_394\n      tag_222\n      jump\t// in\n    tag_394:\n        /* \"#utility.yul\":9594:9711   */\n    tag_393:\n        /* \"#utility.yul\":9735:9798   */\n      tag_395\n        /* \"#utility.yul\":9790:9797   */\n      dup5\n        /* \"#utility.yul\":9781:9787   */\n      dup3\n        /* \"#utility.yul\":9770:9779   */\n      dup6\n        /* \"#utility.yul\":9766:9788   */\n      add\n        /* \"#utility.yul\":9735:9798   */\n      tag_250\n      jump\t// in\n    tag_395:\n        /* \"#utility.yul\":9725:9798   */\n      swap2\n      pop\n        /* \"#utility.yul\":9521:9808   */\n      pop\n        /* \"#utility.yul\":9306:9815   */\n      swap3\n      swap2\n      pop\n      pop\n      jump\t// out\n        /* \"#utility.yul\":9821:10001   */\n    tag_251:\n        /* \"#utility.yul\":9869:9946   */\n      0x4e487b7100000000000000000000000000000000000000000000000000000000\n        /* \"#utility.yul\":9866:9867   */\n      0x00\n        /* \"#utility.yul\":9859:9947   */\n      mstore\n        /* \"#utility.yul\":9966:9970   */\n      0x22\n        /* \"#utility.yul\":9963:9964   */\n      0x04\n        /* \"#utility.yul\":9956:9971   */\n      mstore\n        /* \"#utility.yul\":9990:9994   */\n      0x24\n        /* \"#utility.yul\":9987:9988   */\n      0x00\n        /* \"#utility.yul\":9980:9995   */\n      revert\n        /* \"#utility.yul\":10007:10327   */\n    tag_113:\n        /* \"#utility.yul\":10051:10057   */\n      0x00\n        /* \"#utility.yul\":10088:10089   */\n      0x02\n        /* \"#utility.yul\":10082:10086   */\n      dup3\n        /* \"#utility.yul\":10078:10090   */\n      div\n        /* \"#utility.yul\":10068:10090   */\n      swap1\n      pop\n        /* \"#utility.yul\":10135:10136   */\n      0x01\n        /* \"#utility.yul\":10129:10133   */\n      dup3\n        /* \"#utility.yul\":10125:10137   */\n      and\n        /* \"#utility.yul\":10156:10174   */\n      dup1\n        /* \"#utility.yul\":10146:10227   */\n      tag_398\n      jumpi\n        /* \"#utility.yul\":10212:10216   */\n      0x7f\n        /* \"#utility.yul\":10204:10210   */\n      dup3\n        /* \"#utility.yul\":10200:10217   */\n      and\n        /* \"#utility.yul\":10190:10217   */\n      swap2\n      pop\n        /* \"#utility.yul\":10146:10227   */\n    tag_398:\n        /* \"#utility.yul\":10274:10276   */\n      0x20\n        /* \"#utility.yul\":10266:10272   */\n      dup3\n        /* \"#utility.yul\":10263:10277   */\n      lt\n        /* \"#utility.yul\":10243:10261   */\n      dup2\n        /* \"#utility.yul\":10240:10278   */\n      sub\n        /* \"#utility.yul\":10237:10321   */\n      tag_399\n      jumpi\n        /* \"#utility.yul\":10293:10311   */\n      tag_400\n      tag_251\n      jump\t// in\n    tag_400:\n        /* \"#utility.yul\":10237:10321   */\n    tag_399:\n        /* \"#utility.yul\":10058:10327   */\n      pop\n        /* \"#utility.yul\":10007:10327   */\n      swap2\n      swap1\n      pop\n      jump\t// out\n        /* \"#utility.yul\":10333:10513   */\n    tag_252:\n        /* \"#utility.yul\":10381:10458   */\n      0x4e487b7100000000000000000000000000000000000000000000000000000000\n        /* \"#utility.yul\":10378:10379   */\n      0x00\n        /* \"#utility.yul\":10371:10459   */\n      mstore\n        /* \"#utility.yul\":10478:10482   */\n      0x11\n        /* \"#utility.yul\":10475:10476   */\n      0x04\n        /* \"#utility.yul\":10468:10483   */\n      mstore\n        /* \"#utility.yul\":10502:10506   */\n      0x24\n        /* \"#utility.yul\":10499:10500   */\n      0x00\n        /* \"#utility.yul\":10492:10507   */\n      revert\n        /* \"#utility.yul\":10519:10713   */\n    tag_131:\n        /* \"#utility.yul\":10559:10563   */\n      0x00\n        /* \"#utility.yul\":10579:10599   */\n      tag_403\n        /* \"#utility.yul\":10597:10598   */\n      dup3\n        /* \"#utility.yul\":10579:10599   */\n      tag_227\n      jump\t// in\n    tag_403:\n        /* \"#utility.yul\":10574:10599   */\n      swap2\n      pop\n        /* \"#utility.yul\":10613:10633   */\n      tag_404\n        /* \"#utility.yul\":10631:10632   */\n      dup4\n        /* \"#utility.yul\":10613:10633   */\n      tag_227\n      jump\t// in\n    tag_404:\n        /* \"#utility.yul\":10608:10633   */\n      swap3\n      pop\n        /* \"#utility.yul\":10657:10658   */\n      dup3\n        /* \"#utility.yul\":10654:10655   */\n      dup3\n        /* \"#utility.yul\":10650:10659   */\n      sub\n        /* \"#utility.yul\":10642:10659   */\n      swap1\n      pop\n        /* \"#utility.yul\":10681:10682   */\n      dup2\n        /* \"#utility.yul\":10675:10679   */\n      dup2\n        /* \"#utility.yul\":10672:10683   */\n      gt\n        /* \"#utility.yul\":10669:10706   */\n      iszero\n      tag_405\n      jumpi\n        /* \"#utility.yul\":10686:10704   */\n      tag_406\n      tag_252\n      jump\t// in\n    tag_406:\n        /* \"#utility.yul\":10669:10706   */\n    tag_405:\n        /* \"#utility.yul\":10519:10713   */\n      swap3\n      swap2\n      pop\n      pop\n      jump\t// out\n        /* \"#utility.yul\":10719:10910   */\n    tag_133:\n        /* \"#utility.yul\":10759:10762   */\n      0x00\n        /* \"#utility.yul\":10778:10798   */\n      tag_408\n        /* \"#utility.yul\":10796:10797   */\n      dup3\n        /* \"#utility.yul\":10778:10798   */\n      tag_227\n      jump\t// in\n    tag_408:\n        /* \"#utility.yul\":10773:10798   */\n      swap2\n      pop\n        /* \"#utility.yul\":10812:10832   */\n      tag_409\n        /* \"#utility.yul\":10830:10831   */\n      dup4\n        /* \"#utility.yul\":10812:10832   */\n      tag_227\n      jump\t// in\n    tag_409:\n        /* \"#utility.yul\":10807:10832   */\n      swap3\n      pop\n        /* \"#utility.yul\":10855:10856   */\n      dup3\n        /* \"#utility.yul\":10852:10853   */\n      dup3\n        /* \"#utility.yul\":10848:10857   */\n      add\n        /* \"#utility.yul\":10841:10857   */\n      swap1\n      pop\n        /* \"#utility.yul\":10876:10879   */\n      dup1\n        /* \"#utility.yul\":10873:10874   */\n      dup3\n        /* \"#utility.yul\":10870:10880   */\n      gt\n        /* \"#utility.yul\":10867:10903   */\n      iszero\n      tag_410\n      jumpi\n        /* \"#utility.yul\":10883:10901   */\n      tag_411\n      tag_252\n      jump\t// in\n    tag_411:\n        /* \"#utility.yul\":10867:10903   */\n    tag_410:\n        /* \"#utility.yul\":10719:10910   */\n      swap3\n      swap2\n      pop\n      pop\n      jump\t// out\n        /* \"#utility.yul\":10916:11140   */\n    tag_253:\n        /* \"#utility.yul\":11056:11090   */\n      0x6f6e6c79206f776e65722063616e20706572666f726d2074686973206f706572\n        /* \"#utility.yul\":11052:11053   */\n      0x00\n        /* \"#utility.yul\":11044:11050   */\n      dup3\n        /* \"#utility.yul\":11040:11054   */\n      add\n        /* \"#utility.yul\":11033:11091   */\n      mstore\n        /* \"#utility.yul\":11125:11132   */\n      0x6174696f6e000000000000000000000000000000000000000000000000000000\n        /* \"#utility.yul\":11120:11122   */\n      0x20\n        /* \"#utility.yul\":11112:11118   */\n      dup3\n        /* \"#utility.yul\":11108:11123   */\n      add\n        /* \"#utility.yul\":11101:11133   */\n      mstore\n        /* \"#utility.yul\":10916:11140   */\n      pop\n      jump\t// out\n        /* \"#utility.yul\":11146:11512   */\n    tag_254:\n        /* \"#utility.yul\":11288:11291   */\n      0x00\n        /* \"#utility.yul\":11309:11376   */\n      tag_414\n        /* \"#utility.yul\":11373:11375   */\n      0x25\n        /* \"#utility.yul\":11368:11371   */\n      dup4\n        /* \"#utility.yul\":11309:11376   */\n      tag_216\n      jump\t// in\n    tag_414:\n        /* \"#utility.yul\":11302:11376   */\n      swap2\n      pop\n        /* \"#utility.yul\":11385:11478   */\n      tag_415\n        /* \"#utility.yul\":11474:11477   */\n      dup3\n        /* \"#utility.yul\":11385:11478   */\n      tag_253\n      jump\t// in\n    tag_415:\n        /* \"#utility.yul\":11503:11505   */\n      0x40\n        /* \"#utility.yul\":11498:11501   */\n      dup3\n        /* \"#utility.yul\":11494:11506   */\n      add\n        /* \"#utility.yul\":11487:11506   */\n      swap1\n      pop\n        /* \"#utility.yul\":11146:11512   */\n      swap2\n      swap1\n      pop\n      jump\t// out\n        /* \"#utility.yul\":11518:11937   */\n    tag_140:\n        /* \"#utility.yul\":11684:11688   */\n      0x00\n        /* \"#utility.yul\":11722:11724   */\n      0x20\n        /* \"#utility.yul\":11711:11720   */\n      dup3\n        /* \"#utility.yul\":11707:11725   */\n      add\n        /* \"#utility.yul\":11699:11725   */\n      swap1\n      pop\n        /* \"#utility.yul\":11771:11780   */\n      dup2\n        /* \"#utility.yul\":11765:11769   */\n      dup2\n        /* \"#utility.yul\":11761:11781   */\n      sub\n        /* \"#utility.yul\":11757:11758   */\n      0x00\n        /* \"#utility.yul\":11746:11755   */\n      dup4\n        /* \"#utility.yul\":11742:11759   */\n      add\n        /* \"#utility.yul\":11735:11782   */\n      mstore\n        /* \"#utility.yul\":11799:11930   */\n      tag_417\n        /* \"#utility.yul\":11925:11929   */\n      dup2\n        /* \"#utility.yul\":11799:11930   */\n      tag_254\n      jump\t// in\n    tag_417:\n        /* \"#utility.yul\":11791:11930   */\n      swap1\n      pop\n        /* \"#utility.yul\":11518:11937   */\n      swap2\n      swap1\n      pop\n      jump\t// out\n        /* \"#utility.yul\":11943:12124   */\n    tag_255:\n        /* \"#utility.yul\":12083:12116   */\n      0x45524332303a206d696e7420746f20746865207a65726f206164647265737300\n        /* \"#utility.yul\":12079:12080   */\n      0x00\n        /* \"#utility.yul\":12071:12077   */\n      dup3\n        /* \"#utility.yul\":12067:12081   */\n      add\n        /* \"#utility.yul\":12060:12117   */\n      mstore\n        /* \"#utility.yul\":11943:12124   */\n      pop\n      jump\t// out\n        /* \"#utility.yul\":12130:12496   */\n    tag_256:\n        /* \"#utility.yul\":12272:12275   */\n      0x00\n        /* \"#utility.yul\":12293:12360   */\n      tag_420\n        /* \"#utility.yul\":12357:12359   */\n      0x1f\n        /* \"#utility.yul\":12352:12355   */\n      dup4\n        /* \"#utility.yul\":12293:12360   */\n      tag_216\n      jump\t// in\n    tag_420:\n        /* \"#utility.yul\":12286:12360   */\n      swap2\n      pop\n        /* \"#utility.yul\":12369:12462   */\n      tag_421\n        /* \"#utility.yul\":12458:12461   */\n      dup3\n        /* \"#utility.yul\":12369:12462   */\n      tag_255\n      jump\t// in\n    tag_421:\n        /* \"#utility.yul\":12487:12489   */\n      0x20\n        /* \"#utility.yul\":12482:12485   */\n      dup3\n        /* \"#utility.yul\":12478:12490   */\n      add\n        /* \"#utility.yul\":12471:12490   */\n      swap1\n      pop\n        /* \"#utility.yul\":12130:12496   */\n      swap2\n      swap1\n      pop\n      jump\t// out\n        /* \"#utility.yul\":12502:12921   */\n    tag_144:\n        /* \"#utility.yul\":12668:12672   */\n      0x00\n        /* \"#utility.yul\":12706:12708   */\n      0x20\n        /* \"#utility.yul\":12695:12704   */\n      dup3\n        /* \"#utility.yul\":12691:12709   */\n      add\n        /* \"#utility.yul\":12683:12709   */\n      swap1\n      pop\n        /* \"#utility.yul\":12755:12764   */\n      dup2\n        /* \"#utility.yul\":12749:12753   */\n      dup2\n        /* \"#utility.yul\":12745:12765   */\n      sub\n        /* \"#utility.yul\":12741:12742   */\n      0x00\n        /* \"#utility.yul\":12730:12739   */\n      dup4\n        /* \"#utility.yul\":12726:12743   */\n      add\n        /* \"#utility.yul\":12719:12766   */\n      mstore\n        /* \"#utility.yul\":12783:12914   */\n      tag_423\n        /* \"#utility.yul\":12909:12913   */\n      dup2\n        /* \"#utility.yul\":12783:12914   */\n      tag_256\n      jump\t// in\n    tag_423:\n        /* \"#utility.yul\":12775:12914   */\n      swap1\n      pop\n        /* \"#utility.yul\":12502:12921   */\n      swap2\n      swap1\n      pop\n      jump\t// out\n        /* \"#utility.yul\":12927:13337   */\n    tag_147:\n        /* \"#utility.yul\":12967:12974   */\n      0x00\n        /* \"#utility.yul\":12990:13010   */\n      tag_425\n        /* \"#utility.yul\":13008:13009   */\n      dup3\n        /* \"#utility.yul\":12990:13010   */\n      tag_227\n      jump\t// in\n    tag_425:\n        /* \"#utility.yul\":12985:13010   */\n      swap2\n      pop\n        /* \"#utility.yul\":13024:13044   */\n      tag_426\n        /* \"#utility.yul\":13042:13043   */\n      dup4\n        /* \"#utility.yul\":13024:13044   */\n      tag_227\n      jump\t// in\n    tag_426:\n        /* \"#utility.yul\":13019:13044   */\n      swap3\n      pop\n        /* \"#utility.yul\":13079:13080   */\n      dup3\n        /* \"#utility.yul\":13076:13077   */\n      dup3\n        /* \"#utility.yul\":13072:13081   */\n      mul\n        /* \"#utility.yul\":13101:13131   */\n      tag_427\n        /* \"#utility.yul\":13119:13130   */\n      dup2\n        /* \"#utility.yul\":13101:13131   */\n      tag_227\n      jump\t// in\n    tag_427:\n        /* \"#utility.yul\":13090:13131   */\n      swap2\n      pop\n        /* \"#utility.yul\":13280:13281   */\n      dup3\n        /* \"#utility.yul\":13271:13278   */\n      dup3\n        /* \"#utility.yul\":13267:13282   */\n      div\n        /* \"#utility.yul\":13264:13265   */\n      dup5\n        /* \"#utility.yul\":13261:13283   */\n      eq\n        /* \"#utility.yul\":13241:13242   */\n      dup4\n        /* \"#utility.yul\":13234:13243   */\n      iszero\n        /* \"#utility.yul\":13214:13297   */\n      or\n        /* \"#utility.yul\":13191:13330   */\n      tag_428\n      jumpi\n        /* \"#utility.yul\":13310:13328   */\n      tag_429\n      tag_252\n      jump\t// in\n    tag_429:\n        /* \"#utility.yul\":13191:13330   */\n    tag_428:\n        /* \"#utility.yul\":12975:13337   */\n      pop\n        /* \"#utility.yul\":12927:13337   */\n      swap3\n      swap2\n      pop\n      pop\n      jump\t// out\n        /* \"#utility.yul\":13343:13516   */\n    tag_257:\n        /* \"#utility.yul\":13483:13508   */\n      0x6e756d65726f20646520667261636f657320626169786f000000000000000000\n        /* \"#utility.yul\":13479:13480   */\n      0x00\n        /* \"#utility.yul\":13471:13477   */\n      dup3\n        /* \"#utility.yul\":13467:13481   */\n      add\n        /* \"#utility.yul\":13460:13509   */\n      mstore\n        /* \"#utility.yul\":13343:13516   */\n      pop\n      jump\t// out\n        /* \"#utility.yul\":13522:13888   */\n    tag_258:\n        /* \"#utility.yul\":13664:13667   */\n      0x00\n        /* \"#utility.yul\":13685:13752   */\n      tag_432\n        /* \"#utility.yul\":13749:13751   */\n      0x17\n        /* \"#utility.yul\":13744:13747   */\n      dup4\n        /* \"#utility.yul\":13685:13752   */\n      tag_216\n      jump\t// in\n    tag_432:\n        /* \"#utility.yul\":13678:13752   */\n      swap2\n      pop\n        /* \"#utility.yul\":13761:13854   */\n      tag_433\n        /* \"#utility.yul\":13850:13853   */\n      dup3\n        /* \"#utility.yul\":13761:13854   */\n      tag_257\n      jump\t// in\n    tag_433:\n        /* \"#utility.yul\":13879:13881   */\n      0x20\n        /* \"#utility.yul\":13874:13877   */\n      dup3\n        /* \"#utility.yul\":13870:13882   */\n      add\n        /* \"#utility.yul\":13863:13882   */\n      swap1\n      pop\n        /* \"#utility.yul\":13522:13888   */\n      swap2\n      swap1\n      pop\n      jump\t// out\n        /* \"#utility.yul\":13894:14313   */\n    tag_159:\n        /* \"#utility.yul\":14060:14064   */\n      0x00\n        /* \"#utility.yul\":14098:14100   */\n      0x20\n        /* \"#utility.yul\":14087:14096   */\n      dup3\n        /* \"#utility.yul\":14083:14101   */\n      add\n        /* \"#utility.yul\":14075:14101   */\n      swap1\n      pop\n        /* \"#utility.yul\":14147:14156   */\n      dup2\n        /* \"#utility.yul\":14141:14145   */\n      dup2\n        /* \"#utility.yul\":14137:14157   */\n      sub\n        /* \"#utility.yul\":14133:14134   */\n      0x00\n        /* \"#utility.yul\":14122:14131   */\n      dup4\n        /* \"#utility.yul\":14118:14135   */\n      add\n        /* \"#utility.yul\":14111:14158   */\n      mstore\n        /* \"#utility.yul\":14175:14306   */\n      tag_435\n        /* \"#utility.yul\":14301:14305   */\n      dup2\n        /* \"#utility.yul\":14175:14306   */\n      tag_258\n      jump\t// in\n    tag_435:\n        /* \"#utility.yul\":14167:14306   */\n      swap1\n      pop\n        /* \"#utility.yul\":13894:14313   */\n      swap2\n      swap1\n      pop\n      jump\t// out\n        /* \"#utility.yul\":14319:14493   */\n    tag_259:\n        /* \"#utility.yul\":14459:14485   */\n      0x45524332303a206275726e2066726f6d20616464726573730000000000000000\n        /* \"#utility.yul\":14455:14456   */\n      0x00\n        /* \"#utility.yul\":14447:14453   */\n      dup3\n        /* \"#utility.yul\":14443:14457   */\n      add\n        /* \"#utility.yul\":14436:14486   */\n      mstore\n        /* \"#utility.yul\":14319:14493   */\n      pop\n      jump\t// out\n        /* \"#utility.yul\":14499:14865   */\n    tag_260:\n        /* \"#utility.yul\":14641:14644   */\n      0x00\n        /* \"#utility.yul\":14662:14729   */\n      tag_438\n        /* \"#utility.yul\":14726:14728   */\n      0x18\n        /* \"#utility.yul\":14721:14724   */\n      dup4\n        /* \"#utility.yul\":14662:14729   */\n      tag_216\n      jump\t// in\n    tag_438:\n        /* \"#utility.yul\":14655:14729   */\n      swap2\n      pop\n        /* \"#utility.yul\":14738:14831   */\n      tag_439\n        /* \"#utility.yul\":14827:14830   */\n      dup3\n        /* \"#utility.yul\":14738:14831   */\n      tag_259\n      jump\t// in\n    tag_439:\n        /* \"#utility.yul\":14856:14858   */\n      0x20\n        /* \"#utility.yul\":14851:14854   */\n      dup3\n        /* \"#utility.yul\":14847:14859   */\n      add\n        /* \"#utility.yul\":14840:14859   */\n      swap1\n      pop\n        /* \"#utility.yul\":14499:14865   */\n      swap2\n      swap1\n      pop\n      jump\t// out\n        /* \"#utility.yul\":14871:15290   */\n    tag_179:\n        /* \"#utility.yul\":15037:15041   */\n      0x00\n        /* \"#utility.yul\":15075:15077   */\n      0x20\n        /* \"#utility.yul\":15064:15073   */\n      dup3\n        /* \"#utility.yul\":15060:15078   */\n      add\n        /* \"#utility.yul\":15052:15078   */\n      swap1\n      pop\n        /* \"#utility.yul\":15124:15133   */\n      dup2\n        /* \"#utility.yul\":15118:15122   */\n      dup2\n        /* \"#utility.yul\":15114:15134   */\n      sub\n        /* \"#utility.yul\":15110:15111   */\n      0x00\n        /* \"#utility.yul\":15099:15108   */\n      dup4\n        /* \"#utility.yul\":15095:15112   */\n      add\n        /* \"#utility.yul\":15088:15135   */\n      mstore\n        /* \"#utility.yul\":15152:15283   */\n      tag_441\n        /* \"#utility.yul\":15278:15282   */\n      dup2\n        /* \"#utility.yul\":15152:15283   */\n      tag_260\n      jump\t// in\n    tag_441:\n        /* \"#utility.yul\":15144:15283   */\n      swap1\n      pop\n        /* \"#utility.yul\":14871:15290   */\n      swap2\n      swap1\n      pop\n      jump\t// out\n        /* \"#utility.yul\":15296:15464   */\n    tag_261:\n        /* \"#utility.yul\":15436:15456   */\n      0x6f6e6c792076616c696420616464726573730000000000000000000000000000\n        /* \"#utility.yul\":15432:15433   */\n      0x00\n        /* \"#utility.yul\":15424:15430   */\n      dup3\n        /* \"#utility.yul\":15420:15434   */\n      add\n        /* \"#utility.yul\":15413:15457   */\n      mstore\n        /* \"#utility.yul\":15296:15464   */\n      pop\n      jump\t// out\n        /* \"#utility.yul\":15470:15836   */\n    tag_262:\n        /* \"#utility.yul\":15612:15615   */\n      0x00\n        /* \"#utility.yul\":15633:15700   */\n      tag_444\n        /* \"#utility.yul\":15697:15699   */\n      0x12\n        /* \"#utility.yul\":15692:15695   */\n      dup4\n        /* \"#utility.yul\":15633:15700   */\n      tag_216\n      jump\t// in\n    tag_444:\n        /* \"#utility.yul\":15626:15700   */\n      swap2\n      pop\n        /* \"#utility.yul\":15709:15802   */\n      tag_445\n        /* \"#utility.yul\":15798:15801   */\n      dup3\n        /* \"#utility.yul\":15709:15802   */\n      tag_261\n      jump\t// in\n    tag_445:\n        /* \"#utility.yul\":15827:15829   */\n      0x20\n        /* \"#utility.yul\":15822:15825   */\n      dup3\n        /* \"#utility.yul\":15818:15830   */\n      add\n        /* \"#utility.yul\":15811:15830   */\n      swap1\n      pop\n        /* \"#utility.yul\":15470:15836   */\n      swap2\n      swap1\n      pop\n      jump\t// out\n        /* \"#utility.yul\":15842:16261   */\n    tag_191:\n        /* \"#utility.yul\":16008:16012   */\n      0x00\n        /* \"#utility.yul\":16046:16048   */\n      0x20\n        /* \"#utility.yul\":16035:16044   */\n      dup3\n        /* \"#utility.yul\":16031:16049   */\n      add\n        /* \"#utility.yul\":16023:16049   */\n      swap1\n      pop\n        /* \"#utility.yul\":16095:16104   */\n      dup2\n        /* \"#utility.yul\":16089:16093   */\n      dup2\n        /* \"#utility.yul\":16085:16105   */\n      sub\n        /* \"#utility.yul\":16081:16082   */\n      0x00\n        /* \"#utility.yul\":16070:16079   */\n      dup4\n        /* \"#utility.yul\":16066:16083   */\n      add\n        /* \"#utility.yul\":16059:16106   */\n      mstore\n        /* \"#utility.yul\":16123:16254   */\n      tag_447\n        /* \"#utility.yul\":16249:16253   */\n      dup2\n        /* \"#utility.yul\":16123:16254   */\n      tag_262\n      jump\t// in\n    tag_447:\n        /* \"#utility.yul\":16115:16254   */\n      swap1\n      pop\n        /* \"#utility.yul\":15842:16261   */\n      swap2\n      swap1\n      pop\n      jump\t// out\n        /* \"#utility.yul\":16267:16408   */\n    tag_263:\n        /* \"#utility.yul\":16316:16320   */\n      0x00\n        /* \"#utility.yul\":16339:16342   */\n      dup2\n        /* \"#utility.yul\":16331:16342   */\n      swap1\n      pop\n        /* \"#utility.yul\":16362:16365   */\n      dup2\n        /* \"#utility.yul\":16359:16360   */\n      0x00\n        /* \"#utility.yul\":16352:16366   */\n      mstore\n        /* \"#utility.yul\":16396:16400   */\n      0x20\n        /* \"#utility.yul\":16393:16394   */\n      0x00\n        /* \"#utility.yul\":16383:16401   */\n      keccak256\n        /* \"#utility.yul\":16375:16401   */\n      swap1\n      pop\n        /* \"#utility.yul\":16267:16408   */\n      swap2\n      swap1\n      pop\n      jump\t// out\n        /* \"#utility.yul\":16414:16507   */\n    tag_264:\n        /* \"#utility.yul\":16451:16457   */\n      0x00\n        /* \"#utility.yul\":16498:16500   */\n      0x20\n        /* \"#utility.yul\":16493:16495   */\n      0x1f\n        /* \"#utility.yul\":16486:16491   */\n      dup4\n        /* \"#utility.yul\":16482:16496   */\n      add\n        /* \"#utility.yul\":16478:16501   */\n      div\n        /* \"#utility.yul\":16468:16501   */\n      swap1\n      pop\n        /* \"#utility.yul\":16414:16507   */\n      swap2\n      swap1\n      pop\n      jump\t// out\n        /* \"#utility.yul\":16513:16620   */\n    tag_265:\n        /* \"#utility.yul\":16557:16565   */\n      0x00\n        /* \"#utility.yul\":16607:16612   */\n      dup3\n        /* \"#utility.yul\":16601:16605   */\n      dup3\n        /* \"#utility.yul\":16597:16613   */\n      shl\n        /* \"#utility.yul\":16576:16613   */\n      swap1\n      pop\n        /* \"#utility.yul\":16513:16620   */\n      swap3\n      swap2\n      pop\n      pop\n      jump\t// out\n        /* \"#utility.yul\":16626:17019   */\n    tag_266:\n        /* \"#utility.yul\":16695:16701   */\n      0x00\n        /* \"#utility.yul\":16745:16746   */\n      0x08\n        /* \"#utility.yul\":16733:16743   */\n      dup4\n        /* \"#utility.yul\":16729:16747   */\n      mul\n        /* \"#utility.yul\":16768:16865   */\n      tag_452\n        /* \"#utility.yul\":16798:16864   */\n      0xffffffffffffffffffffffffffffffffffffffffffffffffffffffffffffffff\n        /* \"#utility.yul\":16787:16796   */\n      dup3\n        /* \"#utility.yul\":16768:16865   */\n      tag_265\n      jump\t// in\n    tag_452:\n        /* \"#utility.yul\":16886:16925   */\n      tag_453\n        /* \"#utility.yul\":16916:16924   */\n      dup7\n        /* \"#utility.yul\":16905:16914   */\n      dup4\n        /* \"#utility.yul\":16886:16925   */\n      tag_265\n      jump\t// in\n    tag_453:\n        /* \"#utility.yul\":16874:16925   */\n      swap6\n      pop\n        /* \"#utility.yul\":16958:16962   */\n      dup1\n        /* \"#utility.yul\":16954:16963   */\n      not\n        /* \"#utility.yul\":16947:16952   */\n      dup5\n        /* \"#utility.yul\":16943:16964   */\n      and\n        /* \"#utility.yul\":16934:16964   */\n      swap4\n      pop\n        /* \"#utility.yul\":17007:17011   */\n      dup1\n        /* \"#utility.yul\":16997:17005   */\n      dup7\n        /* \"#utility.yul\":16993:17012   */\n      and\n        /* \"#utility.yul\":16986:16991   */\n      dup5\n        /* \"#utility.yul\":16983:17013   */\n      or\n        /* \"#utility.yul\":16973:17013   */\n      swap3\n      pop\n        /* \"#utility.yul\":16702:17019   */\n      pop\n      pop\n        /* \"#utility.yul\":16626:17019   */\n      swap4\n      swap3\n      pop\n      pop\n      pop\n      jump\t// out\n        /* \"#utility.yul\":17025:17167   */\n    tag_267:\n        /* \"#utility.yul\":17075:17084   */\n      0x00\n        /* \"#utility.yul\":17108:17161   */\n      tag_455\n        /* \"#utility.yul\":17126:17160   */\n      tag_456\n        /* \"#utility.yul\":17135:17159   */\n      tag_457\n        /* \"#utility.yul\":17153:17158   */\n      dup5\n        /* \"#utility.yul\":17135:17159   */\n      tag_227\n      jump\t// in\n    tag_457:\n        /* \"#utility.yul\":17126:17160   */\n      tag_234\n      jump\t// in\n    tag_456:\n        /* \"#utility.yul\":17108:17161   */\n      tag_227\n      jump\t// in\n    tag_455:\n        /* \"#utility.yul\":17095:17161   */\n      swap1\n      pop\n        /* \"#utility.yul\":17025:17167   */\n      swap2\n      swap1\n      pop\n      jump\t// out\n        /* \"#utility.yul\":17173:17248   */\n    tag_268:\n        /* \"#utility.yul\":17216:17219   */\n      0x00\n        /* \"#utility.yul\":17237:17242   */\n      dup2\n        /* \"#utility.yul\":17230:17242   */\n      swap1\n      pop\n        /* \"#utility.yul\":17173:17248   */\n      swap2\n      swap1\n      pop\n      jump\t// out\n        /* \"#utility.yul\":17254:17523   */\n    tag_269:\n        /* \"#utility.yul\":17364:17403   */\n      tag_460\n        /* \"#utility.yul\":17395:17402   */\n      dup4\n        /* \"#utility.yul\":17364:17403   */\n      tag_267\n      jump\t// in\n    tag_460:\n        /* \"#utility.yul\":17425:17516   */\n      tag_461\n        /* \"#utility.yul\":17474:17515   */\n      tag_462\n        /* \"#utility.yul\":17498:17514   */\n      dup3\n        /* \"#utility.yul\":17474:17515   */\n      tag_268\n      jump\t// in\n    tag_462:\n        /* \"#utility.yul\":17466:17472   */\n      dup5\n        /* \"#utility.yul\":17459:17463   */\n      dup5\n        /* \"#utility.yul\":17453:17464   */\n      sload\n        /* \"#utility.yul\":17425:17516   */\n      tag_266\n      jump\t// in\n    tag_461:\n        /* \"#utility.yul\":17419:17423   */\n      dup3\n        /* \"#utility.yul\":17412:17517   */\n      sstore\n        /* \"#utility.yul\":17330:17523   */\n      pop\n        /* \"#utility.yul\":17254:17523   */\n      pop\n      pop\n      pop\n      jump\t// out\n        /* \"#utility.yul\":17529:17602   */\n    tag_270:\n        /* \"#utility.yul\":17574:17577   */\n      0x00\n        /* \"#utility.yul\":17529:17602   */\n      swap1\n      jump\t// out\n        /* \"#utility.yul\":17608:17797   */\n    tag_271:\n        /* \"#utility.yul\":17685:17717   */\n      tag_465\n      tag_270\n      jump\t// in\n    tag_465:\n        /* \"#utility.yul\":17726:17791   */\n      tag_466\n        /* \"#utility.yul\":17784:17790   */\n      dup2\n        /* \"#utility.yul\":17776:17782   */\n      dup5\n        /* \"#utility.yul\":17770:17774   */\n      dup5\n        /* \"#utility.yul\":17726:17791   */\n      tag_269\n      jump\t// in\n    tag_466:\n        /* \"#utility.yul\":17661:17797   */\n      pop\n        /* \"#utility.yul\":17608:17797   */\n      pop\n      pop\n      jump\t// out\n        /* \"#utility.yul\":17803:17989   */\n    tag_272:\n        /* \"#utility.yul\":17863:17983   */\n    tag_468:\n        /* \"#utility.yul\":17880:17883   */\n      dup2\n        /* \"#utility.yul\":17873:17878   */\n      dup2\n        /* \"#utility.yul\":17870:17884   */\n      lt\n        /* \"#utility.yul\":17863:17983   */\n      iszero\n      tag_470\n      jumpi\n        /* \"#utility.yul\":17934:17973   */\n      tag_471\n        /* \"#utility.yul\":17971:17972   */\n      0x00\n        /* \"#utility.yul\":17964:17969   */\n      dup3\n        /* \"#utility.yul\":17934:17973   */\n      tag_271\n      jump\t// in\n    tag_471:\n        /* \"#utility.yul\":17907:17908   */\n      0x01\n        /* \"#utility.yul\":17900:17905   */\n      dup2\n        /* \"#utility.yul\":17896:17909   */\n      add\n        /* \"#utility.yul\":17887:17909   */\n      swap1\n      pop\n        /* \"#utility.yul\":17863:17983   */\n      jump(tag_468)\n    tag_470:\n        /* \"#utility.yul\":17803:17989   */\n      pop\n      pop\n      jump\t// out\n        /* \"#utility.yul\":17995:18538   */\n    tag_273:\n        /* \"#utility.yul\":18096:18098   */\n      0x1f\n        /* \"#utility.yul\":18091:18094   */\n      dup3\n        /* \"#utility.yul\":18088:18099   */\n      gt\n        /* \"#utility.yul\":18085:18531   */\n      iszero\n      tag_473\n      jumpi\n        /* \"#utility.yul\":18130:18168   */\n      tag_474\n        /* \"#utility.yul\":18162:18167   */\n      dup2\n        /* \"#utility.yul\":18130:18168   */\n      tag_263\n      jump\t// in\n    tag_474:\n        /* \"#utility.yul\":18214:18243   */\n      tag_475\n        /* \"#utility.yul\":18232:18242   */\n      dup5\n        /* \"#utility.yul\":18214:18243   */\n      tag_264\n      jump\t// in\n    tag_475:\n        /* \"#utility.yul\":18204:18212   */\n      dup2\n        /* \"#utility.yul\":18200:18244   */\n      add\n        /* \"#utility.yul\":18397:18399   */\n      0x20\n        /* \"#utility.yul\":18385:18395   */\n      dup6\n        /* \"#utility.yul\":18382:18400   */\n      lt\n        /* \"#utility.yul\":18379:18428   */\n      iszero\n      tag_476\n      jumpi\n        /* \"#utility.yul\":18418:18426   */\n      dup2\n        /* \"#utility.yul\":18403:18426   */\n      swap1\n      pop\n        /* \"#utility.yul\":18379:18428   */\n    tag_476:\n        /* \"#utility.yul\":18441:18521   */\n      tag_477\n        /* \"#utility.yul\":18497:18519   */\n      tag_478\n        /* \"#utility.yul\":18515:18518   */\n      dup6\n        /* \"#utility.yul\":18497:18519   */\n      tag_264\n      jump\t// in\n    tag_478:\n        /* \"#utility.yul\":18487:18495   */\n      dup4\n        /* \"#utility.yul\":18483:18520   */\n      add\n        /* \"#utility.yul\":18470:18481   */\n      dup3\n        /* \"#utility.yul\":18441:18521   */\n      tag_272\n      jump\t// in\n    tag_477:\n        /* \"#utility.yul\":18100:18531   */\n      pop\n      pop\n        /* \"#utility.yul\":18085:18531   */\n    tag_473:\n        /* \"#utility.yul\":17995:18538   */\n      pop\n      pop\n      pop\n      jump\t// out\n        /* \"#utility.yul\":18544:18661   */\n    tag_274:\n        /* \"#utility.yul\":18598:18606   */\n      0x00\n        /* \"#utility.yul\":18648:18653   */\n      dup3\n        /* \"#utility.yul\":18642:18646   */\n      dup3\n        /* \"#utility.yul\":18638:18654   */\n      shr\n        /* \"#utility.yul\":18617:18654   */\n      swap1\n      pop\n        /* \"#utility.yul\":18544:18661   */\n      swap3\n      swap2\n      pop\n      pop\n      jump\t// out\n        /* \"#utility.yul\":18667:18836   */\n    tag_275:\n        /* \"#utility.yul\":18711:18717   */\n      0x00\n        /* \"#utility.yul\":18744:18795   */\n      tag_481\n        /* \"#utility.yul\":18792:18793   */\n      0x00\n        /* \"#utility.yul\":18788:18794   */\n      not\n        /* \"#utility.yul\":18780:18785   */\n      dup5\n        /* \"#utility.yul\":18777:18778   */\n      0x08\n        /* \"#utility.yul\":18773:18786   */\n      mul\n        /* \"#utility.yul\":18744:18795   */\n      tag_274\n      jump\t// in\n    tag_481:\n        /* \"#utility.yul\":18740:18796   */\n      not\n        /* \"#utility.yul\":18825:18829   */\n      dup1\n        /* \"#utility.yul\":18819:18823   */\n      dup4\n        /* \"#utility.yul\":18815:18830   */\n      and\n        /* \"#utility.yul\":18805:18830   */\n      swap2\n      pop\n        /* \"#utility.yul\":18718:18836   */\n      pop\n        /* \"#utility.yul\":18667:18836   */\n      swap3\n      swap2\n      pop\n      pop\n      jump\t// out\n        /* \"#utility.yul\":18841:19136   */\n    tag_276:\n        /* \"#utility.yul\":18917:18921   */\n      0x00\n        /* \"#utility.yul\":19063:19092   */\n      tag_483\n        /* \"#utility.yul\":19088:19091   */\n      dup4\n        /* \"#utility.yul\":19082:19086   */\n      dup4\n        /* \"#utility.yul\":19063:19092   */\n      tag_275\n      jump\t// in\n    tag_483:\n        /* \"#utility.yul\":19055:19092   */\n      swap2\n      pop\n        /* \"#utility.yul\":19125:19128   */\n      dup3\n        /* \"#utility.yul\":19122:19123   */\n      0x02\n        /* \"#utility.yul\":19118:19129   */\n      mul\n        /* \"#utility.yul\":19112:19116   */\n      dup3\n        /* \"#utility.yul\":19109:19130   */\n      or\n        /* \"#utility.yul\":19101:19130   */\n      swap1\n      pop\n        /* \"#utility.yul\":18841:19136   */\n      swap3\n      swap2\n      pop\n      pop\n      jump\t// out\n        /* \"#utility.yul\":19141:20536   */\n    tag_214:\n        /* \"#utility.yul\":19258:19295   */\n      tag_485\n        /* \"#utility.yul\":19291:19294   */\n      dup3\n        /* \"#utility.yul\":19258:19295   */\n      tag_215\n      jump\t// in\n    tag_485:\n        /* \"#utility.yul\":19360:19378   */\n      0xffffffffffffffff\n        /* \"#utility.yul\":19352:19358   */\n      dup2\n        /* \"#utility.yul\":19349:19379   */\n      gt\n        /* \"#utility.yul\":19346:19402   */\n      iszero\n      tag_486\n      jumpi\n        /* \"#utility.yul\":19382:19400   */\n      tag_487\n      tag_244\n      jump\t// in\n    tag_487:\n        /* \"#utility.yul\":19346:19402   */\n    tag_486:\n        /* \"#utility.yul\":19426:19464   */\n      tag_488\n        /* \"#utility.yul\":19458:19462   */\n      dup3\n        /* \"#utility.yul\":19452:19463   */\n      sload\n        /* \"#utility.yul\":19426:19464   */\n      tag_113\n      jump\t// in\n    tag_488:\n        /* \"#utility.yul\":19511:19578   */\n      tag_489\n        /* \"#utility.yul\":19571:19577   */\n      dup3\n        /* \"#utility.yul\":19563:19569   */\n      dup3\n        /* \"#utility.yul\":19557:19561   */\n      dup6\n        /* \"#utility.yul\":19511:19578   */\n      tag_273\n      jump\t// in\n    tag_489:\n        /* \"#utility.yul\":19605:19606   */\n      0x00\n        /* \"#utility.yul\":19629:19633   */\n      0x20\n        /* \"#utility.yul\":19616:19633   */\n      swap1\n      pop\n        /* \"#utility.yul\":19661:19663   */\n      0x1f\n        /* \"#utility.yul\":19653:19659   */\n      dup4\n        /* \"#utility.yul\":19650:19664   */\n      gt\n        /* \"#utility.yul\":19678:19679   */\n      0x01\n        /* \"#utility.yul\":19673:20291   */\n      dup2\n      eq\n      tag_491\n      jumpi\n        /* \"#utility.yul\":20335:20336   */\n      0x00\n        /* \"#utility.yul\":20352:20358   */\n      dup5\n        /* \"#utility.yul\":20349:20426   */\n      iszero\n      tag_492\n      jumpi\n        /* \"#utility.yul\":20401:20410   */\n      dup3\n        /* \"#utility.yul\":20396:20399   */\n      dup8\n        /* \"#utility.yul\":20392:20411   */\n      add\n        /* \"#utility.yul\":20386:20412   */\n      mload\n        /* \"#utility.yul\":20377:20412   */\n      swap1\n      pop\n        /* \"#utility.yul\":20349:20426   */\n    tag_492:\n        /* \"#utility.yul\":20452:20519   */\n      tag_493\n        /* \"#utility.yul\":20512:20518   */\n      dup6\n        /* \"#utility.yul\":20505:20510   */\n      dup3\n        /* \"#utility.yul\":20452:20519   */\n      tag_276\n      jump\t// in\n    tag_493:\n        /* \"#utility.yul\":20446:20450   */\n      dup7\n        /* \"#utility.yul\":20439:20520   */\n      sstore\n        /* \"#utility.yul\":20308:20530   */\n      pop\n        /* \"#utility.yul\":19643:20530   */\n      jump(tag_490)\n        /* \"#utility.yul\":19673:20291   */\n    tag_491:\n        /* \"#utility.yul\":19725:19729   */\n      0x1f\n        /* \"#utility.yul\":19721:19730   */\n      not\n        /* \"#utility.yul\":19713:19719   */\n      dup5\n        /* \"#utility.yul\":19709:19731   */\n      and\n        /* \"#utility.yul\":19759:19796   */\n      tag_494\n        /* \"#utility.yul\":19791:19795   */\n      dup7\n        /* \"#utility.yul\":19759:19796   */\n      tag_263\n      jump\t// in\n    tag_494:\n        /* \"#utility.yul\":19818:19819   */\n      0x00\n        /* \"#utility.yul\":19832:20040   */\n    tag_495:\n        /* \"#utility.yul\":19846:19853   */\n      dup3\n        /* \"#utility.yul\":19843:19844   */\n      dup2\n        /* \"#utility.yul\":19840:19854   */\n      lt\n        /* \"#utility.yul\":19832:20040   */\n      iszero\n      tag_497\n      jumpi\n        /* \"#utility.yul\":19925:19934   */\n      dup5\n        /* \"#utility.yul\":19920:19923   */\n      dup10\n        /* \"#utility.yul\":19916:19935   */\n      add\n        /* \"#utility.yul\":19910:19936   */\n      mload\n        /* \"#utility.yul\":19902:19908   */\n      dup3\n        /* \"#utility.yul\":19895:19937   */\n      sstore\n        /* \"#utility.yul\":19976:19977   */\n      0x01\n        /* \"#utility.yul\":19968:19974   */\n      dup3\n        /* \"#utility.yul\":19964:19978   */\n      add\n        /* \"#utility.yul\":19954:19978   */\n      swap2\n      pop\n        /* \"#utility.yul\":20023:20025   */\n      0x20\n        /* \"#utility.yul\":20012:20021   */\n      dup6\n        /* \"#utility.yul\":20008:20026   */\n      add\n        /* \"#utility.yul\":19995:20026   */\n      swap5\n      pop\n        /* \"#utility.yul\":19869:19873   */\n      0x20\n        /* \"#utility.yul\":19866:19867   */\n      dup2\n        /* \"#utility.yul\":19862:19874   */\n      add\n        /* \"#utility.yul\":19857:19874   */\n      swap1\n      pop\n        /* \"#utility.yul\":19832:20040   */\n      jump(tag_495)\n    tag_497:\n        /* \"#utility.yul\":20068:20074   */\n      dup7\n        /* \"#utility.yul\":20059:20066   */\n      dup4\n        /* \"#utility.yul\":20056:20075   */\n      lt\n        /* \"#utility.yul\":20053:20232   */\n      iszero\n      tag_498\n      jumpi\n        /* \"#utility.yul\":20126:20135   */\n      dup5\n        /* \"#utility.yul\":20121:20124   */\n      dup10\n        /* \"#utility.yul\":20117:20136   */\n      add\n        /* \"#utility.yul\":20111:20137   */\n      mload\n        /* \"#utility.yul\":20169:20217   */\n      tag_499\n        /* \"#utility.yul\":20211:20215   */\n      0x1f\n        /* \"#utility.yul\":20203:20209   */\n      dup10\n        /* \"#utility.yul\":20199:20216   */\n      and\n        /* \"#utility.yul\":20188:20197   */\n      dup3\n        /* \"#utility.yul\":20169:20217   */\n      tag_275\n      jump\t// in\n    tag_499:\n        /* \"#utility.yul\":20161:20167   */\n      dup4\n        /* \"#utility.yul\":20154:20218   */\n      sstore\n        /* \"#utility.yul\":20076:20232   */\n      pop\n        /* \"#utility.yul\":20053:20232   */\n    tag_498:\n        /* \"#utility.yul\":20278:20279   */\n      0x01\n        /* \"#utility.yul\":20274:20275   */\n      0x02\n        /* \"#utility.yul\":20266:20272   */\n      dup9\n        /* \"#utility.yul\":20262:20276   */\n      mul\n        /* \"#utility.yul\":20258:20280   */\n      add\n        /* \"#utility.yul\":20252:20256   */\n      dup9\n        /* \"#utility.yul\":20245:20281   */\n      sstore\n        /* \"#utility.yul\":19680:20291   */\n      pop\n      pop\n      pop\n        /* \"#utility.yul\":19643:20530   */\n    tag_490:\n      pop\n        /* \"#utility.yul\":19233:20536   */\n      pop\n      pop\n      pop\n        /* \"#utility.yul\":19141:20536   */\n      pop\n      pop\n      jump\t// out\n\n    auxdata: 0xa264697066735822122079f87b9c17ee26bcaad1879e6b8af31908b2fce269f2758a625efacaf795096864736f6c63430008130033\n}\n",
				"bytecode": {
					"linkReferences": {},
					"object": "60e0604052606460c0908152503480156200001957600080fd5b50336000806101000a81548173ffffffffffffffffffffffffffffffffffffffff021916908373ffffffffffffffffffffffffffffffffffffffff160217905550600260ff1660a08160ff168152505042608081815250506276a7006080516200008491906200042e565b6001819055506040518060400160405280600481526020017f4141412b0000000000000000000000000000000000000000000000000000000081525060079081620000d09190620006d9565b506040518060400160405280601881526020017f446562656e74757265205175617365204e61646120532f41000000000000000081525060029081620001179190620006d9565b506040518060400160405280600a81526020017f444f4d52414d4f4e353100000000000000000000000000000000000000000000815250600390816200015e9190620006d9565b5060026004819055506200019a33600454600a6200017d919062000914565b633b9aca006200018e919062000965565b620001e060201b60201c565b507f17ca6475bfb6360f560590b7b98486285bf9dfa961b50d865ab171166e08f991608051600154604051620001d2929190620009c1565b60405180910390a162000b26565b60008060009054906101000a900473ffffffffffffffffffffffffffffffffffffffff1673ffffffffffffffffffffffffffffffffffffffff163373ffffffffffffffffffffffffffffffffffffffff161462000274576040517f08c379a00000000000000000000000000000000000000000000000000000000081526004016200026b9062000a75565b60405180910390fd5b600073ffffffffffffffffffffffffffffffffffffffff168373ffffffffffffffffffffffffffffffffffffffff1603620002e6576040517f08c379a0000000000000000000000000000000000000000000000000000000008152600401620002dd9062000ae7565b60405180910390fd5b8160056000828254620002fa91906200042e565b9250508190555060c0518262000311919062000965565b600660008282546200032491906200042e565b9250508190555081600860008573ffffffffffffffffffffffffffffffffffffffff1673ffffffffffffffffffffffffffffffffffffffff16815260200190815260200160002060008282546200037c91906200042e565b925050819055508273ffffffffffffffffffffffffffffffffffffffff16600073ffffffffffffffffffffffffffffffffffffffff167fddf252ad1be2c89b69c2b068fc378daa952ba7f163c4a11628f55a4df523b3ef84604051620003e3919062000b09565b60405180910390a36001905092915050565b6000819050919050565b7f4e487b7100000000000000000000000000000000000000000000000000000000600052601160045260246000fd5b60006200043b82620003f5565b91506200044883620003f5565b9250828201905080821115620004635762000462620003ff565b5b92915050565b600081519050919050565b7f4e487b7100000000000000000000000000000000000000000000000000000000600052604160045260246000fd5b7f4e487b7100000000000000000000000000000000000000000000000000000000600052602260045260246000fd5b60006002820490506001821680620004eb57607f821691505b602082108103620005015762000500620004a3565b5b50919050565b60008190508160005260206000209050919050565b60006020601f8301049050919050565b600082821b905092915050565b6000600883026200056b7fffffffffffffffffffffffffffffffffffffffffffffffffffffffffffffffff826200052c565b6200057786836200052c565b95508019841693508086168417925050509392505050565b6000819050919050565b6000620005ba620005b4620005ae84620003f5565b6200058f565b620003f5565b9050919050565b6000819050919050565b620005d68362000599565b620005ee620005e582620005c1565b84845462000539565b825550505050565b600090565b62000605620005f6565b62000612818484620005cb565b505050565b5b818110156200063a576200062e600082620005fb565b60018101905062000618565b5050565b601f8211156200068957620006538162000507565b6200065e846200051c565b810160208510156200066e578190505b620006866200067d856200051c565b83018262000617565b50505b505050565b600082821c905092915050565b6000620006ae600019846008026200068e565b1980831691505092915050565b6000620006c983836200069b565b9150826002028217905092915050565b620006e48262000469565b67ffffffffffffffff8111156200070057620006ff62000474565b5b6200070c8254620004d2565b620007198282856200063e565b600060209050601f8311600181146200075157600084156200073c578287015190505b620007488582620006bb565b865550620007b8565b601f198416620007618662000507565b60005b828110156200078b5784890151825560018201915060208501945060208101905062000764565b86831015620007ab5784890151620007a7601f8916826200069b565b8355505b6001600288020188555050505b505050505050565b60008160011c9050919050565b6000808291508390505b60018511156200081f57808604811115620007f757620007f6620003ff565b5b6001851615620008075780820291505b80810290506200081785620007c0565b9450620007d7565b94509492505050565b6000826200083a57600190506200090d565b816200084a57600090506200090d565b81600181146200086357600281146200086e57620008a4565b60019150506200090d565b60ff841115620008835762000882620003ff565b5b8360020a9150848211156200089d576200089c620003ff565b5b506200090d565b5060208310610133831016604e8410600b8410161715620008de5782820a905083811115620008d857620008d7620003ff565b5b6200090d565b620008ed8484846001620007cd565b92509050818404811115620009075762000906620003ff565b5b81810290505b9392505050565b60006200092182620003f5565b91506200092e83620003f5565b92506200095d7fffffffffffffffffffffffffffffffffffffffffffffffffffffffffffffffff848462000828565b905092915050565b60006200097282620003f5565b91506200097f83620003f5565b92508282026200098f81620003f5565b91508282048414831517620009a957620009a8620003ff565b5b5092915050565b620009bb81620003f5565b82525050565b6000604082019050620009d86000830185620009b0565b620009e76020830184620009b0565b9392505050565b600082825260208201905092915050565b7f6f6e6c79206f776e65722063616e20706572666f726d2074686973206f70657260008201527f6174696f6e000000000000000000000000000000000000000000000000000000602082015250565b600062000a5d602583620009ee565b915062000a6a82620009ff565b604082019050919050565b6000602082019050818103600083015262000a908162000a4e565b9050919050565b7f45524332303a206d696e7420746f20746865207a65726f206164647265737300600082015250565b600062000acf601f83620009ee565b915062000adc8262000a97565b602082019050919050565b6000602082019050818103600083015262000b028162000ac0565b9050919050565b600060208201905062000b206000830184620009b0565b92915050565b60805160a05160c0516120fb62000b616000396000818161098801528181610ac70152610fca0152600050506000610bdb01526120fb6000f3fe608060405234801561001057600080fd5b50600436106101375760003560e01c8063649d9bb4116100b8578063a6f9dae11161007c578063a6f9dae11461036a578063a9059cbb1461039a578063ae1457c2146103ca578063dd62ed3e146103e8578063fa36ed8c14610418578063fe10215c1461043657610137565b8063649d9bb41461029e57806370a08231146102ce57806380f474f6146102fe57806395d89b411461031c5780639dc29fac1461033a57610137565b8063313ce567116100ff578063313ce567146101f657806336e69b221461021457806340c10f19146102325780634efeabbf1461026257806351f48cbb1461028057610137565b806306fdde031461013c578063095ea7b31461015a57806318160ddd1461018a578063220f52c5146101a857806323b872dd146101c6575b600080fd5b610144610466565b6040516101519190611623565b60405180910390f35b610174600480360381019061016f91906116ed565b6104f8565b6040516101819190611748565b60405180910390f35b6101926105ea565b60405161019f9190611772565b60405180910390f35b6101b06105f4565b6040516101bd919061179c565b60405180910390f35b6101e060048036038101906101db91906117b7565b61061d565b6040516101ed9190611748565b60405180910390f35b6101fe61097e565b60405161020b9190611772565b60405180910390f35b61021c610984565b6040516102299190611772565b60405180910390f35b61024c600480360381019061024791906116ed565b6109ac565b6040516102599190611748565b60405180910390f35b61026a610bcf565b6040516102779190611869565b60405180910390f35b610288610bd7565b6040516102959190611772565b60405180910390f35b6102b860048036038101906102b391906118be565b610bff565b6040516102c59190611748565b60405180910390f35b6102e860048036038101906102e391906118eb565b610cec565b6040516102f59190611772565b60405180910390f35b610306610d35565b6040516103139190611623565b60405180910390f35b610324610dc7565b6040516103319190611623565b60405180910390f35b610354600480360381019061034f91906116ed565b610e59565b6040516103619190611748565b60405180910390f35b610384600480360381019061037f91906118eb565b61107c565b6040516103919190611748565b60405180910390f35b6103b460048036038101906103af91906116ed565b6111c5565b6040516103c19190611748565b60405180910390f35b6103d26113c6565b6040516103df9190611772565b60405180910390f35b61040260048036038101906103fd9190611918565b6113d0565b60405161040f9190611772565b60405180910390f35b610420611457565b60405161042d9190611623565b60405180910390f35b610450600480360381019061044b9190611a8d565b6114e9565b60405161045d9190611748565b60405180910390f35b60606002805461047590611b05565b80601f01602080910402602001604051908101604052809291908181526020018280546104a190611b05565b80156104ee5780601f106104c3576101008083540402835291602001916104ee565b820191906000526020600020905b8154815290600101906020018083116104d157829003601f168201915b5050505050905090565b600081600960003373ffffffffffffffffffffffffffffffffffffffff1673ffffffffffffffffffffffffffffffffffffffff16815260200190815260200160002060008573ffffffffffffffffffffffffffffffffffffffff1673ffffffffffffffffffffffffffffffffffffffff168152602001908152602001600020819055508273ffffffffffffffffffffffffffffffffffffffff163373ffffffffffffffffffffffffffffffffffffffff167f8c5be1e5ebec7d5bd14f71427d1e84f3dd0314c0f7b2291e5b200ac8c7c3b925846040516105d89190611772565b60405180910390a36001905092915050565b6000600554905090565b60008060009054906101000a900473ffffffffffffffffffffffffffffffffffffffff16905090565b600083826000600860008473ffffffffffffffffffffffffffffffffffffffff1673ffffffffffffffffffffffffffffffffffffffff1681526020019081526020016000205490508181101561067257600080fd5b338786600960008373ffffffffffffffffffffffffffffffffffffffff1673ffffffffffffffffffffffffffffffffffffffff16815260200190815260200160002060008473ffffffffffffffffffffffffffffffffffffffff1673ffffffffffffffffffffffffffffffffffffffff168152602001908152602001600020548111156106fe57600080fd5b876000811161070c57600080fd5b60055481111561071b57600080fd5b88600860008d73ffffffffffffffffffffffffffffffffffffffff1673ffffffffffffffffffffffffffffffffffffffff168152602001908152602001600020546107669190611b65565b600860008d73ffffffffffffffffffffffffffffffffffffffff1673ffffffffffffffffffffffffffffffffffffffff1681526020019081526020016000208190555088600860008c73ffffffffffffffffffffffffffffffffffffffff1673ffffffffffffffffffffffffffffffffffffffff16815260200190815260200160002060008282546107f89190611b99565b9250508190555088600960008d73ffffffffffffffffffffffffffffffffffffffff1673ffffffffffffffffffffffffffffffffffffffff16815260200190815260200160002060003373ffffffffffffffffffffffffffffffffffffffff1673ffffffffffffffffffffffffffffffffffffffff168152602001908152602001600020546108879190611b65565b600960008d73ffffffffffffffffffffffffffffffffffffffff1673ffffffffffffffffffffffffffffffffffffffff16815260200190815260200160002060003373ffffffffffffffffffffffffffffffffffffffff1673ffffffffffffffffffffffffffffffffffffffff168152602001908152602001600020819055508973ffffffffffffffffffffffffffffffffffffffff168b73ffffffffffffffffffffffffffffffffffffffff167fddf252ad1be2c89b69c2b068fc378daa952ba7f163c4a11628f55a4df523b3ef8b6040516109649190611772565b60405180910390a360019750505050505050509392505050565b60045481565b60007f0000000000000000000000000000000000000000000000000000000000000000905090565b60008060009054906101000a900473ffffffffffffffffffffffffffffffffffffffff1673ffffffffffffffffffffffffffffffffffffffff163373ffffffffffffffffffffffffffffffffffffffff1614610a3d576040517f08c379a0000000000000000000000000000000000000000000000000000000008152600401610a3490611c3f565b60405180910390fd5b600073ffffffffffffffffffffffffffffffffffffffff168373ffffffffffffffffffffffffffffffffffffffff1603610aac576040517f08c379a0000000000000000000000000000000000000000000000000000000008152600401610aa390611cab565b60405180910390fd5b8160056000828254610abe9190611b99565b925050819055507f000000000000000000000000000000000000000000000000000000000000000082610af19190611ccb565b60066000828254610b029190611b99565b9250508190555081600860008573ffffffffffffffffffffffffffffffffffffffff1673ffffffffffffffffffffffffffffffffffffffff1681526020019081526020016000206000828254610b589190611b99565b925050819055508273ffffffffffffffffffffffffffffffffffffffff16600073ffffffffffffffffffffffffffffffffffffffff167fddf252ad1be2c89b69c2b068fc378daa952ba7f163c4a11628f55a4df523b3ef84604051610bbd9190611772565b60405180910390a36001905092915050565b600030905090565b60007f0000000000000000000000000000000000000000000000000000000000000000905090565b60008060009054906101000a900473ffffffffffffffffffffffffffffffffffffffff1673ffffffffffffffffffffffffffffffffffffffff163373ffffffffffffffffffffffffffffffffffffffff1614610c90576040517f08c379a0000000000000000000000000000000000000000000000000000000008152600401610c8790611c3f565b60405180910390fd5b60648261ffff161015610cd8576040517f08c379a0000000000000000000000000000000000000000000000000000000008152600401610ccf90611d59565b60405180910390fd5b8161ffff1660058190555060019050919050565b6000600860008373ffffffffffffffffffffffffffffffffffffffff1673ffffffffffffffffffffffffffffffffffffffff168152602001908152602001600020549050919050565b606060078054610d4490611b05565b80601f0160208091040260200160405190810160405280929190818152602001828054610d7090611b05565b8015610dbd5780601f10610d9257610100808354040283529160200191610dbd565b820191906000526020600020905b815481529060010190602001808311610da057829003601f168201915b5050505050905090565b606060038054610dd690611b05565b80601f0160208091040260200160405190810160405280929190818152602001828054610e0290611b05565b8015610e4f5780601f10610e2457610100808354040283529160200191610e4f565b820191906000526020600020905b815481529060010190602001808311610e3257829003601f168201915b5050505050905090565b60008060009054906101000a900473ffffffffffffffffffffffffffffffffffffffff1673ffffffffffffffffffffffffffffffffffffffff163373ffffffffffffffffffffffffffffffffffffffff1614610eea576040517f08c379a0000000000000000000000000000000000000000000000000000000008152600401610ee190611c3f565b60405180910390fd5b600073ffffffffffffffffffffffffffffffffffffffff168373ffffffffffffffffffffffffffffffffffffffff1603610f59576040517f08c379a0000000000000000000000000000000000000000000000000000000008152600401610f5090611dc5565b60405180910390fd5b81600860008573ffffffffffffffffffffffffffffffffffffffff1673ffffffffffffffffffffffffffffffffffffffff1681526020019081526020016000206000828254610fa89190611b65565b925050819055508160056000828254610fc19190611b65565b925050819055507f000000000000000000000000000000000000000000000000000000000000000082610ff49190611ccb565b600660008282546110059190611b65565b92505081905550600073ffffffffffffffffffffffffffffffffffffffff168373ffffffffffffffffffffffffffffffffffffffff167fddf252ad1be2c89b69c2b068fc378daa952ba7f163c4a11628f55a4df523b3ef8460405161106a9190611772565b60405180910390a36001905092915050565b60008060009054906101000a900473ffffffffffffffffffffffffffffffffffffffff1673ffffffffffffffffffffffffffffffffffffffff163373ffffffffffffffffffffffffffffffffffffffff161461110d576040517f08c379a000000000000000000000000000000000000000000000000000000000815260040161110490611c3f565b60405180910390fd5b600073ffffffffffffffffffffffffffffffffffffffff168273ffffffffffffffffffffffffffffffffffffffff160361117c576040517f08c379a000000000000000000000000000000000000000000000000000000000815260040161117390611e31565b60405180910390fd5b816000806101000a81548173ffffffffffffffffffffffffffffffffffffffff021916908373ffffffffffffffffffffffffffffffffffffffff16021790555060019050919050565b600033826000600860008473ffffffffffffffffffffffffffffffffffffffff1673ffffffffffffffffffffffffffffffffffffffff1681526020019081526020016000205490508181101561121a57600080fd5b846000811161122857600080fd5b60055481111561123757600080fd5b85600860003373ffffffffffffffffffffffffffffffffffffffff1673ffffffffffffffffffffffffffffffffffffffff168152602001908152602001600020546112829190611b65565b600860003373ffffffffffffffffffffffffffffffffffffffff1673ffffffffffffffffffffffffffffffffffffffff1681526020019081526020016000208190555085600860008973ffffffffffffffffffffffffffffffffffffffff1673ffffffffffffffffffffffffffffffffffffffff168152602001908152602001600020546113109190611b99565b600860008973ffffffffffffffffffffffffffffffffffffffff1673ffffffffffffffffffffffffffffffffffffffff168152602001908152602001600020819055508673ffffffffffffffffffffffffffffffffffffffff163373ffffffffffffffffffffffffffffffffffffffff167fddf252ad1be2c89b69c2b068fc378daa952ba7f163c4a11628f55a4df523b3ef886040516113b09190611772565b60405180910390a3600194505050505092915050565b6000600554905090565b6000600960008473ffffffffffffffffffffffffffffffffffffffff1673ffffffffffffffffffffffffffffffffffffffff16815260200190815260200160002060008373ffffffffffffffffffffffffffffffffffffffff1673ffffffffffffffffffffffffffffffffffffffff16815260200190815260200160002054905092915050565b60606002805461146690611b05565b80601f016020809104026020016040519081016040528092919081815260200182805461149290611b05565b80156114df5780601f106114b4576101008083540402835291602001916114df565b820191906000526020600020905b8154815290600101906020018083116114c257829003601f168201915b5050505050905090565b60008060009054906101000a900473ffffffffffffffffffffffffffffffffffffffff1673ffffffffffffffffffffffffffffffffffffffff163373ffffffffffffffffffffffffffffffffffffffff161461157a576040517f08c379a000000000000000000000000000000000000000000000000000000000815260040161157190611c3f565b60405180910390fd5b81600790816115899190611ff3565b5060019050919050565b600081519050919050565b600082825260208201905092915050565b60005b838110156115cd5780820151818401526020810190506115b2565b60008484015250505050565b6000601f19601f8301169050919050565b60006115f582611593565b6115ff818561159e565b935061160f8185602086016115af565b611618816115d9565b840191505092915050565b6000602082019050818103600083015261163d81846115ea565b905092915050565b6000604051905090565b600080fd5b600080fd5b600073ffffffffffffffffffffffffffffffffffffffff82169050919050565b600061168482611659565b9050919050565b61169481611679565b811461169f57600080fd5b50565b6000813590506116b18161168b565b92915050565b6000819050919050565b6116ca816116b7565b81146116d557600080fd5b50565b6000813590506116e7816116c1565b92915050565b600080604083850312156117045761170361164f565b5b6000611712858286016116a2565b9250506020611723858286016116d8565b9150509250929050565b60008115159050919050565b6117428161172d565b82525050565b600060208201905061175d6000830184611739565b92915050565b61176c816116b7565b82525050565b60006020820190506117876000830184611763565b92915050565b61179681611679565b82525050565b60006020820190506117b1600083018461178d565b92915050565b6000806000606084860312156117d0576117cf61164f565b5b60006117de868287016116a2565b93505060206117ef868287016116a2565b9250506040611800868287016116d8565b9150509250925092565b6000819050919050565b600061182f61182a61182584611659565b61180a565b611659565b9050919050565b600061184182611814565b9050919050565b600061185382611836565b9050919050565b61186381611848565b82525050565b600060208201905061187e600083018461185a565b92915050565b600061ffff82169050919050565b61189b81611884565b81146118a657600080fd5b50565b6000813590506118b881611892565b92915050565b6000602082840312156118d4576118d361164f565b5b60006118e2848285016118a9565b91505092915050565b6000602082840312156119015761190061164f565b5b600061190f848285016116a2565b91505092915050565b6000806040838503121561192f5761192e61164f565b5b600061193d858286016116a2565b925050602061194e858286016116a2565b9150509250929050565b600080fd5b600080fd5b7f4e487b7100000000000000000000000000000000000000000000000000000000600052604160045260246000fd5b61199a826115d9565b810181811067ffffffffffffffff821117156119b9576119b8611962565b5b80604052505050565b60006119cc611645565b90506119d88282611991565b919050565b600067ffffffffffffffff8211156119f8576119f7611962565b5b611a01826115d9565b9050602081019050919050565b82818337600083830152505050565b6000611a30611a2b846119dd565b6119c2565b905082815260208101848484011115611a4c57611a4b61195d565b5b611a57848285611a0e565b509392505050565b600082601f830112611a7457611a73611958565b5b8135611a84848260208601611a1d565b91505092915050565b600060208284031215611aa357611aa261164f565b5b600082013567ffffffffffffffff811115611ac157611ac0611654565b5b611acd84828501611a5f565b91505092915050565b7f4e487b7100000000000000000000000000000000000000000000000000000000600052602260045260246000fd5b60006002820490506001821680611b1d57607f821691505b602082108103611b3057611b2f611ad6565b5b50919050565b7f4e487b7100000000000000000000000000000000000000000000000000000000600052601160045260246000fd5b6000611b70826116b7565b9150611b7b836116b7565b9250828203905081811115611b9357611b92611b36565b5b92915050565b6000611ba4826116b7565b9150611baf836116b7565b9250828201905080821115611bc757611bc6611b36565b5b92915050565b7f6f6e6c79206f776e65722063616e20706572666f726d2074686973206f70657260008201527f6174696f6e000000000000000000000000000000000000000000000000000000602082015250565b6000611c2960258361159e565b9150611c3482611bcd565b604082019050919050565b60006020820190508181036000830152611c5881611c1c565b9050919050565b7f45524332303a206d696e7420746f20746865207a65726f206164647265737300600082015250565b6000611c95601f8361159e565b9150611ca082611c5f565b602082019050919050565b60006020820190508181036000830152611cc481611c88565b9050919050565b6000611cd6826116b7565b9150611ce1836116b7565b9250828202611cef816116b7565b91508282048414831517611d0657611d05611b36565b5b5092915050565b7f6e756d65726f20646520667261636f657320626169786f000000000000000000600082015250565b6000611d4360178361159e565b9150611d4e82611d0d565b602082019050919050565b60006020820190508181036000830152611d7281611d36565b9050919050565b7f45524332303a206275726e2066726f6d20616464726573730000000000000000600082015250565b6000611daf60188361159e565b9150611dba82611d79565b602082019050919050565b60006020820190508181036000830152611dde81611da2565b9050919050565b7f6f6e6c792076616c696420616464726573730000000000000000000000000000600082015250565b6000611e1b60128361159e565b9150611e2682611de5565b602082019050919050565b60006020820190508181036000830152611e4a81611e0e565b9050919050565b60008190508160005260206000209050919050565b60006020601f8301049050919050565b600082821b905092915050565b600060088302611eb37fffffffffffffffffffffffffffffffffffffffffffffffffffffffffffffffff82611e76565b611ebd8683611e76565b95508019841693508086168417925050509392505050565b6000611ef0611eeb611ee6846116b7565b61180a565b6116b7565b9050919050565b6000819050919050565b611f0a83611ed5565b611f1e611f1682611ef7565b848454611e83565b825550505050565b600090565b611f33611f26565b611f3e818484611f01565b505050565b5b81811015611f6257611f57600082611f2b565b600181019050611f44565b5050565b601f821115611fa757611f7881611e51565b611f8184611e66565b81016020851015611f90578190505b611fa4611f9c85611e66565b830182611f43565b50505b505050565b600082821c905092915050565b6000611fca60001984600802611fac565b1980831691505092915050565b6000611fe38383611fb9565b9150826002028217905092915050565b611ffc82611593565b67ffffffffffffffff81111561201557612014611962565b5b61201f8254611b05565b61202a828285611f66565b600060209050601f83116001811461205d576000841561204b578287015190505b6120558582611fd7565b8655506120bd565b601f19841661206b86611e51565b60005b828110156120935784890151825560018201915060208501945060208101905061206e565b868310156120b057848901516120ac601f891682611fb9565b8355505b6001600288020188555050505b50505050505056fea264697066735822122079f87b9c17ee26bcaad1879e6b8af31908b2fce269f2758a625efacaf795096864736f6c63430008130033",
					"opcodes": "PUSH1 0xE0 PUSH1 0x40 MSTORE PUSH1 0x64 PUSH1 0xC0 SWAP1 DUP2 MSTORE POP CALLVALUE DUP1 ISZERO PUSH3 0x19 JUMPI PUSH1 0x0 DUP1 REVERT JUMPDEST POP CALLER PUSH1 0x0 DUP1 PUSH2 0x100 EXP DUP2 SLOAD DUP2 PUSH20 0xFFFFFFFFFFFFFFFFFFFFFFFFFFFFFFFFFFFFFFFF MUL NOT AND SWAP1 DUP4 PUSH20 0xFFFFFFFFFFFFFFFFFFFFFFFFFFFFFFFFFFFFFFFF AND MUL OR SWAP1 SSTORE POP PUSH1 0x2 PUSH1 0xFF AND PUSH1 0xA0 DUP2 PUSH1 0xFF AND DUP2 MSTORE POP POP TIMESTAMP PUSH1 0x80 DUP2 DUP2 MSTORE POP POP PUSH3 0x76A700 PUSH1 0x80 MLOAD PUSH3 0x84 SWAP2 SWAP1 PUSH3 0x42E JUMP JUMPDEST PUSH1 0x1 DUP2 SWAP1 SSTORE POP PUSH1 0x40 MLOAD DUP1 PUSH1 0x40 ADD PUSH1 0x40 MSTORE DUP1 PUSH1 0x4 DUP2 MSTORE PUSH1 0x20 ADD PUSH32 0x4141412B00000000000000000000000000000000000000000000000000000000 DUP2 MSTORE POP PUSH1 0x7 SWAP1 DUP2 PUSH3 0xD0 SWAP2 SWAP1 PUSH3 0x6D9 JUMP JUMPDEST POP PUSH1 0x40 MLOAD DUP1 PUSH1 0x40 ADD PUSH1 0x40 MSTORE DUP1 PUSH1 0x18 DUP2 MSTORE PUSH1 0x20 ADD PUSH32 0x446562656E74757265205175617365204E61646120532F410000000000000000 DUP2 MSTORE POP PUSH1 0x2 SWAP1 DUP2 PUSH3 0x117 SWAP2 SWAP1 PUSH3 0x6D9 JUMP JUMPDEST POP PUSH1 0x40 MLOAD DUP1 PUSH1 0x40 ADD PUSH1 0x40 MSTORE DUP1 PUSH1 0xA DUP2 MSTORE PUSH1 0x20 ADD PUSH32 0x444F4D52414D4F4E353100000000000000000000000000000000000000000000 DUP2 MSTORE POP PUSH1 0x3 SWAP1 DUP2 PUSH3 0x15E SWAP2 SWAP1 PUSH3 0x6D9 JUMP JUMPDEST POP PUSH1 0x2 PUSH1 0x4 DUP2 SWAP1 SSTORE POP PUSH3 0x19A CALLER PUSH1 0x4 SLOAD PUSH1 0xA PUSH3 0x17D SWAP2 SWAP1 PUSH3 0x914 JUMP JUMPDEST PUSH4 0x3B9ACA00 PUSH3 0x18E SWAP2 SWAP1 PUSH3 0x965 JUMP JUMPDEST PUSH3 0x1E0 PUSH1 0x20 SHL PUSH1 0x20 SHR JUMP JUMPDEST POP PUSH32 0x17CA6475BFB6360F560590B7B98486285BF9DFA961B50D865AB171166E08F991 PUSH1 0x80 MLOAD PUSH1 0x1 SLOAD PUSH1 0x40 MLOAD PUSH3 0x1D2 SWAP3 SWAP2 SWAP1 PUSH3 0x9C1 JUMP JUMPDEST PUSH1 0x40 MLOAD DUP1 SWAP2 SUB SWAP1 LOG1 PUSH3 0xB26 JUMP JUMPDEST PUSH1 0x0 DUP1 PUSH1 0x0 SWAP1 SLOAD SWAP1 PUSH2 0x100 EXP SWAP1 DIV PUSH20 0xFFFFFFFFFFFFFFFFFFFFFFFFFFFFFFFFFFFFFFFF AND PUSH20 0xFFFFFFFFFFFFFFFFFFFFFFFFFFFFFFFFFFFFFFFF AND CALLER PUSH20 0xFFFFFFFFFFFFFFFFFFFFFFFFFFFFFFFFFFFFFFFF AND EQ PUSH3 0x274 JUMPI PUSH1 0x40 MLOAD PUSH32 0x8C379A000000000000000000000000000000000000000000000000000000000 DUP2 MSTORE PUSH1 0x4 ADD PUSH3 0x26B SWAP1 PUSH3 0xA75 JUMP JUMPDEST PUSH1 0x40 MLOAD DUP1 SWAP2 SUB SWAP1 REVERT JUMPDEST PUSH1 0x0 PUSH20 0xFFFFFFFFFFFFFFFFFFFFFFFFFFFFFFFFFFFFFFFF AND DUP4 PUSH20 0xFFFFFFFFFFFFFFFFFFFFFFFFFFFFFFFFFFFFFFFF AND SUB PUSH3 0x2E6 JUMPI PUSH1 0x40 MLOAD PUSH32 0x8C379A000000000000000000000000000000000000000000000000000000000 DUP2 MSTORE PUSH1 0x4 ADD PUSH3 0x2DD SWAP1 PUSH3 0xAE7 JUMP JUMPDEST PUSH1 0x40 MLOAD DUP1 SWAP2 SUB SWAP1 REVERT JUMPDEST DUP2 PUSH1 0x5 PUSH1 0x0 DUP3 DUP3 SLOAD PUSH3 0x2FA SWAP2 SWAP1 PUSH3 0x42E JUMP JUMPDEST SWAP3 POP POP DUP2 SWAP1 SSTORE POP PUSH1 0xC0 MLOAD DUP3 PUSH3 0x311 SWAP2 SWAP1 PUSH3 0x965 JUMP JUMPDEST PUSH1 0x6 PUSH1 0x0 DUP3 DUP3 SLOAD PUSH3 0x324 SWAP2 SWAP1 PUSH3 0x42E JUMP JUMPDEST SWAP3 POP POP DUP2 SWAP1 SSTORE POP DUP2 PUSH1 0x8 PUSH1 0x0 DUP6 PUSH20 0xFFFFFFFFFFFFFFFFFFFFFFFFFFFFFFFFFFFFFFFF AND PUSH20 0xFFFFFFFFFFFFFFFFFFFFFFFFFFFFFFFFFFFFFFFF AND DUP2 MSTORE PUSH1 0x20 ADD SWAP1 DUP2 MSTORE PUSH1 0x20 ADD PUSH1 0x0 KECCAK256 PUSH1 0x0 DUP3 DUP3 SLOAD PUSH3 0x37C SWAP2 SWAP1 PUSH3 0x42E JUMP JUMPDEST SWAP3 POP POP DUP2 SWAP1 SSTORE POP DUP3 PUSH20 0xFFFFFFFFFFFFFFFFFFFFFFFFFFFFFFFFFFFFFFFF AND PUSH1 0x0 PUSH20 0xFFFFFFFFFFFFFFFFFFFFFFFFFFFFFFFFFFFFFFFF AND PUSH32 0xDDF252AD1BE2C89B69C2B068FC378DAA952BA7F163C4A11628F55A4DF523B3EF DUP5 PUSH1 0x40 MLOAD PUSH3 0x3E3 SWAP2 SWAP1 PUSH3 0xB09 JUMP JUMPDEST PUSH1 0x40 MLOAD DUP1 SWAP2 SUB SWAP1 LOG3 PUSH1 0x1 SWAP1 POP SWAP3 SWAP2 POP POP JUMP JUMPDEST PUSH1 0x0 DUP2 SWAP1 POP SWAP2 SWAP1 POP JUMP JUMPDEST PUSH32 0x4E487B7100000000000000000000000000000000000000000000000000000000 PUSH1 0x0 MSTORE PUSH1 0x11 PUSH1 0x4 MSTORE PUSH1 0x24 PUSH1 0x0 REVERT JUMPDEST PUSH1 0x0 PUSH3 0x43B DUP3 PUSH3 0x3F5 JUMP JUMPDEST SWAP2 POP PUSH3 0x448 DUP4 PUSH3 0x3F5 JUMP JUMPDEST SWAP3 POP DUP3 DUP3 ADD SWAP1 POP DUP1 DUP3 GT ISZERO PUSH3 0x463 JUMPI PUSH3 0x462 PUSH3 0x3FF JUMP JUMPDEST JUMPDEST SWAP3 SWAP2 POP POP JUMP JUMPDEST PUSH1 0x0 DUP2 MLOAD SWAP1 POP SWAP2 SWAP1 POP JUMP JUMPDEST PUSH32 0x4E487B7100000000000000000000000000000000000000000000000000000000 PUSH1 0x0 MSTORE PUSH1 0x41 PUSH1 0x4 MSTORE PUSH1 0x24 PUSH1 0x0 REVERT JUMPDEST PUSH32 0x4E487B7100000000000000000000000000000000000000000000000000000000 PUSH1 0x0 MSTORE PUSH1 0x22 PUSH1 0x4 MSTORE PUSH1 0x24 PUSH1 0x0 REVERT JUMPDEST PUSH1 0x0 PUSH1 0x2 DUP3 DIV SWAP1 POP PUSH1 0x1 DUP3 AND DUP1 PUSH3 0x4EB JUMPI PUSH1 0x7F DUP3 AND SWAP2 POP JUMPDEST PUSH1 0x20 DUP3 LT DUP2 SUB PUSH3 0x501 JUMPI PUSH3 0x500 PUSH3 0x4A3 JUMP JUMPDEST JUMPDEST POP SWAP2 SWAP1 POP JUMP JUMPDEST PUSH1 0x0 DUP2 SWAP1 POP DUP2 PUSH1 0x0 MSTORE PUSH1 0x20 PUSH1 0x0 KECCAK256 SWAP1 POP SWAP2 SWAP1 POP JUMP JUMPDEST PUSH1 0x0 PUSH1 0x20 PUSH1 0x1F DUP4 ADD DIV SWAP1 POP SWAP2 SWAP1 POP JUMP JUMPDEST PUSH1 0x0 DUP3 DUP3 SHL SWAP1 POP SWAP3 SWAP2 POP POP JUMP JUMPDEST PUSH1 0x0 PUSH1 0x8 DUP4 MUL PUSH3 0x56B PUSH32 0xFFFFFFFFFFFFFFFFFFFFFFFFFFFFFFFFFFFFFFFFFFFFFFFFFFFFFFFFFFFFFFFF DUP3 PUSH3 0x52C JUMP JUMPDEST PUSH3 0x577 DUP7 DUP4 PUSH3 0x52C JUMP JUMPDEST SWAP6 POP DUP1 NOT DUP5 AND SWAP4 POP DUP1 DUP7 AND DUP5 OR SWAP3 POP POP POP SWAP4 SWAP3 POP POP POP JUMP JUMPDEST PUSH1 0x0 DUP2 SWAP1 POP SWAP2 SWAP1 POP JUMP JUMPDEST PUSH1 0x0 PUSH3 0x5BA PUSH3 0x5B4 PUSH3 0x5AE DUP5 PUSH3 0x3F5 JUMP JUMPDEST PUSH3 0x58F JUMP JUMPDEST PUSH3 0x3F5 JUMP JUMPDEST SWAP1 POP SWAP2 SWAP1 POP JUMP JUMPDEST PUSH1 0x0 DUP2 SWAP1 POP SWAP2 SWAP1 POP JUMP JUMPDEST PUSH3 0x5D6 DUP4 PUSH3 0x599 JUMP JUMPDEST PUSH3 0x5EE PUSH3 0x5E5 DUP3 PUSH3 0x5C1 JUMP JUMPDEST DUP5 DUP5 SLOAD PUSH3 0x539 JUMP JUMPDEST DUP3 SSTORE POP POP POP POP JUMP JUMPDEST PUSH1 0x0 SWAP1 JUMP JUMPDEST PUSH3 0x605 PUSH3 0x5F6 JUMP JUMPDEST PUSH3 0x612 DUP2 DUP5 DUP5 PUSH3 0x5CB JUMP JUMPDEST POP POP POP JUMP JUMPDEST JUMPDEST DUP2 DUP2 LT ISZERO PUSH3 0x63A JUMPI PUSH3 0x62E PUSH1 0x0 DUP3 PUSH3 0x5FB JUMP JUMPDEST PUSH1 0x1 DUP2 ADD SWAP1 POP PUSH3 0x618 JUMP JUMPDEST POP POP JUMP JUMPDEST PUSH1 0x1F DUP3 GT ISZERO PUSH3 0x689 JUMPI PUSH3 0x653 DUP2 PUSH3 0x507 JUMP JUMPDEST PUSH3 0x65E DUP5 PUSH3 0x51C JUMP JUMPDEST DUP2 ADD PUSH1 0x20 DUP6 LT ISZERO PUSH3 0x66E JUMPI DUP2 SWAP1 POP JUMPDEST PUSH3 0x686 PUSH3 0x67D DUP6 PUSH3 0x51C JUMP JUMPDEST DUP4 ADD DUP3 PUSH3 0x617 JUMP JUMPDEST POP POP JUMPDEST POP POP POP JUMP JUMPDEST PUSH1 0x0 DUP3 DUP3 SHR SWAP1 POP SWAP3 SWAP2 POP POP JUMP JUMPDEST PUSH1 0x0 PUSH3 0x6AE PUSH1 0x0 NOT DUP5 PUSH1 0x8 MUL PUSH3 0x68E JUMP JUMPDEST NOT DUP1 DUP4 AND SWAP2 POP POP SWAP3 SWAP2 POP POP JUMP JUMPDEST PUSH1 0x0 PUSH3 0x6C9 DUP4 DUP4 PUSH3 0x69B JUMP JUMPDEST SWAP2 POP DUP3 PUSH1 0x2 MUL DUP3 OR SWAP1 POP SWAP3 SWAP2 POP POP JUMP JUMPDEST PUSH3 0x6E4 DUP3 PUSH3 0x469 JUMP JUMPDEST PUSH8 0xFFFFFFFFFFFFFFFF DUP2 GT ISZERO PUSH3 0x700 JUMPI PUSH3 0x6FF PUSH3 0x474 JUMP JUMPDEST JUMPDEST PUSH3 0x70C DUP3 SLOAD PUSH3 0x4D2 JUMP JUMPDEST PUSH3 0x719 DUP3 DUP3 DUP6 PUSH3 0x63E JUMP JUMPDEST PUSH1 0x0 PUSH1 0x20 SWAP1 POP PUSH1 0x1F DUP4 GT PUSH1 0x1 DUP2 EQ PUSH3 0x751 JUMPI PUSH1 0x0 DUP5 ISZERO PUSH3 0x73C JUMPI DUP3 DUP8 ADD MLOAD SWAP1 POP JUMPDEST PUSH3 0x748 DUP6 DUP3 PUSH3 0x6BB JUMP JUMPDEST DUP7 SSTORE POP PUSH3 0x7B8 JUMP JUMPDEST PUSH1 0x1F NOT DUP5 AND PUSH3 0x761 DUP7 PUSH3 0x507 JUMP JUMPDEST PUSH1 0x0 JUMPDEST DUP3 DUP2 LT ISZERO PUSH3 0x78B JUMPI DUP5 DUP10 ADD MLOAD DUP3 SSTORE PUSH1 0x1 DUP3 ADD SWAP2 POP PUSH1 0x20 DUP6 ADD SWAP5 POP PUSH1 0x20 DUP2 ADD SWAP1 POP PUSH3 0x764 JUMP JUMPDEST DUP7 DUP4 LT ISZERO PUSH3 0x7AB JUMPI DUP5 DUP10 ADD MLOAD PUSH3 0x7A7 PUSH1 0x1F DUP10 AND DUP3 PUSH3 0x69B JUMP JUMPDEST DUP4 SSTORE POP JUMPDEST PUSH1 0x1 PUSH1 0x2 DUP9 MUL ADD DUP9 SSTORE POP POP POP JUMPDEST POP POP POP POP POP POP JUMP JUMPDEST PUSH1 0x0 DUP2 PUSH1 0x1 SHR SWAP1 POP SWAP2 SWAP1 POP JUMP JUMPDEST PUSH1 0x0 DUP1 DUP3 SWAP2 POP DUP4 SWAP1 POP JUMPDEST PUSH1 0x1 DUP6 GT ISZERO PUSH3 0x81F JUMPI DUP1 DUP7 DIV DUP2 GT ISZERO PUSH3 0x7F7 JUMPI PUSH3 0x7F6 PUSH3 0x3FF JUMP JUMPDEST JUMPDEST PUSH1 0x1 DUP6 AND ISZERO PUSH3 0x807 JUMPI DUP1 DUP3 MUL SWAP2 POP JUMPDEST DUP1 DUP2 MUL SWAP1 POP PUSH3 0x817 DUP6 PUSH3 0x7C0 JUMP JUMPDEST SWAP5 POP PUSH3 0x7D7 JUMP JUMPDEST SWAP5 POP SWAP5 SWAP3 POP POP POP JUMP JUMPDEST PUSH1 0x0 DUP3 PUSH3 0x83A JUMPI PUSH1 0x1 SWAP1 POP PUSH3 0x90D JUMP JUMPDEST DUP2 PUSH3 0x84A JUMPI PUSH1 0x0 SWAP1 POP PUSH3 0x90D JUMP JUMPDEST DUP2 PUSH1 0x1 DUP2 EQ PUSH3 0x863 JUMPI PUSH1 0x2 DUP2 EQ PUSH3 0x86E JUMPI PUSH3 0x8A4 JUMP JUMPDEST PUSH1 0x1 SWAP2 POP POP PUSH3 0x90D JUMP JUMPDEST PUSH1 0xFF DUP5 GT ISZERO PUSH3 0x883 JUMPI PUSH3 0x882 PUSH3 0x3FF JUMP JUMPDEST JUMPDEST DUP4 PUSH1 0x2 EXP SWAP2 POP DUP5 DUP3 GT ISZERO PUSH3 0x89D JUMPI PUSH3 0x89C PUSH3 0x3FF JUMP JUMPDEST JUMPDEST POP PUSH3 0x90D JUMP JUMPDEST POP PUSH1 0x20 DUP4 LT PUSH2 0x133 DUP4 LT AND PUSH1 0x4E DUP5 LT PUSH1 0xB DUP5 LT AND OR ISZERO PUSH3 0x8DE JUMPI DUP3 DUP3 EXP SWAP1 POP DUP4 DUP2 GT ISZERO PUSH3 0x8D8 JUMPI PUSH3 0x8D7 PUSH3 0x3FF JUMP JUMPDEST JUMPDEST PUSH3 0x90D JUMP JUMPDEST PUSH3 0x8ED DUP5 DUP5 DUP5 PUSH1 0x1 PUSH3 0x7CD JUMP JUMPDEST SWAP3 POP SWAP1 POP DUP2 DUP5 DIV DUP2 GT ISZERO PUSH3 0x907 JUMPI PUSH3 0x906 PUSH3 0x3FF JUMP JUMPDEST JUMPDEST DUP2 DUP2 MUL SWAP1 POP JUMPDEST SWAP4 SWAP3 POP POP POP JUMP JUMPDEST PUSH1 0x0 PUSH3 0x921 DUP3 PUSH3 0x3F5 JUMP JUMPDEST SWAP2 POP PUSH3 0x92E DUP4 PUSH3 0x3F5 JUMP JUMPDEST SWAP3 POP PUSH3 0x95D PUSH32 0xFFFFFFFFFFFFFFFFFFFFFFFFFFFFFFFFFFFFFFFFFFFFFFFFFFFFFFFFFFFFFFFF DUP5 DUP5 PUSH3 0x828 JUMP JUMPDEST SWAP1 POP SWAP3 SWAP2 POP POP JUMP JUMPDEST PUSH1 0x0 PUSH3 0x972 DUP3 PUSH3 0x3F5 JUMP JUMPDEST SWAP2 POP PUSH3 0x97F DUP4 PUSH3 0x3F5 JUMP JUMPDEST SWAP3 POP DUP3 DUP3 MUL PUSH3 0x98F DUP2 PUSH3 0x3F5 JUMP JUMPDEST SWAP2 POP DUP3 DUP3 DIV DUP5 EQ DUP4 ISZERO OR PUSH3 0x9A9 JUMPI PUSH3 0x9A8 PUSH3 0x3FF JUMP JUMPDEST JUMPDEST POP SWAP3 SWAP2 POP POP JUMP JUMPDEST PUSH3 0x9BB DUP2 PUSH3 0x3F5 JUMP JUMPDEST DUP3 MSTORE POP POP JUMP JUMPDEST PUSH1 0x0 PUSH1 0x40 DUP3 ADD SWAP1 POP PUSH3 0x9D8 PUSH1 0x0 DUP4 ADD DUP6 PUSH3 0x9B0 JUMP JUMPDEST PUSH3 0x9E7 PUSH1 0x20 DUP4 ADD DUP5 PUSH3 0x9B0 JUMP JUMPDEST SWAP4 SWAP3 POP POP POP JUMP JUMPDEST PUSH1 0x0 DUP3 DUP3 MSTORE PUSH1 0x20 DUP3 ADD SWAP1 POP SWAP3 SWAP2 POP POP JUMP JUMPDEST PUSH32 0x6F6E6C79206F776E65722063616E20706572666F726D2074686973206F706572 PUSH1 0x0 DUP3 ADD MSTORE PUSH32 0x6174696F6E000000000000000000000000000000000000000000000000000000 PUSH1 0x20 DUP3 ADD MSTORE POP JUMP JUMPDEST PUSH1 0x0 PUSH3 0xA5D PUSH1 0x25 DUP4 PUSH3 0x9EE JUMP JUMPDEST SWAP2 POP PUSH3 0xA6A DUP3 PUSH3 0x9FF JUMP JUMPDEST PUSH1 0x40 DUP3 ADD SWAP1 POP SWAP2 SWAP1 POP JUMP JUMPDEST PUSH1 0x0 PUSH1 0x20 DUP3 ADD SWAP1 POP DUP2 DUP2 SUB PUSH1 0x0 DUP4 ADD MSTORE PUSH3 0xA90 DUP2 PUSH3 0xA4E JUMP JUMPDEST SWAP1 POP SWAP2 SWAP1 POP JUMP JUMPDEST PUSH32 0x45524332303A206D696E7420746F20746865207A65726F206164647265737300 PUSH1 0x0 DUP3 ADD MSTORE POP JUMP JUMPDEST PUSH1 0x0 PUSH3 0xACF PUSH1 0x1F DUP4 PUSH3 0x9EE JUMP JUMPDEST SWAP2 POP PUSH3 0xADC DUP3 PUSH3 0xA97 JUMP JUMPDEST PUSH1 0x20 DUP3 ADD SWAP1 POP SWAP2 SWAP1 POP JUMP JUMPDEST PUSH1 0x0 PUSH1 0x20 DUP3 ADD SWAP1 POP DUP2 DUP2 SUB PUSH1 0x0 DUP4 ADD MSTORE PUSH3 0xB02 DUP2 PUSH3 0xAC0 JUMP JUMPDEST SWAP1 POP SWAP2 SWAP1 POP JUMP JUMPDEST PUSH1 0x0 PUSH1 0x20 DUP3 ADD SWAP1 POP PUSH3 0xB20 PUSH1 0x0 DUP4 ADD DUP5 PUSH3 0x9B0 JUMP JUMPDEST SWAP3 SWAP2 POP POP JUMP JUMPDEST PUSH1 0x80 MLOAD PUSH1 0xA0 MLOAD PUSH1 0xC0 MLOAD PUSH2 0x20FB PUSH3 0xB61 PUSH1 0x0 CODECOPY PUSH1 0x0 DUP2 DUP2 PUSH2 0x988 ADD MSTORE DUP2 DUP2 PUSH2 0xAC7 ADD MSTORE PUSH2 0xFCA ADD MSTORE PUSH1 0x0 POP POP PUSH1 0x0 PUSH2 0xBDB ADD MSTORE PUSH2 0x20FB PUSH1 0x0 RETURN INVALID PUSH1 0x80 PUSH1 0x40 MSTORE CALLVALUE DUP1 ISZERO PUSH2 0x10 JUMPI PUSH1 0x0 DUP1 REVERT JUMPDEST POP PUSH1 0x4 CALLDATASIZE LT PUSH2 0x137 JUMPI PUSH1 0x0 CALLDATALOAD PUSH1 0xE0 SHR DUP1 PUSH4 0x649D9BB4 GT PUSH2 0xB8 JUMPI DUP1 PUSH4 0xA6F9DAE1 GT PUSH2 0x7C JUMPI DUP1 PUSH4 0xA6F9DAE1 EQ PUSH2 0x36A JUMPI DUP1 PUSH4 0xA9059CBB EQ PUSH2 0x39A JUMPI DUP1 PUSH4 0xAE1457C2 EQ PUSH2 0x3CA JUMPI DUP1 PUSH4 0xDD62ED3E EQ PUSH2 0x3E8 JUMPI DUP1 PUSH4 0xFA36ED8C EQ PUSH2 0x418 JUMPI DUP1 PUSH4 0xFE10215C EQ PUSH2 0x436 JUMPI PUSH2 0x137 JUMP JUMPDEST DUP1 PUSH4 0x649D9BB4 EQ PUSH2 0x29E JUMPI DUP1 PUSH4 0x70A08231 EQ PUSH2 0x2CE JUMPI DUP1 PUSH4 0x80F474F6 EQ PUSH2 0x2FE JUMPI DUP1 PUSH4 0x95D89B41 EQ PUSH2 0x31C JUMPI DUP1 PUSH4 0x9DC29FAC EQ PUSH2 0x33A JUMPI PUSH2 0x137 JUMP JUMPDEST DUP1 PUSH4 0x313CE567 GT PUSH2 0xFF JUMPI DUP1 PUSH4 0x313CE567 EQ PUSH2 0x1F6 JUMPI DUP1 PUSH4 0x36E69B22 EQ PUSH2 0x214 JUMPI DUP1 PUSH4 0x40C10F19 EQ PUSH2 0x232 JUMPI DUP1 PUSH4 0x4EFEABBF EQ PUSH2 0x262 JUMPI DUP1 PUSH4 0x51F48CBB EQ PUSH2 0x280 JUMPI PUSH2 0x137 JUMP JUMPDEST DUP1 PUSH4 0x6FDDE03 EQ PUSH2 0x13C JUMPI DUP1 PUSH4 0x95EA7B3 EQ PUSH2 0x15A JUMPI DUP1 PUSH4 0x18160DDD EQ PUSH2 0x18A JUMPI DUP1 PUSH4 0x220F52C5 EQ PUSH2 0x1A8 JUMPI DUP1 PUSH4 0x23B872DD EQ PUSH2 0x1C6 JUMPI JUMPDEST PUSH1 0x0 DUP1 REVERT JUMPDEST PUSH2 0x144 PUSH2 0x466 JUMP JUMPDEST PUSH1 0x40 MLOAD PUSH2 0x151 SWAP2 SWAP1 PUSH2 0x1623 JUMP JUMPDEST PUSH1 0x40 MLOAD DUP1 SWAP2 SUB SWAP1 RETURN JUMPDEST PUSH2 0x174 PUSH1 0x4 DUP1 CALLDATASIZE SUB DUP2 ADD SWAP1 PUSH2 0x16F SWAP2 SWAP1 PUSH2 0x16ED JUMP JUMPDEST PUSH2 0x4F8 JUMP JUMPDEST PUSH1 0x40 MLOAD PUSH2 0x181 SWAP2 SWAP1 PUSH2 0x1748 JUMP JUMPDEST PUSH1 0x40 MLOAD DUP1 SWAP2 SUB SWAP1 RETURN JUMPDEST PUSH2 0x192 PUSH2 0x5EA JUMP JUMPDEST PUSH1 0x40 MLOAD PUSH2 0x19F SWAP2 SWAP1 PUSH2 0x1772 JUMP JUMPDEST PUSH1 0x40 MLOAD DUP1 SWAP2 SUB SWAP1 RETURN JUMPDEST PUSH2 0x1B0 PUSH2 0x5F4 JUMP JUMPDEST PUSH1 0x40 MLOAD PUSH2 0x1BD SWAP2 SWAP1 PUSH2 0x179C JUMP JUMPDEST PUSH1 0x40 MLOAD DUP1 SWAP2 SUB SWAP1 RETURN JUMPDEST PUSH2 0x1E0 PUSH1 0x4 DUP1 CALLDATASIZE SUB DUP2 ADD SWAP1 PUSH2 0x1DB SWAP2 SWAP1 PUSH2 0x17B7 JUMP JUMPDEST PUSH2 0x61D JUMP JUMPDEST PUSH1 0x40 MLOAD PUSH2 0x1ED SWAP2 SWAP1 PUSH2 0x1748 JUMP JUMPDEST PUSH1 0x40 MLOAD DUP1 SWAP2 SUB SWAP1 RETURN JUMPDEST PUSH2 0x1FE PUSH2 0x97E JUMP JUMPDEST PUSH1 0x40 MLOAD PUSH2 0x20B SWAP2 SWAP1 PUSH2 0x1772 JUMP JUMPDEST PUSH1 0x40 MLOAD DUP1 SWAP2 SUB SWAP1 RETURN JUMPDEST PUSH2 0x21C PUSH2 0x984 JUMP JUMPDEST PUSH1 0x40 MLOAD PUSH2 0x229 SWAP2 SWAP1 PUSH2 0x1772 JUMP JUMPDEST PUSH1 0x40 MLOAD DUP1 SWAP2 SUB SWAP1 RETURN JUMPDEST PUSH2 0x24C PUSH1 0x4 DUP1 CALLDATASIZE SUB DUP2 ADD SWAP1 PUSH2 0x247 SWAP2 SWAP1 PUSH2 0x16ED JUMP JUMPDEST PUSH2 0x9AC JUMP JUMPDEST PUSH1 0x40 MLOAD PUSH2 0x259 SWAP2 SWAP1 PUSH2 0x1748 JUMP JUMPDEST PUSH1 0x40 MLOAD DUP1 SWAP2 SUB SWAP1 RETURN JUMPDEST PUSH2 0x26A PUSH2 0xBCF JUMP JUMPDEST PUSH1 0x40 MLOAD PUSH2 0x277 SWAP2 SWAP1 PUSH2 0x1869 JUMP JUMPDEST PUSH1 0x40 MLOAD DUP1 SWAP2 SUB SWAP1 RETURN JUMPDEST PUSH2 0x288 PUSH2 0xBD7 JUMP JUMPDEST PUSH1 0x40 MLOAD PUSH2 0x295 SWAP2 SWAP1 PUSH2 0x1772 JUMP JUMPDEST PUSH1 0x40 MLOAD DUP1 SWAP2 SUB SWAP1 RETURN JUMPDEST PUSH2 0x2B8 PUSH1 0x4 DUP1 CALLDATASIZE SUB DUP2 ADD SWAP1 PUSH2 0x2B3 SWAP2 SWAP1 PUSH2 0x18BE JUMP JUMPDEST PUSH2 0xBFF JUMP JUMPDEST PUSH1 0x40 MLOAD PUSH2 0x2C5 SWAP2 SWAP1 PUSH2 0x1748 JUMP JUMPDEST PUSH1 0x40 MLOAD DUP1 SWAP2 SUB SWAP1 RETURN JUMPDEST PUSH2 0x2E8 PUSH1 0x4 DUP1 CALLDATASIZE SUB DUP2 ADD SWAP1 PUSH2 0x2E3 SWAP2 SWAP1 PUSH2 0x18EB JUMP JUMPDEST PUSH2 0xCEC JUMP JUMPDEST PUSH1 0x40 MLOAD PUSH2 0x2F5 SWAP2 SWAP1 PUSH2 0x1772 JUMP JUMPDEST PUSH1 0x40 MLOAD DUP1 SWAP2 SUB SWAP1 RETURN JUMPDEST PUSH2 0x306 PUSH2 0xD35 JUMP JUMPDEST PUSH1 0x40 MLOAD PUSH2 0x313 SWAP2 SWAP1 PUSH2 0x1623 JUMP JUMPDEST PUSH1 0x40 MLOAD DUP1 SWAP2 SUB SWAP1 RETURN JUMPDEST PUSH2 0x324 PUSH2 0xDC7 JUMP JUMPDEST PUSH1 0x40 MLOAD PUSH2 0x331 SWAP2 SWAP1 PUSH2 0x1623 JUMP JUMPDEST PUSH1 0x40 MLOAD DUP1 SWAP2 SUB SWAP1 RETURN JUMPDEST PUSH2 0x354 PUSH1 0x4 DUP1 CALLDATASIZE SUB DUP2 ADD SWAP1 PUSH2 0x34F SWAP2 SWAP1 PUSH2 0x16ED JUMP JUMPDEST PUSH2 0xE59 JUMP JUMPDEST PUSH1 0x40 MLOAD PUSH2 0x361 SWAP2 SWAP1 PUSH2 0x1748 JUMP JUMPDEST PUSH1 0x40 MLOAD DUP1 SWAP2 SUB SWAP1 RETURN JUMPDEST PUSH2 0x384 PUSH1 0x4 DUP1 CALLDATASIZE SUB DUP2 ADD SWAP1 PUSH2 0x37F SWAP2 SWAP1 PUSH2 0x18EB JUMP JUMPDEST PUSH2 0x107C JUMP JUMPDEST PUSH1 0x40 MLOAD PUSH2 0x391 SWAP2 SWAP1 PUSH2 0x1748 JUMP JUMPDEST PUSH1 0x40 MLOAD DUP1 SWAP2 SUB SWAP1 RETURN JUMPDEST PUSH2 0x3B4 PUSH1 0x4 DUP1 CALLDATASIZE SUB DUP2 ADD SWAP1 PUSH2 0x3AF SWAP2 SWAP1 PUSH2 0x16ED JUMP JUMPDEST PUSH2 0x11C5 JUMP JUMPDEST PUSH1 0x40 MLOAD PUSH2 0x3C1 SWAP2 SWAP1 PUSH2 0x1748 JUMP JUMPDEST PUSH1 0x40 MLOAD DUP1 SWAP2 SUB SWAP1 RETURN JUMPDEST PUSH2 0x3D2 PUSH2 0x13C6 JUMP JUMPDEST PUSH1 0x40 MLOAD PUSH2 0x3DF SWAP2 SWAP1 PUSH2 0x1772 JUMP JUMPDEST PUSH1 0x40 MLOAD DUP1 SWAP2 SUB SWAP1 RETURN JUMPDEST PUSH2 0x402 PUSH1 0x4 DUP1 CALLDATASIZE SUB DUP2 ADD SWAP1 PUSH2 0x3FD SWAP2 SWAP1 PUSH2 0x1918 JUMP JUMPDEST PUSH2 0x13D0 JUMP JUMPDEST PUSH1 0x40 MLOAD PUSH2 0x40F SWAP2 SWAP1 PUSH2 0x1772 JUMP JUMPDEST PUSH1 0x40 MLOAD DUP1 SWAP2 SUB SWAP1 RETURN JUMPDEST PUSH2 0x420 PUSH2 0x1457 JUMP JUMPDEST PUSH1 0x40 MLOAD PUSH2 0x42D SWAP2 SWAP1 PUSH2 0x1623 JUMP JUMPDEST PUSH1 0x40 MLOAD DUP1 SWAP2 SUB SWAP1 RETURN JUMPDEST PUSH2 0x450 PUSH1 0x4 DUP1 CALLDATASIZE SUB DUP2 ADD SWAP1 PUSH2 0x44B SWAP2 SWAP1 PUSH2 0x1A8D JUMP JUMPDEST PUSH2 0x14E9 JUMP JUMPDEST PUSH1 0x40 MLOAD PUSH2 0x45D SWAP2 SWAP1 PUSH2 0x1748 JUMP JUMPDEST PUSH1 0x40 MLOAD DUP1 SWAP2 SUB SWAP1 RETURN JUMPDEST PUSH1 0x60 PUSH1 0x2 DUP1 SLOAD PUSH2 0x475 SWAP1 PUSH2 0x1B05 JUMP JUMPDEST DUP1 PUSH1 0x1F ADD PUSH1 0x20 DUP1 SWAP2 DIV MUL PUSH1 0x20 ADD PUSH1 0x40 MLOAD SWAP1 DUP2 ADD PUSH1 0x40 MSTORE DUP1 SWAP3 SWAP2 SWAP1 DUP2 DUP2 MSTORE PUSH1 0x20 ADD DUP3 DUP1 SLOAD PUSH2 0x4A1 SWAP1 PUSH2 0x1B05 JUMP JUMPDEST DUP1 ISZERO PUSH2 0x4EE JUMPI DUP1 PUSH1 0x1F LT PUSH2 0x4C3 JUMPI PUSH2 0x100 DUP1 DUP4 SLOAD DIV MUL DUP4 MSTORE SWAP2 PUSH1 0x20 ADD SWAP2 PUSH2 0x4EE JUMP JUMPDEST DUP3 ADD SWAP2 SWAP1 PUSH1 0x0 MSTORE PUSH1 0x20 PUSH1 0x0 KECCAK256 SWAP1 JUMPDEST DUP2 SLOAD DUP2 MSTORE SWAP1 PUSH1 0x1 ADD SWAP1 PUSH1 0x20 ADD DUP1 DUP4 GT PUSH2 0x4D1 JUMPI DUP3 SWAP1 SUB PUSH1 0x1F AND DUP3 ADD SWAP2 JUMPDEST POP POP POP POP POP SWAP1 POP SWAP1 JUMP JUMPDEST PUSH1 0x0 DUP2 PUSH1 0x9 PUSH1 0x0 CALLER PUSH20 0xFFFFFFFFFFFFFFFFFFFFFFFFFFFFFFFFFFFFFFFF AND PUSH20 0xFFFFFFFFFFFFFFFFFFFFFFFFFFFFFFFFFFFFFFFF AND DUP2 MSTORE PUSH1 0x20 ADD SWAP1 DUP2 MSTORE PUSH1 0x20 ADD PUSH1 0x0 KECCAK256 PUSH1 0x0 DUP6 PUSH20 0xFFFFFFFFFFFFFFFFFFFFFFFFFFFFFFFFFFFFFFFF AND PUSH20 0xFFFFFFFFFFFFFFFFFFFFFFFFFFFFFFFFFFFFFFFF AND DUP2 MSTORE PUSH1 0x20 ADD SWAP1 DUP2 MSTORE PUSH1 0x20 ADD PUSH1 0x0 KECCAK256 DUP2 SWAP1 SSTORE POP DUP3 PUSH20 0xFFFFFFFFFFFFFFFFFFFFFFFFFFFFFFFFFFFFFFFF AND CALLER PUSH20 0xFFFFFFFFFFFFFFFFFFFFFFFFFFFFFFFFFFFFFFFF AND PUSH32 0x8C5BE1E5EBEC7D5BD14F71427D1E84F3DD0314C0F7B2291E5B200AC8C7C3B925 DUP5 PUSH1 0x40 MLOAD PUSH2 0x5D8 SWAP2 SWAP1 PUSH2 0x1772 JUMP JUMPDEST PUSH1 0x40 MLOAD DUP1 SWAP2 SUB SWAP1 LOG3 PUSH1 0x1 SWAP1 POP SWAP3 SWAP2 POP POP JUMP JUMPDEST PUSH1 0x0 PUSH1 0x5 SLOAD SWAP1 POP SWAP1 JUMP JUMPDEST PUSH1 0x0 DUP1 PUSH1 0x0 SWAP1 SLOAD SWAP1 PUSH2 0x100 EXP SWAP1 DIV PUSH20 0xFFFFFFFFFFFFFFFFFFFFFFFFFFFFFFFFFFFFFFFF AND SWAP1 POP SWAP1 JUMP JUMPDEST PUSH1 0x0 DUP4 DUP3 PUSH1 0x0 PUSH1 0x8 PUSH1 0x0 DUP5 PUSH20 0xFFFFFFFFFFFFFFFFFFFFFFFFFFFFFFFFFFFFFFFF AND PUSH20 0xFFFFFFFFFFFFFFFFFFFFFFFFFFFFFFFFFFFFFFFF AND DUP2 MSTORE PUSH1 0x20 ADD SWAP1 DUP2 MSTORE PUSH1 0x20 ADD PUSH1 0x0 KECCAK256 SLOAD SWAP1 POP DUP2 DUP2 LT ISZERO PUSH2 0x672 JUMPI PUSH1 0x0 DUP1 REVERT JUMPDEST CALLER DUP8 DUP7 PUSH1 0x9 PUSH1 0x0 DUP4 PUSH20 0xFFFFFFFFFFFFFFFFFFFFFFFFFFFFFFFFFFFFFFFF AND PUSH20 0xFFFFFFFFFFFFFFFFFFFFFFFFFFFFFFFFFFFFFFFF AND DUP2 MSTORE PUSH1 0x20 ADD SWAP1 DUP2 MSTORE PUSH1 0x20 ADD PUSH1 0x0 KECCAK256 PUSH1 0x0 DUP5 PUSH20 0xFFFFFFFFFFFFFFFFFFFFFFFFFFFFFFFFFFFFFFFF AND PUSH20 0xFFFFFFFFFFFFFFFFFFFFFFFFFFFFFFFFFFFFFFFF AND DUP2 MSTORE PUSH1 0x20 ADD SWAP1 DUP2 MSTORE PUSH1 0x20 ADD PUSH1 0x0 KECCAK256 SLOAD DUP2 GT ISZERO PUSH2 0x6FE JUMPI PUSH1 0x0 DUP1 REVERT JUMPDEST DUP8 PUSH1 0x0 DUP2 GT PUSH2 0x70C JUMPI PUSH1 0x0 DUP1 REVERT JUMPDEST PUSH1 0x5 SLOAD DUP2 GT ISZERO PUSH2 0x71B JUMPI PUSH1 0x0 DUP1 REVERT JUMPDEST DUP9 PUSH1 0x8 PUSH1 0x0 DUP14 PUSH20 0xFFFFFFFFFFFFFFFFFFFFFFFFFFFFFFFFFFFFFFFF AND PUSH20 0xFFFFFFFFFFFFFFFFFFFFFFFFFFFFFFFFFFFFFFFF AND DUP2 MSTORE PUSH1 0x20 ADD SWAP1 DUP2 MSTORE PUSH1 0x20 ADD PUSH1 0x0 KECCAK256 SLOAD PUSH2 0x766 SWAP2 SWAP1 PUSH2 0x1B65 JUMP JUMPDEST PUSH1 0x8 PUSH1 0x0 DUP14 PUSH20 0xFFFFFFFFFFFFFFFFFFFFFFFFFFFFFFFFFFFFFFFF AND PUSH20 0xFFFFFFFFFFFFFFFFFFFFFFFFFFFFFFFFFFFFFFFF AND DUP2 MSTORE PUSH1 0x20 ADD SWAP1 DUP2 MSTORE PUSH1 0x20 ADD PUSH1 0x0 KECCAK256 DUP2 SWAP1 SSTORE POP DUP9 PUSH1 0x8 PUSH1 0x0 DUP13 PUSH20 0xFFFFFFFFFFFFFFFFFFFFFFFFFFFFFFFFFFFFFFFF AND PUSH20 0xFFFFFFFFFFFFFFFFFFFFFFFFFFFFFFFFFFFFFFFF AND DUP2 MSTORE PUSH1 0x20 ADD SWAP1 DUP2 MSTORE PUSH1 0x20 ADD PUSH1 0x0 KECCAK256 PUSH1 0x0 DUP3 DUP3 SLOAD PUSH2 0x7F8 SWAP2 SWAP1 PUSH2 0x1B99 JUMP JUMPDEST SWAP3 POP POP DUP2 SWAP1 SSTORE POP DUP9 PUSH1 0x9 PUSH1 0x0 DUP14 PUSH20 0xFFFFFFFFFFFFFFFFFFFFFFFFFFFFFFFFFFFFFFFF AND PUSH20 0xFFFFFFFFFFFFFFFFFFFFFFFFFFFFFFFFFFFFFFFF AND DUP2 MSTORE PUSH1 0x20 ADD SWAP1 DUP2 MSTORE PUSH1 0x20 ADD PUSH1 0x0 KECCAK256 PUSH1 0x0 CALLER PUSH20 0xFFFFFFFFFFFFFFFFFFFFFFFFFFFFFFFFFFFFFFFF AND PUSH20 0xFFFFFFFFFFFFFFFFFFFFFFFFFFFFFFFFFFFFFFFF AND DUP2 MSTORE PUSH1 0x20 ADD SWAP1 DUP2 MSTORE PUSH1 0x20 ADD PUSH1 0x0 KECCAK256 SLOAD PUSH2 0x887 SWAP2 SWAP1 PUSH2 0x1B65 JUMP JUMPDEST PUSH1 0x9 PUSH1 0x0 DUP14 PUSH20 0xFFFFFFFFFFFFFFFFFFFFFFFFFFFFFFFFFFFFFFFF AND PUSH20 0xFFFFFFFFFFFFFFFFFFFFFFFFFFFFFFFFFFFFFFFF AND DUP2 MSTORE PUSH1 0x20 ADD SWAP1 DUP2 MSTORE PUSH1 0x20 ADD PUSH1 0x0 KECCAK256 PUSH1 0x0 CALLER PUSH20 0xFFFFFFFFFFFFFFFFFFFFFFFFFFFFFFFFFFFFFFFF AND PUSH20 0xFFFFFFFFFFFFFFFFFFFFFFFFFFFFFFFFFFFFFFFF AND DUP2 MSTORE PUSH1 0x20 ADD SWAP1 DUP2 MSTORE PUSH1 0x20 ADD PUSH1 0x0 KECCAK256 DUP2 SWAP1 SSTORE POP DUP10 PUSH20 0xFFFFFFFFFFFFFFFFFFFFFFFFFFFFFFFFFFFFFFFF AND DUP12 PUSH20 0xFFFFFFFFFFFFFFFFFFFFFFFFFFFFFFFFFFFFFFFF AND PUSH32 0xDDF252AD1BE2C89B69C2B068FC378DAA952BA7F163C4A11628F55A4DF523B3EF DUP12 PUSH1 0x40 MLOAD PUSH2 0x964 SWAP2 SWAP1 PUSH2 0x1772 JUMP JUMPDEST PUSH1 0x40 MLOAD DUP1 SWAP2 SUB SWAP1 LOG3 PUSH1 0x1 SWAP8 POP POP POP POP POP POP POP POP SWAP4 SWAP3 POP POP POP JUMP JUMPDEST PUSH1 0x4 SLOAD DUP2 JUMP JUMPDEST PUSH1 0x0 PUSH32 0x0 SWAP1 POP SWAP1 JUMP JUMPDEST PUSH1 0x0 DUP1 PUSH1 0x0 SWAP1 SLOAD SWAP1 PUSH2 0x100 EXP SWAP1 DIV PUSH20 0xFFFFFFFFFFFFFFFFFFFFFFFFFFFFFFFFFFFFFFFF AND PUSH20 0xFFFFFFFFFFFFFFFFFFFFFFFFFFFFFFFFFFFFFFFF AND CALLER PUSH20 0xFFFFFFFFFFFFFFFFFFFFFFFFFFFFFFFFFFFFFFFF AND EQ PUSH2 0xA3D JUMPI PUSH1 0x40 MLOAD PUSH32 0x8C379A000000000000000000000000000000000000000000000000000000000 DUP2 MSTORE PUSH1 0x4 ADD PUSH2 0xA34 SWAP1 PUSH2 0x1C3F JUMP JUMPDEST PUSH1 0x40 MLOAD DUP1 SWAP2 SUB SWAP1 REVERT JUMPDEST PUSH1 0x0 PUSH20 0xFFFFFFFFFFFFFFFFFFFFFFFFFFFFFFFFFFFFFFFF AND DUP4 PUSH20 0xFFFFFFFFFFFFFFFFFFFFFFFFFFFFFFFFFFFFFFFF AND SUB PUSH2 0xAAC JUMPI PUSH1 0x40 MLOAD PUSH32 0x8C379A000000000000000000000000000000000000000000000000000000000 DUP2 MSTORE PUSH1 0x4 ADD PUSH2 0xAA3 SWAP1 PUSH2 0x1CAB JUMP JUMPDEST PUSH1 0x40 MLOAD DUP1 SWAP2 SUB SWAP1 REVERT JUMPDEST DUP2 PUSH1 0x5 PUSH1 0x0 DUP3 DUP3 SLOAD PUSH2 0xABE SWAP2 SWAP1 PUSH2 0x1B99 JUMP JUMPDEST SWAP3 POP POP DUP2 SWAP1 SSTORE POP PUSH32 0x0 DUP3 PUSH2 0xAF1 SWAP2 SWAP1 PUSH2 0x1CCB JUMP JUMPDEST PUSH1 0x6 PUSH1 0x0 DUP3 DUP3 SLOAD PUSH2 0xB02 SWAP2 SWAP1 PUSH2 0x1B99 JUMP JUMPDEST SWAP3 POP POP DUP2 SWAP1 SSTORE POP DUP2 PUSH1 0x8 PUSH1 0x0 DUP6 PUSH20 0xFFFFFFFFFFFFFFFFFFFFFFFFFFFFFFFFFFFFFFFF AND PUSH20 0xFFFFFFFFFFFFFFFFFFFFFFFFFFFFFFFFFFFFFFFF AND DUP2 MSTORE PUSH1 0x20 ADD SWAP1 DUP2 MSTORE PUSH1 0x20 ADD PUSH1 0x0 KECCAK256 PUSH1 0x0 DUP3 DUP3 SLOAD PUSH2 0xB58 SWAP2 SWAP1 PUSH2 0x1B99 JUMP JUMPDEST SWAP3 POP POP DUP2 SWAP1 SSTORE POP DUP3 PUSH20 0xFFFFFFFFFFFFFFFFFFFFFFFFFFFFFFFFFFFFFFFF AND PUSH1 0x0 PUSH20 0xFFFFFFFFFFFFFFFFFFFFFFFFFFFFFFFFFFFFFFFF AND PUSH32 0xDDF252AD1BE2C89B69C2B068FC378DAA952BA7F163C4A11628F55A4DF523B3EF DUP5 PUSH1 0x40 MLOAD PUSH2 0xBBD SWAP2 SWAP1 PUSH2 0x1772 JUMP JUMPDEST PUSH1 0x40 MLOAD DUP1 SWAP2 SUB SWAP1 LOG3 PUSH1 0x1 SWAP1 POP SWAP3 SWAP2 POP POP JUMP JUMPDEST PUSH1 0x0 ADDRESS SWAP1 POP SWAP1 JUMP JUMPDEST PUSH1 0x0 PUSH32 0x0 SWAP1 POP SWAP1 JUMP JUMPDEST PUSH1 0x0 DUP1 PUSH1 0x0 SWAP1 SLOAD SWAP1 PUSH2 0x100 EXP SWAP1 DIV PUSH20 0xFFFFFFFFFFFFFFFFFFFFFFFFFFFFFFFFFFFFFFFF AND PUSH20 0xFFFFFFFFFFFFFFFFFFFFFFFFFFFFFFFFFFFFFFFF AND CALLER PUSH20 0xFFFFFFFFFFFFFFFFFFFFFFFFFFFFFFFFFFFFFFFF AND EQ PUSH2 0xC90 JUMPI PUSH1 0x40 MLOAD PUSH32 0x8C379A000000000000000000000000000000000000000000000000000000000 DUP2 MSTORE PUSH1 0x4 ADD PUSH2 0xC87 SWAP1 PUSH2 0x1C3F JUMP JUMPDEST PUSH1 0x40 MLOAD DUP1 SWAP2 SUB SWAP1 REVERT JUMPDEST PUSH1 0x64 DUP3 PUSH2 0xFFFF AND LT ISZERO PUSH2 0xCD8 JUMPI PUSH1 0x40 MLOAD PUSH32 0x8C379A000000000000000000000000000000000000000000000000000000000 DUP2 MSTORE PUSH1 0x4 ADD PUSH2 0xCCF SWAP1 PUSH2 0x1D59 JUMP JUMPDEST PUSH1 0x40 MLOAD DUP1 SWAP2 SUB SWAP1 REVERT JUMPDEST DUP2 PUSH2 0xFFFF AND PUSH1 0x5 DUP2 SWAP1 SSTORE POP PUSH1 0x1 SWAP1 POP SWAP2 SWAP1 POP JUMP JUMPDEST PUSH1 0x0 PUSH1 0x8 PUSH1 0x0 DUP4 PUSH20 0xFFFFFFFFFFFFFFFFFFFFFFFFFFFFFFFFFFFFFFFF AND PUSH20 0xFFFFFFFFFFFFFFFFFFFFFFFFFFFFFFFFFFFFFFFF AND DUP2 MSTORE PUSH1 0x20 ADD SWAP1 DUP2 MSTORE PUSH1 0x20 ADD PUSH1 0x0 KECCAK256 SLOAD SWAP1 POP SWAP2 SWAP1 POP JUMP JUMPDEST PUSH1 0x60 PUSH1 0x7 DUP1 SLOAD PUSH2 0xD44 SWAP1 PUSH2 0x1B05 JUMP JUMPDEST DUP1 PUSH1 0x1F ADD PUSH1 0x20 DUP1 SWAP2 DIV MUL PUSH1 0x20 ADD PUSH1 0x40 MLOAD SWAP1 DUP2 ADD PUSH1 0x40 MSTORE DUP1 SWAP3 SWAP2 SWAP1 DUP2 DUP2 MSTORE PUSH1 0x20 ADD DUP3 DUP1 SLOAD PUSH2 0xD70 SWAP1 PUSH2 0x1B05 JUMP JUMPDEST DUP1 ISZERO PUSH2 0xDBD JUMPI DUP1 PUSH1 0x1F LT PUSH2 0xD92 JUMPI PUSH2 0x100 DUP1 DUP4 SLOAD DIV MUL DUP4 MSTORE SWAP2 PUSH1 0x20 ADD SWAP2 PUSH2 0xDBD JUMP JUMPDEST DUP3 ADD SWAP2 SWAP1 PUSH1 0x0 MSTORE PUSH1 0x20 PUSH1 0x0 KECCAK256 SWAP1 JUMPDEST DUP2 SLOAD DUP2 MSTORE SWAP1 PUSH1 0x1 ADD SWAP1 PUSH1 0x20 ADD DUP1 DUP4 GT PUSH2 0xDA0 JUMPI DUP3 SWAP1 SUB PUSH1 0x1F AND DUP3 ADD SWAP2 JUMPDEST POP POP POP POP POP SWAP1 POP SWAP1 JUMP JUMPDEST PUSH1 0x60 PUSH1 0x3 DUP1 SLOAD PUSH2 0xDD6 SWAP1 PUSH2 0x1B05 JUMP JUMPDEST DUP1 PUSH1 0x1F ADD PUSH1 0x20 DUP1 SWAP2 DIV MUL PUSH1 0x20 ADD PUSH1 0x40 MLOAD SWAP1 DUP2 ADD PUSH1 0x40 MSTORE DUP1 SWAP3 SWAP2 SWAP1 DUP2 DUP2 MSTORE PUSH1 0x20 ADD DUP3 DUP1 SLOAD PUSH2 0xE02 SWAP1 PUSH2 0x1B05 JUMP JUMPDEST DUP1 ISZERO PUSH2 0xE4F JUMPI DUP1 PUSH1 0x1F LT PUSH2 0xE24 JUMPI PUSH2 0x100 DUP1 DUP4 SLOAD DIV MUL DUP4 MSTORE SWAP2 PUSH1 0x20 ADD SWAP2 PUSH2 0xE4F JUMP JUMPDEST DUP3 ADD SWAP2 SWAP1 PUSH1 0x0 MSTORE PUSH1 0x20 PUSH1 0x0 KECCAK256 SWAP1 JUMPDEST DUP2 SLOAD DUP2 MSTORE SWAP1 PUSH1 0x1 ADD SWAP1 PUSH1 0x20 ADD DUP1 DUP4 GT PUSH2 0xE32 JUMPI DUP3 SWAP1 SUB PUSH1 0x1F AND DUP3 ADD SWAP2 JUMPDEST POP POP POP POP POP SWAP1 POP SWAP1 JUMP JUMPDEST PUSH1 0x0 DUP1 PUSH1 0x0 SWAP1 SLOAD SWAP1 PUSH2 0x100 EXP SWAP1 DIV PUSH20 0xFFFFFFFFFFFFFFFFFFFFFFFFFFFFFFFFFFFFFFFF AND PUSH20 0xFFFFFFFFFFFFFFFFFFFFFFFFFFFFFFFFFFFFFFFF AND CALLER PUSH20 0xFFFFFFFFFFFFFFFFFFFFFFFFFFFFFFFFFFFFFFFF AND EQ PUSH2 0xEEA JUMPI PUSH1 0x40 MLOAD PUSH32 0x8C379A000000000000000000000000000000000000000000000000000000000 DUP2 MSTORE PUSH1 0x4 ADD PUSH2 0xEE1 SWAP1 PUSH2 0x1C3F JUMP JUMPDEST PUSH1 0x40 MLOAD DUP1 SWAP2 SUB SWAP1 REVERT JUMPDEST PUSH1 0x0 PUSH20 0xFFFFFFFFFFFFFFFFFFFFFFFFFFFFFFFFFFFFFFFF AND DUP4 PUSH20 0xFFFFFFFFFFFFFFFFFFFFFFFFFFFFFFFFFFFFFFFF AND SUB PUSH2 0xF59 JUMPI PUSH1 0x40 MLOAD PUSH32 0x8C379A000000000000000000000000000000000000000000000000000000000 DUP2 MSTORE PUSH1 0x4 ADD PUSH2 0xF50 SWAP1 PUSH2 0x1DC5 JUMP JUMPDEST PUSH1 0x40 MLOAD DUP1 SWAP2 SUB SWAP1 REVERT JUMPDEST DUP2 PUSH1 0x8 PUSH1 0x0 DUP6 PUSH20 0xFFFFFFFFFFFFFFFFFFFFFFFFFFFFFFFFFFFFFFFF AND PUSH20 0xFFFFFFFFFFFFFFFFFFFFFFFFFFFFFFFFFFFFFFFF AND DUP2 MSTORE PUSH1 0x20 ADD SWAP1 DUP2 MSTORE PUSH1 0x20 ADD PUSH1 0x0 KECCAK256 PUSH1 0x0 DUP3 DUP3 SLOAD PUSH2 0xFA8 SWAP2 SWAP1 PUSH2 0x1B65 JUMP JUMPDEST SWAP3 POP POP DUP2 SWAP1 SSTORE POP DUP2 PUSH1 0x5 PUSH1 0x0 DUP3 DUP3 SLOAD PUSH2 0xFC1 SWAP2 SWAP1 PUSH2 0x1B65 JUMP JUMPDEST SWAP3 POP POP DUP2 SWAP1 SSTORE POP PUSH32 0x0 DUP3 PUSH2 0xFF4 SWAP2 SWAP1 PUSH2 0x1CCB JUMP JUMPDEST PUSH1 0x6 PUSH1 0x0 DUP3 DUP3 SLOAD PUSH2 0x1005 SWAP2 SWAP1 PUSH2 0x1B65 JUMP JUMPDEST SWAP3 POP POP DUP2 SWAP1 SSTORE POP PUSH1 0x0 PUSH20 0xFFFFFFFFFFFFFFFFFFFFFFFFFFFFFFFFFFFFFFFF AND DUP4 PUSH20 0xFFFFFFFFFFFFFFFFFFFFFFFFFFFFFFFFFFFFFFFF AND PUSH32 0xDDF252AD1BE2C89B69C2B068FC378DAA952BA7F163C4A11628F55A4DF523B3EF DUP5 PUSH1 0x40 MLOAD PUSH2 0x106A SWAP2 SWAP1 PUSH2 0x1772 JUMP JUMPDEST PUSH1 0x40 MLOAD DUP1 SWAP2 SUB SWAP1 LOG3 PUSH1 0x1 SWAP1 POP SWAP3 SWAP2 POP POP JUMP JUMPDEST PUSH1 0x0 DUP1 PUSH1 0x0 SWAP1 SLOAD SWAP1 PUSH2 0x100 EXP SWAP1 DIV PUSH20 0xFFFFFFFFFFFFFFFFFFFFFFFFFFFFFFFFFFFFFFFF AND PUSH20 0xFFFFFFFFFFFFFFFFFFFFFFFFFFFFFFFFFFFFFFFF AND CALLER PUSH20 0xFFFFFFFFFFFFFFFFFFFFFFFFFFFFFFFFFFFFFFFF AND EQ PUSH2 0x110D JUMPI PUSH1 0x40 MLOAD PUSH32 0x8C379A000000000000000000000000000000000000000000000000000000000 DUP2 MSTORE PUSH1 0x4 ADD PUSH2 0x1104 SWAP1 PUSH2 0x1C3F JUMP JUMPDEST PUSH1 0x40 MLOAD DUP1 SWAP2 SUB SWAP1 REVERT JUMPDEST PUSH1 0x0 PUSH20 0xFFFFFFFFFFFFFFFFFFFFFFFFFFFFFFFFFFFFFFFF AND DUP3 PUSH20 0xFFFFFFFFFFFFFFFFFFFFFFFFFFFFFFFFFFFFFFFF AND SUB PUSH2 0x117C JUMPI PUSH1 0x40 MLOAD PUSH32 0x8C379A000000000000000000000000000000000000000000000000000000000 DUP2 MSTORE PUSH1 0x4 ADD PUSH2 0x1173 SWAP1 PUSH2 0x1E31 JUMP JUMPDEST PUSH1 0x40 MLOAD DUP1 SWAP2 SUB SWAP1 REVERT JUMPDEST DUP2 PUSH1 0x0 DUP1 PUSH2 0x100 EXP DUP2 SLOAD DUP2 PUSH20 0xFFFFFFFFFFFFFFFFFFFFFFFFFFFFFFFFFFFFFFFF MUL NOT AND SWAP1 DUP4 PUSH20 0xFFFFFFFFFFFFFFFFFFFFFFFFFFFFFFFFFFFFFFFF AND MUL OR SWAP1 SSTORE POP PUSH1 0x1 SWAP1 POP SWAP2 SWAP1 POP JUMP JUMPDEST PUSH1 0x0 CALLER DUP3 PUSH1 0x0 PUSH1 0x8 PUSH1 0x0 DUP5 PUSH20 0xFFFFFFFFFFFFFFFFFFFFFFFFFFFFFFFFFFFFFFFF AND PUSH20 0xFFFFFFFFFFFFFFFFFFFFFFFFFFFFFFFFFFFFFFFF AND DUP2 MSTORE PUSH1 0x20 ADD SWAP1 DUP2 MSTORE PUSH1 0x20 ADD PUSH1 0x0 KECCAK256 SLOAD SWAP1 POP DUP2 DUP2 LT ISZERO PUSH2 0x121A JUMPI PUSH1 0x0 DUP1 REVERT JUMPDEST DUP5 PUSH1 0x0 DUP2 GT PUSH2 0x1228 JUMPI PUSH1 0x0 DUP1 REVERT JUMPDEST PUSH1 0x5 SLOAD DUP2 GT ISZERO PUSH2 0x1237 JUMPI PUSH1 0x0 DUP1 REVERT JUMPDEST DUP6 PUSH1 0x8 PUSH1 0x0 CALLER PUSH20 0xFFFFFFFFFFFFFFFFFFFFFFFFFFFFFFFFFFFFFFFF AND PUSH20 0xFFFFFFFFFFFFFFFFFFFFFFFFFFFFFFFFFFFFFFFF AND DUP2 MSTORE PUSH1 0x20 ADD SWAP1 DUP2 MSTORE PUSH1 0x20 ADD PUSH1 0x0 KECCAK256 SLOAD PUSH2 0x1282 SWAP2 SWAP1 PUSH2 0x1B65 JUMP JUMPDEST PUSH1 0x8 PUSH1 0x0 CALLER PUSH20 0xFFFFFFFFFFFFFFFFFFFFFFFFFFFFFFFFFFFFFFFF AND PUSH20 0xFFFFFFFFFFFFFFFFFFFFFFFFFFFFFFFFFFFFFFFF AND DUP2 MSTORE PUSH1 0x20 ADD SWAP1 DUP2 MSTORE PUSH1 0x20 ADD PUSH1 0x0 KECCAK256 DUP2 SWAP1 SSTORE POP DUP6 PUSH1 0x8 PUSH1 0x0 DUP10 PUSH20 0xFFFFFFFFFFFFFFFFFFFFFFFFFFFFFFFFFFFFFFFF AND PUSH20 0xFFFFFFFFFFFFFFFFFFFFFFFFFFFFFFFFFFFFFFFF AND DUP2 MSTORE PUSH1 0x20 ADD SWAP1 DUP2 MSTORE PUSH1 0x20 ADD PUSH1 0x0 KECCAK256 SLOAD PUSH2 0x1310 SWAP2 SWAP1 PUSH2 0x1B99 JUMP JUMPDEST PUSH1 0x8 PUSH1 0x0 DUP10 PUSH20 0xFFFFFFFFFFFFFFFFFFFFFFFFFFFFFFFFFFFFFFFF AND PUSH20 0xFFFFFFFFFFFFFFFFFFFFFFFFFFFFFFFFFFFFFFFF AND DUP2 MSTORE PUSH1 0x20 ADD SWAP1 DUP2 MSTORE PUSH1 0x20 ADD PUSH1 0x0 KECCAK256 DUP2 SWAP1 SSTORE POP DUP7 PUSH20 0xFFFFFFFFFFFFFFFFFFFFFFFFFFFFFFFFFFFFFFFF AND CALLER PUSH20 0xFFFFFFFFFFFFFFFFFFFFFFFFFFFFFFFFFFFFFFFF AND PUSH32 0xDDF252AD1BE2C89B69C2B068FC378DAA952BA7F163C4A11628F55A4DF523B3EF DUP9 PUSH1 0x40 MLOAD PUSH2 0x13B0 SWAP2 SWAP1 PUSH2 0x1772 JUMP JUMPDEST PUSH1 0x40 MLOAD DUP1 SWAP2 SUB SWAP1 LOG3 PUSH1 0x1 SWAP5 POP POP POP POP POP SWAP3 SWAP2 POP POP JUMP JUMPDEST PUSH1 0x0 PUSH1 0x5 SLOAD SWAP1 POP SWAP1 JUMP JUMPDEST PUSH1 0x0 PUSH1 0x9 PUSH1 0x0 DUP5 PUSH20 0xFFFFFFFFFFFFFFFFFFFFFFFFFFFFFFFFFFFFFFFF AND PUSH20 0xFFFFFFFFFFFFFFFFFFFFFFFFFFFFFFFFFFFFFFFF AND DUP2 MSTORE PUSH1 0x20 ADD SWAP1 DUP2 MSTORE PUSH1 0x20 ADD PUSH1 0x0 KECCAK256 PUSH1 0x0 DUP4 PUSH20 0xFFFFFFFFFFFFFFFFFFFFFFFFFFFFFFFFFFFFFFFF AND PUSH20 0xFFFFFFFFFFFFFFFFFFFFFFFFFFFFFFFFFFFFFFFF AND DUP2 MSTORE PUSH1 0x20 ADD SWAP1 DUP2 MSTORE PUSH1 0x20 ADD PUSH1 0x0 KECCAK256 SLOAD SWAP1 POP SWAP3 SWAP2 POP POP JUMP JUMPDEST PUSH1 0x60 PUSH1 0x2 DUP1 SLOAD PUSH2 0x1466 SWAP1 PUSH2 0x1B05 JUMP JUMPDEST DUP1 PUSH1 0x1F ADD PUSH1 0x20 DUP1 SWAP2 DIV MUL PUSH1 0x20 ADD PUSH1 0x40 MLOAD SWAP1 DUP2 ADD PUSH1 0x40 MSTORE DUP1 SWAP3 SWAP2 SWAP1 DUP2 DUP2 MSTORE PUSH1 0x20 ADD DUP3 DUP1 SLOAD PUSH2 0x1492 SWAP1 PUSH2 0x1B05 JUMP JUMPDEST DUP1 ISZERO PUSH2 0x14DF JUMPI DUP1 PUSH1 0x1F LT PUSH2 0x14B4 JUMPI PUSH2 0x100 DUP1 DUP4 SLOAD DIV MUL DUP4 MSTORE SWAP2 PUSH1 0x20 ADD SWAP2 PUSH2 0x14DF JUMP JUMPDEST DUP3 ADD SWAP2 SWAP1 PUSH1 0x0 MSTORE PUSH1 0x20 PUSH1 0x0 KECCAK256 SWAP1 JUMPDEST DUP2 SLOAD DUP2 MSTORE SWAP1 PUSH1 0x1 ADD SWAP1 PUSH1 0x20 ADD DUP1 DUP4 GT PUSH2 0x14C2 JUMPI DUP3 SWAP1 SUB PUSH1 0x1F AND DUP3 ADD SWAP2 JUMPDEST POP POP POP POP POP SWAP1 POP SWAP1 JUMP JUMPDEST PUSH1 0x0 DUP1 PUSH1 0x0 SWAP1 SLOAD SWAP1 PUSH2 0x100 EXP SWAP1 DIV PUSH20 0xFFFFFFFFFFFFFFFFFFFFFFFFFFFFFFFFFFFFFFFF AND PUSH20 0xFFFFFFFFFFFFFFFFFFFFFFFFFFFFFFFFFFFFFFFF AND CALLER PUSH20 0xFFFFFFFFFFFFFFFFFFFFFFFFFFFFFFFFFFFFFFFF AND EQ PUSH2 0x157A JUMPI PUSH1 0x40 MLOAD PUSH32 0x8C379A000000000000000000000000000000000000000000000000000000000 DUP2 MSTORE PUSH1 0x4 ADD PUSH2 0x1571 SWAP1 PUSH2 0x1C3F JUMP JUMPDEST PUSH1 0x40 MLOAD DUP1 SWAP2 SUB SWAP1 REVERT JUMPDEST DUP2 PUSH1 0x7 SWAP1 DUP2 PUSH2 0x1589 SWAP2 SWAP1 PUSH2 0x1FF3 JUMP JUMPDEST POP PUSH1 0x1 SWAP1 POP SWAP2 SWAP1 POP JUMP JUMPDEST PUSH1 0x0 DUP2 MLOAD SWAP1 POP SWAP2 SWAP1 POP JUMP JUMPDEST PUSH1 0x0 DUP3 DUP3 MSTORE PUSH1 0x20 DUP3 ADD SWAP1 POP SWAP3 SWAP2 POP POP JUMP JUMPDEST PUSH1 0x0 JUMPDEST DUP4 DUP2 LT ISZERO PUSH2 0x15CD JUMPI DUP1 DUP3 ADD MLOAD DUP2 DUP5 ADD MSTORE PUSH1 0x20 DUP2 ADD SWAP1 POP PUSH2 0x15B2 JUMP JUMPDEST PUSH1 0x0 DUP5 DUP5 ADD MSTORE POP POP POP POP JUMP JUMPDEST PUSH1 0x0 PUSH1 0x1F NOT PUSH1 0x1F DUP4 ADD AND SWAP1 POP SWAP2 SWAP1 POP JUMP JUMPDEST PUSH1 0x0 PUSH2 0x15F5 DUP3 PUSH2 0x1593 JUMP JUMPDEST PUSH2 0x15FF DUP2 DUP6 PUSH2 0x159E JUMP JUMPDEST SWAP4 POP PUSH2 0x160F DUP2 DUP6 PUSH1 0x20 DUP7 ADD PUSH2 0x15AF JUMP JUMPDEST PUSH2 0x1618 DUP2 PUSH2 0x15D9 JUMP JUMPDEST DUP5 ADD SWAP2 POP POP SWAP3 SWAP2 POP POP JUMP JUMPDEST PUSH1 0x0 PUSH1 0x20 DUP3 ADD SWAP1 POP DUP2 DUP2 SUB PUSH1 0x0 DUP4 ADD MSTORE PUSH2 0x163D DUP2 DUP5 PUSH2 0x15EA JUMP JUMPDEST SWAP1 POP SWAP3 SWAP2 POP POP JUMP JUMPDEST PUSH1 0x0 PUSH1 0x40 MLOAD SWAP1 POP SWAP1 JUMP JUMPDEST PUSH1 0x0 DUP1 REVERT JUMPDEST PUSH1 0x0 DUP1 REVERT JUMPDEST PUSH1 0x0 PUSH20 0xFFFFFFFFFFFFFFFFFFFFFFFFFFFFFFFFFFFFFFFF DUP3 AND SWAP1 POP SWAP2 SWAP1 POP JUMP JUMPDEST PUSH1 0x0 PUSH2 0x1684 DUP3 PUSH2 0x1659 JUMP JUMPDEST SWAP1 POP SWAP2 SWAP1 POP JUMP JUMPDEST PUSH2 0x1694 DUP2 PUSH2 0x1679 JUMP JUMPDEST DUP2 EQ PUSH2 0x169F JUMPI PUSH1 0x0 DUP1 REVERT JUMPDEST POP JUMP JUMPDEST PUSH1 0x0 DUP2 CALLDATALOAD SWAP1 POP PUSH2 0x16B1 DUP2 PUSH2 0x168B JUMP JUMPDEST SWAP3 SWAP2 POP POP JUMP JUMPDEST PUSH1 0x0 DUP2 SWAP1 POP SWAP2 SWAP1 POP JUMP JUMPDEST PUSH2 0x16CA DUP2 PUSH2 0x16B7 JUMP JUMPDEST DUP2 EQ PUSH2 0x16D5 JUMPI PUSH1 0x0 DUP1 REVERT JUMPDEST POP JUMP JUMPDEST PUSH1 0x0 DUP2 CALLDATALOAD SWAP1 POP PUSH2 0x16E7 DUP2 PUSH2 0x16C1 JUMP JUMPDEST SWAP3 SWAP2 POP POP JUMP JUMPDEST PUSH1 0x0 DUP1 PUSH1 0x40 DUP4 DUP6 SUB SLT ISZERO PUSH2 0x1704 JUMPI PUSH2 0x1703 PUSH2 0x164F JUMP JUMPDEST JUMPDEST PUSH1 0x0 PUSH2 0x1712 DUP6 DUP3 DUP7 ADD PUSH2 0x16A2 JUMP JUMPDEST SWAP3 POP POP PUSH1 0x20 PUSH2 0x1723 DUP6 DUP3 DUP7 ADD PUSH2 0x16D8 JUMP JUMPDEST SWAP2 POP POP SWAP3 POP SWAP3 SWAP1 POP JUMP JUMPDEST PUSH1 0x0 DUP2 ISZERO ISZERO SWAP1 POP SWAP2 SWAP1 POP JUMP JUMPDEST PUSH2 0x1742 DUP2 PUSH2 0x172D JUMP JUMPDEST DUP3 MSTORE POP POP JUMP JUMPDEST PUSH1 0x0 PUSH1 0x20 DUP3 ADD SWAP1 POP PUSH2 0x175D PUSH1 0x0 DUP4 ADD DUP5 PUSH2 0x1739 JUMP JUMPDEST SWAP3 SWAP2 POP POP JUMP JUMPDEST PUSH2 0x176C DUP2 PUSH2 0x16B7 JUMP JUMPDEST DUP3 MSTORE POP POP JUMP JUMPDEST PUSH1 0x0 PUSH1 0x20 DUP3 ADD SWAP1 POP PUSH2 0x1787 PUSH1 0x0 DUP4 ADD DUP5 PUSH2 0x1763 JUMP JUMPDEST SWAP3 SWAP2 POP POP JUMP JUMPDEST PUSH2 0x1796 DUP2 PUSH2 0x1679 JUMP JUMPDEST DUP3 MSTORE POP POP JUMP JUMPDEST PUSH1 0x0 PUSH1 0x20 DUP3 ADD SWAP1 POP PUSH2 0x17B1 PUSH1 0x0 DUP4 ADD DUP5 PUSH2 0x178D JUMP JUMPDEST SWAP3 SWAP2 POP POP JUMP JUMPDEST PUSH1 0x0 DUP1 PUSH1 0x0 PUSH1 0x60 DUP5 DUP7 SUB SLT ISZERO PUSH2 0x17D0 JUMPI PUSH2 0x17CF PUSH2 0x164F JUMP JUMPDEST JUMPDEST PUSH1 0x0 PUSH2 0x17DE DUP7 DUP3 DUP8 ADD PUSH2 0x16A2 JUMP JUMPDEST SWAP4 POP POP PUSH1 0x20 PUSH2 0x17EF DUP7 DUP3 DUP8 ADD PUSH2 0x16A2 JUMP JUMPDEST SWAP3 POP POP PUSH1 0x40 PUSH2 0x1800 DUP7 DUP3 DUP8 ADD PUSH2 0x16D8 JUMP JUMPDEST SWAP2 POP POP SWAP3 POP SWAP3 POP SWAP3 JUMP JUMPDEST PUSH1 0x0 DUP2 SWAP1 POP SWAP2 SWAP1 POP JUMP JUMPDEST PUSH1 0x0 PUSH2 0x182F PUSH2 0x182A PUSH2 0x1825 DUP5 PUSH2 0x1659 JUMP JUMPDEST PUSH2 0x180A JUMP JUMPDEST PUSH2 0x1659 JUMP JUMPDEST SWAP1 POP SWAP2 SWAP1 POP JUMP JUMPDEST PUSH1 0x0 PUSH2 0x1841 DUP3 PUSH2 0x1814 JUMP JUMPDEST SWAP1 POP SWAP2 SWAP1 POP JUMP JUMPDEST PUSH1 0x0 PUSH2 0x1853 DUP3 PUSH2 0x1836 JUMP JUMPDEST SWAP1 POP SWAP2 SWAP1 POP JUMP JUMPDEST PUSH2 0x1863 DUP2 PUSH2 0x1848 JUMP JUMPDEST DUP3 MSTORE POP POP JUMP JUMPDEST PUSH1 0x0 PUSH1 0x20 DUP3 ADD SWAP1 POP PUSH2 0x187E PUSH1 0x0 DUP4 ADD DUP5 PUSH2 0x185A JUMP JUMPDEST SWAP3 SWAP2 POP POP JUMP JUMPDEST PUSH1 0x0 PUSH2 0xFFFF DUP3 AND SWAP1 POP SWAP2 SWAP1 POP JUMP JUMPDEST PUSH2 0x189B DUP2 PUSH2 0x1884 JUMP JUMPDEST DUP2 EQ PUSH2 0x18A6 JUMPI PUSH1 0x0 DUP1 REVERT JUMPDEST POP JUMP JUMPDEST PUSH1 0x0 DUP2 CALLDATALOAD SWAP1 POP PUSH2 0x18B8 DUP2 PUSH2 0x1892 JUMP JUMPDEST SWAP3 SWAP2 POP POP JUMP JUMPDEST PUSH1 0x0 PUSH1 0x20 DUP3 DUP5 SUB SLT ISZERO PUSH2 0x18D4 JUMPI PUSH2 0x18D3 PUSH2 0x164F JUMP JUMPDEST JUMPDEST PUSH1 0x0 PUSH2 0x18E2 DUP5 DUP3 DUP6 ADD PUSH2 0x18A9 JUMP JUMPDEST SWAP2 POP POP SWAP3 SWAP2 POP POP JUMP JUMPDEST PUSH1 0x0 PUSH1 0x20 DUP3 DUP5 SUB SLT ISZERO PUSH2 0x1901 JUMPI PUSH2 0x1900 PUSH2 0x164F JUMP JUMPDEST JUMPDEST PUSH1 0x0 PUSH2 0x190F DUP5 DUP3 DUP6 ADD PUSH2 0x16A2 JUMP JUMPDEST SWAP2 POP POP SWAP3 SWAP2 POP POP JUMP JUMPDEST PUSH1 0x0 DUP1 PUSH1 0x40 DUP4 DUP6 SUB SLT ISZERO PUSH2 0x192F JUMPI PUSH2 0x192E PUSH2 0x164F JUMP JUMPDEST JUMPDEST PUSH1 0x0 PUSH2 0x193D DUP6 DUP3 DUP7 ADD PUSH2 0x16A2 JUMP JUMPDEST SWAP3 POP POP PUSH1 0x20 PUSH2 0x194E DUP6 DUP3 DUP7 ADD PUSH2 0x16A2 JUMP JUMPDEST SWAP2 POP POP SWAP3 POP SWAP3 SWAP1 POP JUMP JUMPDEST PUSH1 0x0 DUP1 REVERT JUMPDEST PUSH1 0x0 DUP1 REVERT JUMPDEST PUSH32 0x4E487B7100000000000000000000000000000000000000000000000000000000 PUSH1 0x0 MSTORE PUSH1 0x41 PUSH1 0x4 MSTORE PUSH1 0x24 PUSH1 0x0 REVERT JUMPDEST PUSH2 0x199A DUP3 PUSH2 0x15D9 JUMP JUMPDEST DUP2 ADD DUP2 DUP2 LT PUSH8 0xFFFFFFFFFFFFFFFF DUP3 GT OR ISZERO PUSH2 0x19B9 JUMPI PUSH2 0x19B8 PUSH2 0x1962 JUMP JUMPDEST JUMPDEST DUP1 PUSH1 0x40 MSTORE POP POP POP JUMP JUMPDEST PUSH1 0x0 PUSH2 0x19CC PUSH2 0x1645 JUMP JUMPDEST SWAP1 POP PUSH2 0x19D8 DUP3 DUP3 PUSH2 0x1991 JUMP JUMPDEST SWAP2 SWAP1 POP JUMP JUMPDEST PUSH1 0x0 PUSH8 0xFFFFFFFFFFFFFFFF DUP3 GT ISZERO PUSH2 0x19F8 JUMPI PUSH2 0x19F7 PUSH2 0x1962 JUMP JUMPDEST JUMPDEST PUSH2 0x1A01 DUP3 PUSH2 0x15D9 JUMP JUMPDEST SWAP1 POP PUSH1 0x20 DUP2 ADD SWAP1 POP SWAP2 SWAP1 POP JUMP JUMPDEST DUP3 DUP2 DUP4 CALLDATACOPY PUSH1 0x0 DUP4 DUP4 ADD MSTORE POP POP POP JUMP JUMPDEST PUSH1 0x0 PUSH2 0x1A30 PUSH2 0x1A2B DUP5 PUSH2 0x19DD JUMP JUMPDEST PUSH2 0x19C2 JUMP JUMPDEST SWAP1 POP DUP3 DUP2 MSTORE PUSH1 0x20 DUP2 ADD DUP5 DUP5 DUP5 ADD GT ISZERO PUSH2 0x1A4C JUMPI PUSH2 0x1A4B PUSH2 0x195D JUMP JUMPDEST JUMPDEST PUSH2 0x1A57 DUP5 DUP3 DUP6 PUSH2 0x1A0E JUMP JUMPDEST POP SWAP4 SWAP3 POP POP POP JUMP JUMPDEST PUSH1 0x0 DUP3 PUSH1 0x1F DUP4 ADD SLT PUSH2 0x1A74 JUMPI PUSH2 0x1A73 PUSH2 0x1958 JUMP JUMPDEST JUMPDEST DUP2 CALLDATALOAD PUSH2 0x1A84 DUP5 DUP3 PUSH1 0x20 DUP7 ADD PUSH2 0x1A1D JUMP JUMPDEST SWAP2 POP POP SWAP3 SWAP2 POP POP JUMP JUMPDEST PUSH1 0x0 PUSH1 0x20 DUP3 DUP5 SUB SLT ISZERO PUSH2 0x1AA3 JUMPI PUSH2 0x1AA2 PUSH2 0x164F JUMP JUMPDEST JUMPDEST PUSH1 0x0 DUP3 ADD CALLDATALOAD PUSH8 0xFFFFFFFFFFFFFFFF DUP2 GT ISZERO PUSH2 0x1AC1 JUMPI PUSH2 0x1AC0 PUSH2 0x1654 JUMP JUMPDEST JUMPDEST PUSH2 0x1ACD DUP5 DUP3 DUP6 ADD PUSH2 0x1A5F JUMP JUMPDEST SWAP2 POP POP SWAP3 SWAP2 POP POP JUMP JUMPDEST PUSH32 0x4E487B7100000000000000000000000000000000000000000000000000000000 PUSH1 0x0 MSTORE PUSH1 0x22 PUSH1 0x4 MSTORE PUSH1 0x24 PUSH1 0x0 REVERT JUMPDEST PUSH1 0x0 PUSH1 0x2 DUP3 DIV SWAP1 POP PUSH1 0x1 DUP3 AND DUP1 PUSH2 0x1B1D JUMPI PUSH1 0x7F DUP3 AND SWAP2 POP JUMPDEST PUSH1 0x20 DUP3 LT DUP2 SUB PUSH2 0x1B30 JUMPI PUSH2 0x1B2F PUSH2 0x1AD6 JUMP JUMPDEST JUMPDEST POP SWAP2 SWAP1 POP JUMP JUMPDEST PUSH32 0x4E487B7100000000000000000000000000000000000000000000000000000000 PUSH1 0x0 MSTORE PUSH1 0x11 PUSH1 0x4 MSTORE PUSH1 0x24 PUSH1 0x0 REVERT JUMPDEST PUSH1 0x0 PUSH2 0x1B70 DUP3 PUSH2 0x16B7 JUMP JUMPDEST SWAP2 POP PUSH2 0x1B7B DUP4 PUSH2 0x16B7 JUMP JUMPDEST SWAP3 POP DUP3 DUP3 SUB SWAP1 POP DUP2 DUP2 GT ISZERO PUSH2 0x1B93 JUMPI PUSH2 0x1B92 PUSH2 0x1B36 JUMP JUMPDEST JUMPDEST SWAP3 SWAP2 POP POP JUMP JUMPDEST PUSH1 0x0 PUSH2 0x1BA4 DUP3 PUSH2 0x16B7 JUMP JUMPDEST SWAP2 POP PUSH2 0x1BAF DUP4 PUSH2 0x16B7 JUMP JUMPDEST SWAP3 POP DUP3 DUP3 ADD SWAP1 POP DUP1 DUP3 GT ISZERO PUSH2 0x1BC7 JUMPI PUSH2 0x1BC6 PUSH2 0x1B36 JUMP JUMPDEST JUMPDEST SWAP3 SWAP2 POP POP JUMP JUMPDEST PUSH32 0x6F6E6C79206F776E65722063616E20706572666F726D2074686973206F706572 PUSH1 0x0 DUP3 ADD MSTORE PUSH32 0x6174696F6E000000000000000000000000000000000000000000000000000000 PUSH1 0x20 DUP3 ADD MSTORE POP JUMP JUMPDEST PUSH1 0x0 PUSH2 0x1C29 PUSH1 0x25 DUP4 PUSH2 0x159E JUMP JUMPDEST SWAP2 POP PUSH2 0x1C34 DUP3 PUSH2 0x1BCD JUMP JUMPDEST PUSH1 0x40 DUP3 ADD SWAP1 POP SWAP2 SWAP1 POP JUMP JUMPDEST PUSH1 0x0 PUSH1 0x20 DUP3 ADD SWAP1 POP DUP2 DUP2 SUB PUSH1 0x0 DUP4 ADD MSTORE PUSH2 0x1C58 DUP2 PUSH2 0x1C1C JUMP JUMPDEST SWAP1 POP SWAP2 SWAP1 POP JUMP JUMPDEST PUSH32 0x45524332303A206D696E7420746F20746865207A65726F206164647265737300 PUSH1 0x0 DUP3 ADD MSTORE POP JUMP JUMPDEST PUSH1 0x0 PUSH2 0x1C95 PUSH1 0x1F DUP4 PUSH2 0x159E JUMP JUMPDEST SWAP2 POP PUSH2 0x1CA0 DUP3 PUSH2 0x1C5F JUMP JUMPDEST PUSH1 0x20 DUP3 ADD SWAP1 POP SWAP2 SWAP1 POP JUMP JUMPDEST PUSH1 0x0 PUSH1 0x20 DUP3 ADD SWAP1 POP DUP2 DUP2 SUB PUSH1 0x0 DUP4 ADD MSTORE PUSH2 0x1CC4 DUP2 PUSH2 0x1C88 JUMP JUMPDEST SWAP1 POP SWAP2 SWAP1 POP JUMP JUMPDEST PUSH1 0x0 PUSH2 0x1CD6 DUP3 PUSH2 0x16B7 JUMP JUMPDEST SWAP2 POP PUSH2 0x1CE1 DUP4 PUSH2 0x16B7 JUMP JUMPDEST SWAP3 POP DUP3 DUP3 MUL PUSH2 0x1CEF DUP2 PUSH2 0x16B7 JUMP JUMPDEST SWAP2 POP DUP3 DUP3 DIV DUP5 EQ DUP4 ISZERO OR PUSH2 0x1D06 JUMPI PUSH2 0x1D05 PUSH2 0x1B36 JUMP JUMPDEST JUMPDEST POP SWAP3 SWAP2 POP POP JUMP JUMPDEST PUSH32 0x6E756D65726F20646520667261636F657320626169786F000000000000000000 PUSH1 0x0 DUP3 ADD MSTORE POP JUMP JUMPDEST PUSH1 0x0 PUSH2 0x1D43 PUSH1 0x17 DUP4 PUSH2 0x159E JUMP JUMPDEST SWAP2 POP PUSH2 0x1D4E DUP3 PUSH2 0x1D0D JUMP JUMPDEST PUSH1 0x20 DUP3 ADD SWAP1 POP SWAP2 SWAP1 POP JUMP JUMPDEST PUSH1 0x0 PUSH1 0x20 DUP3 ADD SWAP1 POP DUP2 DUP2 SUB PUSH1 0x0 DUP4 ADD MSTORE PUSH2 0x1D72 DUP2 PUSH2 0x1D36 JUMP JUMPDEST SWAP1 POP SWAP2 SWAP1 POP JUMP JUMPDEST PUSH32 0x45524332303A206275726E2066726F6D20616464726573730000000000000000 PUSH1 0x0 DUP3 ADD MSTORE POP JUMP JUMPDEST PUSH1 0x0 PUSH2 0x1DAF PUSH1 0x18 DUP4 PUSH2 0x159E JUMP JUMPDEST SWAP2 POP PUSH2 0x1DBA DUP3 PUSH2 0x1D79 JUMP JUMPDEST PUSH1 0x20 DUP3 ADD SWAP1 POP SWAP2 SWAP1 POP JUMP JUMPDEST PUSH1 0x0 PUSH1 0x20 DUP3 ADD SWAP1 POP DUP2 DUP2 SUB PUSH1 0x0 DUP4 ADD MSTORE PUSH2 0x1DDE DUP2 PUSH2 0x1DA2 JUMP JUMPDEST SWAP1 POP SWAP2 SWAP1 POP JUMP JUMPDEST PUSH32 0x6F6E6C792076616C696420616464726573730000000000000000000000000000 PUSH1 0x0 DUP3 ADD MSTORE POP JUMP JUMPDEST PUSH1 0x0 PUSH2 0x1E1B PUSH1 0x12 DUP4 PUSH2 0x159E JUMP JUMPDEST SWAP2 POP PUSH2 0x1E26 DUP3 PUSH2 0x1DE5 JUMP JUMPDEST PUSH1 0x20 DUP3 ADD SWAP1 POP SWAP2 SWAP1 POP JUMP JUMPDEST PUSH1 0x0 PUSH1 0x20 DUP3 ADD SWAP1 POP DUP2 DUP2 SUB PUSH1 0x0 DUP4 ADD MSTORE PUSH2 0x1E4A DUP2 PUSH2 0x1E0E JUMP JUMPDEST SWAP1 POP SWAP2 SWAP1 POP JUMP JUMPDEST PUSH1 0x0 DUP2 SWAP1 POP DUP2 PUSH1 0x0 MSTORE PUSH1 0x20 PUSH1 0x0 KECCAK256 SWAP1 POP SWAP2 SWAP1 POP JUMP JUMPDEST PUSH1 0x0 PUSH1 0x20 PUSH1 0x1F DUP4 ADD DIV SWAP1 POP SWAP2 SWAP1 POP JUMP JUMPDEST PUSH1 0x0 DUP3 DUP3 SHL SWAP1 POP SWAP3 SWAP2 POP POP JUMP JUMPDEST PUSH1 0x0 PUSH1 0x8 DUP4 MUL PUSH2 0x1EB3 PUSH32 0xFFFFFFFFFFFFFFFFFFFFFFFFFFFFFFFFFFFFFFFFFFFFFFFFFFFFFFFFFFFFFFFF DUP3 PUSH2 0x1E76 JUMP JUMPDEST PUSH2 0x1EBD DUP7 DUP4 PUSH2 0x1E76 JUMP JUMPDEST SWAP6 POP DUP1 NOT DUP5 AND SWAP4 POP DUP1 DUP7 AND DUP5 OR SWAP3 POP POP POP SWAP4 SWAP3 POP POP POP JUMP JUMPDEST PUSH1 0x0 PUSH2 0x1EF0 PUSH2 0x1EEB PUSH2 0x1EE6 DUP5 PUSH2 0x16B7 JUMP JUMPDEST PUSH2 0x180A JUMP JUMPDEST PUSH2 0x16B7 JUMP JUMPDEST SWAP1 POP SWAP2 SWAP1 POP JUMP JUMPDEST PUSH1 0x0 DUP2 SWAP1 POP SWAP2 SWAP1 POP JUMP JUMPDEST PUSH2 0x1F0A DUP4 PUSH2 0x1ED5 JUMP JUMPDEST PUSH2 0x1F1E PUSH2 0x1F16 DUP3 PUSH2 0x1EF7 JUMP JUMPDEST DUP5 DUP5 SLOAD PUSH2 0x1E83 JUMP JUMPDEST DUP3 SSTORE POP POP POP POP JUMP JUMPDEST PUSH1 0x0 SWAP1 JUMP JUMPDEST PUSH2 0x1F33 PUSH2 0x1F26 JUMP JUMPDEST PUSH2 0x1F3E DUP2 DUP5 DUP5 PUSH2 0x1F01 JUMP JUMPDEST POP POP POP JUMP JUMPDEST JUMPDEST DUP2 DUP2 LT ISZERO PUSH2 0x1F62 JUMPI PUSH2 0x1F57 PUSH1 0x0 DUP3 PUSH2 0x1F2B JUMP JUMPDEST PUSH1 0x1 DUP2 ADD SWAP1 POP PUSH2 0x1F44 JUMP JUMPDEST POP POP JUMP JUMPDEST PUSH1 0x1F DUP3 GT ISZERO PUSH2 0x1FA7 JUMPI PUSH2 0x1F78 DUP2 PUSH2 0x1E51 JUMP JUMPDEST PUSH2 0x1F81 DUP5 PUSH2 0x1E66 JUMP JUMPDEST DUP2 ADD PUSH1 0x20 DUP6 LT ISZERO PUSH2 0x1F90 JUMPI DUP2 SWAP1 POP JUMPDEST PUSH2 0x1FA4 PUSH2 0x1F9C DUP6 PUSH2 0x1E66 JUMP JUMPDEST DUP4 ADD DUP3 PUSH2 0x1F43 JUMP JUMPDEST POP POP JUMPDEST POP POP POP JUMP JUMPDEST PUSH1 0x0 DUP3 DUP3 SHR SWAP1 POP SWAP3 SWAP2 POP POP JUMP JUMPDEST PUSH1 0x0 PUSH2 0x1FCA PUSH1 0x0 NOT DUP5 PUSH1 0x8 MUL PUSH2 0x1FAC JUMP JUMPDEST NOT DUP1 DUP4 AND SWAP2 POP POP SWAP3 SWAP2 POP POP JUMP JUMPDEST PUSH1 0x0 PUSH2 0x1FE3 DUP4 DUP4 PUSH2 0x1FB9 JUMP JUMPDEST SWAP2 POP DUP3 PUSH1 0x2 MUL DUP3 OR SWAP1 POP SWAP3 SWAP2 POP POP JUMP JUMPDEST PUSH2 0x1FFC DUP3 PUSH2 0x1593 JUMP JUMPDEST PUSH8 0xFFFFFFFFFFFFFFFF DUP2 GT ISZERO PUSH2 0x2015 JUMPI PUSH2 0x2014 PUSH2 0x1962 JUMP JUMPDEST JUMPDEST PUSH2 0x201F DUP3 SLOAD PUSH2 0x1B05 JUMP JUMPDEST PUSH2 0x202A DUP3 DUP3 DUP6 PUSH2 0x1F66 JUMP JUMPDEST PUSH1 0x0 PUSH1 0x20 SWAP1 POP PUSH1 0x1F DUP4 GT PUSH1 0x1 DUP2 EQ PUSH2 0x205D JUMPI PUSH1 0x0 DUP5 ISZERO PUSH2 0x204B JUMPI DUP3 DUP8 ADD MLOAD SWAP1 POP JUMPDEST PUSH2 0x2055 DUP6 DUP3 PUSH2 0x1FD7 JUMP JUMPDEST DUP7 SSTORE POP PUSH2 0x20BD JUMP JUMPDEST PUSH1 0x1F NOT DUP5 AND PUSH2 0x206B DUP7 PUSH2 0x1E51 JUMP JUMPDEST PUSH1 0x0 JUMPDEST DUP3 DUP2 LT ISZERO PUSH2 0x2093 JUMPI DUP5 DUP10 ADD MLOAD DUP3 SSTORE PUSH1 0x1 DUP3 ADD SWAP2 POP PUSH1 0x20 DUP6 ADD SWAP5 POP PUSH1 0x20 DUP2 ADD SWAP1 POP PUSH2 0x206E JUMP JUMPDEST DUP7 DUP4 LT ISZERO PUSH2 0x20B0 JUMPI DUP5 DUP10 ADD MLOAD PUSH2 0x20AC PUSH1 0x1F DUP10 AND DUP3 PUSH2 0x1FB9 JUMP JUMPDEST DUP4 SSTORE POP JUMPDEST PUSH1 0x1 PUSH1 0x2 DUP9 MUL ADD DUP9 SSTORE POP POP POP JUMPDEST POP POP POP POP POP POP JUMP INVALID LOG2 PUSH5 0x6970667358 0x22 SLT KECCAK256 PUSH26 0xF87B9C17EE26BCAAD1879E6B8AF31908B2FCE269F2758A625EFA 0xCA 0xF7 SWAP6 MULMOD PUSH9 0x64736F6C6343000813 STOP CALLER "
				},
				"gasEstimates": {
					"creation": {
						"codeDepositCost": "1688600",
						"executionCost": "infinite",
						"totalCost": "infinite"
					},
					"external": {
						"allowance(address,address)": "infinite",
						"alteraFracoes(uint16)": "24959",
						"approve(address,uint256)": "infinite",
						"balanceOf(address)": "2886",
						"burn(address,uint256)": "infinite",
						"changeOwner(address)": "27151",
						"dataEmissao()": "infinite",
						"decimals()": "2452",
						"detalhesDoTitulo()": "infinite",
						"fracoes()": "2503",
						"mint(address,uint256)": "infinite",
						"mudaRating(string)": "infinite",
						"name()": "infinite",
						"nomeEmissor()": "infinite",
						"rating()": "infinite",
						"symbol()": "infinite",
						"totalSupply()": "2505",
						"transfer(address,uint256)": "infinite",
						"transferFrom(address,address,uint256)": "infinite",
						"valorNominal()": "infinite",
						"whoIsTheOwner()": "2612"
					}
				},
				"methodIdentifiers": {
					"allowance(address,address)": "dd62ed3e",
					"alteraFracoes(uint16)": "649d9bb4",
					"approve(address,uint256)": "095ea7b3",
					"balanceOf(address)": "70a08231",
					"burn(address,uint256)": "9dc29fac",
					"changeOwner(address)": "a6f9dae1",
					"dataEmissao()": "51f48cbb",
					"decimals()": "313ce567",
					"detalhesDoTitulo()": "4efeabbf",
					"fracoes()": "ae1457c2",
					"mint(address,uint256)": "40c10f19",
					"mudaRating(string)": "fe10215c",
					"name()": "06fdde03",
					"nomeEmissor()": "fa36ed8c",
					"rating()": "80f474f6",
					"symbol()": "95d89b41",
					"totalSupply()": "18160ddd",
					"transfer(address,uint256)": "a9059cbb",
					"transferFrom(address,address,uint256)": "23b872dd",
					"valorNominal()": "36e69b22",
					"whoIsTheOwner()": "220f52c5"
				}
			},
			"storageLayout": {
				"storage": [
					{
						"astId": 107,
						"contract": "token/token_debenture.sol:DebentureQuaseNada",
						"label": "contractOwner",
						"offset": 0,
						"slot": "0",
						"type": "t_address_payable"
					},
					{
						"astId": 182,
						"contract": "token/token_debenture.sol:DebentureQuaseNada",
						"label": "_prazoPagamento",
						"offset": 0,
						"slot": "1",
						"type": "t_uint256"
					},
					{
						"astId": 184,
						"contract": "token/token_debenture.sol:DebentureQuaseNada",
						"label": "myName",
						"offset": 0,
						"slot": "2",
						"type": "t_string_storage"
					},
					{
						"astId": 186,
						"contract": "token/token_debenture.sol:DebentureQuaseNada",
						"label": "mySymbol",
						"offset": 0,
						"slot": "3",
						"type": "t_string_storage"
					},
					{
						"astId": 188,
						"contract": "token/token_debenture.sol:DebentureQuaseNada",
						"label": "decimals",
						"offset": 0,
						"slot": "4",
						"type": "t_uint256"
					},
					{
						"astId": 193,
						"contract": "token/token_debenture.sol:DebentureQuaseNada",
						"label": "_fracoes",
						"offset": 0,
						"slot": "5",
						"type": "t_uint256"
					},
					{
						"astId": 195,
						"contract": "token/token_debenture.sol:DebentureQuaseNada",
						"label": "_vlrTotalEstoque",
						"offset": 0,
						"slot": "6",
						"type": "t_uint256"
					},
					{
						"astId": 197,
						"contract": "token/token_debenture.sol:DebentureQuaseNada",
						"label": "_rating",
						"offset": 0,
						"slot": "7",
						"type": "t_string_storage"
					},
					{
						"astId": 201,
						"contract": "token/token_debenture.sol:DebentureQuaseNada",
						"label": "balances",
						"offset": 0,
						"slot": "8",
						"type": "t_mapping(t_address,t_uint256)"
					},
					{
						"astId": 207,
						"contract": "token/token_debenture.sol:DebentureQuaseNada",
						"label": "ownerAllowances",
						"offset": 0,
						"slot": "9",
						"type": "t_mapping(t_address,t_mapping(t_address,t_uint256))"
					}
				],
				"types": {
					"t_address": {
						"encoding": "inplace",
						"label": "address",
						"numberOfBytes": "20"
					},
					"t_address_payable": {
						"encoding": "inplace",
						"label": "address payable",
						"numberOfBytes": "20"
					},
					"t_mapping(t_address,t_mapping(t_address,t_uint256))": {
						"encoding": "mapping",
						"key": "t_address",
						"label": "mapping(address => mapping(address => uint256))",
						"numberOfBytes": "32",
						"value": "t_mapping(t_address,t_uint256)"
					},
					"t_mapping(t_address,t_uint256)": {
						"encoding": "mapping",
						"key": "t_address",
						"label": "mapping(address => uint256)",
						"numberOfBytes": "32",
						"value": "t_uint256"
					},
					"t_string_storage": {
						"encoding": "bytes",
						"label": "string",
						"numberOfBytes": "32"
					},
					"t_uint256": {
						"encoding": "inplace",
						"label": "uint256",
						"numberOfBytes": "32"
					}
				}
			},
			"userdoc": {
				"kind": "user",
				"methods": {
					"fracoes()": {
						"notice": "informa o numero de fracoes da debenture"
					},
					"mudaRating(string)": {
						"notice": "dependendo da situacao economica a empresa avaliadora pode mudar o rating"
					}
				},
				"version": 1
			}
		}
	}
}